{
	"data": {
		"bytecode": {
			"linkReferences": {},
			"object": "6101606040523480156200001257600080fd5b50604051620045fa380380620045fa8339810160408190526200003591620007f9565b806004836001600f60006040518060400160405280600a81526020016926bca3b7bb32b93737b960b11b81525080620000736200017460201b60201c565b815160208084019190912082518383012060e08290526101008190524660a0818152604080517f8b73c3c69bb8fe3d512ecc4cf759cc79239f7b179b0ffacaa9a75d522b39400f81880181905281830187905260608201869052608082019490945230818401528151808203909301835260c00190528051940193909320919290916080523060601b60c05261012052505082516200011c92506000915060208401906200075d565b506200012a9050836200018f565b6200013582620001d0565b620001408162000277565b50505060601b6001600160601b031916610140526200015f81620002b8565b506200016b8162000430565b505050620008ca565b6040805180820190915260018152603160f81b602082015290565b60045460408051918252602082018390527fc565b045403dc03c2eea82b81a0465edad9e2e7fc4d97e11421c209da93d7a93910160405180910390a1600455565b60008111620002365760405162461bcd60e51b815260206004820152602760248201527f476f7665726e6f7253657474696e67733a20766f74696e6720706572696f6420604482015266746f6f206c6f7760c81b60648201526084015b60405180910390fd5b60055460408051918252602082018390527f7e3f7f0708a84de9203036abaa450dccc85ad5ff52f78c170f3edb55cf5e8828910160405180910390a1600555565b60065460408051918252602082018390527fccb45da8d5717e6c4544694297c4ba5cf151d455c9bb0ed4fc7a38411bc05461910160405180910390a1600655565b60648111156200033d5760405162461bcd60e51b815260206004820152604360248201527f476f7665726e6f72566f74657351756f72756d4672616374696f6e3a2071756f60448201527f72756d4e756d657261746f72206f7665722071756f72756d44656e6f6d696e616064820152623a37b960e91b608482015260a4016200022d565b60006200034962000499565b905080158015906200035b5750600954155b15620003d65760096000016040518060400160405280600063ffffffff1681526020016200039484620004c860201b620014a71760201c565b6001600160e01b0390811690915282546001810184556000938452602093849020835194909301519091166401000000000263ffffffff909316929092179101555b620003f18260096200053760201b620015141790919060201c565b505060408051828152602081018490527f0553476bf02ef2726e8ce5ced78d63e26e602e4a2257b1f559418e24b4633997910160405180910390a15050565b600a54604080516001600160a01b03928316815291831660208301527f08f74ea46ef7894f65eabfb5e6e695de773a000b47c529ab559178069b226401910160405180910390a1600a80546001600160a01b0319166001600160a01b0392909216919091179055565b60095460009015620004c157620004bc60096200069360201b6200163f1760201c565b905090565b5060085490565b60006001600160e01b03821115620005335760405162461bcd60e51b815260206004820152602760248201527f53616665436173743a2076616c756520646f65736e27742066697420696e20326044820152663234206269747360c81b60648201526084016200022d565b5090565b81546000908190816200054a8662000693565b90506000821180156200058e575043866200056760018562000838565b815481106200057a576200057a6200089b565b60009182526020909120015463ffffffff16145b156200060257620005aa85620004c860201b620014a71760201c565b86620005b860018562000838565b81548110620005cb57620005cb6200089b565b9060005260206000200160000160046101000a8154816001600160e01b0302191690836001600160e01b031602179055506200068a565b8560000160405180604001604052806200062743620006f660201b6200169b1760201c565b63ffffffff1681526020016200064888620004c860201b620014a71760201c565b6001600160e01b0390811690915282546001810184556000938452602093849020835194909301519091166401000000000263ffffffff909316929092179101555b95939450505050565b80546000908015620006e35782620006ad60018362000838565b81548110620006c057620006c06200089b565b60009182526020909120015464010000000090046001600160e01b0316620006e6565b60005b6001600160e01b03169392505050565b600063ffffffff821115620005335760405162461bcd60e51b815260206004820152602660248201527f53616665436173743a2076616c756520646f65736e27742066697420696e203360448201526532206269747360d01b60648201526084016200022d565b8280546200076b906200085e565b90600052602060002090601f0160209004810192826200078f5760008555620007da565b82601f10620007aa57805160ff1916838001178555620007da565b82800160010185558215620007da579182015b82811115620007da578251825591602001919060010190620007bd565b50620005339291505b80821115620005335760008155600101620007e3565b600080604083850312156200080d57600080fd5b82516200081a81620008b1565b60208401519092506200082d81620008b1565b809150509250929050565b6000828210156200085957634e487b7160e01b600052601160045260246000fd5b500390565b600181811c908216806200087357607f821691505b602082108114156200089557634e487b7160e01b600052602260045260246000fd5b50919050565b634e487b7160e01b600052603260045260246000fd5b6001600160a01b0381168114620008c757600080fd5b50565b60805160a05160c05160601c60e05161010051610120516101405160601c613cc162000939600039600081816108760152818161217f015261238f0152600061251a01526000612569015260006125440152600061249d015260006124c7015260006124f10152613cc16000f3fe60806040526004361061024a5760003560e01c80637b3c71d311610139578063c28bc2fa116100b6578063ea0217cf1161007a578063ea0217cf146107b8578063eb9019d4146107d8578063ece40cc1146107f8578063f23a6e6114610818578063f8ce560a14610844578063fc0c546a1461086457600080fd5b8063c28bc2fa146106cc578063c59057e4146106ec578063d33219b41461070c578063dd4e2ba51461073e578063deaaa7cc1461078457600080fd5b8063a890c910116100fd578063a890c9101461062b578063ab58fb8e1461064b578063b58131b01461066b578063bc197c8114610680578063c01f9e37146106ac57600080fd5b80637b3c71d3146105a25780637d5e81e2146105c257806397c3d334146105e25780639a802a6d146105f6578063a7713a701461061657600080fd5b80633932abb1116101c757806354fd4d501161018b57806354fd4d50146104f857806356781388146105225780635f398a141461054257806360c4247f1461056257806370b0f6601461058257600080fd5b80633932abb1146103f75780633bccf4fd1461040c5780633e4f49e61461042c5780634385963214610459578063544ffc9c146104a357600080fd5b8063150b7a021161020e578063150b7a021461032c578063160cbed7146103705780632656227d146103905780632d63f693146103a35780632fe3e261146103c357600080fd5b806301ffc9a71461027257806302a251a3146102a757806303420181146102ca57806306f3f9e6146102ea57806306fdde031461030a57600080fd5b3661026d5730610258610898565b6001600160a01b03161461026b57600080fd5b005b600080fd5b34801561027e57600080fd5b5061029261028d3660046133d4565b6108b1565b60405190151581526020015b60405180910390f35b3480156102b357600080fd5b506102bc6108c2565b60405190815260200161029e565b3480156102d657600080fd5b506102bc6102e536600461353a565b6108cd565b3480156102f657600080fd5b5061026b61030536600461341b565b6109c5565b34801561031657600080fd5b5061031f610a5d565b60405161029e9190613858565b34801561033857600080fd5b506103576103473660046130a4565b630a85bd0160e11b949350505050565b6040516001600160e01b0319909116815260200161029e565b34801561037c57600080fd5b506102bc61038b366004613256565b610aef565b6102bc61039e366004613256565b610d0d565b3480156103af57600080fd5b506102bc6103be36600461341b565b610dfa565b3480156103cf57600080fd5b506102bc7fb3b3f3b703cd84ce352197dcff232b1b5d3cfb2025ce47cf04742d0651f1af8881565b34801561040357600080fd5b506102bc610e31565b34801561041857600080fd5b506102bc6104273660046135e0565b610e3c565b34801561043857600080fd5b5061044c61044736600461341b565b610eb2565b60405161029e9190613830565b34801561046557600080fd5b50610292610474366004613434565b60008281526007602090815260408083206001600160a01b038516845260030190915290205460ff1692915050565b3480156104af57600080fd5b506104dd6104be36600461341b565b6000908152600760205260409020805460018201546002909201549092565b6040805193845260208401929092529082015260600161029e565b34801561050457600080fd5b506040805180820190915260018152603160f81b602082015261031f565b34801561052e57600080fd5b506102bc61053d366004613464565b610ebd565b34801561054e57600080fd5b506102bc61055d3660046134d1565b610ee6565b34801561056e57600080fd5b506102bc61057d36600461341b565b610f30565b34801561058e57600080fd5b5061026b61059d36600461341b565b610fc6565b3480156105ae57600080fd5b506102bc6105bd366004613490565b611052565b3480156105ce57600080fd5b506102bc6105dd3660046132e5565b6110a4565b3480156105ee57600080fd5b5060646102bc565b34801561060257600080fd5b506102bc6106113660046131fe565b6110bb565b34801561062257600080fd5b506102bc6110d2565b34801561063757600080fd5b5061026b6106463660046133fe565b6110ee565b34801561065757600080fd5b506102bc61066636600461341b565b61117a565b34801561067757600080fd5b506102bc611223565b34801561068c57600080fd5b5061035761069b366004612ff7565b63bc197c8160e01b95945050505050565b3480156106b857600080fd5b506102bc6106c736600461341b565b61122e565b3480156106d857600080fd5b5061026b6106e73660046131a3565b61125d565b3480156106f857600080fd5b506102bc610707366004613256565b611329565b34801561071857600080fd5b50600a546001600160a01b03165b6040516001600160a01b03909116815260200161029e565b34801561074a57600080fd5b506040805180820190915260208082527f737570706f72743d627261766f2671756f72756d3d666f722c6162737461696e9082015261031f565b34801561079057600080fd5b506102bc7f150214d74d59b7d1e90c73fc22ef3d991dd0a76b046543d4d80ab92d2a50328f81565b3480156107c457600080fd5b5061026b6107d336600461341b565b611363565b3480156107e457600080fd5b506102bc6107f3366004613177565b6113ef565b34801561080457600080fd5b5061026b61081336600461341b565b611410565b34801561082457600080fd5b5061035761083336600461310f565b63f23a6e6160e01b95945050505050565b34801561085057600080fd5b506102bc61085f36600461341b565b61149c565b34801561087057600080fd5b506107267f000000000000000000000000000000000000000000000000000000000000000081565b60006108ac600a546001600160a01b031690565b905090565b60006108bc82611700565b92915050565b60006108ac60055490565b6000806109716109697fb3b3f3b703cd84ce352197dcff232b1b5d3cfb2025ce47cf04742d0651f1af888c8c8c8c604051610909929190613713565b60405180910390208b8051906020012060405160200161094e959493929190948552602085019390935260ff9190911660408401526060830152608082015260a00190565b60405160208183030381529060405280519060200120611725565b868686611773565b90506109b78a828b8b8b8080601f0160208091040260200160405190810160405280939291908181526020018383808284376000920191909152508d9250611791915050565b9a9950505050505050505050565b6109cd610898565b6001600160a01b0316336001600160a01b031614610a065760405162461bcd60e51b81526004016109fd9061386b565b60405180910390fd5b30610a0f610898565b6001600160a01b031614610a515760008036604051610a2f929190613713565b604051809103902090505b80610a4560026118f3565b14610a4f57610a3a565b505b610a5a8161197f565b50565b606060008054610a6c90613b9f565b80601f0160208091040260200160405190810160405280929190818152602001828054610a9890613b9f565b8015610ae55780601f10610aba57610100808354040283529160200191610ae5565b820191906000526020600020905b815481529060010190602001808311610ac857829003601f168201915b5050505050905090565b600080610afe86868686611329565b90506004610b0b82610eb2565b6007811115610b1c57610b1c613c0b565b14610b395760405162461bcd60e51b81526004016109fd906138e3565b600a546040805163793d064960e11b815290516000926001600160a01b03169163f27a0c92916004808301926020929190829003018186803b158015610b7e57600080fd5b505afa158015610b92573d6000803e3d6000fd5b505050506040513d601f19601f82011682018060405250810190610bb691906133bb565b600a5460405163b1c5f42760e01b81529192506001600160a01b03169063b1c5f42790610bf0908a908a908a906000908b9060040161378a565b60206040518083038186803b158015610c0857600080fd5b505afa158015610c1c573d6000803e3d6000fd5b505050506040513d601f19601f82011682018060405250810190610c4091906133bb565b6000838152600b602052604080822092909255600a5491516308f2a0bb60e41b81526001600160a01b0390921691638f2a0bb091610c8b918b918b918b91908b9089906004016137d8565b600060405180830381600087803b158015610ca557600080fd5b505af1158015610cb9573d6000803e3d6000fd5b505050507f9a2e42fd6722813d69113e7d0079d3d940171428df7373df9c7f7617cfda2892828242610ceb9190613ad4565b6040805192835260208301919091520160405180910390a15095945050505050565b600080610d1c86868686611329565b90506000610d2982610eb2565b90506004816007811115610d3f57610d3f613c0b565b1480610d5c57506005816007811115610d5a57610d5a613c0b565b145b610d785760405162461bcd60e51b81526004016109fd906138e3565b600082815260016020818152604092839020600201805460ff191690921790915590518381527f712ae1383f79ac853f8d882153778e0260ef8f03b504e2866e0593e04d2b291f910160405180910390a1610dd68288888888611acc565b610de38288888888611b6e565b610df08288888888611b7b565b5095945050505050565b60008181526001602090815260408083208151928301909152546001600160401b0316908190525b6001600160401b031692915050565b60006108ac60045490565b604080517f150214d74d59b7d1e90c73fc22ef3d991dd0a76b046543d4d80ab92d2a50328f602082015290810186905260ff851660608201526000908190610e8a906109699060800161094e565b9050610ea787828860405180602001604052806000815250611bb8565b979650505050505050565b60006108bc82611bdb565b600080339050610ede84828560405180602001604052806000815250611bb8565b949350505050565b600080339050610ea787828888888080601f0160208091040260200160405190810160405280939291908181526020018383808284376000920191909152508a9250611791915050565b60095460009080610f45575050600854919050565b60006009610f54600184613b58565b81548110610f6457610f64613c21565b60009182526020918290206040805180820190915291015463ffffffff81168083526401000000009091046001600160e01b03169282019290925291508410610fbb57602001516001600160e01b03169392505050565b610ede600985611d43565b610fce610898565b6001600160a01b0316336001600160a01b031614610ffe5760405162461bcd60e51b81526004016109fd9061386b565b30611007610898565b6001600160a01b0316146110495760008036604051611027929190613713565b604051809103902090505b8061103d60026118f3565b1461104757611032565b505b610a5a81611e52565b60008033905061109a86828787878080601f016020809104026020016040519081016040528093929190818152602001838380828437600092019190915250611bb892505050565b9695505050505050565b60006110b285858585611e93565b95945050505050565b60006110c8848484612156565b90505b9392505050565b600954600090156110e7576108ac600961163f565b5060085490565b6110f6610898565b6001600160a01b0316336001600160a01b0316146111265760405162461bcd60e51b81526004016109fd9061386b565b3061112f610898565b6001600160a01b031614611171576000803660405161114f929190613713565b604051809103902090505b8061116560026118f3565b1461116f5761115a565b505b610a5a816121fb565b600a546000828152600b602052604080822054905163d45c443560e01b81526004810191909152909182916001600160a01b039091169063d45c44359060240160206040518083038186803b1580156111d257600080fd5b505afa1580156111e6573d6000803e3d6000fd5b505050506040513d601f19601f8201168201806040525081019061120a91906133bb565b90508060011461121a57806110cb565b60009392505050565b60006108ac60065490565b60008181526001602081815260408084208151928301909152909101546001600160401b031690819052610e22565b611265610898565b6001600160a01b0316336001600160a01b0316146112955760405162461bcd60e51b81526004016109fd9061386b565b3061129e610898565b6001600160a01b0316146112e057600080366040516112be929190613713565b604051809103902090505b806112d460026118f3565b146112de576112c9565b505b6113228483838080601f016020809104026020016040519081016040528093929190818152602001838380828437600092019190915250889250612264915050565b5050505050565b600084848484604051602001611342949392919061373f565b60408051601f19818403018152919052805160209091012095945050505050565b61136b610898565b6001600160a01b0316336001600160a01b03161461139b5760405162461bcd60e51b81526004016109fd9061386b565b306113a4610898565b6001600160a01b0316146113e657600080366040516113c4929190613713565b604051809103902090505b806113da60026118f3565b146113e4576113cf565b505b610a5a8161228a565b60006110cb838361140b60408051602081019091526000815290565b612156565b611418610898565b6001600160a01b0316336001600160a01b0316146114485760405162461bcd60e51b81526004016109fd9061386b565b30611451610898565b6001600160a01b0316146114935760008036604051611471929190613713565b604051809103902090505b8061148760026118f3565b146114915761147c565b505b610a5a8161232b565b60006108bc8261236c565b60006001600160e01b038211156115105760405162461bcd60e51b815260206004820152602760248201527f53616665436173743a2076616c756520646f65736e27742066697420696e20326044820152663234206269747360c81b60648201526084016109fd565b5090565b81546000908190816115258661163f565b90506000821180156115635750438661153f600185613b58565b8154811061154f5761154f613c21565b60009182526020909120015463ffffffff16145b156115c357611571856114a7565b8661157d600185613b58565b8154811061158d5761158d613c21565b9060005260206000200160000160046101000a8154816001600160e01b0302191690836001600160e01b03160217905550611631565b8560000160405180604001604052806115db4361169b565b63ffffffff1681526020016115ef886114a7565b6001600160e01b0390811690915282546001810184556000938452602093849020835194909301519091166401000000000263ffffffff909316929092179101555b9250839150505b9250929050565b805460009080156116885782611656600183613b58565b8154811061166657611666613c21565b60009182526020909120015464010000000090046001600160e01b031661168b565b60005b6001600160e01b03169392505050565b600063ffffffff8211156115105760405162461bcd60e51b815260206004820152602660248201527f53616665436173743a2076616c756520646f65736e27742066697420696e203360448201526532206269747360d01b60648201526084016109fd565b60006001600160e01b03198216636e665ced60e01b14806108bc57506108bc82612425565b60006108bc611732612490565b8360405161190160f01b6020820152602281018390526042810182905260009060620160405160208183030381529060405280519060200120905092915050565b6000806000611784878787876125b7565b91509150610df0816126a4565b60008581526001602081905260408220906117ab88610eb2565b60078111156117bc576117bc613c0b565b146118155760405162461bcd60e51b815260206004820152602360248201527f476f7665726e6f723a20766f7465206e6f742063757272656e746c792061637460448201526269766560e81b60648201526084016109fd565b604080516020810190915281546001600160401b03169081905260009061183e90889086612156565b905061184d888888848861285f565b835161189f57866001600160a01b03167fb8e138887d0aa13bab447e82de9d5c1777041ecd21ca36ba824ff1e6c07ddda4898884896040516118929493929190613a13565b60405180910390a2610ea7565b866001600160a01b03167fe2babfbac5889a709b63bb7f598b324e08bc5a4fb9ec647fb3cbc9ec07eb871289888489896040516118e0959493929190613a3b565b60405180910390a2979650505050505050565b60006119128254600f81810b810b600160801b909204810b900b131590565b1561193057604051631ed9509560e11b815260040160405180910390fd5b508054600f90810b80820b820b600090815260018085016020526040822080549290558454920190920b6001600160801b03166fffffffffffffffffffffffffffffffff199091161790915590565b6064811115611a025760405162461bcd60e51b815260206004820152604360248201527f476f7665726e6f72566f74657351756f72756d4672616374696f6e3a2071756f60448201527f72756d4e756d657261746f72206f7665722071756f72756d44656e6f6d696e616064820152623a37b960e91b608482015260a4016109fd565b6000611a0c6110d2565b90508015801590611a1d5750600954155b15611a8257604080518082019091526000815260099060208101611a40846114a7565b6001600160e01b0390811690915282546001810184556000938452602093849020835194909301519091166401000000000263ffffffff909316929092179101555b611a8d600983611514565b505060408051828152602081018490527f0553476bf02ef2726e8ce5ced78d63e26e602e4a2257b1f559418e24b4633997910160405180910390a15050565b30611ad5610898565b6001600160a01b0316146113225760005b8451811015611b6657306001600160a01b0316858281518110611b0b57611b0b613c21565b60200260200101516001600160a01b03161415611b5657611b56838281518110611b3757611b37613c21565b60200260200101518051906020012060026129de90919063ffffffff16565b611b5f81613bda565b9050611ae6565b505050505050565b6113228585858585612a24565b30611b84610898565b6001600160a01b03161461132257600254600f81810b810b600160801b909204810b900b1315611322576000600255611322565b60006110b285858585611bd660408051602081019091526000815290565b611791565b600080611be783612a98565b90506004816007811115611bfd57611bfd613c0b565b14611c085792915050565b6000838152600b602052604090205480611c23575092915050565b600a54604051632ab0f52960e01b8152600481018390526001600160a01b0390911690632ab0f5299060240160206040518083038186803b158015611c6757600080fd5b505afa158015611c7b573d6000803e3d6000fd5b505050506040513d601f19601f82011682018060405250810190611c9f9190613399565b15611cae575060079392505050565b600a54604051632c258a9f60e11b8152600481018390526001600160a01b039091169063584b153e9060240160206040518083038186803b158015611cf257600080fd5b505afa158015611d06573d6000803e3d6000fd5b505050506040513d601f19601f82011682018060405250810190611d2a9190613399565b15611d39575060059392505050565b5060029392505050565b6000438210611d945760405162461bcd60e51b815260206004820181905260248201527f436865636b706f696e74733a20626c6f636b206e6f7420796574206d696e656460448201526064016109fd565b825460005b81811015611df9576000611dad8284612ba4565b905084866000018281548110611dc557611dc5613c21565b60009182526020909120015463ffffffff161115611de557809250611df3565b611df0816001613ad4565b91505b50611d99565b8115611e3d5784611e0b600184613b58565b81548110611e1b57611e1b613c21565b60009182526020909120015464010000000090046001600160e01b0316611e40565b60005b6001600160e01b031695945050505050565b60045460408051918252602082018390527fc565b045403dc03c2eea82b81a0465edad9e2e7fc4d97e11421c209da93d7a93910160405180910390a1600455565b6000611e9d611223565b611eac336107f3600143613b58565b1015611f145760405162461bcd60e51b815260206004820152603160248201527f476f7665726e6f723a2070726f706f73657220766f7465732062656c6f7720706044820152701c9bdc1bdcd85b081d1a1c995cda1bdb19607a1b60648201526084016109fd565b6000611f298686868680519060200120611329565b90508451865114611f4c5760405162461bcd60e51b81526004016109fd906138a2565b8351865114611f6d5760405162461bcd60e51b81526004016109fd906138a2565b6000865111611fbe5760405162461bcd60e51b815260206004820152601860248201527f476f7665726e6f723a20656d7074792070726f706f73616c000000000000000060448201526064016109fd565b600081815260016020908152604091829020825191820190925281546001600160401b0316908190521561203e5760405162461bcd60e51b815260206004820152602160248201527f476f7665726e6f723a2070726f706f73616c20616c72656164792065786973746044820152607360f81b60648201526084016109fd565b600061205061204b610e31565b612bbf565b61205943612bbf565b6120639190613aec565b9050600061207261204b6108c2565b61207c9083613aec565b835467ffffffffffffffff19166001600160401b038416178455905060018301805467ffffffffffffffff19166001600160401b0383161790557f7d84a6263ae0d98d3329bd7b46bb4e8d6f98cd35a7adb45c274c8b7fd5ebd5e084338b8b8d516001600160401b038111156120f4576120f4613c37565b60405190808252806020026020018201604052801561212757816020015b60608152602001906001900390816121125790505b508c88888e60405161214199989796959493929190613924565b60405180910390a15091979650505050505050565b604051630748d63560e31b81526001600160a01b038481166004830152602482018490526000917f000000000000000000000000000000000000000000000000000000000000000090911690633a46b1a89060440160206040518083038186803b1580156121c357600080fd5b505afa1580156121d7573d6000803e3d6000fd5b505050506040513d601f19601f820116820180604052508101906110c891906133bb565b600a54604080516001600160a01b03928316815291831660208301527f08f74ea46ef7894f65eabfb5e6e695de773a000b47c529ab559178069b226401910160405180910390a1600a80546001600160a01b0319166001600160a01b0392909216919091179055565b60606110c8848484604051806060016040528060298152602001613c6360299139612c27565b600081116122ea5760405162461bcd60e51b815260206004820152602760248201527f476f7665726e6f7253657474696e67733a20766f74696e6720706572696f6420604482015266746f6f206c6f7760c81b60648201526084016109fd565b60055460408051918252602082018390527f7e3f7f0708a84de9203036abaa450dccc85ad5ff52f78c170f3edb55cf5e8828910160405180910390a1600555565b60065460408051918252602082018390527fccb45da8d5717e6c4544694297c4ba5cf151d455c9bb0ed4fc7a38411bc05461910160405180910390a1600655565b6000606461237983610f30565b604051632394e7a360e21b8152600481018590527f00000000000000000000000000000000000000000000000000000000000000006001600160a01b031690638e539e8c9060240160206040518083038186803b1580156123d957600080fd5b505afa1580156123ed573d6000803e3d6000fd5b505050506040513d601f19601f8201168201806040525081019061241191906133bb565b61241b9190613b39565b6108bc9190613b17565b60006001600160e01b0319821663bf26d89760e01b148061245657506001600160e01b031982166379dd796f60e01b145b8061247157506001600160e01b03198216630271189760e51b145b806108bc57506301ffc9a760e01b6001600160e01b03198316146108bc565b6000306001600160a01b037f0000000000000000000000000000000000000000000000000000000000000000161480156124e957507f000000000000000000000000000000000000000000000000000000000000000046145b1561251357507f000000000000000000000000000000000000000000000000000000000000000090565b50604080517f00000000000000000000000000000000000000000000000000000000000000006020808301919091527f0000000000000000000000000000000000000000000000000000000000000000828401527f000000000000000000000000000000000000000000000000000000000000000060608301524660808301523060a0808401919091528351808403909101815260c0909201909252805191012090565b6000807f7fffffffffffffffffffffffffffffff5d576e7357a4501ddfe92f46681b20a08311156125ee575060009050600361269b565b8460ff16601b1415801561260657508460ff16601c14155b15612617575060009050600461269b565b6040805160008082526020820180845289905260ff881692820192909252606081018690526080810185905260019060a0016020604051602081039080840390855afa15801561266b573d6000803e3d6000fd5b5050604051601f1901519150506001600160a01b0381166126945760006001925092505061269b565b9150600090505b94509492505050565b60008160048111156126b8576126b8613c0b565b14156126c15750565b60018160048111156126d5576126d5613c0b565b14156127235760405162461bcd60e51b815260206004820152601860248201527f45434453413a20696e76616c6964207369676e6174757265000000000000000060448201526064016109fd565b600281600481111561273757612737613c0b565b14156127855760405162461bcd60e51b815260206004820152601f60248201527f45434453413a20696e76616c6964207369676e6174757265206c656e6774680060448201526064016109fd565b600381600481111561279957612799613c0b565b14156127f25760405162461bcd60e51b815260206004820152602260248201527f45434453413a20696e76616c6964207369676e6174757265202773272076616c604482015261756560f01b60648201526084016109fd565b600481600481111561280657612806613c0b565b1415610a5a5760405162461bcd60e51b815260206004820152602260248201527f45434453413a20696e76616c6964207369676e6174757265202776272076616c604482015261756560f01b60648201526084016109fd565b60008581526007602090815260408083206001600160a01b0388168452600381019092529091205460ff16156128e75760405162461bcd60e51b815260206004820152602760248201527f476f7665726e6f72566f74696e6753696d706c653a20766f746520616c726561604482015266191e4818d85cdd60ca1b60648201526084016109fd565b6001600160a01b03851660009081526003820160205260408120805460ff1916600117905560ff168460ff161415612938578281600001600082825461292d9190613ad4565b90915550611b669050565b60ff841660011415612958578281600101600082825461292d9190613ad4565b60ff841660021415612978578281600201600082825461292d9190613ad4565b60405162461bcd60e51b815260206004820152603560248201527f476f7665726e6f72566f74696e6753696d706c653a20696e76616c69642076616044820152746c756520666f7220656e756d20566f74655479706560581b60648201526084016109fd565b8154600160801b90819004600f90810b80820b820b6000908152600180870160205260409091209490945584549301900b6001600160801b039081169091029116179055565b600a5460405163e38335e560e01b81526001600160a01b039091169063e38335e5903490612a5f90889088908890600090899060040161378a565b6000604051808303818588803b158015612a7857600080fd5b505af1158015612a8c573d6000803e3d6000fd5b50505050505050505050565b6000818152600160205260408120600281015460ff1615612abc5750600792915050565b6002810154610100900460ff1615612ad75750600292915050565b6000612ae284610dfa565b905080612b315760405162461bcd60e51b815260206004820152601d60248201527f476f7665726e6f723a20756e6b6e6f776e2070726f706f73616c20696400000060448201526064016109fd565b438110612b42575060009392505050565b6000612b4d8561122e565b9050438110612b6157506001949350505050565b612b6a85612d4d565b8015612b89575060008581526007602052604090208054600190910154115b15612b9957506004949350505050565b506003949350505050565b6000612bb36002848418613b17565b6110cb90848416613ad4565b60006001600160401b038211156115105760405162461bcd60e51b815260206004820152602660248201527f53616665436173743a2076616c756520646f65736e27742066697420696e203660448201526534206269747360d01b60648201526084016109fd565b606082471015612c885760405162461bcd60e51b815260206004820152602660248201527f416464726573733a20696e73756666696369656e742062616c616e636520666f6044820152651c8818d85b1b60d21b60648201526084016109fd565b6001600160a01b0385163b612cdf5760405162461bcd60e51b815260206004820152601d60248201527f416464726573733a2063616c6c20746f206e6f6e2d636f6e747261637400000060448201526064016109fd565b600080866001600160a01b03168587604051612cfb9190613723565b60006040518083038185875af1925050503d8060008114612d38576040519150601f19603f3d011682016040523d82523d6000602084013e612d3d565b606091505b5091509150610ea7828286612d84565b600081815260076020526040812060028101546001820154612d6f9190613ad4565b612d7b61085f85610dfa565b11159392505050565b60608315612d935750816110cb565b825115612da35782518084602001fd5b8160405162461bcd60e51b81526004016109fd9190613858565b60006001600160401b03831115612dd657612dd6613c37565b612de9601f8401601f1916602001613a81565b9050828152838383011115612dfd57600080fd5b828260208301376000602084830101529392505050565b600082601f830112612e2557600080fd5b81356020612e3a612e3583613ab1565b613a81565b80838252828201915082860187848660051b8901011115612e5a57600080fd5b60005b85811015612e82578135612e7081613c4d565b84529284019290840190600101612e5d565b5090979650505050505050565b600082601f830112612ea057600080fd5b81356020612eb0612e3583613ab1565b80838252828201915082860187848660051b8901011115612ed057600080fd5b6000805b86811015612f125782356001600160401b03811115612ef1578283fd5b612eff8b88838d0101612fc1565b8652509385019391850191600101612ed4565b509198975050505050505050565b600082601f830112612f3157600080fd5b81356020612f41612e3583613ab1565b80838252828201915082860187848660051b8901011115612f6157600080fd5b60005b85811015612e8257813584529284019290840190600101612f64565b60008083601f840112612f9257600080fd5b5081356001600160401b03811115612fa957600080fd5b60208301915083602082850101111561163857600080fd5b600082601f830112612fd257600080fd5b6110cb83833560208501612dbd565b803560ff81168114612ff257600080fd5b919050565b600080600080600060a0868803121561300f57600080fd5b853561301a81613c4d565b9450602086013561302a81613c4d565b935060408601356001600160401b038082111561304657600080fd5b61305289838a01612f20565b9450606088013591508082111561306857600080fd5b61307489838a01612f20565b9350608088013591508082111561308a57600080fd5b5061309788828901612fc1565b9150509295509295909350565b600080600080608085870312156130ba57600080fd5b84356130c581613c4d565b935060208501356130d581613c4d565b92506040850135915060608501356001600160401b038111156130f757600080fd5b61310387828801612fc1565b91505092959194509250565b600080600080600060a0868803121561312757600080fd5b853561313281613c4d565b9450602086013561314281613c4d565b9350604086013592506060860135915060808601356001600160401b0381111561316b57600080fd5b61309788828901612fc1565b6000806040838503121561318a57600080fd5b823561319581613c4d565b946020939093013593505050565b600080600080606085870312156131b957600080fd5b84356131c481613c4d565b93506020850135925060408501356001600160401b038111156131e657600080fd5b6131f287828801612f80565b95989497509550505050565b60008060006060848603121561321357600080fd5b833561321e81613c4d565b92506020840135915060408401356001600160401b0381111561324057600080fd5b61324c86828701612fc1565b9150509250925092565b6000806000806080858703121561326c57600080fd5b84356001600160401b038082111561328357600080fd5b61328f88838901612e14565b955060208701359150808211156132a557600080fd5b6132b188838901612f20565b945060408701359150808211156132c757600080fd5b506132d487828801612e8f565b949793965093946060013593505050565b600080600080608085870312156132fb57600080fd5b84356001600160401b038082111561331257600080fd5b61331e88838901612e14565b9550602087013591508082111561333457600080fd5b61334088838901612f20565b9450604087013591508082111561335657600080fd5b61336288838901612e8f565b9350606087013591508082111561337857600080fd5b508501601f8101871361338a57600080fd5b61310387823560208401612dbd565b6000602082840312156133ab57600080fd5b815180151581146110cb57600080fd5b6000602082840312156133cd57600080fd5b5051919050565b6000602082840312156133e657600080fd5b81356001600160e01b0319811681146110cb57600080fd5b60006020828403121561341057600080fd5b81356110cb81613c4d565b60006020828403121561342d57600080fd5b5035919050565b6000806040838503121561344757600080fd5b82359150602083013561345981613c4d565b809150509250929050565b6000806040838503121561347757600080fd5b8235915061348760208401612fe1565b90509250929050565b600080600080606085870312156134a657600080fd5b843593506134b660208601612fe1565b925060408501356001600160401b038111156131e657600080fd5b6000806000806000608086880312156134e957600080fd5b853594506134f960208701612fe1565b935060408601356001600160401b038082111561351557600080fd5b61352189838a01612f80565b9095509350606088013591508082111561308a57600080fd5b60008060008060008060008060e0898b03121561355657600080fd5b8835975061356660208a01612fe1565b965060408901356001600160401b038082111561358257600080fd5b61358e8c838d01612f80565b909850965060608b01359150808211156135a757600080fd5b506135b48b828c01612fc1565b9450506135c360808a01612fe1565b925060a0890135915060c089013590509295985092959890939650565b600080600080600060a086880312156135f857600080fd5b8535945061360860208701612fe1565b935061361660408701612fe1565b94979396509394606081013594506080013592915050565b600081518084526020808501945080840160005b838110156136675781516001600160a01b031687529582019590820190600101613642565b509495945050505050565b6000815180845260208085019450848260051b860182860160005b85811015612e825783830389526136a58383516136e7565b9885019892509084019060010161368d565b600081518084526020808501945080840160005b83811015613667578151875295820195908201906001016136cb565b600081518084526136ff816020860160208601613b6f565b601f01601f19169290920160200192915050565b8183823760009101908152919050565b60008251613735818460208701613b6f565b9190910192915050565b608081526000613752608083018761362e565b828103602084015261376481876136b7565b905082810360408401526137788186613672565b91505082606083015295945050505050565b60a08152600061379d60a083018861362e565b82810360208401526137af81886136b7565b905082810360408401526137c38187613672565b60608401959095525050608001529392505050565b60c0815260006137eb60c083018961362e565b82810360208401526137fd81896136b7565b905082810360408401526138118188613672565b60608401969096525050608081019290925260a0909101529392505050565b602081016008831061385257634e487b7160e01b600052602160045260246000fd5b91905290565b6020815260006110cb60208301846136e7565b60208082526018908201527f476f7665726e6f723a206f6e6c79476f7665726e616e63650000000000000000604082015260600190565b60208082526021908201527f476f7665726e6f723a20696e76616c69642070726f706f73616c206c656e67746040820152600d60fb1b606082015260800190565b60208082526021908201527f476f7665726e6f723a2070726f706f73616c206e6f74207375636365737366756040820152601b60fa1b606082015260800190565b60006101208b8352602060018060a01b038c168185015281604085015261394d8285018c61362e565b91508382036060850152613961828b6136b7565b915083820360808501528189518084528284019150828160051b850101838c0160005b838110156139b257601f198784030185526139a08383516136e7565b94860194925090850190600101613984565b505086810360a08801526139c6818c613672565b9450505050506139e160c08401876001600160401b03169052565b6001600160401b03851660e0840152828103610100840152613a0381856136e7565b9c9b505050505050505050505050565b84815260ff8416602082015282604082015260806060820152600061109a60808301846136e7565b85815260ff8516602082015283604082015260a060608201526000613a6360a08301856136e7565b8281036080840152613a7581856136e7565b98975050505050505050565b604051601f8201601f191681016001600160401b0381118282101715613aa957613aa9613c37565b604052919050565b60006001600160401b03821115613aca57613aca613c37565b5060051b60200190565b60008219821115613ae757613ae7613bf5565b500190565b60006001600160401b03808316818516808303821115613b0e57613b0e613bf5565b01949350505050565b600082613b3457634e487b7160e01b600052601260045260246000fd5b500490565b6000816000190483118215151615613b5357613b53613bf5565b500290565b600082821015613b6a57613b6a613bf5565b500390565b60005b83811015613b8a578181015183820152602001613b72565b83811115613b99576000848401525b50505050565b600181811c90821680613bb357607f821691505b60208210811415613bd457634e487b7160e01b600052602260045260246000fd5b50919050565b6000600019821415613bee57613bee613bf5565b5060010190565b634e487b7160e01b600052601160045260246000fd5b634e487b7160e01b600052602160045260246000fd5b634e487b7160e01b600052603260045260246000fd5b634e487b7160e01b600052604160045260246000fd5b6001600160a01b0381168114610a5a57600080fdfe416464726573733a206c6f772d6c6576656c2063616c6c20776974682076616c7565206661696c6564a264697066735822122040617ccede64c3b9e849b15498282e37d518b23ebd8769a1bc3505c6a4a6b19a64736f6c63430008070033",
			"opcodes": "PUSH2 0x160 PUSH1 0x40 MSTORE CALLVALUE DUP1 ISZERO PUSH3 0x12 JUMPI PUSH1 0x0 DUP1 REVERT JUMPDEST POP PUSH1 0x40 MLOAD PUSH3 0x45FA CODESIZE SUB DUP1 PUSH3 0x45FA DUP4 CODECOPY DUP2 ADD PUSH1 0x40 DUP2 SWAP1 MSTORE PUSH3 0x35 SWAP2 PUSH3 0x7F9 JUMP JUMPDEST DUP1 PUSH1 0x4 DUP4 PUSH1 0x1 PUSH1 0xF PUSH1 0x0 PUSH1 0x40 MLOAD DUP1 PUSH1 0x40 ADD PUSH1 0x40 MSTORE DUP1 PUSH1 0xA DUP2 MSTORE PUSH1 0x20 ADD PUSH10 0x26BCA3B7BB32B93737B9 PUSH1 0xB1 SHL DUP2 MSTORE POP DUP1 PUSH3 0x73 PUSH3 0x174 PUSH1 0x20 SHL PUSH1 0x20 SHR JUMP JUMPDEST DUP2 MLOAD PUSH1 0x20 DUP1 DUP5 ADD SWAP2 SWAP1 SWAP2 KECCAK256 DUP3 MLOAD DUP4 DUP4 ADD KECCAK256 PUSH1 0xE0 DUP3 SWAP1 MSTORE PUSH2 0x100 DUP2 SWAP1 MSTORE CHAINID PUSH1 0xA0 DUP2 DUP2 MSTORE PUSH1 0x40 DUP1 MLOAD PUSH32 0x8B73C3C69BB8FE3D512ECC4CF759CC79239F7B179B0FFACAA9A75D522B39400F DUP2 DUP9 ADD DUP2 SWAP1 MSTORE DUP2 DUP4 ADD DUP8 SWAP1 MSTORE PUSH1 0x60 DUP3 ADD DUP7 SWAP1 MSTORE PUSH1 0x80 DUP3 ADD SWAP5 SWAP1 SWAP5 MSTORE ADDRESS DUP2 DUP5 ADD MSTORE DUP2 MLOAD DUP1 DUP3 SUB SWAP1 SWAP4 ADD DUP4 MSTORE PUSH1 0xC0 ADD SWAP1 MSTORE DUP1 MLOAD SWAP5 ADD SWAP4 SWAP1 SWAP4 KECCAK256 SWAP2 SWAP3 SWAP1 SWAP2 PUSH1 0x80 MSTORE ADDRESS PUSH1 0x60 SHL PUSH1 0xC0 MSTORE PUSH2 0x120 MSTORE POP POP DUP3 MLOAD PUSH3 0x11C SWAP3 POP PUSH1 0x0 SWAP2 POP PUSH1 0x20 DUP5 ADD SWAP1 PUSH3 0x75D JUMP JUMPDEST POP PUSH3 0x12A SWAP1 POP DUP4 PUSH3 0x18F JUMP JUMPDEST PUSH3 0x135 DUP3 PUSH3 0x1D0 JUMP JUMPDEST PUSH3 0x140 DUP2 PUSH3 0x277 JUMP JUMPDEST POP POP POP PUSH1 0x60 SHL PUSH1 0x1 PUSH1 0x1 PUSH1 0x60 SHL SUB NOT AND PUSH2 0x140 MSTORE PUSH3 0x15F DUP2 PUSH3 0x2B8 JUMP JUMPDEST POP PUSH3 0x16B DUP2 PUSH3 0x430 JUMP JUMPDEST POP POP POP PUSH3 0x8CA JUMP JUMPDEST PUSH1 0x40 DUP1 MLOAD DUP1 DUP3 ADD SWAP1 SWAP2 MSTORE PUSH1 0x1 DUP2 MSTORE PUSH1 0x31 PUSH1 0xF8 SHL PUSH1 0x20 DUP3 ADD MSTORE SWAP1 JUMP JUMPDEST PUSH1 0x4 SLOAD PUSH1 0x40 DUP1 MLOAD SWAP2 DUP3 MSTORE PUSH1 0x20 DUP3 ADD DUP4 SWAP1 MSTORE PUSH32 0xC565B045403DC03C2EEA82B81A0465EDAD9E2E7FC4D97E11421C209DA93D7A93 SWAP2 ADD PUSH1 0x40 MLOAD DUP1 SWAP2 SUB SWAP1 LOG1 PUSH1 0x4 SSTORE JUMP JUMPDEST PUSH1 0x0 DUP2 GT PUSH3 0x236 JUMPI PUSH1 0x40 MLOAD PUSH3 0x461BCD PUSH1 0xE5 SHL DUP2 MSTORE PUSH1 0x20 PUSH1 0x4 DUP3 ADD MSTORE PUSH1 0x27 PUSH1 0x24 DUP3 ADD MSTORE PUSH32 0x476F7665726E6F7253657474696E67733A20766F74696E6720706572696F6420 PUSH1 0x44 DUP3 ADD MSTORE PUSH7 0x746F6F206C6F77 PUSH1 0xC8 SHL PUSH1 0x64 DUP3 ADD MSTORE PUSH1 0x84 ADD JUMPDEST PUSH1 0x40 MLOAD DUP1 SWAP2 SUB SWAP1 REVERT JUMPDEST PUSH1 0x5 SLOAD PUSH1 0x40 DUP1 MLOAD SWAP2 DUP3 MSTORE PUSH1 0x20 DUP3 ADD DUP4 SWAP1 MSTORE PUSH32 0x7E3F7F0708A84DE9203036ABAA450DCCC85AD5FF52F78C170F3EDB55CF5E8828 SWAP2 ADD PUSH1 0x40 MLOAD DUP1 SWAP2 SUB SWAP1 LOG1 PUSH1 0x5 SSTORE JUMP JUMPDEST PUSH1 0x6 SLOAD PUSH1 0x40 DUP1 MLOAD SWAP2 DUP3 MSTORE PUSH1 0x20 DUP3 ADD DUP4 SWAP1 MSTORE PUSH32 0xCCB45DA8D5717E6C4544694297C4BA5CF151D455C9BB0ED4FC7A38411BC05461 SWAP2 ADD PUSH1 0x40 MLOAD DUP1 SWAP2 SUB SWAP1 LOG1 PUSH1 0x6 SSTORE JUMP JUMPDEST PUSH1 0x64 DUP2 GT ISZERO PUSH3 0x33D JUMPI PUSH1 0x40 MLOAD PUSH3 0x461BCD PUSH1 0xE5 SHL DUP2 MSTORE PUSH1 0x20 PUSH1 0x4 DUP3 ADD MSTORE PUSH1 0x43 PUSH1 0x24 DUP3 ADD MSTORE PUSH32 0x476F7665726E6F72566F74657351756F72756D4672616374696F6E3A2071756F PUSH1 0x44 DUP3 ADD MSTORE PUSH32 0x72756D4E756D657261746F72206F7665722071756F72756D44656E6F6D696E61 PUSH1 0x64 DUP3 ADD MSTORE PUSH3 0x3A37B9 PUSH1 0xE9 SHL PUSH1 0x84 DUP3 ADD MSTORE PUSH1 0xA4 ADD PUSH3 0x22D JUMP JUMPDEST PUSH1 0x0 PUSH3 0x349 PUSH3 0x499 JUMP JUMPDEST SWAP1 POP DUP1 ISZERO DUP1 ISZERO SWAP1 PUSH3 0x35B JUMPI POP PUSH1 0x9 SLOAD ISZERO JUMPDEST ISZERO PUSH3 0x3D6 JUMPI PUSH1 0x9 PUSH1 0x0 ADD PUSH1 0x40 MLOAD DUP1 PUSH1 0x40 ADD PUSH1 0x40 MSTORE DUP1 PUSH1 0x0 PUSH4 0xFFFFFFFF AND DUP2 MSTORE PUSH1 0x20 ADD PUSH3 0x394 DUP5 PUSH3 0x4C8 PUSH1 0x20 SHL PUSH3 0x14A7 OR PUSH1 0x20 SHR JUMP JUMPDEST PUSH1 0x1 PUSH1 0x1 PUSH1 0xE0 SHL SUB SWAP1 DUP2 AND SWAP1 SWAP2 MSTORE DUP3 SLOAD PUSH1 0x1 DUP2 ADD DUP5 SSTORE PUSH1 0x0 SWAP4 DUP5 MSTORE PUSH1 0x20 SWAP4 DUP5 SWAP1 KECCAK256 DUP4 MLOAD SWAP5 SWAP1 SWAP4 ADD MLOAD SWAP1 SWAP2 AND PUSH5 0x100000000 MUL PUSH4 0xFFFFFFFF SWAP1 SWAP4 AND SWAP3 SWAP1 SWAP3 OR SWAP2 ADD SSTORE JUMPDEST PUSH3 0x3F1 DUP3 PUSH1 0x9 PUSH3 0x537 PUSH1 0x20 SHL PUSH3 0x1514 OR SWAP1 SWAP2 SWAP1 PUSH1 0x20 SHR JUMP JUMPDEST POP POP PUSH1 0x40 DUP1 MLOAD DUP3 DUP2 MSTORE PUSH1 0x20 DUP2 ADD DUP5 SWAP1 MSTORE PUSH32 0x553476BF02EF2726E8CE5CED78D63E26E602E4A2257B1F559418E24B4633997 SWAP2 ADD PUSH1 0x40 MLOAD DUP1 SWAP2 SUB SWAP1 LOG1 POP POP JUMP JUMPDEST PUSH1 0xA SLOAD PUSH1 0x40 DUP1 MLOAD PUSH1 0x1 PUSH1 0x1 PUSH1 0xA0 SHL SUB SWAP3 DUP4 AND DUP2 MSTORE SWAP2 DUP4 AND PUSH1 0x20 DUP4 ADD MSTORE PUSH32 0x8F74EA46EF7894F65EABFB5E6E695DE773A000B47C529AB559178069B226401 SWAP2 ADD PUSH1 0x40 MLOAD DUP1 SWAP2 SUB SWAP1 LOG1 PUSH1 0xA DUP1 SLOAD PUSH1 0x1 PUSH1 0x1 PUSH1 0xA0 SHL SUB NOT AND PUSH1 0x1 PUSH1 0x1 PUSH1 0xA0 SHL SUB SWAP3 SWAP1 SWAP3 AND SWAP2 SWAP1 SWAP2 OR SWAP1 SSTORE JUMP JUMPDEST PUSH1 0x9 SLOAD PUSH1 0x0 SWAP1 ISZERO PUSH3 0x4C1 JUMPI PUSH3 0x4BC PUSH1 0x9 PUSH3 0x693 PUSH1 0x20 SHL PUSH3 0x163F OR PUSH1 0x20 SHR JUMP JUMPDEST SWAP1 POP SWAP1 JUMP JUMPDEST POP PUSH1 0x8 SLOAD SWAP1 JUMP JUMPDEST PUSH1 0x0 PUSH1 0x1 PUSH1 0x1 PUSH1 0xE0 SHL SUB DUP3 GT ISZERO PUSH3 0x533 JUMPI PUSH1 0x40 MLOAD PUSH3 0x461BCD PUSH1 0xE5 SHL DUP2 MSTORE PUSH1 0x20 PUSH1 0x4 DUP3 ADD MSTORE PUSH1 0x27 PUSH1 0x24 DUP3 ADD MSTORE PUSH32 0x53616665436173743A2076616C756520646F65736E27742066697420696E2032 PUSH1 0x44 DUP3 ADD MSTORE PUSH7 0x32342062697473 PUSH1 0xC8 SHL PUSH1 0x64 DUP3 ADD MSTORE PUSH1 0x84 ADD PUSH3 0x22D JUMP JUMPDEST POP SWAP1 JUMP JUMPDEST DUP2 SLOAD PUSH1 0x0 SWAP1 DUP2 SWAP1 DUP2 PUSH3 0x54A DUP7 PUSH3 0x693 JUMP JUMPDEST SWAP1 POP PUSH1 0x0 DUP3 GT DUP1 ISZERO PUSH3 0x58E JUMPI POP NUMBER DUP7 PUSH3 0x567 PUSH1 0x1 DUP6 PUSH3 0x838 JUMP JUMPDEST DUP2 SLOAD DUP2 LT PUSH3 0x57A JUMPI PUSH3 0x57A PUSH3 0x89B JUMP JUMPDEST PUSH1 0x0 SWAP2 DUP3 MSTORE PUSH1 0x20 SWAP1 SWAP2 KECCAK256 ADD SLOAD PUSH4 0xFFFFFFFF AND EQ JUMPDEST ISZERO PUSH3 0x602 JUMPI PUSH3 0x5AA DUP6 PUSH3 0x4C8 PUSH1 0x20 SHL PUSH3 0x14A7 OR PUSH1 0x20 SHR JUMP JUMPDEST DUP7 PUSH3 0x5B8 PUSH1 0x1 DUP6 PUSH3 0x838 JUMP JUMPDEST DUP2 SLOAD DUP2 LT PUSH3 0x5CB JUMPI PUSH3 0x5CB PUSH3 0x89B JUMP JUMPDEST SWAP1 PUSH1 0x0 MSTORE PUSH1 0x20 PUSH1 0x0 KECCAK256 ADD PUSH1 0x0 ADD PUSH1 0x4 PUSH2 0x100 EXP DUP2 SLOAD DUP2 PUSH1 0x1 PUSH1 0x1 PUSH1 0xE0 SHL SUB MUL NOT AND SWAP1 DUP4 PUSH1 0x1 PUSH1 0x1 PUSH1 0xE0 SHL SUB AND MUL OR SWAP1 SSTORE POP PUSH3 0x68A JUMP JUMPDEST DUP6 PUSH1 0x0 ADD PUSH1 0x40 MLOAD DUP1 PUSH1 0x40 ADD PUSH1 0x40 MSTORE DUP1 PUSH3 0x627 NUMBER PUSH3 0x6F6 PUSH1 0x20 SHL PUSH3 0x169B OR PUSH1 0x20 SHR JUMP JUMPDEST PUSH4 0xFFFFFFFF AND DUP2 MSTORE PUSH1 0x20 ADD PUSH3 0x648 DUP9 PUSH3 0x4C8 PUSH1 0x20 SHL PUSH3 0x14A7 OR PUSH1 0x20 SHR JUMP JUMPDEST PUSH1 0x1 PUSH1 0x1 PUSH1 0xE0 SHL SUB SWAP1 DUP2 AND SWAP1 SWAP2 MSTORE DUP3 SLOAD PUSH1 0x1 DUP2 ADD DUP5 SSTORE PUSH1 0x0 SWAP4 DUP5 MSTORE PUSH1 0x20 SWAP4 DUP5 SWAP1 KECCAK256 DUP4 MLOAD SWAP5 SWAP1 SWAP4 ADD MLOAD SWAP1 SWAP2 AND PUSH5 0x100000000 MUL PUSH4 0xFFFFFFFF SWAP1 SWAP4 AND SWAP3 SWAP1 SWAP3 OR SWAP2 ADD SSTORE JUMPDEST SWAP6 SWAP4 SWAP5 POP POP POP POP JUMP JUMPDEST DUP1 SLOAD PUSH1 0x0 SWAP1 DUP1 ISZERO PUSH3 0x6E3 JUMPI DUP3 PUSH3 0x6AD PUSH1 0x1 DUP4 PUSH3 0x838 JUMP JUMPDEST DUP2 SLOAD DUP2 LT PUSH3 0x6C0 JUMPI PUSH3 0x6C0 PUSH3 0x89B JUMP JUMPDEST PUSH1 0x0 SWAP2 DUP3 MSTORE PUSH1 0x20 SWAP1 SWAP2 KECCAK256 ADD SLOAD PUSH5 0x100000000 SWAP1 DIV PUSH1 0x1 PUSH1 0x1 PUSH1 0xE0 SHL SUB AND PUSH3 0x6E6 JUMP JUMPDEST PUSH1 0x0 JUMPDEST PUSH1 0x1 PUSH1 0x1 PUSH1 0xE0 SHL SUB AND SWAP4 SWAP3 POP POP POP JUMP JUMPDEST PUSH1 0x0 PUSH4 0xFFFFFFFF DUP3 GT ISZERO PUSH3 0x533 JUMPI PUSH1 0x40 MLOAD PUSH3 0x461BCD PUSH1 0xE5 SHL DUP2 MSTORE PUSH1 0x20 PUSH1 0x4 DUP3 ADD MSTORE PUSH1 0x26 PUSH1 0x24 DUP3 ADD MSTORE PUSH32 0x53616665436173743A2076616C756520646F65736E27742066697420696E2033 PUSH1 0x44 DUP3 ADD MSTORE PUSH6 0x322062697473 PUSH1 0xD0 SHL PUSH1 0x64 DUP3 ADD MSTORE PUSH1 0x84 ADD PUSH3 0x22D JUMP JUMPDEST DUP3 DUP1 SLOAD PUSH3 0x76B SWAP1 PUSH3 0x85E JUMP JUMPDEST SWAP1 PUSH1 0x0 MSTORE PUSH1 0x20 PUSH1 0x0 KECCAK256 SWAP1 PUSH1 0x1F ADD PUSH1 0x20 SWAP1 DIV DUP2 ADD SWAP3 DUP3 PUSH3 0x78F JUMPI PUSH1 0x0 DUP6 SSTORE PUSH3 0x7DA JUMP JUMPDEST DUP3 PUSH1 0x1F LT PUSH3 0x7AA JUMPI DUP1 MLOAD PUSH1 0xFF NOT AND DUP4 DUP1 ADD OR DUP6 SSTORE PUSH3 0x7DA JUMP JUMPDEST DUP3 DUP1 ADD PUSH1 0x1 ADD DUP6 SSTORE DUP3 ISZERO PUSH3 0x7DA JUMPI SWAP2 DUP3 ADD JUMPDEST DUP3 DUP2 GT ISZERO PUSH3 0x7DA JUMPI DUP3 MLOAD DUP3 SSTORE SWAP2 PUSH1 0x20 ADD SWAP2 SWAP1 PUSH1 0x1 ADD SWAP1 PUSH3 0x7BD JUMP JUMPDEST POP PUSH3 0x533 SWAP3 SWAP2 POP JUMPDEST DUP1 DUP3 GT ISZERO PUSH3 0x533 JUMPI PUSH1 0x0 DUP2 SSTORE PUSH1 0x1 ADD PUSH3 0x7E3 JUMP JUMPDEST PUSH1 0x0 DUP1 PUSH1 0x40 DUP4 DUP6 SUB SLT ISZERO PUSH3 0x80D JUMPI PUSH1 0x0 DUP1 REVERT JUMPDEST DUP3 MLOAD PUSH3 0x81A DUP2 PUSH3 0x8B1 JUMP JUMPDEST PUSH1 0x20 DUP5 ADD MLOAD SWAP1 SWAP3 POP PUSH3 0x82D DUP2 PUSH3 0x8B1 JUMP JUMPDEST DUP1 SWAP2 POP POP SWAP3 POP SWAP3 SWAP1 POP JUMP JUMPDEST PUSH1 0x0 DUP3 DUP3 LT ISZERO PUSH3 0x859 JUMPI PUSH4 0x4E487B71 PUSH1 0xE0 SHL PUSH1 0x0 MSTORE PUSH1 0x11 PUSH1 0x4 MSTORE PUSH1 0x24 PUSH1 0x0 REVERT JUMPDEST POP SUB SWAP1 JUMP JUMPDEST PUSH1 0x1 DUP2 DUP2 SHR SWAP1 DUP3 AND DUP1 PUSH3 0x873 JUMPI PUSH1 0x7F DUP3 AND SWAP2 POP JUMPDEST PUSH1 0x20 DUP3 LT DUP2 EQ ISZERO PUSH3 0x895 JUMPI PUSH4 0x4E487B71 PUSH1 0xE0 SHL PUSH1 0x0 MSTORE PUSH1 0x22 PUSH1 0x4 MSTORE PUSH1 0x24 PUSH1 0x0 REVERT JUMPDEST POP SWAP2 SWAP1 POP JUMP JUMPDEST PUSH4 0x4E487B71 PUSH1 0xE0 SHL PUSH1 0x0 MSTORE PUSH1 0x32 PUSH1 0x4 MSTORE PUSH1 0x24 PUSH1 0x0 REVERT JUMPDEST PUSH1 0x1 PUSH1 0x1 PUSH1 0xA0 SHL SUB DUP2 AND DUP2 EQ PUSH3 0x8C7 JUMPI PUSH1 0x0 DUP1 REVERT JUMPDEST POP JUMP JUMPDEST PUSH1 0x80 MLOAD PUSH1 0xA0 MLOAD PUSH1 0xC0 MLOAD PUSH1 0x60 SHR PUSH1 0xE0 MLOAD PUSH2 0x100 MLOAD PUSH2 0x120 MLOAD PUSH2 0x140 MLOAD PUSH1 0x60 SHR PUSH2 0x3CC1 PUSH3 0x939 PUSH1 0x0 CODECOPY PUSH1 0x0 DUP2 DUP2 PUSH2 0x876 ADD MSTORE DUP2 DUP2 PUSH2 0x217F ADD MSTORE PUSH2 0x238F ADD MSTORE PUSH1 0x0 PUSH2 0x251A ADD MSTORE PUSH1 0x0 PUSH2 0x2569 ADD MSTORE PUSH1 0x0 PUSH2 0x2544 ADD MSTORE PUSH1 0x0 PUSH2 0x249D ADD MSTORE PUSH1 0x0 PUSH2 0x24C7 ADD MSTORE PUSH1 0x0 PUSH2 0x24F1 ADD MSTORE PUSH2 0x3CC1 PUSH1 0x0 RETURN INVALID PUSH1 0x80 PUSH1 0x40 MSTORE PUSH1 0x4 CALLDATASIZE LT PUSH2 0x24A JUMPI PUSH1 0x0 CALLDATALOAD PUSH1 0xE0 SHR DUP1 PUSH4 0x7B3C71D3 GT PUSH2 0x139 JUMPI DUP1 PUSH4 0xC28BC2FA GT PUSH2 0xB6 JUMPI DUP1 PUSH4 0xEA0217CF GT PUSH2 0x7A JUMPI DUP1 PUSH4 0xEA0217CF EQ PUSH2 0x7B8 JUMPI DUP1 PUSH4 0xEB9019D4 EQ PUSH2 0x7D8 JUMPI DUP1 PUSH4 0xECE40CC1 EQ PUSH2 0x7F8 JUMPI DUP1 PUSH4 0xF23A6E61 EQ PUSH2 0x818 JUMPI DUP1 PUSH4 0xF8CE560A EQ PUSH2 0x844 JUMPI DUP1 PUSH4 0xFC0C546A EQ PUSH2 0x864 JUMPI PUSH1 0x0 DUP1 REVERT JUMPDEST DUP1 PUSH4 0xC28BC2FA EQ PUSH2 0x6CC JUMPI DUP1 PUSH4 0xC59057E4 EQ PUSH2 0x6EC JUMPI DUP1 PUSH4 0xD33219B4 EQ PUSH2 0x70C JUMPI DUP1 PUSH4 0xDD4E2BA5 EQ PUSH2 0x73E JUMPI DUP1 PUSH4 0xDEAAA7CC EQ PUSH2 0x784 JUMPI PUSH1 0x0 DUP1 REVERT JUMPDEST DUP1 PUSH4 0xA890C910 GT PUSH2 0xFD JUMPI DUP1 PUSH4 0xA890C910 EQ PUSH2 0x62B JUMPI DUP1 PUSH4 0xAB58FB8E EQ PUSH2 0x64B JUMPI DUP1 PUSH4 0xB58131B0 EQ PUSH2 0x66B JUMPI DUP1 PUSH4 0xBC197C81 EQ PUSH2 0x680 JUMPI DUP1 PUSH4 0xC01F9E37 EQ PUSH2 0x6AC JUMPI PUSH1 0x0 DUP1 REVERT JUMPDEST DUP1 PUSH4 0x7B3C71D3 EQ PUSH2 0x5A2 JUMPI DUP1 PUSH4 0x7D5E81E2 EQ PUSH2 0x5C2 JUMPI DUP1 PUSH4 0x97C3D334 EQ PUSH2 0x5E2 JUMPI DUP1 PUSH4 0x9A802A6D EQ PUSH2 0x5F6 JUMPI DUP1 PUSH4 0xA7713A70 EQ PUSH2 0x616 JUMPI PUSH1 0x0 DUP1 REVERT JUMPDEST DUP1 PUSH4 0x3932ABB1 GT PUSH2 0x1C7 JUMPI DUP1 PUSH4 0x54FD4D50 GT PUSH2 0x18B JUMPI DUP1 PUSH4 0x54FD4D50 EQ PUSH2 0x4F8 JUMPI DUP1 PUSH4 0x56781388 EQ PUSH2 0x522 JUMPI DUP1 PUSH4 0x5F398A14 EQ PUSH2 0x542 JUMPI DUP1 PUSH4 0x60C4247F EQ PUSH2 0x562 JUMPI DUP1 PUSH4 0x70B0F660 EQ PUSH2 0x582 JUMPI PUSH1 0x0 DUP1 REVERT JUMPDEST DUP1 PUSH4 0x3932ABB1 EQ PUSH2 0x3F7 JUMPI DUP1 PUSH4 0x3BCCF4FD EQ PUSH2 0x40C JUMPI DUP1 PUSH4 0x3E4F49E6 EQ PUSH2 0x42C JUMPI DUP1 PUSH4 0x43859632 EQ PUSH2 0x459 JUMPI DUP1 PUSH4 0x544FFC9C EQ PUSH2 0x4A3 JUMPI PUSH1 0x0 DUP1 REVERT JUMPDEST DUP1 PUSH4 0x150B7A02 GT PUSH2 0x20E JUMPI DUP1 PUSH4 0x150B7A02 EQ PUSH2 0x32C JUMPI DUP1 PUSH4 0x160CBED7 EQ PUSH2 0x370 JUMPI DUP1 PUSH4 0x2656227D EQ PUSH2 0x390 JUMPI DUP1 PUSH4 0x2D63F693 EQ PUSH2 0x3A3 JUMPI DUP1 PUSH4 0x2FE3E261 EQ PUSH2 0x3C3 JUMPI PUSH1 0x0 DUP1 REVERT JUMPDEST DUP1 PUSH4 0x1FFC9A7 EQ PUSH2 0x272 JUMPI DUP1 PUSH4 0x2A251A3 EQ PUSH2 0x2A7 JUMPI DUP1 PUSH4 0x3420181 EQ PUSH2 0x2CA JUMPI DUP1 PUSH4 0x6F3F9E6 EQ PUSH2 0x2EA JUMPI DUP1 PUSH4 0x6FDDE03 EQ PUSH2 0x30A JUMPI PUSH1 0x0 DUP1 REVERT JUMPDEST CALLDATASIZE PUSH2 0x26D JUMPI ADDRESS PUSH2 0x258 PUSH2 0x898 JUMP JUMPDEST PUSH1 0x1 PUSH1 0x1 PUSH1 0xA0 SHL SUB AND EQ PUSH2 0x26B JUMPI PUSH1 0x0 DUP1 REVERT JUMPDEST STOP JUMPDEST PUSH1 0x0 DUP1 REVERT JUMPDEST CALLVALUE DUP1 ISZERO PUSH2 0x27E JUMPI PUSH1 0x0 DUP1 REVERT JUMPDEST POP PUSH2 0x292 PUSH2 0x28D CALLDATASIZE PUSH1 0x4 PUSH2 0x33D4 JUMP JUMPDEST PUSH2 0x8B1 JUMP JUMPDEST PUSH1 0x40 MLOAD SWAP1 ISZERO ISZERO DUP2 MSTORE PUSH1 0x20 ADD JUMPDEST PUSH1 0x40 MLOAD DUP1 SWAP2 SUB SWAP1 RETURN JUMPDEST CALLVALUE DUP1 ISZERO PUSH2 0x2B3 JUMPI PUSH1 0x0 DUP1 REVERT JUMPDEST POP PUSH2 0x2BC PUSH2 0x8C2 JUMP JUMPDEST PUSH1 0x40 MLOAD SWAP1 DUP2 MSTORE PUSH1 0x20 ADD PUSH2 0x29E JUMP JUMPDEST CALLVALUE DUP1 ISZERO PUSH2 0x2D6 JUMPI PUSH1 0x0 DUP1 REVERT JUMPDEST POP PUSH2 0x2BC PUSH2 0x2E5 CALLDATASIZE PUSH1 0x4 PUSH2 0x353A JUMP JUMPDEST PUSH2 0x8CD JUMP JUMPDEST CALLVALUE DUP1 ISZERO PUSH2 0x2F6 JUMPI PUSH1 0x0 DUP1 REVERT JUMPDEST POP PUSH2 0x26B PUSH2 0x305 CALLDATASIZE PUSH1 0x4 PUSH2 0x341B JUMP JUMPDEST PUSH2 0x9C5 JUMP JUMPDEST CALLVALUE DUP1 ISZERO PUSH2 0x316 JUMPI PUSH1 0x0 DUP1 REVERT JUMPDEST POP PUSH2 0x31F PUSH2 0xA5D JUMP JUMPDEST PUSH1 0x40 MLOAD PUSH2 0x29E SWAP2 SWAP1 PUSH2 0x3858 JUMP JUMPDEST CALLVALUE DUP1 ISZERO PUSH2 0x338 JUMPI PUSH1 0x0 DUP1 REVERT JUMPDEST POP PUSH2 0x357 PUSH2 0x347 CALLDATASIZE PUSH1 0x4 PUSH2 0x30A4 JUMP JUMPDEST PUSH4 0xA85BD01 PUSH1 0xE1 SHL SWAP5 SWAP4 POP POP POP POP JUMP JUMPDEST PUSH1 0x40 MLOAD PUSH1 0x1 PUSH1 0x1 PUSH1 0xE0 SHL SUB NOT SWAP1 SWAP2 AND DUP2 MSTORE PUSH1 0x20 ADD PUSH2 0x29E JUMP JUMPDEST CALLVALUE DUP1 ISZERO PUSH2 0x37C JUMPI PUSH1 0x0 DUP1 REVERT JUMPDEST POP PUSH2 0x2BC PUSH2 0x38B CALLDATASIZE PUSH1 0x4 PUSH2 0x3256 JUMP JUMPDEST PUSH2 0xAEF JUMP JUMPDEST PUSH2 0x2BC PUSH2 0x39E CALLDATASIZE PUSH1 0x4 PUSH2 0x3256 JUMP JUMPDEST PUSH2 0xD0D JUMP JUMPDEST CALLVALUE DUP1 ISZERO PUSH2 0x3AF JUMPI PUSH1 0x0 DUP1 REVERT JUMPDEST POP PUSH2 0x2BC PUSH2 0x3BE CALLDATASIZE PUSH1 0x4 PUSH2 0x341B JUMP JUMPDEST PUSH2 0xDFA JUMP JUMPDEST CALLVALUE DUP1 ISZERO PUSH2 0x3CF JUMPI PUSH1 0x0 DUP1 REVERT JUMPDEST POP PUSH2 0x2BC PUSH32 0xB3B3F3B703CD84CE352197DCFF232B1B5D3CFB2025CE47CF04742D0651F1AF88 DUP2 JUMP JUMPDEST CALLVALUE DUP1 ISZERO PUSH2 0x403 JUMPI PUSH1 0x0 DUP1 REVERT JUMPDEST POP PUSH2 0x2BC PUSH2 0xE31 JUMP JUMPDEST CALLVALUE DUP1 ISZERO PUSH2 0x418 JUMPI PUSH1 0x0 DUP1 REVERT JUMPDEST POP PUSH2 0x2BC PUSH2 0x427 CALLDATASIZE PUSH1 0x4 PUSH2 0x35E0 JUMP JUMPDEST PUSH2 0xE3C JUMP JUMPDEST CALLVALUE DUP1 ISZERO PUSH2 0x438 JUMPI PUSH1 0x0 DUP1 REVERT JUMPDEST POP PUSH2 0x44C PUSH2 0x447 CALLDATASIZE PUSH1 0x4 PUSH2 0x341B JUMP JUMPDEST PUSH2 0xEB2 JUMP JUMPDEST PUSH1 0x40 MLOAD PUSH2 0x29E SWAP2 SWAP1 PUSH2 0x3830 JUMP JUMPDEST CALLVALUE DUP1 ISZERO PUSH2 0x465 JUMPI PUSH1 0x0 DUP1 REVERT JUMPDEST POP PUSH2 0x292 PUSH2 0x474 CALLDATASIZE PUSH1 0x4 PUSH2 0x3434 JUMP JUMPDEST PUSH1 0x0 DUP3 DUP2 MSTORE PUSH1 0x7 PUSH1 0x20 SWAP1 DUP2 MSTORE PUSH1 0x40 DUP1 DUP4 KECCAK256 PUSH1 0x1 PUSH1 0x1 PUSH1 0xA0 SHL SUB DUP6 AND DUP5 MSTORE PUSH1 0x3 ADD SWAP1 SWAP2 MSTORE SWAP1 KECCAK256 SLOAD PUSH1 0xFF AND SWAP3 SWAP2 POP POP JUMP JUMPDEST CALLVALUE DUP1 ISZERO PUSH2 0x4AF JUMPI PUSH1 0x0 DUP1 REVERT JUMPDEST POP PUSH2 0x4DD PUSH2 0x4BE CALLDATASIZE PUSH1 0x4 PUSH2 0x341B JUMP JUMPDEST PUSH1 0x0 SWAP1 DUP2 MSTORE PUSH1 0x7 PUSH1 0x20 MSTORE PUSH1 0x40 SWAP1 KECCAK256 DUP1 SLOAD PUSH1 0x1 DUP3 ADD SLOAD PUSH1 0x2 SWAP1 SWAP3 ADD SLOAD SWAP1 SWAP3 JUMP JUMPDEST PUSH1 0x40 DUP1 MLOAD SWAP4 DUP5 MSTORE PUSH1 0x20 DUP5 ADD SWAP3 SWAP1 SWAP3 MSTORE SWAP1 DUP3 ADD MSTORE PUSH1 0x60 ADD PUSH2 0x29E JUMP JUMPDEST CALLVALUE DUP1 ISZERO PUSH2 0x504 JUMPI PUSH1 0x0 DUP1 REVERT JUMPDEST POP PUSH1 0x40 DUP1 MLOAD DUP1 DUP3 ADD SWAP1 SWAP2 MSTORE PUSH1 0x1 DUP2 MSTORE PUSH1 0x31 PUSH1 0xF8 SHL PUSH1 0x20 DUP3 ADD MSTORE PUSH2 0x31F JUMP JUMPDEST CALLVALUE DUP1 ISZERO PUSH2 0x52E JUMPI PUSH1 0x0 DUP1 REVERT JUMPDEST POP PUSH2 0x2BC PUSH2 0x53D CALLDATASIZE PUSH1 0x4 PUSH2 0x3464 JUMP JUMPDEST PUSH2 0xEBD JUMP JUMPDEST CALLVALUE DUP1 ISZERO PUSH2 0x54E JUMPI PUSH1 0x0 DUP1 REVERT JUMPDEST POP PUSH2 0x2BC PUSH2 0x55D CALLDATASIZE PUSH1 0x4 PUSH2 0x34D1 JUMP JUMPDEST PUSH2 0xEE6 JUMP JUMPDEST CALLVALUE DUP1 ISZERO PUSH2 0x56E JUMPI PUSH1 0x0 DUP1 REVERT JUMPDEST POP PUSH2 0x2BC PUSH2 0x57D CALLDATASIZE PUSH1 0x4 PUSH2 0x341B JUMP JUMPDEST PUSH2 0xF30 JUMP JUMPDEST CALLVALUE DUP1 ISZERO PUSH2 0x58E JUMPI PUSH1 0x0 DUP1 REVERT JUMPDEST POP PUSH2 0x26B PUSH2 0x59D CALLDATASIZE PUSH1 0x4 PUSH2 0x341B JUMP JUMPDEST PUSH2 0xFC6 JUMP JUMPDEST CALLVALUE DUP1 ISZERO PUSH2 0x5AE JUMPI PUSH1 0x0 DUP1 REVERT JUMPDEST POP PUSH2 0x2BC PUSH2 0x5BD CALLDATASIZE PUSH1 0x4 PUSH2 0x3490 JUMP JUMPDEST PUSH2 0x1052 JUMP JUMPDEST CALLVALUE DUP1 ISZERO PUSH2 0x5CE JUMPI PUSH1 0x0 DUP1 REVERT JUMPDEST POP PUSH2 0x2BC PUSH2 0x5DD CALLDATASIZE PUSH1 0x4 PUSH2 0x32E5 JUMP JUMPDEST PUSH2 0x10A4 JUMP JUMPDEST CALLVALUE DUP1 ISZERO PUSH2 0x5EE JUMPI PUSH1 0x0 DUP1 REVERT JUMPDEST POP PUSH1 0x64 PUSH2 0x2BC JUMP JUMPDEST CALLVALUE DUP1 ISZERO PUSH2 0x602 JUMPI PUSH1 0x0 DUP1 REVERT JUMPDEST POP PUSH2 0x2BC PUSH2 0x611 CALLDATASIZE PUSH1 0x4 PUSH2 0x31FE JUMP JUMPDEST PUSH2 0x10BB JUMP JUMPDEST CALLVALUE DUP1 ISZERO PUSH2 0x622 JUMPI PUSH1 0x0 DUP1 REVERT JUMPDEST POP PUSH2 0x2BC PUSH2 0x10D2 JUMP JUMPDEST CALLVALUE DUP1 ISZERO PUSH2 0x637 JUMPI PUSH1 0x0 DUP1 REVERT JUMPDEST POP PUSH2 0x26B PUSH2 0x646 CALLDATASIZE PUSH1 0x4 PUSH2 0x33FE JUMP JUMPDEST PUSH2 0x10EE JUMP JUMPDEST CALLVALUE DUP1 ISZERO PUSH2 0x657 JUMPI PUSH1 0x0 DUP1 REVERT JUMPDEST POP PUSH2 0x2BC PUSH2 0x666 CALLDATASIZE PUSH1 0x4 PUSH2 0x341B JUMP JUMPDEST PUSH2 0x117A JUMP JUMPDEST CALLVALUE DUP1 ISZERO PUSH2 0x677 JUMPI PUSH1 0x0 DUP1 REVERT JUMPDEST POP PUSH2 0x2BC PUSH2 0x1223 JUMP JUMPDEST CALLVALUE DUP1 ISZERO PUSH2 0x68C JUMPI PUSH1 0x0 DUP1 REVERT JUMPDEST POP PUSH2 0x357 PUSH2 0x69B CALLDATASIZE PUSH1 0x4 PUSH2 0x2FF7 JUMP JUMPDEST PUSH4 0xBC197C81 PUSH1 0xE0 SHL SWAP6 SWAP5 POP POP POP POP POP JUMP JUMPDEST CALLVALUE DUP1 ISZERO PUSH2 0x6B8 JUMPI PUSH1 0x0 DUP1 REVERT JUMPDEST POP PUSH2 0x2BC PUSH2 0x6C7 CALLDATASIZE PUSH1 0x4 PUSH2 0x341B JUMP JUMPDEST PUSH2 0x122E JUMP JUMPDEST CALLVALUE DUP1 ISZERO PUSH2 0x6D8 JUMPI PUSH1 0x0 DUP1 REVERT JUMPDEST POP PUSH2 0x26B PUSH2 0x6E7 CALLDATASIZE PUSH1 0x4 PUSH2 0x31A3 JUMP JUMPDEST PUSH2 0x125D JUMP JUMPDEST CALLVALUE DUP1 ISZERO PUSH2 0x6F8 JUMPI PUSH1 0x0 DUP1 REVERT JUMPDEST POP PUSH2 0x2BC PUSH2 0x707 CALLDATASIZE PUSH1 0x4 PUSH2 0x3256 JUMP JUMPDEST PUSH2 0x1329 JUMP JUMPDEST CALLVALUE DUP1 ISZERO PUSH2 0x718 JUMPI PUSH1 0x0 DUP1 REVERT JUMPDEST POP PUSH1 0xA SLOAD PUSH1 0x1 PUSH1 0x1 PUSH1 0xA0 SHL SUB AND JUMPDEST PUSH1 0x40 MLOAD PUSH1 0x1 PUSH1 0x1 PUSH1 0xA0 SHL SUB SWAP1 SWAP2 AND DUP2 MSTORE PUSH1 0x20 ADD PUSH2 0x29E JUMP JUMPDEST CALLVALUE DUP1 ISZERO PUSH2 0x74A JUMPI PUSH1 0x0 DUP1 REVERT JUMPDEST POP PUSH1 0x40 DUP1 MLOAD DUP1 DUP3 ADD SWAP1 SWAP2 MSTORE PUSH1 0x20 DUP1 DUP3 MSTORE PUSH32 0x737570706F72743D627261766F2671756F72756D3D666F722C6162737461696E SWAP1 DUP3 ADD MSTORE PUSH2 0x31F JUMP JUMPDEST CALLVALUE DUP1 ISZERO PUSH2 0x790 JUMPI PUSH1 0x0 DUP1 REVERT JUMPDEST POP PUSH2 0x2BC PUSH32 0x150214D74D59B7D1E90C73FC22EF3D991DD0A76B046543D4D80AB92D2A50328F DUP2 JUMP JUMPDEST CALLVALUE DUP1 ISZERO PUSH2 0x7C4 JUMPI PUSH1 0x0 DUP1 REVERT JUMPDEST POP PUSH2 0x26B PUSH2 0x7D3 CALLDATASIZE PUSH1 0x4 PUSH2 0x341B JUMP JUMPDEST PUSH2 0x1363 JUMP JUMPDEST CALLVALUE DUP1 ISZERO PUSH2 0x7E4 JUMPI PUSH1 0x0 DUP1 REVERT JUMPDEST POP PUSH2 0x2BC PUSH2 0x7F3 CALLDATASIZE PUSH1 0x4 PUSH2 0x3177 JUMP JUMPDEST PUSH2 0x13EF JUMP JUMPDEST CALLVALUE DUP1 ISZERO PUSH2 0x804 JUMPI PUSH1 0x0 DUP1 REVERT JUMPDEST POP PUSH2 0x26B PUSH2 0x813 CALLDATASIZE PUSH1 0x4 PUSH2 0x341B JUMP JUMPDEST PUSH2 0x1410 JUMP JUMPDEST CALLVALUE DUP1 ISZERO PUSH2 0x824 JUMPI PUSH1 0x0 DUP1 REVERT JUMPDEST POP PUSH2 0x357 PUSH2 0x833 CALLDATASIZE PUSH1 0x4 PUSH2 0x310F JUMP JUMPDEST PUSH4 0xF23A6E61 PUSH1 0xE0 SHL SWAP6 SWAP5 POP POP POP POP POP JUMP JUMPDEST CALLVALUE DUP1 ISZERO PUSH2 0x850 JUMPI PUSH1 0x0 DUP1 REVERT JUMPDEST POP PUSH2 0x2BC PUSH2 0x85F CALLDATASIZE PUSH1 0x4 PUSH2 0x341B JUMP JUMPDEST PUSH2 0x149C JUMP JUMPDEST CALLVALUE DUP1 ISZERO PUSH2 0x870 JUMPI PUSH1 0x0 DUP1 REVERT JUMPDEST POP PUSH2 0x726 PUSH32 0x0 DUP2 JUMP JUMPDEST PUSH1 0x0 PUSH2 0x8AC PUSH1 0xA SLOAD PUSH1 0x1 PUSH1 0x1 PUSH1 0xA0 SHL SUB AND SWAP1 JUMP JUMPDEST SWAP1 POP SWAP1 JUMP JUMPDEST PUSH1 0x0 PUSH2 0x8BC DUP3 PUSH2 0x1700 JUMP JUMPDEST SWAP3 SWAP2 POP POP JUMP JUMPDEST PUSH1 0x0 PUSH2 0x8AC PUSH1 0x5 SLOAD SWAP1 JUMP JUMPDEST PUSH1 0x0 DUP1 PUSH2 0x971 PUSH2 0x969 PUSH32 0xB3B3F3B703CD84CE352197DCFF232B1B5D3CFB2025CE47CF04742D0651F1AF88 DUP13 DUP13 DUP13 DUP13 PUSH1 0x40 MLOAD PUSH2 0x909 SWAP3 SWAP2 SWAP1 PUSH2 0x3713 JUMP JUMPDEST PUSH1 0x40 MLOAD DUP1 SWAP2 SUB SWAP1 KECCAK256 DUP12 DUP1 MLOAD SWAP1 PUSH1 0x20 ADD KECCAK256 PUSH1 0x40 MLOAD PUSH1 0x20 ADD PUSH2 0x94E SWAP6 SWAP5 SWAP4 SWAP3 SWAP2 SWAP1 SWAP5 DUP6 MSTORE PUSH1 0x20 DUP6 ADD SWAP4 SWAP1 SWAP4 MSTORE PUSH1 0xFF SWAP2 SWAP1 SWAP2 AND PUSH1 0x40 DUP5 ADD MSTORE PUSH1 0x60 DUP4 ADD MSTORE PUSH1 0x80 DUP3 ADD MSTORE PUSH1 0xA0 ADD SWAP1 JUMP JUMPDEST PUSH1 0x40 MLOAD PUSH1 0x20 DUP2 DUP4 SUB SUB DUP2 MSTORE SWAP1 PUSH1 0x40 MSTORE DUP1 MLOAD SWAP1 PUSH1 0x20 ADD KECCAK256 PUSH2 0x1725 JUMP JUMPDEST DUP7 DUP7 DUP7 PUSH2 0x1773 JUMP JUMPDEST SWAP1 POP PUSH2 0x9B7 DUP11 DUP3 DUP12 DUP12 DUP12 DUP1 DUP1 PUSH1 0x1F ADD PUSH1 0x20 DUP1 SWAP2 DIV MUL PUSH1 0x20 ADD PUSH1 0x40 MLOAD SWAP1 DUP2 ADD PUSH1 0x40 MSTORE DUP1 SWAP4 SWAP3 SWAP2 SWAP1 DUP2 DUP2 MSTORE PUSH1 0x20 ADD DUP4 DUP4 DUP1 DUP3 DUP5 CALLDATACOPY PUSH1 0x0 SWAP3 ADD SWAP2 SWAP1 SWAP2 MSTORE POP DUP14 SWAP3 POP PUSH2 0x1791 SWAP2 POP POP JUMP JUMPDEST SWAP11 SWAP10 POP POP POP POP POP POP POP POP POP POP JUMP JUMPDEST PUSH2 0x9CD PUSH2 0x898 JUMP JUMPDEST PUSH1 0x1 PUSH1 0x1 PUSH1 0xA0 SHL SUB AND CALLER PUSH1 0x1 PUSH1 0x1 PUSH1 0xA0 SHL SUB AND EQ PUSH2 0xA06 JUMPI PUSH1 0x40 MLOAD PUSH3 0x461BCD PUSH1 0xE5 SHL DUP2 MSTORE PUSH1 0x4 ADD PUSH2 0x9FD SWAP1 PUSH2 0x386B JUMP JUMPDEST PUSH1 0x40 MLOAD DUP1 SWAP2 SUB SWAP1 REVERT JUMPDEST ADDRESS PUSH2 0xA0F PUSH2 0x898 JUMP JUMPDEST PUSH1 0x1 PUSH1 0x1 PUSH1 0xA0 SHL SUB AND EQ PUSH2 0xA51 JUMPI PUSH1 0x0 DUP1 CALLDATASIZE PUSH1 0x40 MLOAD PUSH2 0xA2F SWAP3 SWAP2 SWAP1 PUSH2 0x3713 JUMP JUMPDEST PUSH1 0x40 MLOAD DUP1 SWAP2 SUB SWAP1 KECCAK256 SWAP1 POP JUMPDEST DUP1 PUSH2 0xA45 PUSH1 0x2 PUSH2 0x18F3 JUMP JUMPDEST EQ PUSH2 0xA4F JUMPI PUSH2 0xA3A JUMP JUMPDEST POP JUMPDEST PUSH2 0xA5A DUP2 PUSH2 0x197F JUMP JUMPDEST POP JUMP JUMPDEST PUSH1 0x60 PUSH1 0x0 DUP1 SLOAD PUSH2 0xA6C SWAP1 PUSH2 0x3B9F JUMP JUMPDEST DUP1 PUSH1 0x1F ADD PUSH1 0x20 DUP1 SWAP2 DIV MUL PUSH1 0x20 ADD PUSH1 0x40 MLOAD SWAP1 DUP2 ADD PUSH1 0x40 MSTORE DUP1 SWAP3 SWAP2 SWAP1 DUP2 DUP2 MSTORE PUSH1 0x20 ADD DUP3 DUP1 SLOAD PUSH2 0xA98 SWAP1 PUSH2 0x3B9F JUMP JUMPDEST DUP1 ISZERO PUSH2 0xAE5 JUMPI DUP1 PUSH1 0x1F LT PUSH2 0xABA JUMPI PUSH2 0x100 DUP1 DUP4 SLOAD DIV MUL DUP4 MSTORE SWAP2 PUSH1 0x20 ADD SWAP2 PUSH2 0xAE5 JUMP JUMPDEST DUP3 ADD SWAP2 SWAP1 PUSH1 0x0 MSTORE PUSH1 0x20 PUSH1 0x0 KECCAK256 SWAP1 JUMPDEST DUP2 SLOAD DUP2 MSTORE SWAP1 PUSH1 0x1 ADD SWAP1 PUSH1 0x20 ADD DUP1 DUP4 GT PUSH2 0xAC8 JUMPI DUP3 SWAP1 SUB PUSH1 0x1F AND DUP3 ADD SWAP2 JUMPDEST POP POP POP POP POP SWAP1 POP SWAP1 JUMP JUMPDEST PUSH1 0x0 DUP1 PUSH2 0xAFE DUP7 DUP7 DUP7 DUP7 PUSH2 0x1329 JUMP JUMPDEST SWAP1 POP PUSH1 0x4 PUSH2 0xB0B DUP3 PUSH2 0xEB2 JUMP JUMPDEST PUSH1 0x7 DUP2 GT ISZERO PUSH2 0xB1C JUMPI PUSH2 0xB1C PUSH2 0x3C0B JUMP JUMPDEST EQ PUSH2 0xB39 JUMPI PUSH1 0x40 MLOAD PUSH3 0x461BCD PUSH1 0xE5 SHL DUP2 MSTORE PUSH1 0x4 ADD PUSH2 0x9FD SWAP1 PUSH2 0x38E3 JUMP JUMPDEST PUSH1 0xA SLOAD PUSH1 0x40 DUP1 MLOAD PUSH4 0x793D0649 PUSH1 0xE1 SHL DUP2 MSTORE SWAP1 MLOAD PUSH1 0x0 SWAP3 PUSH1 0x1 PUSH1 0x1 PUSH1 0xA0 SHL SUB AND SWAP2 PUSH4 0xF27A0C92 SWAP2 PUSH1 0x4 DUP1 DUP4 ADD SWAP3 PUSH1 0x20 SWAP3 SWAP2 SWAP1 DUP3 SWAP1 SUB ADD DUP2 DUP7 DUP1 EXTCODESIZE ISZERO DUP1 ISZERO PUSH2 0xB7E JUMPI PUSH1 0x0 DUP1 REVERT JUMPDEST POP GAS STATICCALL ISZERO DUP1 ISZERO PUSH2 0xB92 JUMPI RETURNDATASIZE PUSH1 0x0 DUP1 RETURNDATACOPY RETURNDATASIZE PUSH1 0x0 REVERT JUMPDEST POP POP POP POP PUSH1 0x40 MLOAD RETURNDATASIZE PUSH1 0x1F NOT PUSH1 0x1F DUP3 ADD AND DUP3 ADD DUP1 PUSH1 0x40 MSTORE POP DUP2 ADD SWAP1 PUSH2 0xBB6 SWAP2 SWAP1 PUSH2 0x33BB JUMP JUMPDEST PUSH1 0xA SLOAD PUSH1 0x40 MLOAD PUSH4 0xB1C5F427 PUSH1 0xE0 SHL DUP2 MSTORE SWAP2 SWAP3 POP PUSH1 0x1 PUSH1 0x1 PUSH1 0xA0 SHL SUB AND SWAP1 PUSH4 0xB1C5F427 SWAP1 PUSH2 0xBF0 SWAP1 DUP11 SWAP1 DUP11 SWAP1 DUP11 SWAP1 PUSH1 0x0 SWAP1 DUP12 SWAP1 PUSH1 0x4 ADD PUSH2 0x378A JUMP JUMPDEST PUSH1 0x20 PUSH1 0x40 MLOAD DUP1 DUP4 SUB DUP2 DUP7 DUP1 EXTCODESIZE ISZERO DUP1 ISZERO PUSH2 0xC08 JUMPI PUSH1 0x0 DUP1 REVERT JUMPDEST POP GAS STATICCALL ISZERO DUP1 ISZERO PUSH2 0xC1C JUMPI RETURNDATASIZE PUSH1 0x0 DUP1 RETURNDATACOPY RETURNDATASIZE PUSH1 0x0 REVERT JUMPDEST POP POP POP POP PUSH1 0x40 MLOAD RETURNDATASIZE PUSH1 0x1F NOT PUSH1 0x1F DUP3 ADD AND DUP3 ADD DUP1 PUSH1 0x40 MSTORE POP DUP2 ADD SWAP1 PUSH2 0xC40 SWAP2 SWAP1 PUSH2 0x33BB JUMP JUMPDEST PUSH1 0x0 DUP4 DUP2 MSTORE PUSH1 0xB PUSH1 0x20 MSTORE PUSH1 0x40 DUP1 DUP3 KECCAK256 SWAP3 SWAP1 SWAP3 SSTORE PUSH1 0xA SLOAD SWAP2 MLOAD PUSH4 0x8F2A0BB PUSH1 0xE4 SHL DUP2 MSTORE PUSH1 0x1 PUSH1 0x1 PUSH1 0xA0 SHL SUB SWAP1 SWAP3 AND SWAP2 PUSH4 0x8F2A0BB0 SWAP2 PUSH2 0xC8B SWAP2 DUP12 SWAP2 DUP12 SWAP2 DUP12 SWAP2 SWAP1 DUP12 SWAP1 DUP10 SWAP1 PUSH1 0x4 ADD PUSH2 0x37D8 JUMP JUMPDEST PUSH1 0x0 PUSH1 0x40 MLOAD DUP1 DUP4 SUB DUP2 PUSH1 0x0 DUP8 DUP1 EXTCODESIZE ISZERO DUP1 ISZERO PUSH2 0xCA5 JUMPI PUSH1 0x0 DUP1 REVERT JUMPDEST POP GAS CALL ISZERO DUP1 ISZERO PUSH2 0xCB9 JUMPI RETURNDATASIZE PUSH1 0x0 DUP1 RETURNDATACOPY RETURNDATASIZE PUSH1 0x0 REVERT JUMPDEST POP POP POP POP PUSH32 0x9A2E42FD6722813D69113E7D0079D3D940171428DF7373DF9C7F7617CFDA2892 DUP3 DUP3 TIMESTAMP PUSH2 0xCEB SWAP2 SWAP1 PUSH2 0x3AD4 JUMP JUMPDEST PUSH1 0x40 DUP1 MLOAD SWAP3 DUP4 MSTORE PUSH1 0x20 DUP4 ADD SWAP2 SWAP1 SWAP2 MSTORE ADD PUSH1 0x40 MLOAD DUP1 SWAP2 SUB SWAP1 LOG1 POP SWAP6 SWAP5 POP POP POP POP POP JUMP JUMPDEST PUSH1 0x0 DUP1 PUSH2 0xD1C DUP7 DUP7 DUP7 DUP7 PUSH2 0x1329 JUMP JUMPDEST SWAP1 POP PUSH1 0x0 PUSH2 0xD29 DUP3 PUSH2 0xEB2 JUMP JUMPDEST SWAP1 POP PUSH1 0x4 DUP2 PUSH1 0x7 DUP2 GT ISZERO PUSH2 0xD3F JUMPI PUSH2 0xD3F PUSH2 0x3C0B JUMP JUMPDEST EQ DUP1 PUSH2 0xD5C JUMPI POP PUSH1 0x5 DUP2 PUSH1 0x7 DUP2 GT ISZERO PUSH2 0xD5A JUMPI PUSH2 0xD5A PUSH2 0x3C0B JUMP JUMPDEST EQ JUMPDEST PUSH2 0xD78 JUMPI PUSH1 0x40 MLOAD PUSH3 0x461BCD PUSH1 0xE5 SHL DUP2 MSTORE PUSH1 0x4 ADD PUSH2 0x9FD SWAP1 PUSH2 0x38E3 JUMP JUMPDEST PUSH1 0x0 DUP3 DUP2 MSTORE PUSH1 0x1 PUSH1 0x20 DUP2 DUP2 MSTORE PUSH1 0x40 SWAP3 DUP4 SWAP1 KECCAK256 PUSH1 0x2 ADD DUP1 SLOAD PUSH1 0xFF NOT AND SWAP1 SWAP3 OR SWAP1 SWAP2 SSTORE SWAP1 MLOAD DUP4 DUP2 MSTORE PUSH32 0x712AE1383F79AC853F8D882153778E0260EF8F03B504E2866E0593E04D2B291F SWAP2 ADD PUSH1 0x40 MLOAD DUP1 SWAP2 SUB SWAP1 LOG1 PUSH2 0xDD6 DUP3 DUP9 DUP9 DUP9 DUP9 PUSH2 0x1ACC JUMP JUMPDEST PUSH2 0xDE3 DUP3 DUP9 DUP9 DUP9 DUP9 PUSH2 0x1B6E JUMP JUMPDEST PUSH2 0xDF0 DUP3 DUP9 DUP9 DUP9 DUP9 PUSH2 0x1B7B JUMP JUMPDEST POP SWAP6 SWAP5 POP POP POP POP POP JUMP JUMPDEST PUSH1 0x0 DUP2 DUP2 MSTORE PUSH1 0x1 PUSH1 0x20 SWAP1 DUP2 MSTORE PUSH1 0x40 DUP1 DUP4 KECCAK256 DUP2 MLOAD SWAP3 DUP4 ADD SWAP1 SWAP2 MSTORE SLOAD PUSH1 0x1 PUSH1 0x1 PUSH1 0x40 SHL SUB AND SWAP1 DUP2 SWAP1 MSTORE JUMPDEST PUSH1 0x1 PUSH1 0x1 PUSH1 0x40 SHL SUB AND SWAP3 SWAP2 POP POP JUMP JUMPDEST PUSH1 0x0 PUSH2 0x8AC PUSH1 0x4 SLOAD SWAP1 JUMP JUMPDEST PUSH1 0x40 DUP1 MLOAD PUSH32 0x150214D74D59B7D1E90C73FC22EF3D991DD0A76B046543D4D80AB92D2A50328F PUSH1 0x20 DUP3 ADD MSTORE SWAP1 DUP2 ADD DUP7 SWAP1 MSTORE PUSH1 0xFF DUP6 AND PUSH1 0x60 DUP3 ADD MSTORE PUSH1 0x0 SWAP1 DUP2 SWAP1 PUSH2 0xE8A SWAP1 PUSH2 0x969 SWAP1 PUSH1 0x80 ADD PUSH2 0x94E JUMP JUMPDEST SWAP1 POP PUSH2 0xEA7 DUP8 DUP3 DUP9 PUSH1 0x40 MLOAD DUP1 PUSH1 0x20 ADD PUSH1 0x40 MSTORE DUP1 PUSH1 0x0 DUP2 MSTORE POP PUSH2 0x1BB8 JUMP JUMPDEST SWAP8 SWAP7 POP POP POP POP POP POP POP JUMP JUMPDEST PUSH1 0x0 PUSH2 0x8BC DUP3 PUSH2 0x1BDB JUMP JUMPDEST PUSH1 0x0 DUP1 CALLER SWAP1 POP PUSH2 0xEDE DUP5 DUP3 DUP6 PUSH1 0x40 MLOAD DUP1 PUSH1 0x20 ADD PUSH1 0x40 MSTORE DUP1 PUSH1 0x0 DUP2 MSTORE POP PUSH2 0x1BB8 JUMP JUMPDEST SWAP5 SWAP4 POP POP POP POP JUMP JUMPDEST PUSH1 0x0 DUP1 CALLER SWAP1 POP PUSH2 0xEA7 DUP8 DUP3 DUP9 DUP9 DUP9 DUP1 DUP1 PUSH1 0x1F ADD PUSH1 0x20 DUP1 SWAP2 DIV MUL PUSH1 0x20 ADD PUSH1 0x40 MLOAD SWAP1 DUP2 ADD PUSH1 0x40 MSTORE DUP1 SWAP4 SWAP3 SWAP2 SWAP1 DUP2 DUP2 MSTORE PUSH1 0x20 ADD DUP4 DUP4 DUP1 DUP3 DUP5 CALLDATACOPY PUSH1 0x0 SWAP3 ADD SWAP2 SWAP1 SWAP2 MSTORE POP DUP11 SWAP3 POP PUSH2 0x1791 SWAP2 POP POP JUMP JUMPDEST PUSH1 0x9 SLOAD PUSH1 0x0 SWAP1 DUP1 PUSH2 0xF45 JUMPI POP POP PUSH1 0x8 SLOAD SWAP2 SWAP1 POP JUMP JUMPDEST PUSH1 0x0 PUSH1 0x9 PUSH2 0xF54 PUSH1 0x1 DUP5 PUSH2 0x3B58 JUMP JUMPDEST DUP2 SLOAD DUP2 LT PUSH2 0xF64 JUMPI PUSH2 0xF64 PUSH2 0x3C21 JUMP JUMPDEST PUSH1 0x0 SWAP2 DUP3 MSTORE PUSH1 0x20 SWAP2 DUP3 SWAP1 KECCAK256 PUSH1 0x40 DUP1 MLOAD DUP1 DUP3 ADD SWAP1 SWAP2 MSTORE SWAP2 ADD SLOAD PUSH4 0xFFFFFFFF DUP2 AND DUP1 DUP4 MSTORE PUSH5 0x100000000 SWAP1 SWAP2 DIV PUSH1 0x1 PUSH1 0x1 PUSH1 0xE0 SHL SUB AND SWAP3 DUP3 ADD SWAP3 SWAP1 SWAP3 MSTORE SWAP2 POP DUP5 LT PUSH2 0xFBB JUMPI PUSH1 0x20 ADD MLOAD PUSH1 0x1 PUSH1 0x1 PUSH1 0xE0 SHL SUB AND SWAP4 SWAP3 POP POP POP JUMP JUMPDEST PUSH2 0xEDE PUSH1 0x9 DUP6 PUSH2 0x1D43 JUMP JUMPDEST PUSH2 0xFCE PUSH2 0x898 JUMP JUMPDEST PUSH1 0x1 PUSH1 0x1 PUSH1 0xA0 SHL SUB AND CALLER PUSH1 0x1 PUSH1 0x1 PUSH1 0xA0 SHL SUB AND EQ PUSH2 0xFFE JUMPI PUSH1 0x40 MLOAD PUSH3 0x461BCD PUSH1 0xE5 SHL DUP2 MSTORE PUSH1 0x4 ADD PUSH2 0x9FD SWAP1 PUSH2 0x386B JUMP JUMPDEST ADDRESS PUSH2 0x1007 PUSH2 0x898 JUMP JUMPDEST PUSH1 0x1 PUSH1 0x1 PUSH1 0xA0 SHL SUB AND EQ PUSH2 0x1049 JUMPI PUSH1 0x0 DUP1 CALLDATASIZE PUSH1 0x40 MLOAD PUSH2 0x1027 SWAP3 SWAP2 SWAP1 PUSH2 0x3713 JUMP JUMPDEST PUSH1 0x40 MLOAD DUP1 SWAP2 SUB SWAP1 KECCAK256 SWAP1 POP JUMPDEST DUP1 PUSH2 0x103D PUSH1 0x2 PUSH2 0x18F3 JUMP JUMPDEST EQ PUSH2 0x1047 JUMPI PUSH2 0x1032 JUMP JUMPDEST POP JUMPDEST PUSH2 0xA5A DUP2 PUSH2 0x1E52 JUMP JUMPDEST PUSH1 0x0 DUP1 CALLER SWAP1 POP PUSH2 0x109A DUP7 DUP3 DUP8 DUP8 DUP8 DUP1 DUP1 PUSH1 0x1F ADD PUSH1 0x20 DUP1 SWAP2 DIV MUL PUSH1 0x20 ADD PUSH1 0x40 MLOAD SWAP1 DUP2 ADD PUSH1 0x40 MSTORE DUP1 SWAP4 SWAP3 SWAP2 SWAP1 DUP2 DUP2 MSTORE PUSH1 0x20 ADD DUP4 DUP4 DUP1 DUP3 DUP5 CALLDATACOPY PUSH1 0x0 SWAP3 ADD SWAP2 SWAP1 SWAP2 MSTORE POP PUSH2 0x1BB8 SWAP3 POP POP POP JUMP JUMPDEST SWAP7 SWAP6 POP POP POP POP POP POP JUMP JUMPDEST PUSH1 0x0 PUSH2 0x10B2 DUP6 DUP6 DUP6 DUP6 PUSH2 0x1E93 JUMP JUMPDEST SWAP6 SWAP5 POP POP POP POP POP JUMP JUMPDEST PUSH1 0x0 PUSH2 0x10C8 DUP5 DUP5 DUP5 PUSH2 0x2156 JUMP JUMPDEST SWAP1 POP JUMPDEST SWAP4 SWAP3 POP POP POP JUMP JUMPDEST PUSH1 0x9 SLOAD PUSH1 0x0 SWAP1 ISZERO PUSH2 0x10E7 JUMPI PUSH2 0x8AC PUSH1 0x9 PUSH2 0x163F JUMP JUMPDEST POP PUSH1 0x8 SLOAD SWAP1 JUMP JUMPDEST PUSH2 0x10F6 PUSH2 0x898 JUMP JUMPDEST PUSH1 0x1 PUSH1 0x1 PUSH1 0xA0 SHL SUB AND CALLER PUSH1 0x1 PUSH1 0x1 PUSH1 0xA0 SHL SUB AND EQ PUSH2 0x1126 JUMPI PUSH1 0x40 MLOAD PUSH3 0x461BCD PUSH1 0xE5 SHL DUP2 MSTORE PUSH1 0x4 ADD PUSH2 0x9FD SWAP1 PUSH2 0x386B JUMP JUMPDEST ADDRESS PUSH2 0x112F PUSH2 0x898 JUMP JUMPDEST PUSH1 0x1 PUSH1 0x1 PUSH1 0xA0 SHL SUB AND EQ PUSH2 0x1171 JUMPI PUSH1 0x0 DUP1 CALLDATASIZE PUSH1 0x40 MLOAD PUSH2 0x114F SWAP3 SWAP2 SWAP1 PUSH2 0x3713 JUMP JUMPDEST PUSH1 0x40 MLOAD DUP1 SWAP2 SUB SWAP1 KECCAK256 SWAP1 POP JUMPDEST DUP1 PUSH2 0x1165 PUSH1 0x2 PUSH2 0x18F3 JUMP JUMPDEST EQ PUSH2 0x116F JUMPI PUSH2 0x115A JUMP JUMPDEST POP JUMPDEST PUSH2 0xA5A DUP2 PUSH2 0x21FB JUMP JUMPDEST PUSH1 0xA SLOAD PUSH1 0x0 DUP3 DUP2 MSTORE PUSH1 0xB PUSH1 0x20 MSTORE PUSH1 0x40 DUP1 DUP3 KECCAK256 SLOAD SWAP1 MLOAD PUSH4 0xD45C4435 PUSH1 0xE0 SHL DUP2 MSTORE PUSH1 0x4 DUP2 ADD SWAP2 SWAP1 SWAP2 MSTORE SWAP1 SWAP2 DUP3 SWAP2 PUSH1 0x1 PUSH1 0x1 PUSH1 0xA0 SHL SUB SWAP1 SWAP2 AND SWAP1 PUSH4 0xD45C4435 SWAP1 PUSH1 0x24 ADD PUSH1 0x20 PUSH1 0x40 MLOAD DUP1 DUP4 SUB DUP2 DUP7 DUP1 EXTCODESIZE ISZERO DUP1 ISZERO PUSH2 0x11D2 JUMPI PUSH1 0x0 DUP1 REVERT JUMPDEST POP GAS STATICCALL ISZERO DUP1 ISZERO PUSH2 0x11E6 JUMPI RETURNDATASIZE PUSH1 0x0 DUP1 RETURNDATACOPY RETURNDATASIZE PUSH1 0x0 REVERT JUMPDEST POP POP POP POP PUSH1 0x40 MLOAD RETURNDATASIZE PUSH1 0x1F NOT PUSH1 0x1F DUP3 ADD AND DUP3 ADD DUP1 PUSH1 0x40 MSTORE POP DUP2 ADD SWAP1 PUSH2 0x120A SWAP2 SWAP1 PUSH2 0x33BB JUMP JUMPDEST SWAP1 POP DUP1 PUSH1 0x1 EQ PUSH2 0x121A JUMPI DUP1 PUSH2 0x10CB JUMP JUMPDEST PUSH1 0x0 SWAP4 SWAP3 POP POP POP JUMP JUMPDEST PUSH1 0x0 PUSH2 0x8AC PUSH1 0x6 SLOAD SWAP1 JUMP JUMPDEST PUSH1 0x0 DUP2 DUP2 MSTORE PUSH1 0x1 PUSH1 0x20 DUP2 DUP2 MSTORE PUSH1 0x40 DUP1 DUP5 KECCAK256 DUP2 MLOAD SWAP3 DUP4 ADD SWAP1 SWAP2 MSTORE SWAP1 SWAP2 ADD SLOAD PUSH1 0x1 PUSH1 0x1 PUSH1 0x40 SHL SUB AND SWAP1 DUP2 SWAP1 MSTORE PUSH2 0xE22 JUMP JUMPDEST PUSH2 0x1265 PUSH2 0x898 JUMP JUMPDEST PUSH1 0x1 PUSH1 0x1 PUSH1 0xA0 SHL SUB AND CALLER PUSH1 0x1 PUSH1 0x1 PUSH1 0xA0 SHL SUB AND EQ PUSH2 0x1295 JUMPI PUSH1 0x40 MLOAD PUSH3 0x461BCD PUSH1 0xE5 SHL DUP2 MSTORE PUSH1 0x4 ADD PUSH2 0x9FD SWAP1 PUSH2 0x386B JUMP JUMPDEST ADDRESS PUSH2 0x129E PUSH2 0x898 JUMP JUMPDEST PUSH1 0x1 PUSH1 0x1 PUSH1 0xA0 SHL SUB AND EQ PUSH2 0x12E0 JUMPI PUSH1 0x0 DUP1 CALLDATASIZE PUSH1 0x40 MLOAD PUSH2 0x12BE SWAP3 SWAP2 SWAP1 PUSH2 0x3713 JUMP JUMPDEST PUSH1 0x40 MLOAD DUP1 SWAP2 SUB SWAP1 KECCAK256 SWAP1 POP JUMPDEST DUP1 PUSH2 0x12D4 PUSH1 0x2 PUSH2 0x18F3 JUMP JUMPDEST EQ PUSH2 0x12DE JUMPI PUSH2 0x12C9 JUMP JUMPDEST POP JUMPDEST PUSH2 0x1322 DUP5 DUP4 DUP4 DUP1 DUP1 PUSH1 0x1F ADD PUSH1 0x20 DUP1 SWAP2 DIV MUL PUSH1 0x20 ADD PUSH1 0x40 MLOAD SWAP1 DUP2 ADD PUSH1 0x40 MSTORE DUP1 SWAP4 SWAP3 SWAP2 SWAP1 DUP2 DUP2 MSTORE PUSH1 0x20 ADD DUP4 DUP4 DUP1 DUP3 DUP5 CALLDATACOPY PUSH1 0x0 SWAP3 ADD SWAP2 SWAP1 SWAP2 MSTORE POP DUP9 SWAP3 POP PUSH2 0x2264 SWAP2 POP POP JUMP JUMPDEST POP POP POP POP POP JUMP JUMPDEST PUSH1 0x0 DUP5 DUP5 DUP5 DUP5 PUSH1 0x40 MLOAD PUSH1 0x20 ADD PUSH2 0x1342 SWAP5 SWAP4 SWAP3 SWAP2 SWAP1 PUSH2 0x373F JUMP JUMPDEST PUSH1 0x40 DUP1 MLOAD PUSH1 0x1F NOT DUP2 DUP5 SUB ADD DUP2 MSTORE SWAP2 SWAP1 MSTORE DUP1 MLOAD PUSH1 0x20 SWAP1 SWAP2 ADD KECCAK256 SWAP6 SWAP5 POP POP POP POP POP JUMP JUMPDEST PUSH2 0x136B PUSH2 0x898 JUMP JUMPDEST PUSH1 0x1 PUSH1 0x1 PUSH1 0xA0 SHL SUB AND CALLER PUSH1 0x1 PUSH1 0x1 PUSH1 0xA0 SHL SUB AND EQ PUSH2 0x139B JUMPI PUSH1 0x40 MLOAD PUSH3 0x461BCD PUSH1 0xE5 SHL DUP2 MSTORE PUSH1 0x4 ADD PUSH2 0x9FD SWAP1 PUSH2 0x386B JUMP JUMPDEST ADDRESS PUSH2 0x13A4 PUSH2 0x898 JUMP JUMPDEST PUSH1 0x1 PUSH1 0x1 PUSH1 0xA0 SHL SUB AND EQ PUSH2 0x13E6 JUMPI PUSH1 0x0 DUP1 CALLDATASIZE PUSH1 0x40 MLOAD PUSH2 0x13C4 SWAP3 SWAP2 SWAP1 PUSH2 0x3713 JUMP JUMPDEST PUSH1 0x40 MLOAD DUP1 SWAP2 SUB SWAP1 KECCAK256 SWAP1 POP JUMPDEST DUP1 PUSH2 0x13DA PUSH1 0x2 PUSH2 0x18F3 JUMP JUMPDEST EQ PUSH2 0x13E4 JUMPI PUSH2 0x13CF JUMP JUMPDEST POP JUMPDEST PUSH2 0xA5A DUP2 PUSH2 0x228A JUMP JUMPDEST PUSH1 0x0 PUSH2 0x10CB DUP4 DUP4 PUSH2 0x140B PUSH1 0x40 DUP1 MLOAD PUSH1 0x20 DUP2 ADD SWAP1 SWAP2 MSTORE PUSH1 0x0 DUP2 MSTORE SWAP1 JUMP JUMPDEST PUSH2 0x2156 JUMP JUMPDEST PUSH2 0x1418 PUSH2 0x898 JUMP JUMPDEST PUSH1 0x1 PUSH1 0x1 PUSH1 0xA0 SHL SUB AND CALLER PUSH1 0x1 PUSH1 0x1 PUSH1 0xA0 SHL SUB AND EQ PUSH2 0x1448 JUMPI PUSH1 0x40 MLOAD PUSH3 0x461BCD PUSH1 0xE5 SHL DUP2 MSTORE PUSH1 0x4 ADD PUSH2 0x9FD SWAP1 PUSH2 0x386B JUMP JUMPDEST ADDRESS PUSH2 0x1451 PUSH2 0x898 JUMP JUMPDEST PUSH1 0x1 PUSH1 0x1 PUSH1 0xA0 SHL SUB AND EQ PUSH2 0x1493 JUMPI PUSH1 0x0 DUP1 CALLDATASIZE PUSH1 0x40 MLOAD PUSH2 0x1471 SWAP3 SWAP2 SWAP1 PUSH2 0x3713 JUMP JUMPDEST PUSH1 0x40 MLOAD DUP1 SWAP2 SUB SWAP1 KECCAK256 SWAP1 POP JUMPDEST DUP1 PUSH2 0x1487 PUSH1 0x2 PUSH2 0x18F3 JUMP JUMPDEST EQ PUSH2 0x1491 JUMPI PUSH2 0x147C JUMP JUMPDEST POP JUMPDEST PUSH2 0xA5A DUP2 PUSH2 0x232B JUMP JUMPDEST PUSH1 0x0 PUSH2 0x8BC DUP3 PUSH2 0x236C JUMP JUMPDEST PUSH1 0x0 PUSH1 0x1 PUSH1 0x1 PUSH1 0xE0 SHL SUB DUP3 GT ISZERO PUSH2 0x1510 JUMPI PUSH1 0x40 MLOAD PUSH3 0x461BCD PUSH1 0xE5 SHL DUP2 MSTORE PUSH1 0x20 PUSH1 0x4 DUP3 ADD MSTORE PUSH1 0x27 PUSH1 0x24 DUP3 ADD MSTORE PUSH32 0x53616665436173743A2076616C756520646F65736E27742066697420696E2032 PUSH1 0x44 DUP3 ADD MSTORE PUSH7 0x32342062697473 PUSH1 0xC8 SHL PUSH1 0x64 DUP3 ADD MSTORE PUSH1 0x84 ADD PUSH2 0x9FD JUMP JUMPDEST POP SWAP1 JUMP JUMPDEST DUP2 SLOAD PUSH1 0x0 SWAP1 DUP2 SWAP1 DUP2 PUSH2 0x1525 DUP7 PUSH2 0x163F JUMP JUMPDEST SWAP1 POP PUSH1 0x0 DUP3 GT DUP1 ISZERO PUSH2 0x1563 JUMPI POP NUMBER DUP7 PUSH2 0x153F PUSH1 0x1 DUP6 PUSH2 0x3B58 JUMP JUMPDEST DUP2 SLOAD DUP2 LT PUSH2 0x154F JUMPI PUSH2 0x154F PUSH2 0x3C21 JUMP JUMPDEST PUSH1 0x0 SWAP2 DUP3 MSTORE PUSH1 0x20 SWAP1 SWAP2 KECCAK256 ADD SLOAD PUSH4 0xFFFFFFFF AND EQ JUMPDEST ISZERO PUSH2 0x15C3 JUMPI PUSH2 0x1571 DUP6 PUSH2 0x14A7 JUMP JUMPDEST DUP7 PUSH2 0x157D PUSH1 0x1 DUP6 PUSH2 0x3B58 JUMP JUMPDEST DUP2 SLOAD DUP2 LT PUSH2 0x158D JUMPI PUSH2 0x158D PUSH2 0x3C21 JUMP JUMPDEST SWAP1 PUSH1 0x0 MSTORE PUSH1 0x20 PUSH1 0x0 KECCAK256 ADD PUSH1 0x0 ADD PUSH1 0x4 PUSH2 0x100 EXP DUP2 SLOAD DUP2 PUSH1 0x1 PUSH1 0x1 PUSH1 0xE0 SHL SUB MUL NOT AND SWAP1 DUP4 PUSH1 0x1 PUSH1 0x1 PUSH1 0xE0 SHL SUB AND MUL OR SWAP1 SSTORE POP PUSH2 0x1631 JUMP JUMPDEST DUP6 PUSH1 0x0 ADD PUSH1 0x40 MLOAD DUP1 PUSH1 0x40 ADD PUSH1 0x40 MSTORE DUP1 PUSH2 0x15DB NUMBER PUSH2 0x169B JUMP JUMPDEST PUSH4 0xFFFFFFFF AND DUP2 MSTORE PUSH1 0x20 ADD PUSH2 0x15EF DUP9 PUSH2 0x14A7 JUMP JUMPDEST PUSH1 0x1 PUSH1 0x1 PUSH1 0xE0 SHL SUB SWAP1 DUP2 AND SWAP1 SWAP2 MSTORE DUP3 SLOAD PUSH1 0x1 DUP2 ADD DUP5 SSTORE PUSH1 0x0 SWAP4 DUP5 MSTORE PUSH1 0x20 SWAP4 DUP5 SWAP1 KECCAK256 DUP4 MLOAD SWAP5 SWAP1 SWAP4 ADD MLOAD SWAP1 SWAP2 AND PUSH5 0x100000000 MUL PUSH4 0xFFFFFFFF SWAP1 SWAP4 AND SWAP3 SWAP1 SWAP3 OR SWAP2 ADD SSTORE JUMPDEST SWAP3 POP DUP4 SWAP2 POP POP JUMPDEST SWAP3 POP SWAP3 SWAP1 POP JUMP JUMPDEST DUP1 SLOAD PUSH1 0x0 SWAP1 DUP1 ISZERO PUSH2 0x1688 JUMPI DUP3 PUSH2 0x1656 PUSH1 0x1 DUP4 PUSH2 0x3B58 JUMP JUMPDEST DUP2 SLOAD DUP2 LT PUSH2 0x1666 JUMPI PUSH2 0x1666 PUSH2 0x3C21 JUMP JUMPDEST PUSH1 0x0 SWAP2 DUP3 MSTORE PUSH1 0x20 SWAP1 SWAP2 KECCAK256 ADD SLOAD PUSH5 0x100000000 SWAP1 DIV PUSH1 0x1 PUSH1 0x1 PUSH1 0xE0 SHL SUB AND PUSH2 0x168B JUMP JUMPDEST PUSH1 0x0 JUMPDEST PUSH1 0x1 PUSH1 0x1 PUSH1 0xE0 SHL SUB AND SWAP4 SWAP3 POP POP POP JUMP JUMPDEST PUSH1 0x0 PUSH4 0xFFFFFFFF DUP3 GT ISZERO PUSH2 0x1510 JUMPI PUSH1 0x40 MLOAD PUSH3 0x461BCD PUSH1 0xE5 SHL DUP2 MSTORE PUSH1 0x20 PUSH1 0x4 DUP3 ADD MSTORE PUSH1 0x26 PUSH1 0x24 DUP3 ADD MSTORE PUSH32 0x53616665436173743A2076616C756520646F65736E27742066697420696E2033 PUSH1 0x44 DUP3 ADD MSTORE PUSH6 0x322062697473 PUSH1 0xD0 SHL PUSH1 0x64 DUP3 ADD MSTORE PUSH1 0x84 ADD PUSH2 0x9FD JUMP JUMPDEST PUSH1 0x0 PUSH1 0x1 PUSH1 0x1 PUSH1 0xE0 SHL SUB NOT DUP3 AND PUSH4 0x6E665CED PUSH1 0xE0 SHL EQ DUP1 PUSH2 0x8BC JUMPI POP PUSH2 0x8BC DUP3 PUSH2 0x2425 JUMP JUMPDEST PUSH1 0x0 PUSH2 0x8BC PUSH2 0x1732 PUSH2 0x2490 JUMP JUMPDEST DUP4 PUSH1 0x40 MLOAD PUSH2 0x1901 PUSH1 0xF0 SHL PUSH1 0x20 DUP3 ADD MSTORE PUSH1 0x22 DUP2 ADD DUP4 SWAP1 MSTORE PUSH1 0x42 DUP2 ADD DUP3 SWAP1 MSTORE PUSH1 0x0 SWAP1 PUSH1 0x62 ADD PUSH1 0x40 MLOAD PUSH1 0x20 DUP2 DUP4 SUB SUB DUP2 MSTORE SWAP1 PUSH1 0x40 MSTORE DUP1 MLOAD SWAP1 PUSH1 0x20 ADD KECCAK256 SWAP1 POP SWAP3 SWAP2 POP POP JUMP JUMPDEST PUSH1 0x0 DUP1 PUSH1 0x0 PUSH2 0x1784 DUP8 DUP8 DUP8 DUP8 PUSH2 0x25B7 JUMP JUMPDEST SWAP2 POP SWAP2 POP PUSH2 0xDF0 DUP2 PUSH2 0x26A4 JUMP JUMPDEST PUSH1 0x0 DUP6 DUP2 MSTORE PUSH1 0x1 PUSH1 0x20 DUP2 SWAP1 MSTORE PUSH1 0x40 DUP3 KECCAK256 SWAP1 PUSH2 0x17AB DUP9 PUSH2 0xEB2 JUMP JUMPDEST PUSH1 0x7 DUP2 GT ISZERO PUSH2 0x17BC JUMPI PUSH2 0x17BC PUSH2 0x3C0B JUMP JUMPDEST EQ PUSH2 0x1815 JUMPI PUSH1 0x40 MLOAD PUSH3 0x461BCD PUSH1 0xE5 SHL DUP2 MSTORE PUSH1 0x20 PUSH1 0x4 DUP3 ADD MSTORE PUSH1 0x23 PUSH1 0x24 DUP3 ADD MSTORE PUSH32 0x476F7665726E6F723A20766F7465206E6F742063757272656E746C7920616374 PUSH1 0x44 DUP3 ADD MSTORE PUSH3 0x697665 PUSH1 0xE8 SHL PUSH1 0x64 DUP3 ADD MSTORE PUSH1 0x84 ADD PUSH2 0x9FD JUMP JUMPDEST PUSH1 0x40 DUP1 MLOAD PUSH1 0x20 DUP2 ADD SWAP1 SWAP2 MSTORE DUP2 SLOAD PUSH1 0x1 PUSH1 0x1 PUSH1 0x40 SHL SUB AND SWAP1 DUP2 SWAP1 MSTORE PUSH1 0x0 SWAP1 PUSH2 0x183E SWAP1 DUP9 SWAP1 DUP7 PUSH2 0x2156 JUMP JUMPDEST SWAP1 POP PUSH2 0x184D DUP9 DUP9 DUP9 DUP5 DUP9 PUSH2 0x285F JUMP JUMPDEST DUP4 MLOAD PUSH2 0x189F JUMPI DUP7 PUSH1 0x1 PUSH1 0x1 PUSH1 0xA0 SHL SUB AND PUSH32 0xB8E138887D0AA13BAB447E82DE9D5C1777041ECD21CA36BA824FF1E6C07DDDA4 DUP10 DUP9 DUP5 DUP10 PUSH1 0x40 MLOAD PUSH2 0x1892 SWAP5 SWAP4 SWAP3 SWAP2 SWAP1 PUSH2 0x3A13 JUMP JUMPDEST PUSH1 0x40 MLOAD DUP1 SWAP2 SUB SWAP1 LOG2 PUSH2 0xEA7 JUMP JUMPDEST DUP7 PUSH1 0x1 PUSH1 0x1 PUSH1 0xA0 SHL SUB AND PUSH32 0xE2BABFBAC5889A709B63BB7F598B324E08BC5A4FB9EC647FB3CBC9EC07EB8712 DUP10 DUP9 DUP5 DUP10 DUP10 PUSH1 0x40 MLOAD PUSH2 0x18E0 SWAP6 SWAP5 SWAP4 SWAP3 SWAP2 SWAP1 PUSH2 0x3A3B JUMP JUMPDEST PUSH1 0x40 MLOAD DUP1 SWAP2 SUB SWAP1 LOG2 SWAP8 SWAP7 POP POP POP POP POP POP POP JUMP JUMPDEST PUSH1 0x0 PUSH2 0x1912 DUP3 SLOAD PUSH1 0xF DUP2 DUP2 SIGNEXTEND DUP2 SIGNEXTEND PUSH1 0x1 PUSH1 0x80 SHL SWAP1 SWAP3 DIV DUP2 SIGNEXTEND SWAP1 SIGNEXTEND SGT ISZERO SWAP1 JUMP JUMPDEST ISZERO PUSH2 0x1930 JUMPI PUSH1 0x40 MLOAD PUSH4 0x1ED95095 PUSH1 0xE1 SHL DUP2 MSTORE PUSH1 0x4 ADD PUSH1 0x40 MLOAD DUP1 SWAP2 SUB SWAP1 REVERT JUMPDEST POP DUP1 SLOAD PUSH1 0xF SWAP1 DUP2 SIGNEXTEND DUP1 DUP3 SIGNEXTEND DUP3 SIGNEXTEND PUSH1 0x0 SWAP1 DUP2 MSTORE PUSH1 0x1 DUP1 DUP6 ADD PUSH1 0x20 MSTORE PUSH1 0x40 DUP3 KECCAK256 DUP1 SLOAD SWAP3 SWAP1 SSTORE DUP5 SLOAD SWAP3 ADD SWAP1 SWAP3 SIGNEXTEND PUSH1 0x1 PUSH1 0x1 PUSH1 0x80 SHL SUB AND PUSH16 0xFFFFFFFFFFFFFFFFFFFFFFFFFFFFFFFF NOT SWAP1 SWAP2 AND OR SWAP1 SWAP2 SSTORE SWAP1 JUMP JUMPDEST PUSH1 0x64 DUP2 GT ISZERO PUSH2 0x1A02 JUMPI PUSH1 0x40 MLOAD PUSH3 0x461BCD PUSH1 0xE5 SHL DUP2 MSTORE PUSH1 0x20 PUSH1 0x4 DUP3 ADD MSTORE PUSH1 0x43 PUSH1 0x24 DUP3 ADD MSTORE PUSH32 0x476F7665726E6F72566F74657351756F72756D4672616374696F6E3A2071756F PUSH1 0x44 DUP3 ADD MSTORE PUSH32 0x72756D4E756D657261746F72206F7665722071756F72756D44656E6F6D696E61 PUSH1 0x64 DUP3 ADD MSTORE PUSH3 0x3A37B9 PUSH1 0xE9 SHL PUSH1 0x84 DUP3 ADD MSTORE PUSH1 0xA4 ADD PUSH2 0x9FD JUMP JUMPDEST PUSH1 0x0 PUSH2 0x1A0C PUSH2 0x10D2 JUMP JUMPDEST SWAP1 POP DUP1 ISZERO DUP1 ISZERO SWAP1 PUSH2 0x1A1D JUMPI POP PUSH1 0x9 SLOAD ISZERO JUMPDEST ISZERO PUSH2 0x1A82 JUMPI PUSH1 0x40 DUP1 MLOAD DUP1 DUP3 ADD SWAP1 SWAP2 MSTORE PUSH1 0x0 DUP2 MSTORE PUSH1 0x9 SWAP1 PUSH1 0x20 DUP2 ADD PUSH2 0x1A40 DUP5 PUSH2 0x14A7 JUMP JUMPDEST PUSH1 0x1 PUSH1 0x1 PUSH1 0xE0 SHL SUB SWAP1 DUP2 AND SWAP1 SWAP2 MSTORE DUP3 SLOAD PUSH1 0x1 DUP2 ADD DUP5 SSTORE PUSH1 0x0 SWAP4 DUP5 MSTORE PUSH1 0x20 SWAP4 DUP5 SWAP1 KECCAK256 DUP4 MLOAD SWAP5 SWAP1 SWAP4 ADD MLOAD SWAP1 SWAP2 AND PUSH5 0x100000000 MUL PUSH4 0xFFFFFFFF SWAP1 SWAP4 AND SWAP3 SWAP1 SWAP3 OR SWAP2 ADD SSTORE JUMPDEST PUSH2 0x1A8D PUSH1 0x9 DUP4 PUSH2 0x1514 JUMP JUMPDEST POP POP PUSH1 0x40 DUP1 MLOAD DUP3 DUP2 MSTORE PUSH1 0x20 DUP2 ADD DUP5 SWAP1 MSTORE PUSH32 0x553476BF02EF2726E8CE5CED78D63E26E602E4A2257B1F559418E24B4633997 SWAP2 ADD PUSH1 0x40 MLOAD DUP1 SWAP2 SUB SWAP1 LOG1 POP POP JUMP JUMPDEST ADDRESS PUSH2 0x1AD5 PUSH2 0x898 JUMP JUMPDEST PUSH1 0x1 PUSH1 0x1 PUSH1 0xA0 SHL SUB AND EQ PUSH2 0x1322 JUMPI PUSH1 0x0 JUMPDEST DUP5 MLOAD DUP2 LT ISZERO PUSH2 0x1B66 JUMPI ADDRESS PUSH1 0x1 PUSH1 0x1 PUSH1 0xA0 SHL SUB AND DUP6 DUP3 DUP2 MLOAD DUP2 LT PUSH2 0x1B0B JUMPI PUSH2 0x1B0B PUSH2 0x3C21 JUMP JUMPDEST PUSH1 0x20 MUL PUSH1 0x20 ADD ADD MLOAD PUSH1 0x1 PUSH1 0x1 PUSH1 0xA0 SHL SUB AND EQ ISZERO PUSH2 0x1B56 JUMPI PUSH2 0x1B56 DUP4 DUP3 DUP2 MLOAD DUP2 LT PUSH2 0x1B37 JUMPI PUSH2 0x1B37 PUSH2 0x3C21 JUMP JUMPDEST PUSH1 0x20 MUL PUSH1 0x20 ADD ADD MLOAD DUP1 MLOAD SWAP1 PUSH1 0x20 ADD KECCAK256 PUSH1 0x2 PUSH2 0x29DE SWAP1 SWAP2 SWAP1 PUSH4 0xFFFFFFFF AND JUMP JUMPDEST PUSH2 0x1B5F DUP2 PUSH2 0x3BDA JUMP JUMPDEST SWAP1 POP PUSH2 0x1AE6 JUMP JUMPDEST POP POP POP POP POP POP JUMP JUMPDEST PUSH2 0x1322 DUP6 DUP6 DUP6 DUP6 DUP6 PUSH2 0x2A24 JUMP JUMPDEST ADDRESS PUSH2 0x1B84 PUSH2 0x898 JUMP JUMPDEST PUSH1 0x1 PUSH1 0x1 PUSH1 0xA0 SHL SUB AND EQ PUSH2 0x1322 JUMPI PUSH1 0x2 SLOAD PUSH1 0xF DUP2 DUP2 SIGNEXTEND DUP2 SIGNEXTEND PUSH1 0x1 PUSH1 0x80 SHL SWAP1 SWAP3 DIV DUP2 SIGNEXTEND SWAP1 SIGNEXTEND SGT ISZERO PUSH2 0x1322 JUMPI PUSH1 0x0 PUSH1 0x2 SSTORE PUSH2 0x1322 JUMP JUMPDEST PUSH1 0x0 PUSH2 0x10B2 DUP6 DUP6 DUP6 DUP6 PUSH2 0x1BD6 PUSH1 0x40 DUP1 MLOAD PUSH1 0x20 DUP2 ADD SWAP1 SWAP2 MSTORE PUSH1 0x0 DUP2 MSTORE SWAP1 JUMP JUMPDEST PUSH2 0x1791 JUMP JUMPDEST PUSH1 0x0 DUP1 PUSH2 0x1BE7 DUP4 PUSH2 0x2A98 JUMP JUMPDEST SWAP1 POP PUSH1 0x4 DUP2 PUSH1 0x7 DUP2 GT ISZERO PUSH2 0x1BFD JUMPI PUSH2 0x1BFD PUSH2 0x3C0B JUMP JUMPDEST EQ PUSH2 0x1C08 JUMPI SWAP3 SWAP2 POP POP JUMP JUMPDEST PUSH1 0x0 DUP4 DUP2 MSTORE PUSH1 0xB PUSH1 0x20 MSTORE PUSH1 0x40 SWAP1 KECCAK256 SLOAD DUP1 PUSH2 0x1C23 JUMPI POP SWAP3 SWAP2 POP POP JUMP JUMPDEST PUSH1 0xA SLOAD PUSH1 0x40 MLOAD PUSH4 0x2AB0F529 PUSH1 0xE0 SHL DUP2 MSTORE PUSH1 0x4 DUP2 ADD DUP4 SWAP1 MSTORE PUSH1 0x1 PUSH1 0x1 PUSH1 0xA0 SHL SUB SWAP1 SWAP2 AND SWAP1 PUSH4 0x2AB0F529 SWAP1 PUSH1 0x24 ADD PUSH1 0x20 PUSH1 0x40 MLOAD DUP1 DUP4 SUB DUP2 DUP7 DUP1 EXTCODESIZE ISZERO DUP1 ISZERO PUSH2 0x1C67 JUMPI PUSH1 0x0 DUP1 REVERT JUMPDEST POP GAS STATICCALL ISZERO DUP1 ISZERO PUSH2 0x1C7B JUMPI RETURNDATASIZE PUSH1 0x0 DUP1 RETURNDATACOPY RETURNDATASIZE PUSH1 0x0 REVERT JUMPDEST POP POP POP POP PUSH1 0x40 MLOAD RETURNDATASIZE PUSH1 0x1F NOT PUSH1 0x1F DUP3 ADD AND DUP3 ADD DUP1 PUSH1 0x40 MSTORE POP DUP2 ADD SWAP1 PUSH2 0x1C9F SWAP2 SWAP1 PUSH2 0x3399 JUMP JUMPDEST ISZERO PUSH2 0x1CAE JUMPI POP PUSH1 0x7 SWAP4 SWAP3 POP POP POP JUMP JUMPDEST PUSH1 0xA SLOAD PUSH1 0x40 MLOAD PUSH4 0x2C258A9F PUSH1 0xE1 SHL DUP2 MSTORE PUSH1 0x4 DUP2 ADD DUP4 SWAP1 MSTORE PUSH1 0x1 PUSH1 0x1 PUSH1 0xA0 SHL SUB SWAP1 SWAP2 AND SWAP1 PUSH4 0x584B153E SWAP1 PUSH1 0x24 ADD PUSH1 0x20 PUSH1 0x40 MLOAD DUP1 DUP4 SUB DUP2 DUP7 DUP1 EXTCODESIZE ISZERO DUP1 ISZERO PUSH2 0x1CF2 JUMPI PUSH1 0x0 DUP1 REVERT JUMPDEST POP GAS STATICCALL ISZERO DUP1 ISZERO PUSH2 0x1D06 JUMPI RETURNDATASIZE PUSH1 0x0 DUP1 RETURNDATACOPY RETURNDATASIZE PUSH1 0x0 REVERT JUMPDEST POP POP POP POP PUSH1 0x40 MLOAD RETURNDATASIZE PUSH1 0x1F NOT PUSH1 0x1F DUP3 ADD AND DUP3 ADD DUP1 PUSH1 0x40 MSTORE POP DUP2 ADD SWAP1 PUSH2 0x1D2A SWAP2 SWAP1 PUSH2 0x3399 JUMP JUMPDEST ISZERO PUSH2 0x1D39 JUMPI POP PUSH1 0x5 SWAP4 SWAP3 POP POP POP JUMP JUMPDEST POP PUSH1 0x2 SWAP4 SWAP3 POP POP POP JUMP JUMPDEST PUSH1 0x0 NUMBER DUP3 LT PUSH2 0x1D94 JUMPI PUSH1 0x40 MLOAD PUSH3 0x461BCD PUSH1 0xE5 SHL DUP2 MSTORE PUSH1 0x20 PUSH1 0x4 DUP3 ADD DUP2 SWAP1 MSTORE PUSH1 0x24 DUP3 ADD MSTORE PUSH32 0x436865636B706F696E74733A20626C6F636B206E6F7420796574206D696E6564 PUSH1 0x44 DUP3 ADD MSTORE PUSH1 0x64 ADD PUSH2 0x9FD JUMP JUMPDEST DUP3 SLOAD PUSH1 0x0 JUMPDEST DUP2 DUP2 LT ISZERO PUSH2 0x1DF9 JUMPI PUSH1 0x0 PUSH2 0x1DAD DUP3 DUP5 PUSH2 0x2BA4 JUMP JUMPDEST SWAP1 POP DUP5 DUP7 PUSH1 0x0 ADD DUP3 DUP2 SLOAD DUP2 LT PUSH2 0x1DC5 JUMPI PUSH2 0x1DC5 PUSH2 0x3C21 JUMP JUMPDEST PUSH1 0x0 SWAP2 DUP3 MSTORE PUSH1 0x20 SWAP1 SWAP2 KECCAK256 ADD SLOAD PUSH4 0xFFFFFFFF AND GT ISZERO PUSH2 0x1DE5 JUMPI DUP1 SWAP3 POP PUSH2 0x1DF3 JUMP JUMPDEST PUSH2 0x1DF0 DUP2 PUSH1 0x1 PUSH2 0x3AD4 JUMP JUMPDEST SWAP2 POP JUMPDEST POP PUSH2 0x1D99 JUMP JUMPDEST DUP2 ISZERO PUSH2 0x1E3D JUMPI DUP5 PUSH2 0x1E0B PUSH1 0x1 DUP5 PUSH2 0x3B58 JUMP JUMPDEST DUP2 SLOAD DUP2 LT PUSH2 0x1E1B JUMPI PUSH2 0x1E1B PUSH2 0x3C21 JUMP JUMPDEST PUSH1 0x0 SWAP2 DUP3 MSTORE PUSH1 0x20 SWAP1 SWAP2 KECCAK256 ADD SLOAD PUSH5 0x100000000 SWAP1 DIV PUSH1 0x1 PUSH1 0x1 PUSH1 0xE0 SHL SUB AND PUSH2 0x1E40 JUMP JUMPDEST PUSH1 0x0 JUMPDEST PUSH1 0x1 PUSH1 0x1 PUSH1 0xE0 SHL SUB AND SWAP6 SWAP5 POP POP POP POP POP JUMP JUMPDEST PUSH1 0x4 SLOAD PUSH1 0x40 DUP1 MLOAD SWAP2 DUP3 MSTORE PUSH1 0x20 DUP3 ADD DUP4 SWAP1 MSTORE PUSH32 0xC565B045403DC03C2EEA82B81A0465EDAD9E2E7FC4D97E11421C209DA93D7A93 SWAP2 ADD PUSH1 0x40 MLOAD DUP1 SWAP2 SUB SWAP1 LOG1 PUSH1 0x4 SSTORE JUMP JUMPDEST PUSH1 0x0 PUSH2 0x1E9D PUSH2 0x1223 JUMP JUMPDEST PUSH2 0x1EAC CALLER PUSH2 0x7F3 PUSH1 0x1 NUMBER PUSH2 0x3B58 JUMP JUMPDEST LT ISZERO PUSH2 0x1F14 JUMPI PUSH1 0x40 MLOAD PUSH3 0x461BCD PUSH1 0xE5 SHL DUP2 MSTORE PUSH1 0x20 PUSH1 0x4 DUP3 ADD MSTORE PUSH1 0x31 PUSH1 0x24 DUP3 ADD MSTORE PUSH32 0x476F7665726E6F723A2070726F706F73657220766F7465732062656C6F772070 PUSH1 0x44 DUP3 ADD MSTORE PUSH17 0x1C9BDC1BDCD85B081D1A1C995CDA1BDB19 PUSH1 0x7A SHL PUSH1 0x64 DUP3 ADD MSTORE PUSH1 0x84 ADD PUSH2 0x9FD JUMP JUMPDEST PUSH1 0x0 PUSH2 0x1F29 DUP7 DUP7 DUP7 DUP7 DUP1 MLOAD SWAP1 PUSH1 0x20 ADD KECCAK256 PUSH2 0x1329 JUMP JUMPDEST SWAP1 POP DUP5 MLOAD DUP7 MLOAD EQ PUSH2 0x1F4C JUMPI PUSH1 0x40 MLOAD PUSH3 0x461BCD PUSH1 0xE5 SHL DUP2 MSTORE PUSH1 0x4 ADD PUSH2 0x9FD SWAP1 PUSH2 0x38A2 JUMP JUMPDEST DUP4 MLOAD DUP7 MLOAD EQ PUSH2 0x1F6D JUMPI PUSH1 0x40 MLOAD PUSH3 0x461BCD PUSH1 0xE5 SHL DUP2 MSTORE PUSH1 0x4 ADD PUSH2 0x9FD SWAP1 PUSH2 0x38A2 JUMP JUMPDEST PUSH1 0x0 DUP7 MLOAD GT PUSH2 0x1FBE JUMPI PUSH1 0x40 MLOAD PUSH3 0x461BCD PUSH1 0xE5 SHL DUP2 MSTORE PUSH1 0x20 PUSH1 0x4 DUP3 ADD MSTORE PUSH1 0x18 PUSH1 0x24 DUP3 ADD MSTORE PUSH32 0x476F7665726E6F723A20656D7074792070726F706F73616C0000000000000000 PUSH1 0x44 DUP3 ADD MSTORE PUSH1 0x64 ADD PUSH2 0x9FD JUMP JUMPDEST PUSH1 0x0 DUP2 DUP2 MSTORE PUSH1 0x1 PUSH1 0x20 SWAP1 DUP2 MSTORE PUSH1 0x40 SWAP2 DUP3 SWAP1 KECCAK256 DUP3 MLOAD SWAP2 DUP3 ADD SWAP1 SWAP3 MSTORE DUP2 SLOAD PUSH1 0x1 PUSH1 0x1 PUSH1 0x40 SHL SUB AND SWAP1 DUP2 SWAP1 MSTORE ISZERO PUSH2 0x203E JUMPI PUSH1 0x40 MLOAD PUSH3 0x461BCD PUSH1 0xE5 SHL DUP2 MSTORE PUSH1 0x20 PUSH1 0x4 DUP3 ADD MSTORE PUSH1 0x21 PUSH1 0x24 DUP3 ADD MSTORE PUSH32 0x476F7665726E6F723A2070726F706F73616C20616C7265616479206578697374 PUSH1 0x44 DUP3 ADD MSTORE PUSH1 0x73 PUSH1 0xF8 SHL PUSH1 0x64 DUP3 ADD MSTORE PUSH1 0x84 ADD PUSH2 0x9FD JUMP JUMPDEST PUSH1 0x0 PUSH2 0x2050 PUSH2 0x204B PUSH2 0xE31 JUMP JUMPDEST PUSH2 0x2BBF JUMP JUMPDEST PUSH2 0x2059 NUMBER PUSH2 0x2BBF JUMP JUMPDEST PUSH2 0x2063 SWAP2 SWAP1 PUSH2 0x3AEC JUMP JUMPDEST SWAP1 POP PUSH1 0x0 PUSH2 0x2072 PUSH2 0x204B PUSH2 0x8C2 JUMP JUMPDEST PUSH2 0x207C SWAP1 DUP4 PUSH2 0x3AEC JUMP JUMPDEST DUP4 SLOAD PUSH8 0xFFFFFFFFFFFFFFFF NOT AND PUSH1 0x1 PUSH1 0x1 PUSH1 0x40 SHL SUB DUP5 AND OR DUP5 SSTORE SWAP1 POP PUSH1 0x1 DUP4 ADD DUP1 SLOAD PUSH8 0xFFFFFFFFFFFFFFFF NOT AND PUSH1 0x1 PUSH1 0x1 PUSH1 0x40 SHL SUB DUP4 AND OR SWAP1 SSTORE PUSH32 0x7D84A6263AE0D98D3329BD7B46BB4E8D6F98CD35A7ADB45C274C8B7FD5EBD5E0 DUP5 CALLER DUP12 DUP12 DUP14 MLOAD PUSH1 0x1 PUSH1 0x1 PUSH1 0x40 SHL SUB DUP2 GT ISZERO PUSH2 0x20F4 JUMPI PUSH2 0x20F4 PUSH2 0x3C37 JUMP JUMPDEST PUSH1 0x40 MLOAD SWAP1 DUP1 DUP3 MSTORE DUP1 PUSH1 0x20 MUL PUSH1 0x20 ADD DUP3 ADD PUSH1 0x40 MSTORE DUP1 ISZERO PUSH2 0x2127 JUMPI DUP2 PUSH1 0x20 ADD JUMPDEST PUSH1 0x60 DUP2 MSTORE PUSH1 0x20 ADD SWAP1 PUSH1 0x1 SWAP1 SUB SWAP1 DUP2 PUSH2 0x2112 JUMPI SWAP1 POP JUMPDEST POP DUP13 DUP9 DUP9 DUP15 PUSH1 0x40 MLOAD PUSH2 0x2141 SWAP10 SWAP9 SWAP8 SWAP7 SWAP6 SWAP5 SWAP4 SWAP3 SWAP2 SWAP1 PUSH2 0x3924 JUMP JUMPDEST PUSH1 0x40 MLOAD DUP1 SWAP2 SUB SWAP1 LOG1 POP SWAP2 SWAP8 SWAP7 POP POP POP POP POP POP POP JUMP JUMPDEST PUSH1 0x40 MLOAD PUSH4 0x748D635 PUSH1 0xE3 SHL DUP2 MSTORE PUSH1 0x1 PUSH1 0x1 PUSH1 0xA0 SHL SUB DUP5 DUP2 AND PUSH1 0x4 DUP4 ADD MSTORE PUSH1 0x24 DUP3 ADD DUP5 SWAP1 MSTORE PUSH1 0x0 SWAP2 PUSH32 0x0 SWAP1 SWAP2 AND SWAP1 PUSH4 0x3A46B1A8 SWAP1 PUSH1 0x44 ADD PUSH1 0x20 PUSH1 0x40 MLOAD DUP1 DUP4 SUB DUP2 DUP7 DUP1 EXTCODESIZE ISZERO DUP1 ISZERO PUSH2 0x21C3 JUMPI PUSH1 0x0 DUP1 REVERT JUMPDEST POP GAS STATICCALL ISZERO DUP1 ISZERO PUSH2 0x21D7 JUMPI RETURNDATASIZE PUSH1 0x0 DUP1 RETURNDATACOPY RETURNDATASIZE PUSH1 0x0 REVERT JUMPDEST POP POP POP POP PUSH1 0x40 MLOAD RETURNDATASIZE PUSH1 0x1F NOT PUSH1 0x1F DUP3 ADD AND DUP3 ADD DUP1 PUSH1 0x40 MSTORE POP DUP2 ADD SWAP1 PUSH2 0x10C8 SWAP2 SWAP1 PUSH2 0x33BB JUMP JUMPDEST PUSH1 0xA SLOAD PUSH1 0x40 DUP1 MLOAD PUSH1 0x1 PUSH1 0x1 PUSH1 0xA0 SHL SUB SWAP3 DUP4 AND DUP2 MSTORE SWAP2 DUP4 AND PUSH1 0x20 DUP4 ADD MSTORE PUSH32 0x8F74EA46EF7894F65EABFB5E6E695DE773A000B47C529AB559178069B226401 SWAP2 ADD PUSH1 0x40 MLOAD DUP1 SWAP2 SUB SWAP1 LOG1 PUSH1 0xA DUP1 SLOAD PUSH1 0x1 PUSH1 0x1 PUSH1 0xA0 SHL SUB NOT AND PUSH1 0x1 PUSH1 0x1 PUSH1 0xA0 SHL SUB SWAP3 SWAP1 SWAP3 AND SWAP2 SWAP1 SWAP2 OR SWAP1 SSTORE JUMP JUMPDEST PUSH1 0x60 PUSH2 0x10C8 DUP5 DUP5 DUP5 PUSH1 0x40 MLOAD DUP1 PUSH1 0x60 ADD PUSH1 0x40 MSTORE DUP1 PUSH1 0x29 DUP2 MSTORE PUSH1 0x20 ADD PUSH2 0x3C63 PUSH1 0x29 SWAP2 CODECOPY PUSH2 0x2C27 JUMP JUMPDEST PUSH1 0x0 DUP2 GT PUSH2 0x22EA JUMPI PUSH1 0x40 MLOAD PUSH3 0x461BCD PUSH1 0xE5 SHL DUP2 MSTORE PUSH1 0x20 PUSH1 0x4 DUP3 ADD MSTORE PUSH1 0x27 PUSH1 0x24 DUP3 ADD MSTORE PUSH32 0x476F7665726E6F7253657474696E67733A20766F74696E6720706572696F6420 PUSH1 0x44 DUP3 ADD MSTORE PUSH7 0x746F6F206C6F77 PUSH1 0xC8 SHL PUSH1 0x64 DUP3 ADD MSTORE PUSH1 0x84 ADD PUSH2 0x9FD JUMP JUMPDEST PUSH1 0x5 SLOAD PUSH1 0x40 DUP1 MLOAD SWAP2 DUP3 MSTORE PUSH1 0x20 DUP3 ADD DUP4 SWAP1 MSTORE PUSH32 0x7E3F7F0708A84DE9203036ABAA450DCCC85AD5FF52F78C170F3EDB55CF5E8828 SWAP2 ADD PUSH1 0x40 MLOAD DUP1 SWAP2 SUB SWAP1 LOG1 PUSH1 0x5 SSTORE JUMP JUMPDEST PUSH1 0x6 SLOAD PUSH1 0x40 DUP1 MLOAD SWAP2 DUP3 MSTORE PUSH1 0x20 DUP3 ADD DUP4 SWAP1 MSTORE PUSH32 0xCCB45DA8D5717E6C4544694297C4BA5CF151D455C9BB0ED4FC7A38411BC05461 SWAP2 ADD PUSH1 0x40 MLOAD DUP1 SWAP2 SUB SWAP1 LOG1 PUSH1 0x6 SSTORE JUMP JUMPDEST PUSH1 0x0 PUSH1 0x64 PUSH2 0x2379 DUP4 PUSH2 0xF30 JUMP JUMPDEST PUSH1 0x40 MLOAD PUSH4 0x2394E7A3 PUSH1 0xE2 SHL DUP2 MSTORE PUSH1 0x4 DUP2 ADD DUP6 SWAP1 MSTORE PUSH32 0x0 PUSH1 0x1 PUSH1 0x1 PUSH1 0xA0 SHL SUB AND SWAP1 PUSH4 0x8E539E8C SWAP1 PUSH1 0x24 ADD PUSH1 0x20 PUSH1 0x40 MLOAD DUP1 DUP4 SUB DUP2 DUP7 DUP1 EXTCODESIZE ISZERO DUP1 ISZERO PUSH2 0x23D9 JUMPI PUSH1 0x0 DUP1 REVERT JUMPDEST POP GAS STATICCALL ISZERO DUP1 ISZERO PUSH2 0x23ED JUMPI RETURNDATASIZE PUSH1 0x0 DUP1 RETURNDATACOPY RETURNDATASIZE PUSH1 0x0 REVERT JUMPDEST POP POP POP POP PUSH1 0x40 MLOAD RETURNDATASIZE PUSH1 0x1F NOT PUSH1 0x1F DUP3 ADD AND DUP3 ADD DUP1 PUSH1 0x40 MSTORE POP DUP2 ADD SWAP1 PUSH2 0x2411 SWAP2 SWAP1 PUSH2 0x33BB JUMP JUMPDEST PUSH2 0x241B SWAP2 SWAP1 PUSH2 0x3B39 JUMP JUMPDEST PUSH2 0x8BC SWAP2 SWAP1 PUSH2 0x3B17 JUMP JUMPDEST PUSH1 0x0 PUSH1 0x1 PUSH1 0x1 PUSH1 0xE0 SHL SUB NOT DUP3 AND PUSH4 0xBF26D897 PUSH1 0xE0 SHL EQ DUP1 PUSH2 0x2456 JUMPI POP PUSH1 0x1 PUSH1 0x1 PUSH1 0xE0 SHL SUB NOT DUP3 AND PUSH4 0x79DD796F PUSH1 0xE0 SHL EQ JUMPDEST DUP1 PUSH2 0x2471 JUMPI POP PUSH1 0x1 PUSH1 0x1 PUSH1 0xE0 SHL SUB NOT DUP3 AND PUSH4 0x2711897 PUSH1 0xE5 SHL EQ JUMPDEST DUP1 PUSH2 0x8BC JUMPI POP PUSH4 0x1FFC9A7 PUSH1 0xE0 SHL PUSH1 0x1 PUSH1 0x1 PUSH1 0xE0 SHL SUB NOT DUP4 AND EQ PUSH2 0x8BC JUMP JUMPDEST PUSH1 0x0 ADDRESS PUSH1 0x1 PUSH1 0x1 PUSH1 0xA0 SHL SUB PUSH32 0x0 AND EQ DUP1 ISZERO PUSH2 0x24E9 JUMPI POP PUSH32 0x0 CHAINID EQ JUMPDEST ISZERO PUSH2 0x2513 JUMPI POP PUSH32 0x0 SWAP1 JUMP JUMPDEST POP PUSH1 0x40 DUP1 MLOAD PUSH32 0x0 PUSH1 0x20 DUP1 DUP4 ADD SWAP2 SWAP1 SWAP2 MSTORE PUSH32 0x0 DUP3 DUP5 ADD MSTORE PUSH32 0x0 PUSH1 0x60 DUP4 ADD MSTORE CHAINID PUSH1 0x80 DUP4 ADD MSTORE ADDRESS PUSH1 0xA0 DUP1 DUP5 ADD SWAP2 SWAP1 SWAP2 MSTORE DUP4 MLOAD DUP1 DUP5 SUB SWAP1 SWAP2 ADD DUP2 MSTORE PUSH1 0xC0 SWAP1 SWAP3 ADD SWAP1 SWAP3 MSTORE DUP1 MLOAD SWAP2 ADD KECCAK256 SWAP1 JUMP JUMPDEST PUSH1 0x0 DUP1 PUSH32 0x7FFFFFFFFFFFFFFFFFFFFFFFFFFFFFFF5D576E7357A4501DDFE92F46681B20A0 DUP4 GT ISZERO PUSH2 0x25EE JUMPI POP PUSH1 0x0 SWAP1 POP PUSH1 0x3 PUSH2 0x269B JUMP JUMPDEST DUP5 PUSH1 0xFF AND PUSH1 0x1B EQ ISZERO DUP1 ISZERO PUSH2 0x2606 JUMPI POP DUP5 PUSH1 0xFF AND PUSH1 0x1C EQ ISZERO JUMPDEST ISZERO PUSH2 0x2617 JUMPI POP PUSH1 0x0 SWAP1 POP PUSH1 0x4 PUSH2 0x269B JUMP JUMPDEST PUSH1 0x40 DUP1 MLOAD PUSH1 0x0 DUP1 DUP3 MSTORE PUSH1 0x20 DUP3 ADD DUP1 DUP5 MSTORE DUP10 SWAP1 MSTORE PUSH1 0xFF DUP9 AND SWAP3 DUP3 ADD SWAP3 SWAP1 SWAP3 MSTORE PUSH1 0x60 DUP2 ADD DUP7 SWAP1 MSTORE PUSH1 0x80 DUP2 ADD DUP6 SWAP1 MSTORE PUSH1 0x1 SWAP1 PUSH1 0xA0 ADD PUSH1 0x20 PUSH1 0x40 MLOAD PUSH1 0x20 DUP2 SUB SWAP1 DUP1 DUP5 SUB SWAP1 DUP6 GAS STATICCALL ISZERO DUP1 ISZERO PUSH2 0x266B JUMPI RETURNDATASIZE PUSH1 0x0 DUP1 RETURNDATACOPY RETURNDATASIZE PUSH1 0x0 REVERT JUMPDEST POP POP PUSH1 0x40 MLOAD PUSH1 0x1F NOT ADD MLOAD SWAP2 POP POP PUSH1 0x1 PUSH1 0x1 PUSH1 0xA0 SHL SUB DUP2 AND PUSH2 0x2694 JUMPI PUSH1 0x0 PUSH1 0x1 SWAP3 POP SWAP3 POP POP PUSH2 0x269B JUMP JUMPDEST SWAP2 POP PUSH1 0x0 SWAP1 POP JUMPDEST SWAP5 POP SWAP5 SWAP3 POP POP POP JUMP JUMPDEST PUSH1 0x0 DUP2 PUSH1 0x4 DUP2 GT ISZERO PUSH2 0x26B8 JUMPI PUSH2 0x26B8 PUSH2 0x3C0B JUMP JUMPDEST EQ ISZERO PUSH2 0x26C1 JUMPI POP JUMP JUMPDEST PUSH1 0x1 DUP2 PUSH1 0x4 DUP2 GT ISZERO PUSH2 0x26D5 JUMPI PUSH2 0x26D5 PUSH2 0x3C0B JUMP JUMPDEST EQ ISZERO PUSH2 0x2723 JUMPI PUSH1 0x40 MLOAD PUSH3 0x461BCD PUSH1 0xE5 SHL DUP2 MSTORE PUSH1 0x20 PUSH1 0x4 DUP3 ADD MSTORE PUSH1 0x18 PUSH1 0x24 DUP3 ADD MSTORE PUSH32 0x45434453413A20696E76616C6964207369676E61747572650000000000000000 PUSH1 0x44 DUP3 ADD MSTORE PUSH1 0x64 ADD PUSH2 0x9FD JUMP JUMPDEST PUSH1 0x2 DUP2 PUSH1 0x4 DUP2 GT ISZERO PUSH2 0x2737 JUMPI PUSH2 0x2737 PUSH2 0x3C0B JUMP JUMPDEST EQ ISZERO PUSH2 0x2785 JUMPI PUSH1 0x40 MLOAD PUSH3 0x461BCD PUSH1 0xE5 SHL DUP2 MSTORE PUSH1 0x20 PUSH1 0x4 DUP3 ADD MSTORE PUSH1 0x1F PUSH1 0x24 DUP3 ADD MSTORE PUSH32 0x45434453413A20696E76616C6964207369676E6174757265206C656E67746800 PUSH1 0x44 DUP3 ADD MSTORE PUSH1 0x64 ADD PUSH2 0x9FD JUMP JUMPDEST PUSH1 0x3 DUP2 PUSH1 0x4 DUP2 GT ISZERO PUSH2 0x2799 JUMPI PUSH2 0x2799 PUSH2 0x3C0B JUMP JUMPDEST EQ ISZERO PUSH2 0x27F2 JUMPI PUSH1 0x40 MLOAD PUSH3 0x461BCD PUSH1 0xE5 SHL DUP2 MSTORE PUSH1 0x20 PUSH1 0x4 DUP3 ADD MSTORE PUSH1 0x22 PUSH1 0x24 DUP3 ADD MSTORE PUSH32 0x45434453413A20696E76616C6964207369676E6174757265202773272076616C PUSH1 0x44 DUP3 ADD MSTORE PUSH2 0x7565 PUSH1 0xF0 SHL PUSH1 0x64 DUP3 ADD MSTORE PUSH1 0x84 ADD PUSH2 0x9FD JUMP JUMPDEST PUSH1 0x4 DUP2 PUSH1 0x4 DUP2 GT ISZERO PUSH2 0x2806 JUMPI PUSH2 0x2806 PUSH2 0x3C0B JUMP JUMPDEST EQ ISZERO PUSH2 0xA5A JUMPI PUSH1 0x40 MLOAD PUSH3 0x461BCD PUSH1 0xE5 SHL DUP2 MSTORE PUSH1 0x20 PUSH1 0x4 DUP3 ADD MSTORE PUSH1 0x22 PUSH1 0x24 DUP3 ADD MSTORE PUSH32 0x45434453413A20696E76616C6964207369676E6174757265202776272076616C PUSH1 0x44 DUP3 ADD MSTORE PUSH2 0x7565 PUSH1 0xF0 SHL PUSH1 0x64 DUP3 ADD MSTORE PUSH1 0x84 ADD PUSH2 0x9FD JUMP JUMPDEST PUSH1 0x0 DUP6 DUP2 MSTORE PUSH1 0x7 PUSH1 0x20 SWAP1 DUP2 MSTORE PUSH1 0x40 DUP1 DUP4 KECCAK256 PUSH1 0x1 PUSH1 0x1 PUSH1 0xA0 SHL SUB DUP9 AND DUP5 MSTORE PUSH1 0x3 DUP2 ADD SWAP1 SWAP3 MSTORE SWAP1 SWAP2 KECCAK256 SLOAD PUSH1 0xFF AND ISZERO PUSH2 0x28E7 JUMPI PUSH1 0x40 MLOAD PUSH3 0x461BCD PUSH1 0xE5 SHL DUP2 MSTORE PUSH1 0x20 PUSH1 0x4 DUP3 ADD MSTORE PUSH1 0x27 PUSH1 0x24 DUP3 ADD MSTORE PUSH32 0x476F7665726E6F72566F74696E6753696D706C653A20766F746520616C726561 PUSH1 0x44 DUP3 ADD MSTORE PUSH7 0x191E4818D85CDD PUSH1 0xCA SHL PUSH1 0x64 DUP3 ADD MSTORE PUSH1 0x84 ADD PUSH2 0x9FD JUMP JUMPDEST PUSH1 0x1 PUSH1 0x1 PUSH1 0xA0 SHL SUB DUP6 AND PUSH1 0x0 SWAP1 DUP2 MSTORE PUSH1 0x3 DUP3 ADD PUSH1 0x20 MSTORE PUSH1 0x40 DUP2 KECCAK256 DUP1 SLOAD PUSH1 0xFF NOT AND PUSH1 0x1 OR SWAP1 SSTORE PUSH1 0xFF AND DUP5 PUSH1 0xFF AND EQ ISZERO PUSH2 0x2938 JUMPI DUP3 DUP2 PUSH1 0x0 ADD PUSH1 0x0 DUP3 DUP3 SLOAD PUSH2 0x292D SWAP2 SWAP1 PUSH2 0x3AD4 JUMP JUMPDEST SWAP1 SWAP2 SSTORE POP PUSH2 0x1B66 SWAP1 POP JUMP JUMPDEST PUSH1 0xFF DUP5 AND PUSH1 0x1 EQ ISZERO PUSH2 0x2958 JUMPI DUP3 DUP2 PUSH1 0x1 ADD PUSH1 0x0 DUP3 DUP3 SLOAD PUSH2 0x292D SWAP2 SWAP1 PUSH2 0x3AD4 JUMP JUMPDEST PUSH1 0xFF DUP5 AND PUSH1 0x2 EQ ISZERO PUSH2 0x2978 JUMPI DUP3 DUP2 PUSH1 0x2 ADD PUSH1 0x0 DUP3 DUP3 SLOAD PUSH2 0x292D SWAP2 SWAP1 PUSH2 0x3AD4 JUMP JUMPDEST PUSH1 0x40 MLOAD PUSH3 0x461BCD PUSH1 0xE5 SHL DUP2 MSTORE PUSH1 0x20 PUSH1 0x4 DUP3 ADD MSTORE PUSH1 0x35 PUSH1 0x24 DUP3 ADD MSTORE PUSH32 0x476F7665726E6F72566F74696E6753696D706C653A20696E76616C6964207661 PUSH1 0x44 DUP3 ADD MSTORE PUSH21 0x6C756520666F7220656E756D20566F746554797065 PUSH1 0x58 SHL PUSH1 0x64 DUP3 ADD MSTORE PUSH1 0x84 ADD PUSH2 0x9FD JUMP JUMPDEST DUP2 SLOAD PUSH1 0x1 PUSH1 0x80 SHL SWAP1 DUP2 SWAP1 DIV PUSH1 0xF SWAP1 DUP2 SIGNEXTEND DUP1 DUP3 SIGNEXTEND DUP3 SIGNEXTEND PUSH1 0x0 SWAP1 DUP2 MSTORE PUSH1 0x1 DUP1 DUP8 ADD PUSH1 0x20 MSTORE PUSH1 0x40 SWAP1 SWAP2 KECCAK256 SWAP5 SWAP1 SWAP5 SSTORE DUP5 SLOAD SWAP4 ADD SWAP1 SIGNEXTEND PUSH1 0x1 PUSH1 0x1 PUSH1 0x80 SHL SUB SWAP1 DUP2 AND SWAP1 SWAP2 MUL SWAP2 AND OR SWAP1 SSTORE JUMP JUMPDEST PUSH1 0xA SLOAD PUSH1 0x40 MLOAD PUSH4 0xE38335E5 PUSH1 0xE0 SHL DUP2 MSTORE PUSH1 0x1 PUSH1 0x1 PUSH1 0xA0 SHL SUB SWAP1 SWAP2 AND SWAP1 PUSH4 0xE38335E5 SWAP1 CALLVALUE SWAP1 PUSH2 0x2A5F SWAP1 DUP9 SWAP1 DUP9 SWAP1 DUP9 SWAP1 PUSH1 0x0 SWAP1 DUP10 SWAP1 PUSH1 0x4 ADD PUSH2 0x378A JUMP JUMPDEST PUSH1 0x0 PUSH1 0x40 MLOAD DUP1 DUP4 SUB DUP2 DUP6 DUP9 DUP1 EXTCODESIZE ISZERO DUP1 ISZERO PUSH2 0x2A78 JUMPI PUSH1 0x0 DUP1 REVERT JUMPDEST POP GAS CALL ISZERO DUP1 ISZERO PUSH2 0x2A8C JUMPI RETURNDATASIZE PUSH1 0x0 DUP1 RETURNDATACOPY RETURNDATASIZE PUSH1 0x0 REVERT JUMPDEST POP POP POP POP POP POP POP POP POP POP JUMP JUMPDEST PUSH1 0x0 DUP2 DUP2 MSTORE PUSH1 0x1 PUSH1 0x20 MSTORE PUSH1 0x40 DUP2 KECCAK256 PUSH1 0x2 DUP2 ADD SLOAD PUSH1 0xFF AND ISZERO PUSH2 0x2ABC JUMPI POP PUSH1 0x7 SWAP3 SWAP2 POP POP JUMP JUMPDEST PUSH1 0x2 DUP2 ADD SLOAD PUSH2 0x100 SWAP1 DIV PUSH1 0xFF AND ISZERO PUSH2 0x2AD7 JUMPI POP PUSH1 0x2 SWAP3 SWAP2 POP POP JUMP JUMPDEST PUSH1 0x0 PUSH2 0x2AE2 DUP5 PUSH2 0xDFA JUMP JUMPDEST SWAP1 POP DUP1 PUSH2 0x2B31 JUMPI PUSH1 0x40 MLOAD PUSH3 0x461BCD PUSH1 0xE5 SHL DUP2 MSTORE PUSH1 0x20 PUSH1 0x4 DUP3 ADD MSTORE PUSH1 0x1D PUSH1 0x24 DUP3 ADD MSTORE PUSH32 0x476F7665726E6F723A20756E6B6E6F776E2070726F706F73616C206964000000 PUSH1 0x44 DUP3 ADD MSTORE PUSH1 0x64 ADD PUSH2 0x9FD JUMP JUMPDEST NUMBER DUP2 LT PUSH2 0x2B42 JUMPI POP PUSH1 0x0 SWAP4 SWAP3 POP POP POP JUMP JUMPDEST PUSH1 0x0 PUSH2 0x2B4D DUP6 PUSH2 0x122E JUMP JUMPDEST SWAP1 POP NUMBER DUP2 LT PUSH2 0x2B61 JUMPI POP PUSH1 0x1 SWAP5 SWAP4 POP POP POP POP JUMP JUMPDEST PUSH2 0x2B6A DUP6 PUSH2 0x2D4D JUMP JUMPDEST DUP1 ISZERO PUSH2 0x2B89 JUMPI POP PUSH1 0x0 DUP6 DUP2 MSTORE PUSH1 0x7 PUSH1 0x20 MSTORE PUSH1 0x40 SWAP1 KECCAK256 DUP1 SLOAD PUSH1 0x1 SWAP1 SWAP2 ADD SLOAD GT JUMPDEST ISZERO PUSH2 0x2B99 JUMPI POP PUSH1 0x4 SWAP5 SWAP4 POP POP POP POP JUMP JUMPDEST POP PUSH1 0x3 SWAP5 SWAP4 POP POP POP POP JUMP JUMPDEST PUSH1 0x0 PUSH2 0x2BB3 PUSH1 0x2 DUP5 DUP5 XOR PUSH2 0x3B17 JUMP JUMPDEST PUSH2 0x10CB SWAP1 DUP5 DUP5 AND PUSH2 0x3AD4 JUMP JUMPDEST PUSH1 0x0 PUSH1 0x1 PUSH1 0x1 PUSH1 0x40 SHL SUB DUP3 GT ISZERO PUSH2 0x1510 JUMPI PUSH1 0x40 MLOAD PUSH3 0x461BCD PUSH1 0xE5 SHL DUP2 MSTORE PUSH1 0x20 PUSH1 0x4 DUP3 ADD MSTORE PUSH1 0x26 PUSH1 0x24 DUP3 ADD MSTORE PUSH32 0x53616665436173743A2076616C756520646F65736E27742066697420696E2036 PUSH1 0x44 DUP3 ADD MSTORE PUSH6 0x342062697473 PUSH1 0xD0 SHL PUSH1 0x64 DUP3 ADD MSTORE PUSH1 0x84 ADD PUSH2 0x9FD JUMP JUMPDEST PUSH1 0x60 DUP3 SELFBALANCE LT ISZERO PUSH2 0x2C88 JUMPI PUSH1 0x40 MLOAD PUSH3 0x461BCD PUSH1 0xE5 SHL DUP2 MSTORE PUSH1 0x20 PUSH1 0x4 DUP3 ADD MSTORE PUSH1 0x26 PUSH1 0x24 DUP3 ADD MSTORE PUSH32 0x416464726573733A20696E73756666696369656E742062616C616E636520666F PUSH1 0x44 DUP3 ADD MSTORE PUSH6 0x1C8818D85B1B PUSH1 0xD2 SHL PUSH1 0x64 DUP3 ADD MSTORE PUSH1 0x84 ADD PUSH2 0x9FD JUMP JUMPDEST PUSH1 0x1 PUSH1 0x1 PUSH1 0xA0 SHL SUB DUP6 AND EXTCODESIZE PUSH2 0x2CDF JUMPI PUSH1 0x40 MLOAD PUSH3 0x461BCD PUSH1 0xE5 SHL DUP2 MSTORE PUSH1 0x20 PUSH1 0x4 DUP3 ADD MSTORE PUSH1 0x1D PUSH1 0x24 DUP3 ADD MSTORE PUSH32 0x416464726573733A2063616C6C20746F206E6F6E2D636F6E7472616374000000 PUSH1 0x44 DUP3 ADD MSTORE PUSH1 0x64 ADD PUSH2 0x9FD JUMP JUMPDEST PUSH1 0x0 DUP1 DUP7 PUSH1 0x1 PUSH1 0x1 PUSH1 0xA0 SHL SUB AND DUP6 DUP8 PUSH1 0x40 MLOAD PUSH2 0x2CFB SWAP2 SWAP1 PUSH2 0x3723 JUMP JUMPDEST PUSH1 0x0 PUSH1 0x40 MLOAD DUP1 DUP4 SUB DUP2 DUP6 DUP8 GAS CALL SWAP3 POP POP POP RETURNDATASIZE DUP1 PUSH1 0x0 DUP2 EQ PUSH2 0x2D38 JUMPI PUSH1 0x40 MLOAD SWAP2 POP PUSH1 0x1F NOT PUSH1 0x3F RETURNDATASIZE ADD AND DUP3 ADD PUSH1 0x40 MSTORE RETURNDATASIZE DUP3 MSTORE RETURNDATASIZE PUSH1 0x0 PUSH1 0x20 DUP5 ADD RETURNDATACOPY PUSH2 0x2D3D JUMP JUMPDEST PUSH1 0x60 SWAP2 POP JUMPDEST POP SWAP2 POP SWAP2 POP PUSH2 0xEA7 DUP3 DUP3 DUP7 PUSH2 0x2D84 JUMP JUMPDEST PUSH1 0x0 DUP2 DUP2 MSTORE PUSH1 0x7 PUSH1 0x20 MSTORE PUSH1 0x40 DUP2 KECCAK256 PUSH1 0x2 DUP2 ADD SLOAD PUSH1 0x1 DUP3 ADD SLOAD PUSH2 0x2D6F SWAP2 SWAP1 PUSH2 0x3AD4 JUMP JUMPDEST PUSH2 0x2D7B PUSH2 0x85F DUP6 PUSH2 0xDFA JUMP JUMPDEST GT ISZERO SWAP4 SWAP3 POP POP POP JUMP JUMPDEST PUSH1 0x60 DUP4 ISZERO PUSH2 0x2D93 JUMPI POP DUP2 PUSH2 0x10CB JUMP JUMPDEST DUP3 MLOAD ISZERO PUSH2 0x2DA3 JUMPI DUP3 MLOAD DUP1 DUP5 PUSH1 0x20 ADD REVERT JUMPDEST DUP2 PUSH1 0x40 MLOAD PUSH3 0x461BCD PUSH1 0xE5 SHL DUP2 MSTORE PUSH1 0x4 ADD PUSH2 0x9FD SWAP2 SWAP1 PUSH2 0x3858 JUMP JUMPDEST PUSH1 0x0 PUSH1 0x1 PUSH1 0x1 PUSH1 0x40 SHL SUB DUP4 GT ISZERO PUSH2 0x2DD6 JUMPI PUSH2 0x2DD6 PUSH2 0x3C37 JUMP JUMPDEST PUSH2 0x2DE9 PUSH1 0x1F DUP5 ADD PUSH1 0x1F NOT AND PUSH1 0x20 ADD PUSH2 0x3A81 JUMP JUMPDEST SWAP1 POP DUP3 DUP2 MSTORE DUP4 DUP4 DUP4 ADD GT ISZERO PUSH2 0x2DFD JUMPI PUSH1 0x0 DUP1 REVERT JUMPDEST DUP3 DUP3 PUSH1 0x20 DUP4 ADD CALLDATACOPY PUSH1 0x0 PUSH1 0x20 DUP5 DUP4 ADD ADD MSTORE SWAP4 SWAP3 POP POP POP JUMP JUMPDEST PUSH1 0x0 DUP3 PUSH1 0x1F DUP4 ADD SLT PUSH2 0x2E25 JUMPI PUSH1 0x0 DUP1 REVERT JUMPDEST DUP2 CALLDATALOAD PUSH1 0x20 PUSH2 0x2E3A PUSH2 0x2E35 DUP4 PUSH2 0x3AB1 JUMP JUMPDEST PUSH2 0x3A81 JUMP JUMPDEST DUP1 DUP4 DUP3 MSTORE DUP3 DUP3 ADD SWAP2 POP DUP3 DUP7 ADD DUP8 DUP5 DUP7 PUSH1 0x5 SHL DUP10 ADD ADD GT ISZERO PUSH2 0x2E5A JUMPI PUSH1 0x0 DUP1 REVERT JUMPDEST PUSH1 0x0 JUMPDEST DUP6 DUP2 LT ISZERO PUSH2 0x2E82 JUMPI DUP2 CALLDATALOAD PUSH2 0x2E70 DUP2 PUSH2 0x3C4D JUMP JUMPDEST DUP5 MSTORE SWAP3 DUP5 ADD SWAP3 SWAP1 DUP5 ADD SWAP1 PUSH1 0x1 ADD PUSH2 0x2E5D JUMP JUMPDEST POP SWAP1 SWAP8 SWAP7 POP POP POP POP POP POP POP JUMP JUMPDEST PUSH1 0x0 DUP3 PUSH1 0x1F DUP4 ADD SLT PUSH2 0x2EA0 JUMPI PUSH1 0x0 DUP1 REVERT JUMPDEST DUP2 CALLDATALOAD PUSH1 0x20 PUSH2 0x2EB0 PUSH2 0x2E35 DUP4 PUSH2 0x3AB1 JUMP JUMPDEST DUP1 DUP4 DUP3 MSTORE DUP3 DUP3 ADD SWAP2 POP DUP3 DUP7 ADD DUP8 DUP5 DUP7 PUSH1 0x5 SHL DUP10 ADD ADD GT ISZERO PUSH2 0x2ED0 JUMPI PUSH1 0x0 DUP1 REVERT JUMPDEST PUSH1 0x0 DUP1 JUMPDEST DUP7 DUP2 LT ISZERO PUSH2 0x2F12 JUMPI DUP3 CALLDATALOAD PUSH1 0x1 PUSH1 0x1 PUSH1 0x40 SHL SUB DUP2 GT ISZERO PUSH2 0x2EF1 JUMPI DUP3 DUP4 REVERT JUMPDEST PUSH2 0x2EFF DUP12 DUP9 DUP4 DUP14 ADD ADD PUSH2 0x2FC1 JUMP JUMPDEST DUP7 MSTORE POP SWAP4 DUP6 ADD SWAP4 SWAP2 DUP6 ADD SWAP2 PUSH1 0x1 ADD PUSH2 0x2ED4 JUMP JUMPDEST POP SWAP2 SWAP9 SWAP8 POP POP POP POP POP POP POP POP JUMP JUMPDEST PUSH1 0x0 DUP3 PUSH1 0x1F DUP4 ADD SLT PUSH2 0x2F31 JUMPI PUSH1 0x0 DUP1 REVERT JUMPDEST DUP2 CALLDATALOAD PUSH1 0x20 PUSH2 0x2F41 PUSH2 0x2E35 DUP4 PUSH2 0x3AB1 JUMP JUMPDEST DUP1 DUP4 DUP3 MSTORE DUP3 DUP3 ADD SWAP2 POP DUP3 DUP7 ADD DUP8 DUP5 DUP7 PUSH1 0x5 SHL DUP10 ADD ADD GT ISZERO PUSH2 0x2F61 JUMPI PUSH1 0x0 DUP1 REVERT JUMPDEST PUSH1 0x0 JUMPDEST DUP6 DUP2 LT ISZERO PUSH2 0x2E82 JUMPI DUP2 CALLDATALOAD DUP5 MSTORE SWAP3 DUP5 ADD SWAP3 SWAP1 DUP5 ADD SWAP1 PUSH1 0x1 ADD PUSH2 0x2F64 JUMP JUMPDEST PUSH1 0x0 DUP1 DUP4 PUSH1 0x1F DUP5 ADD SLT PUSH2 0x2F92 JUMPI PUSH1 0x0 DUP1 REVERT JUMPDEST POP DUP2 CALLDATALOAD PUSH1 0x1 PUSH1 0x1 PUSH1 0x40 SHL SUB DUP2 GT ISZERO PUSH2 0x2FA9 JUMPI PUSH1 0x0 DUP1 REVERT JUMPDEST PUSH1 0x20 DUP4 ADD SWAP2 POP DUP4 PUSH1 0x20 DUP3 DUP6 ADD ADD GT ISZERO PUSH2 0x1638 JUMPI PUSH1 0x0 DUP1 REVERT JUMPDEST PUSH1 0x0 DUP3 PUSH1 0x1F DUP4 ADD SLT PUSH2 0x2FD2 JUMPI PUSH1 0x0 DUP1 REVERT JUMPDEST PUSH2 0x10CB DUP4 DUP4 CALLDATALOAD PUSH1 0x20 DUP6 ADD PUSH2 0x2DBD JUMP JUMPDEST DUP1 CALLDATALOAD PUSH1 0xFF DUP2 AND DUP2 EQ PUSH2 0x2FF2 JUMPI PUSH1 0x0 DUP1 REVERT JUMPDEST SWAP2 SWAP1 POP JUMP JUMPDEST PUSH1 0x0 DUP1 PUSH1 0x0 DUP1 PUSH1 0x0 PUSH1 0xA0 DUP7 DUP9 SUB SLT ISZERO PUSH2 0x300F JUMPI PUSH1 0x0 DUP1 REVERT JUMPDEST DUP6 CALLDATALOAD PUSH2 0x301A DUP2 PUSH2 0x3C4D JUMP JUMPDEST SWAP5 POP PUSH1 0x20 DUP7 ADD CALLDATALOAD PUSH2 0x302A DUP2 PUSH2 0x3C4D JUMP JUMPDEST SWAP4 POP PUSH1 0x40 DUP7 ADD CALLDATALOAD PUSH1 0x1 PUSH1 0x1 PUSH1 0x40 SHL SUB DUP1 DUP3 GT ISZERO PUSH2 0x3046 JUMPI PUSH1 0x0 DUP1 REVERT JUMPDEST PUSH2 0x3052 DUP10 DUP4 DUP11 ADD PUSH2 0x2F20 JUMP JUMPDEST SWAP5 POP PUSH1 0x60 DUP9 ADD CALLDATALOAD SWAP2 POP DUP1 DUP3 GT ISZERO PUSH2 0x3068 JUMPI PUSH1 0x0 DUP1 REVERT JUMPDEST PUSH2 0x3074 DUP10 DUP4 DUP11 ADD PUSH2 0x2F20 JUMP JUMPDEST SWAP4 POP PUSH1 0x80 DUP9 ADD CALLDATALOAD SWAP2 POP DUP1 DUP3 GT ISZERO PUSH2 0x308A JUMPI PUSH1 0x0 DUP1 REVERT JUMPDEST POP PUSH2 0x3097 DUP9 DUP3 DUP10 ADD PUSH2 0x2FC1 JUMP JUMPDEST SWAP2 POP POP SWAP3 SWAP6 POP SWAP3 SWAP6 SWAP1 SWAP4 POP JUMP JUMPDEST PUSH1 0x0 DUP1 PUSH1 0x0 DUP1 PUSH1 0x80 DUP6 DUP8 SUB SLT ISZERO PUSH2 0x30BA JUMPI PUSH1 0x0 DUP1 REVERT JUMPDEST DUP5 CALLDATALOAD PUSH2 0x30C5 DUP2 PUSH2 0x3C4D JUMP JUMPDEST SWAP4 POP PUSH1 0x20 DUP6 ADD CALLDATALOAD PUSH2 0x30D5 DUP2 PUSH2 0x3C4D JUMP JUMPDEST SWAP3 POP PUSH1 0x40 DUP6 ADD CALLDATALOAD SWAP2 POP PUSH1 0x60 DUP6 ADD CALLDATALOAD PUSH1 0x1 PUSH1 0x1 PUSH1 0x40 SHL SUB DUP2 GT ISZERO PUSH2 0x30F7 JUMPI PUSH1 0x0 DUP1 REVERT JUMPDEST PUSH2 0x3103 DUP8 DUP3 DUP9 ADD PUSH2 0x2FC1 JUMP JUMPDEST SWAP2 POP POP SWAP3 SWAP6 SWAP2 SWAP5 POP SWAP3 POP JUMP JUMPDEST PUSH1 0x0 DUP1 PUSH1 0x0 DUP1 PUSH1 0x0 PUSH1 0xA0 DUP7 DUP9 SUB SLT ISZERO PUSH2 0x3127 JUMPI PUSH1 0x0 DUP1 REVERT JUMPDEST DUP6 CALLDATALOAD PUSH2 0x3132 DUP2 PUSH2 0x3C4D JUMP JUMPDEST SWAP5 POP PUSH1 0x20 DUP7 ADD CALLDATALOAD PUSH2 0x3142 DUP2 PUSH2 0x3C4D JUMP JUMPDEST SWAP4 POP PUSH1 0x40 DUP7 ADD CALLDATALOAD SWAP3 POP PUSH1 0x60 DUP7 ADD CALLDATALOAD SWAP2 POP PUSH1 0x80 DUP7 ADD CALLDATALOAD PUSH1 0x1 PUSH1 0x1 PUSH1 0x40 SHL SUB DUP2 GT ISZERO PUSH2 0x316B JUMPI PUSH1 0x0 DUP1 REVERT JUMPDEST PUSH2 0x3097 DUP9 DUP3 DUP10 ADD PUSH2 0x2FC1 JUMP JUMPDEST PUSH1 0x0 DUP1 PUSH1 0x40 DUP4 DUP6 SUB SLT ISZERO PUSH2 0x318A JUMPI PUSH1 0x0 DUP1 REVERT JUMPDEST DUP3 CALLDATALOAD PUSH2 0x3195 DUP2 PUSH2 0x3C4D JUMP JUMPDEST SWAP5 PUSH1 0x20 SWAP4 SWAP1 SWAP4 ADD CALLDATALOAD SWAP4 POP POP POP JUMP JUMPDEST PUSH1 0x0 DUP1 PUSH1 0x0 DUP1 PUSH1 0x60 DUP6 DUP8 SUB SLT ISZERO PUSH2 0x31B9 JUMPI PUSH1 0x0 DUP1 REVERT JUMPDEST DUP5 CALLDATALOAD PUSH2 0x31C4 DUP2 PUSH2 0x3C4D JUMP JUMPDEST SWAP4 POP PUSH1 0x20 DUP6 ADD CALLDATALOAD SWAP3 POP PUSH1 0x40 DUP6 ADD CALLDATALOAD PUSH1 0x1 PUSH1 0x1 PUSH1 0x40 SHL SUB DUP2 GT ISZERO PUSH2 0x31E6 JUMPI PUSH1 0x0 DUP1 REVERT JUMPDEST PUSH2 0x31F2 DUP8 DUP3 DUP9 ADD PUSH2 0x2F80 JUMP JUMPDEST SWAP6 SWAP9 SWAP5 SWAP8 POP SWAP6 POP POP POP POP JUMP JUMPDEST PUSH1 0x0 DUP1 PUSH1 0x0 PUSH1 0x60 DUP5 DUP7 SUB SLT ISZERO PUSH2 0x3213 JUMPI PUSH1 0x0 DUP1 REVERT JUMPDEST DUP4 CALLDATALOAD PUSH2 0x321E DUP2 PUSH2 0x3C4D JUMP JUMPDEST SWAP3 POP PUSH1 0x20 DUP5 ADD CALLDATALOAD SWAP2 POP PUSH1 0x40 DUP5 ADD CALLDATALOAD PUSH1 0x1 PUSH1 0x1 PUSH1 0x40 SHL SUB DUP2 GT ISZERO PUSH2 0x3240 JUMPI PUSH1 0x0 DUP1 REVERT JUMPDEST PUSH2 0x324C DUP7 DUP3 DUP8 ADD PUSH2 0x2FC1 JUMP JUMPDEST SWAP2 POP POP SWAP3 POP SWAP3 POP SWAP3 JUMP JUMPDEST PUSH1 0x0 DUP1 PUSH1 0x0 DUP1 PUSH1 0x80 DUP6 DUP8 SUB SLT ISZERO PUSH2 0x326C JUMPI PUSH1 0x0 DUP1 REVERT JUMPDEST DUP5 CALLDATALOAD PUSH1 0x1 PUSH1 0x1 PUSH1 0x40 SHL SUB DUP1 DUP3 GT ISZERO PUSH2 0x3283 JUMPI PUSH1 0x0 DUP1 REVERT JUMPDEST PUSH2 0x328F DUP9 DUP4 DUP10 ADD PUSH2 0x2E14 JUMP JUMPDEST SWAP6 POP PUSH1 0x20 DUP8 ADD CALLDATALOAD SWAP2 POP DUP1 DUP3 GT ISZERO PUSH2 0x32A5 JUMPI PUSH1 0x0 DUP1 REVERT JUMPDEST PUSH2 0x32B1 DUP9 DUP4 DUP10 ADD PUSH2 0x2F20 JUMP JUMPDEST SWAP5 POP PUSH1 0x40 DUP8 ADD CALLDATALOAD SWAP2 POP DUP1 DUP3 GT ISZERO PUSH2 0x32C7 JUMPI PUSH1 0x0 DUP1 REVERT JUMPDEST POP PUSH2 0x32D4 DUP8 DUP3 DUP9 ADD PUSH2 0x2E8F JUMP JUMPDEST SWAP5 SWAP8 SWAP4 SWAP7 POP SWAP4 SWAP5 PUSH1 0x60 ADD CALLDATALOAD SWAP4 POP POP POP JUMP JUMPDEST PUSH1 0x0 DUP1 PUSH1 0x0 DUP1 PUSH1 0x80 DUP6 DUP8 SUB SLT ISZERO PUSH2 0x32FB JUMPI PUSH1 0x0 DUP1 REVERT JUMPDEST DUP5 CALLDATALOAD PUSH1 0x1 PUSH1 0x1 PUSH1 0x40 SHL SUB DUP1 DUP3 GT ISZERO PUSH2 0x3312 JUMPI PUSH1 0x0 DUP1 REVERT JUMPDEST PUSH2 0x331E DUP9 DUP4 DUP10 ADD PUSH2 0x2E14 JUMP JUMPDEST SWAP6 POP PUSH1 0x20 DUP8 ADD CALLDATALOAD SWAP2 POP DUP1 DUP3 GT ISZERO PUSH2 0x3334 JUMPI PUSH1 0x0 DUP1 REVERT JUMPDEST PUSH2 0x3340 DUP9 DUP4 DUP10 ADD PUSH2 0x2F20 JUMP JUMPDEST SWAP5 POP PUSH1 0x40 DUP8 ADD CALLDATALOAD SWAP2 POP DUP1 DUP3 GT ISZERO PUSH2 0x3356 JUMPI PUSH1 0x0 DUP1 REVERT JUMPDEST PUSH2 0x3362 DUP9 DUP4 DUP10 ADD PUSH2 0x2E8F JUMP JUMPDEST SWAP4 POP PUSH1 0x60 DUP8 ADD CALLDATALOAD SWAP2 POP DUP1 DUP3 GT ISZERO PUSH2 0x3378 JUMPI PUSH1 0x0 DUP1 REVERT JUMPDEST POP DUP6 ADD PUSH1 0x1F DUP2 ADD DUP8 SGT PUSH2 0x338A JUMPI PUSH1 0x0 DUP1 REVERT JUMPDEST PUSH2 0x3103 DUP8 DUP3 CALLDATALOAD PUSH1 0x20 DUP5 ADD PUSH2 0x2DBD JUMP JUMPDEST PUSH1 0x0 PUSH1 0x20 DUP3 DUP5 SUB SLT ISZERO PUSH2 0x33AB JUMPI PUSH1 0x0 DUP1 REVERT JUMPDEST DUP2 MLOAD DUP1 ISZERO ISZERO DUP2 EQ PUSH2 0x10CB JUMPI PUSH1 0x0 DUP1 REVERT JUMPDEST PUSH1 0x0 PUSH1 0x20 DUP3 DUP5 SUB SLT ISZERO PUSH2 0x33CD JUMPI PUSH1 0x0 DUP1 REVERT JUMPDEST POP MLOAD SWAP2 SWAP1 POP JUMP JUMPDEST PUSH1 0x0 PUSH1 0x20 DUP3 DUP5 SUB SLT ISZERO PUSH2 0x33E6 JUMPI PUSH1 0x0 DUP1 REVERT JUMPDEST DUP2 CALLDATALOAD PUSH1 0x1 PUSH1 0x1 PUSH1 0xE0 SHL SUB NOT DUP2 AND DUP2 EQ PUSH2 0x10CB JUMPI PUSH1 0x0 DUP1 REVERT JUMPDEST PUSH1 0x0 PUSH1 0x20 DUP3 DUP5 SUB SLT ISZERO PUSH2 0x3410 JUMPI PUSH1 0x0 DUP1 REVERT JUMPDEST DUP2 CALLDATALOAD PUSH2 0x10CB DUP2 PUSH2 0x3C4D JUMP JUMPDEST PUSH1 0x0 PUSH1 0x20 DUP3 DUP5 SUB SLT ISZERO PUSH2 0x342D JUMPI PUSH1 0x0 DUP1 REVERT JUMPDEST POP CALLDATALOAD SWAP2 SWAP1 POP JUMP JUMPDEST PUSH1 0x0 DUP1 PUSH1 0x40 DUP4 DUP6 SUB SLT ISZERO PUSH2 0x3447 JUMPI PUSH1 0x0 DUP1 REVERT JUMPDEST DUP3 CALLDATALOAD SWAP2 POP PUSH1 0x20 DUP4 ADD CALLDATALOAD PUSH2 0x3459 DUP2 PUSH2 0x3C4D JUMP JUMPDEST DUP1 SWAP2 POP POP SWAP3 POP SWAP3 SWAP1 POP JUMP JUMPDEST PUSH1 0x0 DUP1 PUSH1 0x40 DUP4 DUP6 SUB SLT ISZERO PUSH2 0x3477 JUMPI PUSH1 0x0 DUP1 REVERT JUMPDEST DUP3 CALLDATALOAD SWAP2 POP PUSH2 0x3487 PUSH1 0x20 DUP5 ADD PUSH2 0x2FE1 JUMP JUMPDEST SWAP1 POP SWAP3 POP SWAP3 SWAP1 POP JUMP JUMPDEST PUSH1 0x0 DUP1 PUSH1 0x0 DUP1 PUSH1 0x60 DUP6 DUP8 SUB SLT ISZERO PUSH2 0x34A6 JUMPI PUSH1 0x0 DUP1 REVERT JUMPDEST DUP5 CALLDATALOAD SWAP4 POP PUSH2 0x34B6 PUSH1 0x20 DUP7 ADD PUSH2 0x2FE1 JUMP JUMPDEST SWAP3 POP PUSH1 0x40 DUP6 ADD CALLDATALOAD PUSH1 0x1 PUSH1 0x1 PUSH1 0x40 SHL SUB DUP2 GT ISZERO PUSH2 0x31E6 JUMPI PUSH1 0x0 DUP1 REVERT JUMPDEST PUSH1 0x0 DUP1 PUSH1 0x0 DUP1 PUSH1 0x0 PUSH1 0x80 DUP7 DUP9 SUB SLT ISZERO PUSH2 0x34E9 JUMPI PUSH1 0x0 DUP1 REVERT JUMPDEST DUP6 CALLDATALOAD SWAP5 POP PUSH2 0x34F9 PUSH1 0x20 DUP8 ADD PUSH2 0x2FE1 JUMP JUMPDEST SWAP4 POP PUSH1 0x40 DUP7 ADD CALLDATALOAD PUSH1 0x1 PUSH1 0x1 PUSH1 0x40 SHL SUB DUP1 DUP3 GT ISZERO PUSH2 0x3515 JUMPI PUSH1 0x0 DUP1 REVERT JUMPDEST PUSH2 0x3521 DUP10 DUP4 DUP11 ADD PUSH2 0x2F80 JUMP JUMPDEST SWAP1 SWAP6 POP SWAP4 POP PUSH1 0x60 DUP9 ADD CALLDATALOAD SWAP2 POP DUP1 DUP3 GT ISZERO PUSH2 0x308A JUMPI PUSH1 0x0 DUP1 REVERT JUMPDEST PUSH1 0x0 DUP1 PUSH1 0x0 DUP1 PUSH1 0x0 DUP1 PUSH1 0x0 DUP1 PUSH1 0xE0 DUP10 DUP12 SUB SLT ISZERO PUSH2 0x3556 JUMPI PUSH1 0x0 DUP1 REVERT JUMPDEST DUP9 CALLDATALOAD SWAP8 POP PUSH2 0x3566 PUSH1 0x20 DUP11 ADD PUSH2 0x2FE1 JUMP JUMPDEST SWAP7 POP PUSH1 0x40 DUP10 ADD CALLDATALOAD PUSH1 0x1 PUSH1 0x1 PUSH1 0x40 SHL SUB DUP1 DUP3 GT ISZERO PUSH2 0x3582 JUMPI PUSH1 0x0 DUP1 REVERT JUMPDEST PUSH2 0x358E DUP13 DUP4 DUP14 ADD PUSH2 0x2F80 JUMP JUMPDEST SWAP1 SWAP9 POP SWAP7 POP PUSH1 0x60 DUP12 ADD CALLDATALOAD SWAP2 POP DUP1 DUP3 GT ISZERO PUSH2 0x35A7 JUMPI PUSH1 0x0 DUP1 REVERT JUMPDEST POP PUSH2 0x35B4 DUP12 DUP3 DUP13 ADD PUSH2 0x2FC1 JUMP JUMPDEST SWAP5 POP POP PUSH2 0x35C3 PUSH1 0x80 DUP11 ADD PUSH2 0x2FE1 JUMP JUMPDEST SWAP3 POP PUSH1 0xA0 DUP10 ADD CALLDATALOAD SWAP2 POP PUSH1 0xC0 DUP10 ADD CALLDATALOAD SWAP1 POP SWAP3 SWAP6 SWAP9 POP SWAP3 SWAP6 SWAP9 SWAP1 SWAP4 SWAP7 POP JUMP JUMPDEST PUSH1 0x0 DUP1 PUSH1 0x0 DUP1 PUSH1 0x0 PUSH1 0xA0 DUP7 DUP9 SUB SLT ISZERO PUSH2 0x35F8 JUMPI PUSH1 0x0 DUP1 REVERT JUMPDEST DUP6 CALLDATALOAD SWAP5 POP PUSH2 0x3608 PUSH1 0x20 DUP8 ADD PUSH2 0x2FE1 JUMP JUMPDEST SWAP4 POP PUSH2 0x3616 PUSH1 0x40 DUP8 ADD PUSH2 0x2FE1 JUMP JUMPDEST SWAP5 SWAP8 SWAP4 SWAP7 POP SWAP4 SWAP5 PUSH1 0x60 DUP2 ADD CALLDATALOAD SWAP5 POP PUSH1 0x80 ADD CALLDATALOAD SWAP3 SWAP2 POP POP JUMP JUMPDEST PUSH1 0x0 DUP2 MLOAD DUP1 DUP5 MSTORE PUSH1 0x20 DUP1 DUP6 ADD SWAP5 POP DUP1 DUP5 ADD PUSH1 0x0 JUMPDEST DUP4 DUP2 LT ISZERO PUSH2 0x3667 JUMPI DUP2 MLOAD PUSH1 0x1 PUSH1 0x1 PUSH1 0xA0 SHL SUB AND DUP8 MSTORE SWAP6 DUP3 ADD SWAP6 SWAP1 DUP3 ADD SWAP1 PUSH1 0x1 ADD PUSH2 0x3642 JUMP JUMPDEST POP SWAP5 SWAP6 SWAP5 POP POP POP POP POP JUMP JUMPDEST PUSH1 0x0 DUP2 MLOAD DUP1 DUP5 MSTORE PUSH1 0x20 DUP1 DUP6 ADD SWAP5 POP DUP5 DUP3 PUSH1 0x5 SHL DUP7 ADD DUP3 DUP7 ADD PUSH1 0x0 JUMPDEST DUP6 DUP2 LT ISZERO PUSH2 0x2E82 JUMPI DUP4 DUP4 SUB DUP10 MSTORE PUSH2 0x36A5 DUP4 DUP4 MLOAD PUSH2 0x36E7 JUMP JUMPDEST SWAP9 DUP6 ADD SWAP9 SWAP3 POP SWAP1 DUP5 ADD SWAP1 PUSH1 0x1 ADD PUSH2 0x368D JUMP JUMPDEST PUSH1 0x0 DUP2 MLOAD DUP1 DUP5 MSTORE PUSH1 0x20 DUP1 DUP6 ADD SWAP5 POP DUP1 DUP5 ADD PUSH1 0x0 JUMPDEST DUP4 DUP2 LT ISZERO PUSH2 0x3667 JUMPI DUP2 MLOAD DUP8 MSTORE SWAP6 DUP3 ADD SWAP6 SWAP1 DUP3 ADD SWAP1 PUSH1 0x1 ADD PUSH2 0x36CB JUMP JUMPDEST PUSH1 0x0 DUP2 MLOAD DUP1 DUP5 MSTORE PUSH2 0x36FF DUP2 PUSH1 0x20 DUP7 ADD PUSH1 0x20 DUP7 ADD PUSH2 0x3B6F JUMP JUMPDEST PUSH1 0x1F ADD PUSH1 0x1F NOT AND SWAP3 SWAP1 SWAP3 ADD PUSH1 0x20 ADD SWAP3 SWAP2 POP POP JUMP JUMPDEST DUP2 DUP4 DUP3 CALLDATACOPY PUSH1 0x0 SWAP2 ADD SWAP1 DUP2 MSTORE SWAP2 SWAP1 POP JUMP JUMPDEST PUSH1 0x0 DUP3 MLOAD PUSH2 0x3735 DUP2 DUP5 PUSH1 0x20 DUP8 ADD PUSH2 0x3B6F JUMP JUMPDEST SWAP2 SWAP1 SWAP2 ADD SWAP3 SWAP2 POP POP JUMP JUMPDEST PUSH1 0x80 DUP2 MSTORE PUSH1 0x0 PUSH2 0x3752 PUSH1 0x80 DUP4 ADD DUP8 PUSH2 0x362E JUMP JUMPDEST DUP3 DUP2 SUB PUSH1 0x20 DUP5 ADD MSTORE PUSH2 0x3764 DUP2 DUP8 PUSH2 0x36B7 JUMP JUMPDEST SWAP1 POP DUP3 DUP2 SUB PUSH1 0x40 DUP5 ADD MSTORE PUSH2 0x3778 DUP2 DUP7 PUSH2 0x3672 JUMP JUMPDEST SWAP2 POP POP DUP3 PUSH1 0x60 DUP4 ADD MSTORE SWAP6 SWAP5 POP POP POP POP POP JUMP JUMPDEST PUSH1 0xA0 DUP2 MSTORE PUSH1 0x0 PUSH2 0x379D PUSH1 0xA0 DUP4 ADD DUP9 PUSH2 0x362E JUMP JUMPDEST DUP3 DUP2 SUB PUSH1 0x20 DUP5 ADD MSTORE PUSH2 0x37AF DUP2 DUP9 PUSH2 0x36B7 JUMP JUMPDEST SWAP1 POP DUP3 DUP2 SUB PUSH1 0x40 DUP5 ADD MSTORE PUSH2 0x37C3 DUP2 DUP8 PUSH2 0x3672 JUMP JUMPDEST PUSH1 0x60 DUP5 ADD SWAP6 SWAP1 SWAP6 MSTORE POP POP PUSH1 0x80 ADD MSTORE SWAP4 SWAP3 POP POP POP JUMP JUMPDEST PUSH1 0xC0 DUP2 MSTORE PUSH1 0x0 PUSH2 0x37EB PUSH1 0xC0 DUP4 ADD DUP10 PUSH2 0x362E JUMP JUMPDEST DUP3 DUP2 SUB PUSH1 0x20 DUP5 ADD MSTORE PUSH2 0x37FD DUP2 DUP10 PUSH2 0x36B7 JUMP JUMPDEST SWAP1 POP DUP3 DUP2 SUB PUSH1 0x40 DUP5 ADD MSTORE PUSH2 0x3811 DUP2 DUP9 PUSH2 0x3672 JUMP JUMPDEST PUSH1 0x60 DUP5 ADD SWAP7 SWAP1 SWAP7 MSTORE POP POP PUSH1 0x80 DUP2 ADD SWAP3 SWAP1 SWAP3 MSTORE PUSH1 0xA0 SWAP1 SWAP2 ADD MSTORE SWAP4 SWAP3 POP POP POP JUMP JUMPDEST PUSH1 0x20 DUP2 ADD PUSH1 0x8 DUP4 LT PUSH2 0x3852 JUMPI PUSH4 0x4E487B71 PUSH1 0xE0 SHL PUSH1 0x0 MSTORE PUSH1 0x21 PUSH1 0x4 MSTORE PUSH1 0x24 PUSH1 0x0 REVERT JUMPDEST SWAP2 SWAP1 MSTORE SWAP1 JUMP JUMPDEST PUSH1 0x20 DUP2 MSTORE PUSH1 0x0 PUSH2 0x10CB PUSH1 0x20 DUP4 ADD DUP5 PUSH2 0x36E7 JUMP JUMPDEST PUSH1 0x20 DUP1 DUP3 MSTORE PUSH1 0x18 SWAP1 DUP3 ADD MSTORE PUSH32 0x476F7665726E6F723A206F6E6C79476F7665726E616E63650000000000000000 PUSH1 0x40 DUP3 ADD MSTORE PUSH1 0x60 ADD SWAP1 JUMP JUMPDEST PUSH1 0x20 DUP1 DUP3 MSTORE PUSH1 0x21 SWAP1 DUP3 ADD MSTORE PUSH32 0x476F7665726E6F723A20696E76616C69642070726F706F73616C206C656E6774 PUSH1 0x40 DUP3 ADD MSTORE PUSH1 0xD PUSH1 0xFB SHL PUSH1 0x60 DUP3 ADD MSTORE PUSH1 0x80 ADD SWAP1 JUMP JUMPDEST PUSH1 0x20 DUP1 DUP3 MSTORE PUSH1 0x21 SWAP1 DUP3 ADD MSTORE PUSH32 0x476F7665726E6F723A2070726F706F73616C206E6F7420737563636573736675 PUSH1 0x40 DUP3 ADD MSTORE PUSH1 0x1B PUSH1 0xFA SHL PUSH1 0x60 DUP3 ADD MSTORE PUSH1 0x80 ADD SWAP1 JUMP JUMPDEST PUSH1 0x0 PUSH2 0x120 DUP12 DUP4 MSTORE PUSH1 0x20 PUSH1 0x1 DUP1 PUSH1 0xA0 SHL SUB DUP13 AND DUP2 DUP6 ADD MSTORE DUP2 PUSH1 0x40 DUP6 ADD MSTORE PUSH2 0x394D DUP3 DUP6 ADD DUP13 PUSH2 0x362E JUMP JUMPDEST SWAP2 POP DUP4 DUP3 SUB PUSH1 0x60 DUP6 ADD MSTORE PUSH2 0x3961 DUP3 DUP12 PUSH2 0x36B7 JUMP JUMPDEST SWAP2 POP DUP4 DUP3 SUB PUSH1 0x80 DUP6 ADD MSTORE DUP2 DUP10 MLOAD DUP1 DUP5 MSTORE DUP3 DUP5 ADD SWAP2 POP DUP3 DUP2 PUSH1 0x5 SHL DUP6 ADD ADD DUP4 DUP13 ADD PUSH1 0x0 JUMPDEST DUP4 DUP2 LT ISZERO PUSH2 0x39B2 JUMPI PUSH1 0x1F NOT DUP8 DUP5 SUB ADD DUP6 MSTORE PUSH2 0x39A0 DUP4 DUP4 MLOAD PUSH2 0x36E7 JUMP JUMPDEST SWAP5 DUP7 ADD SWAP5 SWAP3 POP SWAP1 DUP6 ADD SWAP1 PUSH1 0x1 ADD PUSH2 0x3984 JUMP JUMPDEST POP POP DUP7 DUP2 SUB PUSH1 0xA0 DUP9 ADD MSTORE PUSH2 0x39C6 DUP2 DUP13 PUSH2 0x3672 JUMP JUMPDEST SWAP5 POP POP POP POP POP PUSH2 0x39E1 PUSH1 0xC0 DUP5 ADD DUP8 PUSH1 0x1 PUSH1 0x1 PUSH1 0x40 SHL SUB AND SWAP1 MSTORE JUMP JUMPDEST PUSH1 0x1 PUSH1 0x1 PUSH1 0x40 SHL SUB DUP6 AND PUSH1 0xE0 DUP5 ADD MSTORE DUP3 DUP2 SUB PUSH2 0x100 DUP5 ADD MSTORE PUSH2 0x3A03 DUP2 DUP6 PUSH2 0x36E7 JUMP JUMPDEST SWAP13 SWAP12 POP POP POP POP POP POP POP POP POP POP POP POP JUMP JUMPDEST DUP5 DUP2 MSTORE PUSH1 0xFF DUP5 AND PUSH1 0x20 DUP3 ADD MSTORE DUP3 PUSH1 0x40 DUP3 ADD MSTORE PUSH1 0x80 PUSH1 0x60 DUP3 ADD MSTORE PUSH1 0x0 PUSH2 0x109A PUSH1 0x80 DUP4 ADD DUP5 PUSH2 0x36E7 JUMP JUMPDEST DUP6 DUP2 MSTORE PUSH1 0xFF DUP6 AND PUSH1 0x20 DUP3 ADD MSTORE DUP4 PUSH1 0x40 DUP3 ADD MSTORE PUSH1 0xA0 PUSH1 0x60 DUP3 ADD MSTORE PUSH1 0x0 PUSH2 0x3A63 PUSH1 0xA0 DUP4 ADD DUP6 PUSH2 0x36E7 JUMP JUMPDEST DUP3 DUP2 SUB PUSH1 0x80 DUP5 ADD MSTORE PUSH2 0x3A75 DUP2 DUP6 PUSH2 0x36E7 JUMP JUMPDEST SWAP9 SWAP8 POP POP POP POP POP POP POP POP JUMP JUMPDEST PUSH1 0x40 MLOAD PUSH1 0x1F DUP3 ADD PUSH1 0x1F NOT AND DUP2 ADD PUSH1 0x1 PUSH1 0x1 PUSH1 0x40 SHL SUB DUP2 GT DUP3 DUP3 LT OR ISZERO PUSH2 0x3AA9 JUMPI PUSH2 0x3AA9 PUSH2 0x3C37 JUMP JUMPDEST PUSH1 0x40 MSTORE SWAP2 SWAP1 POP JUMP JUMPDEST PUSH1 0x0 PUSH1 0x1 PUSH1 0x1 PUSH1 0x40 SHL SUB DUP3 GT ISZERO PUSH2 0x3ACA JUMPI PUSH2 0x3ACA PUSH2 0x3C37 JUMP JUMPDEST POP PUSH1 0x5 SHL PUSH1 0x20 ADD SWAP1 JUMP JUMPDEST PUSH1 0x0 DUP3 NOT DUP3 GT ISZERO PUSH2 0x3AE7 JUMPI PUSH2 0x3AE7 PUSH2 0x3BF5 JUMP JUMPDEST POP ADD SWAP1 JUMP JUMPDEST PUSH1 0x0 PUSH1 0x1 PUSH1 0x1 PUSH1 0x40 SHL SUB DUP1 DUP4 AND DUP2 DUP6 AND DUP1 DUP4 SUB DUP3 GT ISZERO PUSH2 0x3B0E JUMPI PUSH2 0x3B0E PUSH2 0x3BF5 JUMP JUMPDEST ADD SWAP5 SWAP4 POP POP POP POP JUMP JUMPDEST PUSH1 0x0 DUP3 PUSH2 0x3B34 JUMPI PUSH4 0x4E487B71 PUSH1 0xE0 SHL PUSH1 0x0 MSTORE PUSH1 0x12 PUSH1 0x4 MSTORE PUSH1 0x24 PUSH1 0x0 REVERT JUMPDEST POP DIV SWAP1 JUMP JUMPDEST PUSH1 0x0 DUP2 PUSH1 0x0 NOT DIV DUP4 GT DUP3 ISZERO ISZERO AND ISZERO PUSH2 0x3B53 JUMPI PUSH2 0x3B53 PUSH2 0x3BF5 JUMP JUMPDEST POP MUL SWAP1 JUMP JUMPDEST PUSH1 0x0 DUP3 DUP3 LT ISZERO PUSH2 0x3B6A JUMPI PUSH2 0x3B6A PUSH2 0x3BF5 JUMP JUMPDEST POP SUB SWAP1 JUMP JUMPDEST PUSH1 0x0 JUMPDEST DUP4 DUP2 LT ISZERO PUSH2 0x3B8A JUMPI DUP2 DUP2 ADD MLOAD DUP4 DUP3 ADD MSTORE PUSH1 0x20 ADD PUSH2 0x3B72 JUMP JUMPDEST DUP4 DUP2 GT ISZERO PUSH2 0x3B99 JUMPI PUSH1 0x0 DUP5 DUP5 ADD MSTORE JUMPDEST POP POP POP POP JUMP JUMPDEST PUSH1 0x1 DUP2 DUP2 SHR SWAP1 DUP3 AND DUP1 PUSH2 0x3BB3 JUMPI PUSH1 0x7F DUP3 AND SWAP2 POP JUMPDEST PUSH1 0x20 DUP3 LT DUP2 EQ ISZERO PUSH2 0x3BD4 JUMPI PUSH4 0x4E487B71 PUSH1 0xE0 SHL PUSH1 0x0 MSTORE PUSH1 0x22 PUSH1 0x4 MSTORE PUSH1 0x24 PUSH1 0x0 REVERT JUMPDEST POP SWAP2 SWAP1 POP JUMP JUMPDEST PUSH1 0x0 PUSH1 0x0 NOT DUP3 EQ ISZERO PUSH2 0x3BEE JUMPI PUSH2 0x3BEE PUSH2 0x3BF5 JUMP JUMPDEST POP PUSH1 0x1 ADD SWAP1 JUMP JUMPDEST PUSH4 0x4E487B71 PUSH1 0xE0 SHL PUSH1 0x0 MSTORE PUSH1 0x11 PUSH1 0x4 MSTORE PUSH1 0x24 PUSH1 0x0 REVERT JUMPDEST PUSH4 0x4E487B71 PUSH1 0xE0 SHL PUSH1 0x0 MSTORE PUSH1 0x21 PUSH1 0x4 MSTORE PUSH1 0x24 PUSH1 0x0 REVERT JUMPDEST PUSH4 0x4E487B71 PUSH1 0xE0 SHL PUSH1 0x0 MSTORE PUSH1 0x32 PUSH1 0x4 MSTORE PUSH1 0x24 PUSH1 0x0 REVERT JUMPDEST PUSH4 0x4E487B71 PUSH1 0xE0 SHL PUSH1 0x0 MSTORE PUSH1 0x41 PUSH1 0x4 MSTORE PUSH1 0x24 PUSH1 0x0 REVERT JUMPDEST PUSH1 0x1 PUSH1 0x1 PUSH1 0xA0 SHL SUB DUP2 AND DUP2 EQ PUSH2 0xA5A JUMPI PUSH1 0x0 DUP1 REVERT INVALID COINBASE PUSH5 0x6472657373 GASPRICE KECCAK256 PUSH13 0x6F772D6C6576656C2063616C6C KECCAK256 PUSH24 0x6974682076616C7565206661696C6564A264697066735822 SLT KECCAK256 BLOCKHASH PUSH2 0x7CCE 0xDE PUSH5 0xC3B9E849B1 SLOAD SWAP9 0x28 0x2E CALLDATACOPY 0xD5 XOR 0xB2 RETURNDATACOPY 0xBD DUP8 PUSH10 0xA1BC3505C6A4A6B19A64 PUSH20 0x6F6C634300080700330000000000000000000000 "
		},
		"gasEstimates": {
			"creation": {
				"codeDepositCost": "3110600",
				"executionCost": "infinite",
				"totalCost": "infinite"
			},
			"external": {
				"BALLOT_TYPEHASH()": "328",
				"COUNTING_MODE()": "infinite",
				"EXTENDED_BALLOT_TYPEHASH()": "329",
				"castVote(uint256,uint8)": "infinite",
				"castVoteBySig(uint256,uint8,uint8,bytes32,bytes32)": "infinite",
				"castVoteWithReason(uint256,uint8,string)": "infinite",
				"castVoteWithReasonAndParams(uint256,uint8,string,bytes)": "infinite",
				"castVoteWithReasonAndParamsBySig(uint256,uint8,string,bytes,uint8,bytes32,bytes32)": "infinite",
				"execute(address[],uint256[],bytes[],bytes32)": "infinite",
				"getVotes(address,uint256)": "infinite",
				"getVotesWithParams(address,uint256,bytes)": "infinite",
				"hasVoted(uint256,address)": "2760",
				"hashProposal(address[],uint256[],bytes[],bytes32)": "infinite",
				"name()": "infinite",
				"onERC1155BatchReceived(address,address,uint256[],uint256[],bytes)": "infinite",
				"onERC1155Received(address,address,uint256,uint256,bytes)": "infinite",
				"onERC721Received(address,address,uint256,bytes)": "infinite",
				"proposalDeadline(uint256)": "2695",
				"proposalEta(uint256)": "infinite",
				"proposalSnapshot(uint256)": "2654",
				"proposalThreshold()": "2419",
				"proposalVotes(uint256)": "6841",
				"propose(address[],uint256[],bytes[],string)": "infinite",
				"queue(address[],uint256[],bytes[],bytes32)": "infinite",
				"quorum(uint256)": "infinite",
				"quorumDenominator()": "282",
				"quorumNumerator()": "9047",
				"quorumNumerator(uint256)": "infinite",
				"relay(address,uint256,bytes)": "infinite",
				"setProposalThreshold(uint256)": "infinite",
				"setVotingDelay(uint256)": "infinite",
				"setVotingPeriod(uint256)": "infinite",
				"state(uint256)": "infinite",
				"supportsInterface(bytes4)": "infinite",
				"timelock()": "2409",
				"token()": "infinite",
				"updateQuorumNumerator(uint256)": "infinite",
				"updateTimelock(address)": "infinite",
				"version()": "infinite",
				"votingDelay()": "2376",
				"votingPeriod()": "2399"
			},
			"internal": {
				"_cancel(address[] memory,uint256[] memory,bytes memory[] memory,bytes32)": "infinite",
				"_execute(uint256,address[] memory,uint256[] memory,bytes memory[] memory,bytes32)": "infinite",
				"_executor()": "2156"
			}
		},
		"methodIdentifiers": {
			"BALLOT_TYPEHASH()": "deaaa7cc",
			"COUNTING_MODE()": "dd4e2ba5",
			"EXTENDED_BALLOT_TYPEHASH()": "2fe3e261",
			"castVote(uint256,uint8)": "56781388",
			"castVoteBySig(uint256,uint8,uint8,bytes32,bytes32)": "3bccf4fd",
			"castVoteWithReason(uint256,uint8,string)": "7b3c71d3",
			"castVoteWithReasonAndParams(uint256,uint8,string,bytes)": "5f398a14",
			"castVoteWithReasonAndParamsBySig(uint256,uint8,string,bytes,uint8,bytes32,bytes32)": "03420181",
			"execute(address[],uint256[],bytes[],bytes32)": "2656227d",
			"getVotes(address,uint256)": "eb9019d4",
			"getVotesWithParams(address,uint256,bytes)": "9a802a6d",
			"hasVoted(uint256,address)": "43859632",
			"hashProposal(address[],uint256[],bytes[],bytes32)": "c59057e4",
			"name()": "06fdde03",
			"onERC1155BatchReceived(address,address,uint256[],uint256[],bytes)": "bc197c81",
			"onERC1155Received(address,address,uint256,uint256,bytes)": "f23a6e61",
			"onERC721Received(address,address,uint256,bytes)": "150b7a02",
			"proposalDeadline(uint256)": "c01f9e37",
			"proposalEta(uint256)": "ab58fb8e",
			"proposalSnapshot(uint256)": "2d63f693",
			"proposalThreshold()": "b58131b0",
			"proposalVotes(uint256)": "544ffc9c",
			"propose(address[],uint256[],bytes[],string)": "7d5e81e2",
			"queue(address[],uint256[],bytes[],bytes32)": "160cbed7",
			"quorum(uint256)": "f8ce560a",
			"quorumDenominator()": "97c3d334",
			"quorumNumerator()": "a7713a70",
			"quorumNumerator(uint256)": "60c4247f",
			"relay(address,uint256,bytes)": "c28bc2fa",
			"setProposalThreshold(uint256)": "ece40cc1",
			"setVotingDelay(uint256)": "70b0f660",
			"setVotingPeriod(uint256)": "ea0217cf",
			"state(uint256)": "3e4f49e6",
			"supportsInterface(bytes4)": "01ffc9a7",
			"timelock()": "d33219b4",
			"token()": "fc0c546a",
			"updateQuorumNumerator(uint256)": "06f3f9e6",
			"updateTimelock(address)": "a890c910",
			"version()": "54fd4d50",
			"votingDelay()": "3932abb1",
			"votingPeriod()": "02a251a3"
		}
	},
	"abi": [
		{
			"inputs": [
				{
					"internalType": "contract IVotes",
					"name": "_token",
					"type": "address"
				},
				{
					"internalType": "contract TimelockController",
					"name": "_timelock",
					"type": "address"
				}
			],
			"stateMutability": "nonpayable",
			"type": "constructor"
		},
		{
			"inputs": [],
			"name": "Empty",
			"type": "error"
		},
		{
			"anonymous": false,
			"inputs": [
				{
					"indexed": false,
					"internalType": "uint256",
					"name": "proposalId",
					"type": "uint256"
				}
			],
			"name": "ProposalCanceled",
			"type": "event"
		},
		{
			"anonymous": false,
			"inputs": [
				{
					"indexed": false,
					"internalType": "uint256",
					"name": "proposalId",
					"type": "uint256"
				},
				{
					"indexed": false,
					"internalType": "address",
					"name": "proposer",
					"type": "address"
				},
				{
					"indexed": false,
					"internalType": "address[]",
					"name": "targets",
					"type": "address[]"
				},
				{
					"indexed": false,
					"internalType": "uint256[]",
					"name": "values",
					"type": "uint256[]"
				},
				{
					"indexed": false,
					"internalType": "string[]",
					"name": "signatures",
					"type": "string[]"
				},
				{
					"indexed": false,
					"internalType": "bytes[]",
					"name": "calldatas",
					"type": "bytes[]"
				},
				{
					"indexed": false,
					"internalType": "uint256",
					"name": "startBlock",
					"type": "uint256"
				},
				{
					"indexed": false,
					"internalType": "uint256",
					"name": "endBlock",
					"type": "uint256"
				},
				{
					"indexed": false,
					"internalType": "string",
					"name": "description",
					"type": "string"
				}
			],
			"name": "ProposalCreated",
			"type": "event"
		},
		{
			"anonymous": false,
			"inputs": [
				{
					"indexed": false,
					"internalType": "uint256",
					"name": "proposalId",
					"type": "uint256"
				}
			],
			"name": "ProposalExecuted",
			"type": "event"
		},
		{
			"anonymous": false,
			"inputs": [
				{
					"indexed": false,
					"internalType": "uint256",
					"name": "proposalId",
					"type": "uint256"
				},
				{
					"indexed": false,
					"internalType": "uint256",
					"name": "eta",
					"type": "uint256"
				}
			],
			"name": "ProposalQueued",
			"type": "event"
		},
		{
			"anonymous": false,
			"inputs": [
				{
					"indexed": false,
					"internalType": "uint256",
					"name": "oldProposalThreshold",
					"type": "uint256"
				},
				{
					"indexed": false,
					"internalType": "uint256",
					"name": "newProposalThreshold",
					"type": "uint256"
				}
			],
			"name": "ProposalThresholdSet",
			"type": "event"
		},
		{
			"anonymous": false,
			"inputs": [
				{
					"indexed": false,
					"internalType": "uint256",
					"name": "oldQuorumNumerator",
					"type": "uint256"
				},
				{
					"indexed": false,
					"internalType": "uint256",
					"name": "newQuorumNumerator",
					"type": "uint256"
				}
			],
			"name": "QuorumNumeratorUpdated",
			"type": "event"
		},
		{
			"anonymous": false,
			"inputs": [
				{
					"indexed": false,
					"internalType": "address",
					"name": "oldTimelock",
					"type": "address"
				},
				{
					"indexed": false,
					"internalType": "address",
					"name": "newTimelock",
					"type": "address"
				}
			],
			"name": "TimelockChange",
			"type": "event"
		},
		{
			"anonymous": false,
			"inputs": [
				{
					"indexed": true,
					"internalType": "address",
					"name": "voter",
					"type": "address"
				},
				{
					"indexed": false,
					"internalType": "uint256",
					"name": "proposalId",
					"type": "uint256"
				},
				{
					"indexed": false,
					"internalType": "uint8",
					"name": "support",
					"type": "uint8"
				},
				{
					"indexed": false,
					"internalType": "uint256",
					"name": "weight",
					"type": "uint256"
				},
				{
					"indexed": false,
					"internalType": "string",
					"name": "reason",
					"type": "string"
				}
			],
			"name": "VoteCast",
			"type": "event"
		},
		{
			"anonymous": false,
			"inputs": [
				{
					"indexed": true,
					"internalType": "address",
					"name": "voter",
					"type": "address"
				},
				{
					"indexed": false,
					"internalType": "uint256",
					"name": "proposalId",
					"type": "uint256"
				},
				{
					"indexed": false,
					"internalType": "uint8",
					"name": "support",
					"type": "uint8"
				},
				{
					"indexed": false,
					"internalType": "uint256",
					"name": "weight",
					"type": "uint256"
				},
				{
					"indexed": false,
					"internalType": "string",
					"name": "reason",
					"type": "string"
				},
				{
					"indexed": false,
					"internalType": "bytes",
					"name": "params",
					"type": "bytes"
				}
			],
			"name": "VoteCastWithParams",
			"type": "event"
		},
		{
			"anonymous": false,
			"inputs": [
				{
					"indexed": false,
					"internalType": "uint256",
					"name": "oldVotingDelay",
					"type": "uint256"
				},
				{
					"indexed": false,
					"internalType": "uint256",
					"name": "newVotingDelay",
					"type": "uint256"
				}
			],
			"name": "VotingDelaySet",
			"type": "event"
		},
		{
			"anonymous": false,
			"inputs": [
				{
					"indexed": false,
					"internalType": "uint256",
					"name": "oldVotingPeriod",
					"type": "uint256"
				},
				{
					"indexed": false,
					"internalType": "uint256",
					"name": "newVotingPeriod",
					"type": "uint256"
				}
			],
			"name": "VotingPeriodSet",
			"type": "event"
		},
		{
			"inputs": [],
			"name": "BALLOT_TYPEHASH",
			"outputs": [
				{
					"internalType": "bytes32",
					"name": "",
					"type": "bytes32"
				}
			],
			"stateMutability": "view",
			"type": "function"
		},
		{
			"inputs": [],
			"name": "COUNTING_MODE",
			"outputs": [
				{
					"internalType": "string",
					"name": "",
					"type": "string"
				}
			],
			"stateMutability": "pure",
			"type": "function"
		},
		{
			"inputs": [],
			"name": "EXTENDED_BALLOT_TYPEHASH",
			"outputs": [
				{
					"internalType": "bytes32",
					"name": "",
					"type": "bytes32"
				}
			],
			"stateMutability": "view",
			"type": "function"
		},
		{
			"inputs": [
				{
					"internalType": "uint256",
					"name": "proposalId",
					"type": "uint256"
				},
				{
					"internalType": "uint8",
					"name": "support",
					"type": "uint8"
				}
			],
			"name": "castVote",
			"outputs": [
				{
					"internalType": "uint256",
					"name": "",
					"type": "uint256"
				}
			],
			"stateMutability": "nonpayable",
			"type": "function"
		},
		{
			"inputs": [
				{
					"internalType": "uint256",
					"name": "proposalId",
					"type": "uint256"
				},
				{
					"internalType": "uint8",
					"name": "support",
					"type": "uint8"
				},
				{
					"internalType": "uint8",
					"name": "v",
					"type": "uint8"
				},
				{
					"internalType": "bytes32",
					"name": "r",
					"type": "bytes32"
				},
				{
					"internalType": "bytes32",
					"name": "s",
					"type": "bytes32"
				}
			],
			"name": "castVoteBySig",
			"outputs": [
				{
					"internalType": "uint256",
					"name": "",
					"type": "uint256"
				}
			],
			"stateMutability": "nonpayable",
			"type": "function"
		},
		{
			"inputs": [
				{
					"internalType": "uint256",
					"name": "proposalId",
					"type": "uint256"
				},
				{
					"internalType": "uint8",
					"name": "support",
					"type": "uint8"
				},
				{
					"internalType": "string",
					"name": "reason",
					"type": "string"
				}
			],
			"name": "castVoteWithReason",
			"outputs": [
				{
					"internalType": "uint256",
					"name": "",
					"type": "uint256"
				}
			],
			"stateMutability": "nonpayable",
			"type": "function"
		},
		{
			"inputs": [
				{
					"internalType": "uint256",
					"name": "proposalId",
					"type": "uint256"
				},
				{
					"internalType": "uint8",
					"name": "support",
					"type": "uint8"
				},
				{
					"internalType": "string",
					"name": "reason",
					"type": "string"
				},
				{
					"internalType": "bytes",
					"name": "params",
					"type": "bytes"
				}
			],
			"name": "castVoteWithReasonAndParams",
			"outputs": [
				{
					"internalType": "uint256",
					"name": "",
					"type": "uint256"
				}
			],
			"stateMutability": "nonpayable",
			"type": "function"
		},
		{
			"inputs": [
				{
					"internalType": "uint256",
					"name": "proposalId",
					"type": "uint256"
				},
				{
					"internalType": "uint8",
					"name": "support",
					"type": "uint8"
				},
				{
					"internalType": "string",
					"name": "reason",
					"type": "string"
				},
				{
					"internalType": "bytes",
					"name": "params",
					"type": "bytes"
				},
				{
					"internalType": "uint8",
					"name": "v",
					"type": "uint8"
				},
				{
					"internalType": "bytes32",
					"name": "r",
					"type": "bytes32"
				},
				{
					"internalType": "bytes32",
					"name": "s",
					"type": "bytes32"
				}
			],
			"name": "castVoteWithReasonAndParamsBySig",
			"outputs": [
				{
					"internalType": "uint256",
					"name": "",
					"type": "uint256"
				}
			],
			"stateMutability": "nonpayable",
			"type": "function"
		},
		{
			"inputs": [
				{
					"internalType": "address[]",
					"name": "targets",
					"type": "address[]"
				},
				{
					"internalType": "uint256[]",
					"name": "values",
					"type": "uint256[]"
				},
				{
					"internalType": "bytes[]",
					"name": "calldatas",
					"type": "bytes[]"
				},
				{
					"internalType": "bytes32",
					"name": "descriptionHash",
					"type": "bytes32"
				}
			],
			"name": "execute",
			"outputs": [
				{
					"internalType": "uint256",
					"name": "",
					"type": "uint256"
				}
			],
			"stateMutability": "payable",
			"type": "function"
		},
		{
			"inputs": [
				{
					"internalType": "address",
					"name": "account",
					"type": "address"
				},
				{
					"internalType": "uint256",
					"name": "blockNumber",
					"type": "uint256"
				}
			],
			"name": "getVotes",
			"outputs": [
				{
					"internalType": "uint256",
					"name": "",
					"type": "uint256"
				}
			],
			"stateMutability": "view",
			"type": "function"
		},
		{
			"inputs": [
				{
					"internalType": "address",
					"name": "account",
					"type": "address"
				},
				{
					"internalType": "uint256",
					"name": "blockNumber",
					"type": "uint256"
				},
				{
					"internalType": "bytes",
					"name": "params",
					"type": "bytes"
				}
			],
			"name": "getVotesWithParams",
			"outputs": [
				{
					"internalType": "uint256",
					"name": "",
					"type": "uint256"
				}
			],
			"stateMutability": "view",
			"type": "function"
		},
		{
			"inputs": [
				{
					"internalType": "uint256",
					"name": "proposalId",
					"type": "uint256"
				},
				{
					"internalType": "address",
					"name": "account",
					"type": "address"
				}
			],
			"name": "hasVoted",
			"outputs": [
				{
					"internalType": "bool",
					"name": "",
					"type": "bool"
				}
			],
			"stateMutability": "view",
			"type": "function"
		},
		{
			"inputs": [
				{
					"internalType": "address[]",
					"name": "targets",
					"type": "address[]"
				},
				{
					"internalType": "uint256[]",
					"name": "values",
					"type": "uint256[]"
				},
				{
					"internalType": "bytes[]",
					"name": "calldatas",
					"type": "bytes[]"
				},
				{
					"internalType": "bytes32",
					"name": "descriptionHash",
					"type": "bytes32"
				}
			],
			"name": "hashProposal",
			"outputs": [
				{
					"internalType": "uint256",
					"name": "",
					"type": "uint256"
				}
			],
			"stateMutability": "pure",
			"type": "function"
		},
		{
			"inputs": [],
			"name": "name",
			"outputs": [
				{
					"internalType": "string",
					"name": "",
					"type": "string"
				}
			],
			"stateMutability": "view",
			"type": "function"
		},
		{
			"inputs": [
				{
					"internalType": "address",
					"name": "",
					"type": "address"
				},
				{
					"internalType": "address",
					"name": "",
					"type": "address"
				},
				{
					"internalType": "uint256[]",
					"name": "",
					"type": "uint256[]"
				},
				{
					"internalType": "uint256[]",
					"name": "",
					"type": "uint256[]"
				},
				{
					"internalType": "bytes",
					"name": "",
					"type": "bytes"
				}
			],
			"name": "onERC1155BatchReceived",
			"outputs": [
				{
					"internalType": "bytes4",
					"name": "",
					"type": "bytes4"
				}
			],
			"stateMutability": "nonpayable",
			"type": "function"
		},
		{
			"inputs": [
				{
					"internalType": "address",
					"name": "",
					"type": "address"
				},
				{
					"internalType": "address",
					"name": "",
					"type": "address"
				},
				{
					"internalType": "uint256",
					"name": "",
					"type": "uint256"
				},
				{
					"internalType": "uint256",
					"name": "",
					"type": "uint256"
				},
				{
					"internalType": "bytes",
					"name": "",
					"type": "bytes"
				}
			],
			"name": "onERC1155Received",
			"outputs": [
				{
					"internalType": "bytes4",
					"name": "",
					"type": "bytes4"
				}
			],
			"stateMutability": "nonpayable",
			"type": "function"
		},
		{
			"inputs": [
				{
					"internalType": "address",
					"name": "",
					"type": "address"
				},
				{
					"internalType": "address",
					"name": "",
					"type": "address"
				},
				{
					"internalType": "uint256",
					"name": "",
					"type": "uint256"
				},
				{
					"internalType": "bytes",
					"name": "",
					"type": "bytes"
				}
			],
			"name": "onERC721Received",
			"outputs": [
				{
					"internalType": "bytes4",
					"name": "",
					"type": "bytes4"
				}
			],
			"stateMutability": "nonpayable",
			"type": "function"
		},
		{
			"inputs": [
				{
					"internalType": "uint256",
					"name": "proposalId",
					"type": "uint256"
				}
			],
			"name": "proposalDeadline",
			"outputs": [
				{
					"internalType": "uint256",
					"name": "",
					"type": "uint256"
				}
			],
			"stateMutability": "view",
			"type": "function"
		},
		{
			"inputs": [
				{
					"internalType": "uint256",
					"name": "proposalId",
					"type": "uint256"
				}
			],
			"name": "proposalEta",
			"outputs": [
				{
					"internalType": "uint256",
					"name": "",
					"type": "uint256"
				}
			],
			"stateMutability": "view",
			"type": "function"
		},
		{
			"inputs": [
				{
					"internalType": "uint256",
					"name": "proposalId",
					"type": "uint256"
				}
			],
			"name": "proposalSnapshot",
			"outputs": [
				{
					"internalType": "uint256",
					"name": "",
					"type": "uint256"
				}
			],
			"stateMutability": "view",
			"type": "function"
		},
		{
			"inputs": [],
			"name": "proposalThreshold",
			"outputs": [
				{
					"internalType": "uint256",
					"name": "",
					"type": "uint256"
				}
			],
			"stateMutability": "view",
			"type": "function"
		},
		{
			"inputs": [
				{
					"internalType": "uint256",
					"name": "proposalId",
					"type": "uint256"
				}
			],
			"name": "proposalVotes",
			"outputs": [
				{
					"internalType": "uint256",
					"name": "againstVotes",
					"type": "uint256"
				},
				{
					"internalType": "uint256",
					"name": "forVotes",
					"type": "uint256"
				},
				{
					"internalType": "uint256",
					"name": "abstainVotes",
					"type": "uint256"
				}
			],
			"stateMutability": "view",
			"type": "function"
		},
		{
			"inputs": [
				{
					"internalType": "address[]",
					"name": "targets",
					"type": "address[]"
				},
				{
					"internalType": "uint256[]",
					"name": "values",
					"type": "uint256[]"
				},
				{
					"internalType": "bytes[]",
					"name": "calldatas",
					"type": "bytes[]"
				},
				{
					"internalType": "string",
					"name": "description",
					"type": "string"
				}
			],
			"name": "propose",
			"outputs": [
				{
					"internalType": "uint256",
					"name": "",
					"type": "uint256"
				}
			],
			"stateMutability": "nonpayable",
			"type": "function"
		},
		{
			"inputs": [
				{
					"internalType": "address[]",
					"name": "targets",
					"type": "address[]"
				},
				{
					"internalType": "uint256[]",
					"name": "values",
					"type": "uint256[]"
				},
				{
					"internalType": "bytes[]",
					"name": "calldatas",
					"type": "bytes[]"
				},
				{
					"internalType": "bytes32",
					"name": "descriptionHash",
					"type": "bytes32"
				}
			],
			"name": "queue",
			"outputs": [
				{
					"internalType": "uint256",
					"name": "",
					"type": "uint256"
				}
			],
			"stateMutability": "nonpayable",
			"type": "function"
		},
		{
			"inputs": [
				{
					"internalType": "uint256",
					"name": "blockNumber",
					"type": "uint256"
				}
			],
			"name": "quorum",
			"outputs": [
				{
					"internalType": "uint256",
					"name": "",
					"type": "uint256"
				}
			],
			"stateMutability": "view",
			"type": "function"
		},
		{
			"inputs": [],
			"name": "quorumDenominator",
			"outputs": [
				{
					"internalType": "uint256",
					"name": "",
					"type": "uint256"
				}
			],
			"stateMutability": "view",
			"type": "function"
		},
		{
			"inputs": [
				{
					"internalType": "uint256",
					"name": "blockNumber",
					"type": "uint256"
				}
			],
			"name": "quorumNumerator",
			"outputs": [
				{
					"internalType": "uint256",
					"name": "",
					"type": "uint256"
				}
			],
			"stateMutability": "view",
			"type": "function"
		},
		{
			"inputs": [],
			"name": "quorumNumerator",
			"outputs": [
				{
					"internalType": "uint256",
					"name": "",
					"type": "uint256"
				}
			],
			"stateMutability": "view",
			"type": "function"
		},
		{
			"inputs": [
				{
					"internalType": "address",
					"name": "target",
					"type": "address"
				},
				{
					"internalType": "uint256",
					"name": "value",
					"type": "uint256"
				},
				{
					"internalType": "bytes",
					"name": "data",
					"type": "bytes"
				}
			],
			"name": "relay",
			"outputs": [],
			"stateMutability": "nonpayable",
			"type": "function"
		},
		{
			"inputs": [
				{
					"internalType": "uint256",
					"name": "newProposalThreshold",
					"type": "uint256"
				}
			],
			"name": "setProposalThreshold",
			"outputs": [],
			"stateMutability": "nonpayable",
			"type": "function"
		},
		{
			"inputs": [
				{
					"internalType": "uint256",
					"name": "newVotingDelay",
					"type": "uint256"
				}
			],
			"name": "setVotingDelay",
			"outputs": [],
			"stateMutability": "nonpayable",
			"type": "function"
		},
		{
			"inputs": [
				{
					"internalType": "uint256",
					"name": "newVotingPeriod",
					"type": "uint256"
				}
			],
			"name": "setVotingPeriod",
			"outputs": [],
			"stateMutability": "nonpayable",
			"type": "function"
		},
		{
			"inputs": [
				{
					"internalType": "uint256",
					"name": "proposalId",
					"type": "uint256"
				}
			],
			"name": "state",
			"outputs": [
				{
					"internalType": "enum IGovernor.ProposalState",
					"name": "",
					"type": "uint8"
				}
			],
			"stateMutability": "view",
			"type": "function"
		},
		{
			"inputs": [
				{
					"internalType": "bytes4",
					"name": "interfaceId",
					"type": "bytes4"
				}
			],
			"name": "supportsInterface",
			"outputs": [
				{
					"internalType": "bool",
					"name": "",
					"type": "bool"
				}
			],
			"stateMutability": "view",
			"type": "function"
		},
		{
			"inputs": [],
			"name": "timelock",
			"outputs": [
				{
					"internalType": "address",
					"name": "",
					"type": "address"
				}
			],
			"stateMutability": "view",
			"type": "function"
		},
		{
			"inputs": [],
			"name": "token",
			"outputs": [
				{
					"internalType": "contract IVotes",
					"name": "",
					"type": "address"
				}
			],
			"stateMutability": "view",
			"type": "function"
		},
		{
			"inputs": [
				{
					"internalType": "uint256",
					"name": "newQuorumNumerator",
					"type": "uint256"
				}
			],
			"name": "updateQuorumNumerator",
			"outputs": [],
			"stateMutability": "nonpayable",
			"type": "function"
		},
		{
			"inputs": [
				{
					"internalType": "contract TimelockController",
					"name": "newTimelock",
					"type": "address"
				}
			],
			"name": "updateTimelock",
			"outputs": [],
			"stateMutability": "nonpayable",
			"type": "function"
		},
		{
			"inputs": [],
			"name": "version",
			"outputs": [
				{
					"internalType": "string",
					"name": "",
					"type": "string"
				}
			],
			"stateMutability": "view",
			"type": "function"
		},
		{
			"inputs": [],
			"name": "votingDelay",
			"outputs": [
				{
					"internalType": "uint256",
					"name": "",
					"type": "uint256"
				}
			],
			"stateMutability": "view",
			"type": "function"
		},
		{
			"inputs": [],
			"name": "votingPeriod",
			"outputs": [
				{
					"internalType": "uint256",
					"name": "",
					"type": "uint256"
				}
			],
			"stateMutability": "view",
			"type": "function"
		},
		{
			"stateMutability": "payable",
			"type": "receive"
		}
	]
}