{
	"data": {
		"bytecode": {
			"linkReferences": {},
			"object": "608060405234801561001057600080fd5b50610332806100206000396000f3fe608060405234801561001057600080fd5b50600436106100365760003560e01c806340dcbb081461003b578063c243c72b14610057575b600080fd5b6100556004803603810190610050919061020e565b610073565b005b610071600480360381019061006c919061020e565b610076565b005b50565b806000908051906020019061008c9291906100f9565b50600061009960006100f6565b6100f260008054806020026020016040519081016040528092919081815260200182805480156100e857602002820191906000526020600020905b8154815260200190600101908083116100d4575b5050505050610073565b5050565b50565b828054828255906000526020600020908101928215610135579160200282015b82811115610134578251825591602001919060010190610119565b5b5090506101429190610146565b5090565b5b8082111561015f576000816000905550600101610147565b5090565b600061017661017184610280565b61024f565b9050808382526020820190508285602086028201111561019557600080fd5b60005b858110156101c557816101ab88826101f9565b845260208401935060208301925050600181019050610198565b5050509392505050565b600082601f8301126101e057600080fd5b81356101f0848260208601610163565b91505092915050565b600081359050610208816102e5565b92915050565b60006020828403121561022057600080fd5b600082013567ffffffffffffffff81111561023a57600080fd5b610246848285016101cf565b91505092915050565b6000604051905081810181811067ffffffffffffffff82111715610276576102756102b6565b5b8060405250919050565b600067ffffffffffffffff82111561029b5761029a6102b6565b5b602082029050602081019050919050565b6000819050919050565b7f4e487b7100000000000000000000000000000000000000000000000000000000600052604160045260246000fd5b6102ee816102ac565b81146102f957600080fd5b5056fea2646970667358221220b890028d5c800fa59787663986ace0b4bab0aa5517dd008302e9a4bcbd27a21964736f6c63430008000033",
			"opcodes": "PUSH1 0x80 PUSH1 0x40 MSTORE CALLVALUE DUP1 ISZERO PUSH2 0x10 JUMPI PUSH1 0x0 DUP1 REVERT JUMPDEST POP PUSH2 0x332 DUP1 PUSH2 0x20 PUSH1 0x0 CODECOPY PUSH1 0x0 RETURN INVALID PUSH1 0x80 PUSH1 0x40 MSTORE CALLVALUE DUP1 ISZERO PUSH2 0x10 JUMPI PUSH1 0x0 DUP1 REVERT JUMPDEST POP PUSH1 0x4 CALLDATASIZE LT PUSH2 0x36 JUMPI PUSH1 0x0 CALLDATALOAD PUSH1 0xE0 SHR DUP1 PUSH4 0x40DCBB08 EQ PUSH2 0x3B JUMPI DUP1 PUSH4 0xC243C72B EQ PUSH2 0x57 JUMPI JUMPDEST PUSH1 0x0 DUP1 REVERT JUMPDEST PUSH2 0x55 PUSH1 0x4 DUP1 CALLDATASIZE SUB DUP2 ADD SWAP1 PUSH2 0x50 SWAP2 SWAP1 PUSH2 0x20E JUMP JUMPDEST PUSH2 0x73 JUMP JUMPDEST STOP JUMPDEST PUSH2 0x71 PUSH1 0x4 DUP1 CALLDATASIZE SUB DUP2 ADD SWAP1 PUSH2 0x6C SWAP2 SWAP1 PUSH2 0x20E JUMP JUMPDEST PUSH2 0x76 JUMP JUMPDEST STOP JUMPDEST POP JUMP JUMPDEST DUP1 PUSH1 0x0 SWAP1 DUP1 MLOAD SWAP1 PUSH1 0x20 ADD SWAP1 PUSH2 0x8C SWAP3 SWAP2 SWAP1 PUSH2 0xF9 JUMP JUMPDEST POP PUSH1 0x0 PUSH2 0x99 PUSH1 0x0 PUSH2 0xF6 JUMP JUMPDEST PUSH2 0xF2 PUSH1 0x0 DUP1 SLOAD DUP1 PUSH1 0x20 MUL PUSH1 0x20 ADD PUSH1 0x40 MLOAD SWAP1 DUP2 ADD PUSH1 0x40 MSTORE DUP1 SWAP3 SWAP2 SWAP1 DUP2 DUP2 MSTORE PUSH1 0x20 ADD DUP3 DUP1 SLOAD DUP1 ISZERO PUSH2 0xE8 JUMPI PUSH1 0x20 MUL DUP3 ADD SWAP2 SWAP1 PUSH1 0x0 MSTORE PUSH1 0x20 PUSH1 0x0 KECCAK256 SWAP1 JUMPDEST DUP2 SLOAD DUP2 MSTORE PUSH1 0x20 ADD SWAP1 PUSH1 0x1 ADD SWAP1 DUP1 DUP4 GT PUSH2 0xD4 JUMPI JUMPDEST POP POP POP POP POP PUSH2 0x73 JUMP JUMPDEST POP POP JUMP JUMPDEST POP JUMP JUMPDEST DUP3 DUP1 SLOAD DUP3 DUP3 SSTORE SWAP1 PUSH1 0x0 MSTORE PUSH1 0x20 PUSH1 0x0 KECCAK256 SWAP1 DUP2 ADD SWAP3 DUP3 ISZERO PUSH2 0x135 JUMPI SWAP2 PUSH1 0x20 MUL DUP3 ADD JUMPDEST DUP3 DUP2 GT ISZERO PUSH2 0x134 JUMPI DUP3 MLOAD DUP3 SSTORE SWAP2 PUSH1 0x20 ADD SWAP2 SWAP1 PUSH1 0x1 ADD SWAP1 PUSH2 0x119 JUMP JUMPDEST JUMPDEST POP SWAP1 POP PUSH2 0x142 SWAP2 SWAP1 PUSH2 0x146 JUMP JUMPDEST POP SWAP1 JUMP JUMPDEST JUMPDEST DUP1 DUP3 GT ISZERO PUSH2 0x15F JUMPI PUSH1 0x0 DUP2 PUSH1 0x0 SWAP1 SSTORE POP PUSH1 0x1 ADD PUSH2 0x147 JUMP JUMPDEST POP SWAP1 JUMP JUMPDEST PUSH1 0x0 PUSH2 0x176 PUSH2 0x171 DUP5 PUSH2 0x280 JUMP JUMPDEST PUSH2 0x24F JUMP JUMPDEST SWAP1 POP DUP1 DUP4 DUP3 MSTORE PUSH1 0x20 DUP3 ADD SWAP1 POP DUP3 DUP6 PUSH1 0x20 DUP7 MUL DUP3 ADD GT ISZERO PUSH2 0x195 JUMPI PUSH1 0x0 DUP1 REVERT JUMPDEST PUSH1 0x0 JUMPDEST DUP6 DUP2 LT ISZERO PUSH2 0x1C5 JUMPI DUP2 PUSH2 0x1AB DUP9 DUP3 PUSH2 0x1F9 JUMP JUMPDEST DUP5 MSTORE PUSH1 0x20 DUP5 ADD SWAP4 POP PUSH1 0x20 DUP4 ADD SWAP3 POP POP PUSH1 0x1 DUP2 ADD SWAP1 POP PUSH2 0x198 JUMP JUMPDEST POP POP POP SWAP4 SWAP3 POP POP POP JUMP JUMPDEST PUSH1 0x0 DUP3 PUSH1 0x1F DUP4 ADD SLT PUSH2 0x1E0 JUMPI PUSH1 0x0 DUP1 REVERT JUMPDEST DUP2 CALLDATALOAD PUSH2 0x1F0 DUP5 DUP3 PUSH1 0x20 DUP7 ADD PUSH2 0x163 JUMP JUMPDEST SWAP2 POP POP SWAP3 SWAP2 POP POP JUMP JUMPDEST PUSH1 0x0 DUP2 CALLDATALOAD SWAP1 POP PUSH2 0x208 DUP2 PUSH2 0x2E5 JUMP JUMPDEST SWAP3 SWAP2 POP POP JUMP JUMPDEST PUSH1 0x0 PUSH1 0x20 DUP3 DUP5 SUB SLT ISZERO PUSH2 0x220 JUMPI PUSH1 0x0 DUP1 REVERT JUMPDEST PUSH1 0x0 DUP3 ADD CALLDATALOAD PUSH8 0xFFFFFFFFFFFFFFFF DUP2 GT ISZERO PUSH2 0x23A JUMPI PUSH1 0x0 DUP1 REVERT JUMPDEST PUSH2 0x246 DUP5 DUP3 DUP6 ADD PUSH2 0x1CF JUMP JUMPDEST SWAP2 POP POP SWAP3 SWAP2 POP POP JUMP JUMPDEST PUSH1 0x0 PUSH1 0x40 MLOAD SWAP1 POP DUP2 DUP2 ADD DUP2 DUP2 LT PUSH8 0xFFFFFFFFFFFFFFFF DUP3 GT OR ISZERO PUSH2 0x276 JUMPI PUSH2 0x275 PUSH2 0x2B6 JUMP JUMPDEST JUMPDEST DUP1 PUSH1 0x40 MSTORE POP SWAP2 SWAP1 POP JUMP JUMPDEST PUSH1 0x0 PUSH8 0xFFFFFFFFFFFFFFFF DUP3 GT ISZERO PUSH2 0x29B JUMPI PUSH2 0x29A PUSH2 0x2B6 JUMP JUMPDEST JUMPDEST PUSH1 0x20 DUP3 MUL SWAP1 POP PUSH1 0x20 DUP2 ADD SWAP1 POP SWAP2 SWAP1 POP JUMP JUMPDEST PUSH1 0x0 DUP2 SWAP1 POP SWAP2 SWAP1 POP JUMP JUMPDEST PUSH32 0x4E487B7100000000000000000000000000000000000000000000000000000000 PUSH1 0x0 MSTORE PUSH1 0x41 PUSH1 0x4 MSTORE PUSH1 0x24 PUSH1 0x0 REVERT JUMPDEST PUSH2 0x2EE DUP2 PUSH2 0x2AC JUMP JUMPDEST DUP2 EQ PUSH2 0x2F9 JUMPI PUSH1 0x0 DUP1 REVERT JUMPDEST POP JUMP INVALID LOG2 PUSH5 0x6970667358 0x22 SLT KECCAK256 0xB8 SWAP1 MUL DUP14 0x5C DUP1 0xF 0xA5 SWAP8 DUP8 PUSH7 0x3986ACE0B4BAB0 0xAA SSTORE OR 0xDD STOP DUP4 MUL 0xE9 LOG4 0xBC 0xBD 0x27 LOG2 NOT PUSH5 0x736F6C6343 STOP ADDMOD STOP STOP CALLER "
		},
		"gasEstimates": {
			"creation": {
				"codeDepositCost": "163600",
				"executionCost": "208",
				"totalCost": "163808"
			},
			"external": {
				"buy(uint256[])": "infinite",
				"h(uint256[])": "infinite"
			},
			"internal": {
				"g(uint256[] storage pointer)": "11"
			}
		},
		"methodIdentifiers": {
			"buy(uint256[])": "c243c72b",
			"h(uint256[])": "40dcbb08"
		}
	},
	"abi": [
		{
			"inputs": [
				{
					"internalType": "uint256[]",
					"name": "values",
					"type": "uint256[]"
				}
			],
			"name": "buy",
			"outputs": [],
			"stateMutability": "nonpayable",
			"type": "function"
		},
		{
			"inputs": [
				{
					"internalType": "uint256[]",
					"name": "",
					"type": "uint256[]"
				}
			],
			"name": "h",
			"outputs": [],
			"stateMutability": "pure",
			"type": "function"
		}
	]
}