{
	"@openzeppelin/contracts/governance/TimelockController.sol": {
		"TimelockController": {
			"abi": [
				{
					"inputs": [
						{
							"internalType": "uint256",
							"name": "minDelay",
							"type": "uint256"
						},
						{
							"internalType": "address[]",
							"name": "proposers",
							"type": "address[]"
						},
						{
							"internalType": "address[]",
							"name": "executors",
							"type": "address[]"
						}
					],
					"stateMutability": "nonpayable",
					"type": "constructor"
				},
				{
					"anonymous": false,
					"inputs": [
						{
							"indexed": true,
							"internalType": "bytes32",
							"name": "id",
							"type": "bytes32"
						},
						{
							"indexed": true,
							"internalType": "uint256",
							"name": "index",
							"type": "uint256"
						},
						{
							"indexed": false,
							"internalType": "address",
							"name": "target",
							"type": "address"
						},
						{
							"indexed": false,
							"internalType": "uint256",
							"name": "value",
							"type": "uint256"
						},
						{
							"indexed": false,
							"internalType": "bytes",
							"name": "data",
							"type": "bytes"
						}
					],
					"name": "CallExecuted",
					"type": "event"
				},
				{
					"anonymous": false,
					"inputs": [
						{
							"indexed": true,
							"internalType": "bytes32",
							"name": "id",
							"type": "bytes32"
						},
						{
							"indexed": true,
							"internalType": "uint256",
							"name": "index",
							"type": "uint256"
						},
						{
							"indexed": false,
							"internalType": "address",
							"name": "target",
							"type": "address"
						},
						{
							"indexed": false,
							"internalType": "uint256",
							"name": "value",
							"type": "uint256"
						},
						{
							"indexed": false,
							"internalType": "bytes",
							"name": "data",
							"type": "bytes"
						},
						{
							"indexed": false,
							"internalType": "bytes32",
							"name": "predecessor",
							"type": "bytes32"
						},
						{
							"indexed": false,
							"internalType": "uint256",
							"name": "delay",
							"type": "uint256"
						}
					],
					"name": "CallScheduled",
					"type": "event"
				},
				{
					"anonymous": false,
					"inputs": [
						{
							"indexed": true,
							"internalType": "bytes32",
							"name": "id",
							"type": "bytes32"
						}
					],
					"name": "Cancelled",
					"type": "event"
				},
				{
					"anonymous": false,
					"inputs": [
						{
							"indexed": false,
							"internalType": "uint256",
							"name": "oldDuration",
							"type": "uint256"
						},
						{
							"indexed": false,
							"internalType": "uint256",
							"name": "newDuration",
							"type": "uint256"
						}
					],
					"name": "MinDelayChange",
					"type": "event"
				},
				{
					"anonymous": false,
					"inputs": [
						{
							"indexed": true,
							"internalType": "bytes32",
							"name": "role",
							"type": "bytes32"
						},
						{
							"indexed": true,
							"internalType": "bytes32",
							"name": "previousAdminRole",
							"type": "bytes32"
						},
						{
							"indexed": true,
							"internalType": "bytes32",
							"name": "newAdminRole",
							"type": "bytes32"
						}
					],
					"name": "RoleAdminChanged",
					"type": "event"
				},
				{
					"anonymous": false,
					"inputs": [
						{
							"indexed": true,
							"internalType": "bytes32",
							"name": "role",
							"type": "bytes32"
						},
						{
							"indexed": true,
							"internalType": "address",
							"name": "account",
							"type": "address"
						},
						{
							"indexed": true,
							"internalType": "address",
							"name": "sender",
							"type": "address"
						}
					],
					"name": "RoleGranted",
					"type": "event"
				},
				{
					"anonymous": false,
					"inputs": [
						{
							"indexed": true,
							"internalType": "bytes32",
							"name": "role",
							"type": "bytes32"
						},
						{
							"indexed": true,
							"internalType": "address",
							"name": "account",
							"type": "address"
						},
						{
							"indexed": true,
							"internalType": "address",
							"name": "sender",
							"type": "address"
						}
					],
					"name": "RoleRevoked",
					"type": "event"
				},
				{
					"inputs": [],
					"name": "CANCELLER_ROLE",
					"outputs": [
						{
							"internalType": "bytes32",
							"name": "",
							"type": "bytes32"
						}
					],
					"stateMutability": "view",
					"type": "function"
				},
				{
					"inputs": [],
					"name": "DEFAULT_ADMIN_ROLE",
					"outputs": [
						{
							"internalType": "bytes32",
							"name": "",
							"type": "bytes32"
						}
					],
					"stateMutability": "view",
					"type": "function"
				},
				{
					"inputs": [],
					"name": "EXECUTOR_ROLE",
					"outputs": [
						{
							"internalType": "bytes32",
							"name": "",
							"type": "bytes32"
						}
					],
					"stateMutability": "view",
					"type": "function"
				},
				{
					"inputs": [],
					"name": "PROPOSER_ROLE",
					"outputs": [
						{
							"internalType": "bytes32",
							"name": "",
							"type": "bytes32"
						}
					],
					"stateMutability": "view",
					"type": "function"
				},
				{
					"inputs": [],
					"name": "TIMELOCK_ADMIN_ROLE",
					"outputs": [
						{
							"internalType": "bytes32",
							"name": "",
							"type": "bytes32"
						}
					],
					"stateMutability": "view",
					"type": "function"
				},
				{
					"inputs": [
						{
							"internalType": "bytes32",
							"name": "id",
							"type": "bytes32"
						}
					],
					"name": "cancel",
					"outputs": [],
					"stateMutability": "nonpayable",
					"type": "function"
				},
				{
					"inputs": [
						{
							"internalType": "address",
							"name": "target",
							"type": "address"
						},
						{
							"internalType": "uint256",
							"name": "value",
							"type": "uint256"
						},
						{
							"internalType": "bytes",
							"name": "payload",
							"type": "bytes"
						},
						{
							"internalType": "bytes32",
							"name": "predecessor",
							"type": "bytes32"
						},
						{
							"internalType": "bytes32",
							"name": "salt",
							"type": "bytes32"
						}
					],
					"name": "execute",
					"outputs": [],
					"stateMutability": "payable",
					"type": "function"
				},
				{
					"inputs": [
						{
							"internalType": "address[]",
							"name": "targets",
							"type": "address[]"
						},
						{
							"internalType": "uint256[]",
							"name": "values",
							"type": "uint256[]"
						},
						{
							"internalType": "bytes[]",
							"name": "payloads",
							"type": "bytes[]"
						},
						{
							"internalType": "bytes32",
							"name": "predecessor",
							"type": "bytes32"
						},
						{
							"internalType": "bytes32",
							"name": "salt",
							"type": "bytes32"
						}
					],
					"name": "executeBatch",
					"outputs": [],
					"stateMutability": "payable",
					"type": "function"
				},
				{
					"inputs": [],
					"name": "getMinDelay",
					"outputs": [
						{
							"internalType": "uint256",
							"name": "duration",
							"type": "uint256"
						}
					],
					"stateMutability": "view",
					"type": "function"
				},
				{
					"inputs": [
						{
							"internalType": "bytes32",
							"name": "role",
							"type": "bytes32"
						}
					],
					"name": "getRoleAdmin",
					"outputs": [
						{
							"internalType": "bytes32",
							"name": "",
							"type": "bytes32"
						}
					],
					"stateMutability": "view",
					"type": "function"
				},
				{
					"inputs": [
						{
							"internalType": "bytes32",
							"name": "id",
							"type": "bytes32"
						}
					],
					"name": "getTimestamp",
					"outputs": [
						{
							"internalType": "uint256",
							"name": "timestamp",
							"type": "uint256"
						}
					],
					"stateMutability": "view",
					"type": "function"
				},
				{
					"inputs": [
						{
							"internalType": "bytes32",
							"name": "role",
							"type": "bytes32"
						},
						{
							"internalType": "address",
							"name": "account",
							"type": "address"
						}
					],
					"name": "grantRole",
					"outputs": [],
					"stateMutability": "nonpayable",
					"type": "function"
				},
				{
					"inputs": [
						{
							"internalType": "bytes32",
							"name": "role",
							"type": "bytes32"
						},
						{
							"internalType": "address",
							"name": "account",
							"type": "address"
						}
					],
					"name": "hasRole",
					"outputs": [
						{
							"internalType": "bool",
							"name": "",
							"type": "bool"
						}
					],
					"stateMutability": "view",
					"type": "function"
				},
				{
					"inputs": [
						{
							"internalType": "address",
							"name": "target",
							"type": "address"
						},
						{
							"internalType": "uint256",
							"name": "value",
							"type": "uint256"
						},
						{
							"internalType": "bytes",
							"name": "data",
							"type": "bytes"
						},
						{
							"internalType": "bytes32",
							"name": "predecessor",
							"type": "bytes32"
						},
						{
							"internalType": "bytes32",
							"name": "salt",
							"type": "bytes32"
						}
					],
					"name": "hashOperation",
					"outputs": [
						{
							"internalType": "bytes32",
							"name": "hash",
							"type": "bytes32"
						}
					],
					"stateMutability": "pure",
					"type": "function"
				},
				{
					"inputs": [
						{
							"internalType": "address[]",
							"name": "targets",
							"type": "address[]"
						},
						{
							"internalType": "uint256[]",
							"name": "values",
							"type": "uint256[]"
						},
						{
							"internalType": "bytes[]",
							"name": "payloads",
							"type": "bytes[]"
						},
						{
							"internalType": "bytes32",
							"name": "predecessor",
							"type": "bytes32"
						},
						{
							"internalType": "bytes32",
							"name": "salt",
							"type": "bytes32"
						}
					],
					"name": "hashOperationBatch",
					"outputs": [
						{
							"internalType": "bytes32",
							"name": "hash",
							"type": "bytes32"
						}
					],
					"stateMutability": "pure",
					"type": "function"
				},
				{
					"inputs": [
						{
							"internalType": "bytes32",
							"name": "id",
							"type": "bytes32"
						}
					],
					"name": "isOperation",
					"outputs": [
						{
							"internalType": "bool",
							"name": "registered",
							"type": "bool"
						}
					],
					"stateMutability": "view",
					"type": "function"
				},
				{
					"inputs": [
						{
							"internalType": "bytes32",
							"name": "id",
							"type": "bytes32"
						}
					],
					"name": "isOperationDone",
					"outputs": [
						{
							"internalType": "bool",
							"name": "done",
							"type": "bool"
						}
					],
					"stateMutability": "view",
					"type": "function"
				},
				{
					"inputs": [
						{
							"internalType": "bytes32",
							"name": "id",
							"type": "bytes32"
						}
					],
					"name": "isOperationPending",
					"outputs": [
						{
							"internalType": "bool",
							"name": "pending",
							"type": "bool"
						}
					],
					"stateMutability": "view",
					"type": "function"
				},
				{
					"inputs": [
						{
							"internalType": "bytes32",
							"name": "id",
							"type": "bytes32"
						}
					],
					"name": "isOperationReady",
					"outputs": [
						{
							"internalType": "bool",
							"name": "ready",
							"type": "bool"
						}
					],
					"stateMutability": "view",
					"type": "function"
				},
				{
					"inputs": [
						{
							"internalType": "address",
							"name": "",
							"type": "address"
						},
						{
							"internalType": "address",
							"name": "",
							"type": "address"
						},
						{
							"internalType": "uint256[]",
							"name": "",
							"type": "uint256[]"
						},
						{
							"internalType": "uint256[]",
							"name": "",
							"type": "uint256[]"
						},
						{
							"internalType": "bytes",
							"name": "",
							"type": "bytes"
						}
					],
					"name": "onERC1155BatchReceived",
					"outputs": [
						{
							"internalType": "bytes4",
							"name": "",
							"type": "bytes4"
						}
					],
					"stateMutability": "nonpayable",
					"type": "function"
				},
				{
					"inputs": [
						{
							"internalType": "address",
							"name": "",
							"type": "address"
						},
						{
							"internalType": "address",
							"name": "",
							"type": "address"
						},
						{
							"internalType": "uint256",
							"name": "",
							"type": "uint256"
						},
						{
							"internalType": "uint256",
							"name": "",
							"type": "uint256"
						},
						{
							"internalType": "bytes",
							"name": "",
							"type": "bytes"
						}
					],
					"name": "onERC1155Received",
					"outputs": [
						{
							"internalType": "bytes4",
							"name": "",
							"type": "bytes4"
						}
					],
					"stateMutability": "nonpayable",
					"type": "function"
				},
				{
					"inputs": [
						{
							"internalType": "address",
							"name": "",
							"type": "address"
						},
						{
							"internalType": "address",
							"name": "",
							"type": "address"
						},
						{
							"internalType": "uint256",
							"name": "",
							"type": "uint256"
						},
						{
							"internalType": "bytes",
							"name": "",
							"type": "bytes"
						}
					],
					"name": "onERC721Received",
					"outputs": [
						{
							"internalType": "bytes4",
							"name": "",
							"type": "bytes4"
						}
					],
					"stateMutability": "nonpayable",
					"type": "function"
				},
				{
					"inputs": [
						{
							"internalType": "bytes32",
							"name": "role",
							"type": "bytes32"
						},
						{
							"internalType": "address",
							"name": "account",
							"type": "address"
						}
					],
					"name": "renounceRole",
					"outputs": [],
					"stateMutability": "nonpayable",
					"type": "function"
				},
				{
					"inputs": [
						{
							"internalType": "bytes32",
							"name": "role",
							"type": "bytes32"
						},
						{
							"internalType": "address",
							"name": "account",
							"type": "address"
						}
					],
					"name": "revokeRole",
					"outputs": [],
					"stateMutability": "nonpayable",
					"type": "function"
				},
				{
					"inputs": [
						{
							"internalType": "address",
							"name": "target",
							"type": "address"
						},
						{
							"internalType": "uint256",
							"name": "value",
							"type": "uint256"
						},
						{
							"internalType": "bytes",
							"name": "data",
							"type": "bytes"
						},
						{
							"internalType": "bytes32",
							"name": "predecessor",
							"type": "bytes32"
						},
						{
							"internalType": "bytes32",
							"name": "salt",
							"type": "bytes32"
						},
						{
							"internalType": "uint256",
							"name": "delay",
							"type": "uint256"
						}
					],
					"name": "schedule",
					"outputs": [],
					"stateMutability": "nonpayable",
					"type": "function"
				},
				{
					"inputs": [
						{
							"internalType": "address[]",
							"name": "targets",
							"type": "address[]"
						},
						{
							"internalType": "uint256[]",
							"name": "values",
							"type": "uint256[]"
						},
						{
							"internalType": "bytes[]",
							"name": "payloads",
							"type": "bytes[]"
						},
						{
							"internalType": "bytes32",
							"name": "predecessor",
							"type": "bytes32"
						},
						{
							"internalType": "bytes32",
							"name": "salt",
							"type": "bytes32"
						},
						{
							"internalType": "uint256",
							"name": "delay",
							"type": "uint256"
						}
					],
					"name": "scheduleBatch",
					"outputs": [],
					"stateMutability": "nonpayable",
					"type": "function"
				},
				{
					"inputs": [
						{
							"internalType": "bytes4",
							"name": "interfaceId",
							"type": "bytes4"
						}
					],
					"name": "supportsInterface",
					"outputs": [
						{
							"internalType": "bool",
							"name": "",
							"type": "bool"
						}
					],
					"stateMutability": "view",
					"type": "function"
				},
				{
					"inputs": [
						{
							"internalType": "uint256",
							"name": "newDelay",
							"type": "uint256"
						}
					],
					"name": "updateDelay",
					"outputs": [],
					"stateMutability": "nonpayable",
					"type": "function"
				},
				{
					"stateMutability": "payable",
					"type": "receive"
				}
			],
			"devdoc": {
				"details": "Contract module which acts as a timelocked controller. When set as the owner of an `Ownable` smart contract, it enforces a timelock on all `onlyOwner` maintenance operations. This gives time for users of the controlled contract to exit before a potentially dangerous maintenance operation is applied. By default, this contract is self administered, meaning administration tasks have to go through the timelock process. The proposer (resp executor) role is in charge of proposing (resp executing) operations. A common use case is to position this {TimelockController} as the owner of a smart contract, with a multisig or a DAO as the sole proposer. _Available since v3.3._",
				"events": {
					"CallExecuted(bytes32,uint256,address,uint256,bytes)": {
						"details": "Emitted when a call is performed as part of operation `id`."
					},
					"CallScheduled(bytes32,uint256,address,uint256,bytes,bytes32,uint256)": {
						"details": "Emitted when a call is scheduled as part of operation `id`."
					},
					"Cancelled(bytes32)": {
						"details": "Emitted when operation `id` is cancelled."
					},
					"MinDelayChange(uint256,uint256)": {
						"details": "Emitted when the minimum delay for future operations is modified."
					}
				},
				"kind": "dev",
				"methods": {
					"cancel(bytes32)": {
						"details": "Cancel an operation. Requirements: - the caller must have the 'canceller' role."
					},
					"constructor": {
						"details": "Initializes the contract with a given `minDelay`, and a list of initial proposers and executors. The proposers receive both the proposer and the canceller role (for backward compatibility). The executors receive the executor role. NOTE: At construction, both the deployer and the timelock itself are administrators. This helps further configuration of the timelock by the deployer. After configuration is done, it is recommended that the deployer renounces its admin position and relies on timelocked operations to perform future maintenance."
					},
					"execute(address,uint256,bytes,bytes32,bytes32)": {
						"details": "Execute an (ready) operation containing a single transaction. Emits a {CallExecuted} event. Requirements: - the caller must have the 'executor' role."
					},
					"executeBatch(address[],uint256[],bytes[],bytes32,bytes32)": {
						"details": "Execute an (ready) operation containing a batch of transactions. Emits one {CallExecuted} event per transaction in the batch. Requirements: - the caller must have the 'executor' role."
					},
					"getMinDelay()": {
						"details": "Returns the minimum delay for an operation to become valid. This value can be changed by executing an operation that calls `updateDelay`."
					},
					"getRoleAdmin(bytes32)": {
						"details": "Returns the admin role that controls `role`. See {grantRole} and {revokeRole}. To change a role's admin, use {_setRoleAdmin}."
					},
					"getTimestamp(bytes32)": {
						"details": "Returns the timestamp at with an operation becomes ready (0 for unset operations, 1 for done operations)."
					},
					"grantRole(bytes32,address)": {
						"details": "Grants `role` to `account`. If `account` had not been already granted `role`, emits a {RoleGranted} event. Requirements: - the caller must have ``role``'s admin role. May emit a {RoleGranted} event."
					},
					"hasRole(bytes32,address)": {
						"details": "Returns `true` if `account` has been granted `role`."
					},
					"hashOperation(address,uint256,bytes,bytes32,bytes32)": {
						"details": "Returns the identifier of an operation containing a single transaction."
					},
					"hashOperationBatch(address[],uint256[],bytes[],bytes32,bytes32)": {
						"details": "Returns the identifier of an operation containing a batch of transactions."
					},
					"isOperation(bytes32)": {
						"details": "Returns whether an id correspond to a registered operation. This includes both Pending, Ready and Done operations."
					},
					"isOperationDone(bytes32)": {
						"details": "Returns whether an operation is done or not."
					},
					"isOperationPending(bytes32)": {
						"details": "Returns whether an operation is pending or not."
					},
					"isOperationReady(bytes32)": {
						"details": "Returns whether an operation is ready or not."
					},
					"onERC1155BatchReceived(address,address,uint256[],uint256[],bytes)": {
						"details": "See {IERC1155Receiver-onERC1155BatchReceived}."
					},
					"onERC1155Received(address,address,uint256,uint256,bytes)": {
						"details": "See {IERC1155Receiver-onERC1155Received}."
					},
					"onERC721Received(address,address,uint256,bytes)": {
						"details": "See {IERC721Receiver-onERC721Received}."
					},
					"renounceRole(bytes32,address)": {
						"details": "Revokes `role` from the calling account. Roles are often managed via {grantRole} and {revokeRole}: this function's purpose is to provide a mechanism for accounts to lose their privileges if they are compromised (such as when a trusted device is misplaced). If the calling account had been revoked `role`, emits a {RoleRevoked} event. Requirements: - the caller must be `account`. May emit a {RoleRevoked} event."
					},
					"revokeRole(bytes32,address)": {
						"details": "Revokes `role` from `account`. If `account` had been granted `role`, emits a {RoleRevoked} event. Requirements: - the caller must have ``role``'s admin role. May emit a {RoleRevoked} event."
					},
					"schedule(address,uint256,bytes,bytes32,bytes32,uint256)": {
						"details": "Schedule an operation containing a single transaction. Emits a {CallScheduled} event. Requirements: - the caller must have the 'proposer' role."
					},
					"scheduleBatch(address[],uint256[],bytes[],bytes32,bytes32,uint256)": {
						"details": "Schedule an operation containing a batch of transactions. Emits one {CallScheduled} event per transaction in the batch. Requirements: - the caller must have the 'proposer' role."
					},
					"supportsInterface(bytes4)": {
						"details": "See {IERC165-supportsInterface}."
					},
					"updateDelay(uint256)": {
						"details": "Changes the minimum timelock duration for future operations. Emits a {MinDelayChange} event. Requirements: - the caller must be the timelock itself. This can only be achieved by scheduling and later executing an operation where the timelock is the target and the data is the ABI-encoded call to this function."
					}
				},
				"version": 1
			},
			"evm": {
				"assembly": "    /* \"@openzeppelin/contracts/governance/TimelockController.sol\":1030:14091  contract TimelockController is AccessControl, IERC721Receiver, IERC1155Receiver {... */\n  mstore(0x40, 0x80)\n    /* \"@openzeppelin/contracts/governance/TimelockController.sol\":2970:3934  constructor(... */\n  callvalue\n  dup1\n  iszero\n  tag_1\n  jumpi\n  0x00\n  dup1\n  revert\ntag_1:\n  pop\n  mload(0x40)\n  sub(codesize, bytecodeSize)\n  dup1\n  bytecodeSize\n  dup4\n  codecopy\n  dup2\n  dup2\n  add\n  0x40\n  mstore\n  dup2\n  add\n  swap1\n  tag_2\n  swap2\n  swap1\n  tag_3\n  jump\t// in\ntag_2:\n    /* \"@openzeppelin/contracts/governance/TimelockController.sol\":3096:3151  _setRoleAdmin(TIMELOCK_ADMIN_ROLE, TIMELOCK_ADMIN_ROLE) */\n  tag_6\n    /* \"@openzeppelin/contracts/governance/TimelockController.sol\":1162:1194  keccak256(\"TIMELOCK_ADMIN_ROLE\") */\n  0x5f58e3a2316349923ce3780f8d587db2d72378aed66a8261c916544fa6846ca5\n  dup1\n    /* \"@openzeppelin/contracts/governance/TimelockController.sol\":3096:3109  _setRoleAdmin */\n  shl(0x20, tag_7)\n    /* \"@openzeppelin/contracts/governance/TimelockController.sol\":3096:3151  _setRoleAdmin(TIMELOCK_ADMIN_ROLE, TIMELOCK_ADMIN_ROLE) */\n  0x20\n  shr\n  jump\t// in\ntag_6:\n    /* \"@openzeppelin/contracts/governance/TimelockController.sol\":3161:3210  _setRoleAdmin(PROPOSER_ROLE, TIMELOCK_ADMIN_ROLE) */\n  tag_8\n    /* \"@openzeppelin/contracts/governance/TimelockController.sol\":1240:1266  keccak256(\"PROPOSER_ROLE\") */\n  0xb09aa5aeb3702cfd50b6b62bc4532604938f21248a27a1d5ca736082b6819cc1\n    /* \"@openzeppelin/contracts/governance/TimelockController.sol\":1162:1194  keccak256(\"TIMELOCK_ADMIN_ROLE\") */\n  0x5f58e3a2316349923ce3780f8d587db2d72378aed66a8261c916544fa6846ca5\n    /* \"@openzeppelin/contracts/governance/TimelockController.sol\":3161:3174  _setRoleAdmin */\n  shl(0x20, tag_7)\n    /* \"@openzeppelin/contracts/governance/TimelockController.sol\":3161:3210  _setRoleAdmin(PROPOSER_ROLE, TIMELOCK_ADMIN_ROLE) */\n  0x20\n  shr\n  jump\t// in\ntag_8:\n    /* \"@openzeppelin/contracts/governance/TimelockController.sol\":3220:3269  _setRoleAdmin(EXECUTOR_ROLE, TIMELOCK_ADMIN_ROLE) */\n  tag_9\n    /* \"@openzeppelin/contracts/governance/TimelockController.sol\":1312:1338  keccak256(\"EXECUTOR_ROLE\") */\n  0xd8aa0f3194971a2a116679f7c2090f6939c8d4e01a2a8d7e41d55e5351469e63\n    /* \"@openzeppelin/contracts/governance/TimelockController.sol\":1162:1194  keccak256(\"TIMELOCK_ADMIN_ROLE\") */\n  0x5f58e3a2316349923ce3780f8d587db2d72378aed66a8261c916544fa6846ca5\n    /* \"@openzeppelin/contracts/governance/TimelockController.sol\":3220:3233  _setRoleAdmin */\n  shl(0x20, tag_7)\n    /* \"@openzeppelin/contracts/governance/TimelockController.sol\":3220:3269  _setRoleAdmin(EXECUTOR_ROLE, TIMELOCK_ADMIN_ROLE) */\n  0x20\n  shr\n  jump\t// in\ntag_9:\n    /* \"@openzeppelin/contracts/governance/TimelockController.sol\":3279:3329  _setRoleAdmin(CANCELLER_ROLE, TIMELOCK_ADMIN_ROLE) */\n  tag_10\n    /* \"@openzeppelin/contracts/governance/TimelockController.sol\":1385:1412  keccak256(\"CANCELLER_ROLE\") */\n  0xfd643c72710c63c0180259aba6b2d05451e3591a24e58b62239378085726f783\n    /* \"@openzeppelin/contracts/governance/TimelockController.sol\":1162:1194  keccak256(\"TIMELOCK_ADMIN_ROLE\") */\n  0x5f58e3a2316349923ce3780f8d587db2d72378aed66a8261c916544fa6846ca5\n    /* \"@openzeppelin/contracts/governance/TimelockController.sol\":3279:3292  _setRoleAdmin */\n  shl(0x20, tag_7)\n    /* \"@openzeppelin/contracts/governance/TimelockController.sol\":3279:3329  _setRoleAdmin(CANCELLER_ROLE, TIMELOCK_ADMIN_ROLE) */\n  0x20\n  shr\n  jump\t// in\ntag_10:\n    /* \"@openzeppelin/contracts/governance/TimelockController.sol\":3382:3427  _setupRole(TIMELOCK_ADMIN_ROLE, _msgSender()) */\n  tag_11\n    /* \"@openzeppelin/contracts/governance/TimelockController.sol\":1162:1194  keccak256(\"TIMELOCK_ADMIN_ROLE\") */\n  0x5f58e3a2316349923ce3780f8d587db2d72378aed66a8261c916544fa6846ca5\n    /* \"@openzeppelin/contracts/governance/TimelockController.sol\":3414:3426  _msgSender() */\n  tag_12\n    /* \"@openzeppelin/contracts/governance/TimelockController.sol\":3414:3424  _msgSender */\n  shl(0x20, tag_13)\n    /* \"@openzeppelin/contracts/governance/TimelockController.sol\":3414:3426  _msgSender() */\n  0x20\n  shr\n  jump\t// in\ntag_12:\n    /* \"@openzeppelin/contracts/governance/TimelockController.sol\":3382:3392  _setupRole */\n  shl(0x20, tag_14)\n    /* \"@openzeppelin/contracts/governance/TimelockController.sol\":3382:3427  _setupRole(TIMELOCK_ADMIN_ROLE, _msgSender()) */\n  0x20\n  shr\n  jump\t// in\ntag_11:\n    /* \"@openzeppelin/contracts/governance/TimelockController.sol\":3437:3483  _setupRole(TIMELOCK_ADMIN_ROLE, address(this)) */\n  tag_15\n    /* \"@openzeppelin/contracts/governance/TimelockController.sol\":1162:1194  keccak256(\"TIMELOCK_ADMIN_ROLE\") */\n  0x5f58e3a2316349923ce3780f8d587db2d72378aed66a8261c916544fa6846ca5\n    /* \"@openzeppelin/contracts/governance/TimelockController.sol\":3477:3481  this */\n  address\n    /* \"@openzeppelin/contracts/governance/TimelockController.sol\":3437:3447  _setupRole */\n  shl(0x20, tag_14)\n    /* \"@openzeppelin/contracts/governance/TimelockController.sol\":3437:3483  _setupRole(TIMELOCK_ADMIN_ROLE, address(this)) */\n  0x20\n  shr\n  jump\t// in\ntag_15:\n    /* \"@openzeppelin/contracts/governance/TimelockController.sol\":3544:3553  uint256 i */\n  0x00\n    /* \"@openzeppelin/contracts/governance/TimelockController.sol\":3539:3704  for (uint256 i = 0; i < proposers.length; ++i) {... */\ntag_16:\n    /* \"@openzeppelin/contracts/governance/TimelockController.sol\":3563:3572  proposers */\n  dup3\n    /* \"@openzeppelin/contracts/governance/TimelockController.sol\":3563:3579  proposers.length */\n  mload\n    /* \"@openzeppelin/contracts/governance/TimelockController.sol\":3559:3560  i */\n  dup2\n    /* \"@openzeppelin/contracts/governance/TimelockController.sol\":3559:3579  i < proposers.length */\n  lt\n    /* \"@openzeppelin/contracts/governance/TimelockController.sol\":3539:3704  for (uint256 i = 0; i < proposers.length; ++i) {... */\n  iszero\n  tag_17\n  jumpi\n    /* \"@openzeppelin/contracts/governance/TimelockController.sol\":3600:3639  _setupRole(PROPOSER_ROLE, proposers[i]) */\n  tag_19\n    /* \"@openzeppelin/contracts/governance/TimelockController.sol\":1240:1266  keccak256(\"PROPOSER_ROLE\") */\n  0xb09aa5aeb3702cfd50b6b62bc4532604938f21248a27a1d5ca736082b6819cc1\n    /* \"@openzeppelin/contracts/governance/TimelockController.sol\":3626:3635  proposers */\n  dup5\n    /* \"@openzeppelin/contracts/governance/TimelockController.sol\":3636:3637  i */\n  dup4\n    /* \"@openzeppelin/contracts/governance/TimelockController.sol\":3626:3638  proposers[i] */\n  dup2\n  mload\n  dup2\n  lt\n  tag_20\n  jumpi\n  tag_21\n  tag_22\n  jump\t// in\ntag_21:\ntag_20:\n  0x20\n  mul\n  0x20\n  add\n  add\n  mload\n    /* \"@openzeppelin/contracts/governance/TimelockController.sol\":3600:3610  _setupRole */\n  shl(0x20, tag_14)\n    /* \"@openzeppelin/contracts/governance/TimelockController.sol\":3600:3639  _setupRole(PROPOSER_ROLE, proposers[i]) */\n  0x20\n  shr\n  jump\t// in\ntag_19:\n    /* \"@openzeppelin/contracts/governance/TimelockController.sol\":3653:3693  _setupRole(CANCELLER_ROLE, proposers[i]) */\n  tag_23\n    /* \"@openzeppelin/contracts/governance/TimelockController.sol\":1385:1412  keccak256(\"CANCELLER_ROLE\") */\n  0xfd643c72710c63c0180259aba6b2d05451e3591a24e58b62239378085726f783\n    /* \"@openzeppelin/contracts/governance/TimelockController.sol\":3680:3689  proposers */\n  dup5\n    /* \"@openzeppelin/contracts/governance/TimelockController.sol\":3690:3691  i */\n  dup4\n    /* \"@openzeppelin/contracts/governance/TimelockController.sol\":3680:3692  proposers[i] */\n  dup2\n  mload\n  dup2\n  lt\n  tag_24\n  jumpi\n  tag_25\n  tag_22\n  jump\t// in\ntag_25:\ntag_24:\n  0x20\n  mul\n  0x20\n  add\n  add\n  mload\n    /* \"@openzeppelin/contracts/governance/TimelockController.sol\":3653:3663  _setupRole */\n  shl(0x20, tag_14)\n    /* \"@openzeppelin/contracts/governance/TimelockController.sol\":3653:3693  _setupRole(CANCELLER_ROLE, proposers[i]) */\n  0x20\n  shr\n  jump\t// in\ntag_23:\n    /* \"@openzeppelin/contracts/governance/TimelockController.sol\":3581:3584  ++i */\n  dup1\n  tag_26\n  swap1\n  tag_27\n  jump\t// in\ntag_26:\n  swap1\n  pop\n    /* \"@openzeppelin/contracts/governance/TimelockController.sol\":3539:3704  for (uint256 i = 0; i < proposers.length; ++i) {... */\n  jump(tag_16)\ntag_17:\n  pop\n    /* \"@openzeppelin/contracts/governance/TimelockController.sol\":3749:3758  uint256 i */\n  0x00\n    /* \"@openzeppelin/contracts/governance/TimelockController.sol\":3744:3855  for (uint256 i = 0; i < executors.length; ++i) {... */\ntag_28:\n    /* \"@openzeppelin/contracts/governance/TimelockController.sol\":3768:3777  executors */\n  dup2\n    /* \"@openzeppelin/contracts/governance/TimelockController.sol\":3768:3784  executors.length */\n  mload\n    /* \"@openzeppelin/contracts/governance/TimelockController.sol\":3764:3765  i */\n  dup2\n    /* \"@openzeppelin/contracts/governance/TimelockController.sol\":3764:3784  i < executors.length */\n  lt\n    /* \"@openzeppelin/contracts/governance/TimelockController.sol\":3744:3855  for (uint256 i = 0; i < executors.length; ++i) {... */\n  iszero\n  tag_29\n  jumpi\n    /* \"@openzeppelin/contracts/governance/TimelockController.sol\":3805:3844  _setupRole(EXECUTOR_ROLE, executors[i]) */\n  tag_31\n    /* \"@openzeppelin/contracts/governance/TimelockController.sol\":1312:1338  keccak256(\"EXECUTOR_ROLE\") */\n  0xd8aa0f3194971a2a116679f7c2090f6939c8d4e01a2a8d7e41d55e5351469e63\n    /* \"@openzeppelin/contracts/governance/TimelockController.sol\":3831:3840  executors */\n  dup4\n    /* \"@openzeppelin/contracts/governance/TimelockController.sol\":3841:3842  i */\n  dup4\n    /* \"@openzeppelin/contracts/governance/TimelockController.sol\":3831:3843  executors[i] */\n  dup2\n  mload\n  dup2\n  lt\n  tag_32\n  jumpi\n  tag_33\n  tag_22\n  jump\t// in\ntag_33:\ntag_32:\n  0x20\n  mul\n  0x20\n  add\n  add\n  mload\n    /* \"@openzeppelin/contracts/governance/TimelockController.sol\":3805:3815  _setupRole */\n  shl(0x20, tag_14)\n    /* \"@openzeppelin/contracts/governance/TimelockController.sol\":3805:3844  _setupRole(EXECUTOR_ROLE, executors[i]) */\n  0x20\n  shr\n  jump\t// in\ntag_31:\n    /* \"@openzeppelin/contracts/governance/TimelockController.sol\":3786:3789  ++i */\n  dup1\n  tag_34\n  swap1\n  tag_27\n  jump\t// in\ntag_34:\n  swap1\n  pop\n    /* \"@openzeppelin/contracts/governance/TimelockController.sol\":3744:3855  for (uint256 i = 0; i < executors.length; ++i) {... */\n  jump(tag_28)\ntag_29:\n  pop\n    /* \"@openzeppelin/contracts/governance/TimelockController.sol\":3877:3885  minDelay */\n  dup3\n    /* \"@openzeppelin/contracts/governance/TimelockController.sol\":3865:3874  _minDelay */\n  0x02\n    /* \"@openzeppelin/contracts/governance/TimelockController.sol\":3865:3885  _minDelay = minDelay */\n  dup2\n  swap1\n  sstore\n  pop\n    /* \"@openzeppelin/contracts/governance/TimelockController.sol\":3900:3927  MinDelayChange(0, minDelay) */\n  0x11c24f4ead16507c69ac467fbd5e4eed5fb5c699626d2cc6d66421df253886d5\n    /* \"@openzeppelin/contracts/governance/TimelockController.sol\":3915:3916  0 */\n  0x00\n    /* \"@openzeppelin/contracts/governance/TimelockController.sol\":3918:3926  minDelay */\n  dup5\n    /* \"@openzeppelin/contracts/governance/TimelockController.sol\":3900:3927  MinDelayChange(0, minDelay) */\n  mload(0x40)\n  tag_35\n  swap3\n  swap2\n  swap1\n  tag_36\n  jump\t// in\ntag_35:\n  mload(0x40)\n  dup1\n  swap2\n  sub\n  swap1\n  log1\n    /* \"@openzeppelin/contracts/governance/TimelockController.sol\":2970:3934  constructor(... */\n  pop\n  pop\n  pop\n    /* \"@openzeppelin/contracts/governance/TimelockController.sol\":1030:14091  contract TimelockController is AccessControl, IERC721Receiver, IERC1155Receiver {... */\n  jump(tag_37)\n    /* \"@openzeppelin/contracts/access/AccessControl.sol\":7059:7306  function _setRoleAdmin(bytes32 role, bytes32 adminRole) internal virtual {... */\ntag_7:\n    /* \"@openzeppelin/contracts/access/AccessControl.sol\":7142:7167  bytes32 previousAdminRole */\n  0x00\n    /* \"@openzeppelin/contracts/access/AccessControl.sol\":7170:7188  getRoleAdmin(role) */\n  tag_39\n    /* \"@openzeppelin/contracts/access/AccessControl.sol\":7183:7187  role */\n  dup4\n    /* \"@openzeppelin/contracts/access/AccessControl.sol\":7170:7182  getRoleAdmin */\n  shl(0x20, tag_40)\n    /* \"@openzeppelin/contracts/access/AccessControl.sol\":7170:7188  getRoleAdmin(role) */\n  0x20\n  shr\n  jump\t// in\ntag_39:\n    /* \"@openzeppelin/contracts/access/AccessControl.sol\":7142:7188  bytes32 previousAdminRole = getRoleAdmin(role) */\n  swap1\n  pop\n    /* \"@openzeppelin/contracts/access/AccessControl.sol\":7223:7232  adminRole */\n  dup2\n    /* \"@openzeppelin/contracts/access/AccessControl.sol\":7198:7204  _roles */\n  0x00\n    /* \"@openzeppelin/contracts/access/AccessControl.sol\":7198:7210  _roles[role] */\n  dup1\n    /* \"@openzeppelin/contracts/access/AccessControl.sol\":7205:7209  role */\n  dup6\n    /* \"@openzeppelin/contracts/access/AccessControl.sol\":7198:7210  _roles[role] */\n  dup2\n  mstore\n  0x20\n  add\n  swap1\n  dup2\n  mstore\n  0x20\n  add\n  0x00\n  keccak256\n    /* \"@openzeppelin/contracts/access/AccessControl.sol\":7198:7220  _roles[role].adminRole */\n  0x01\n  add\n    /* \"@openzeppelin/contracts/access/AccessControl.sol\":7198:7232  _roles[role].adminRole = adminRole */\n  dup2\n  swap1\n  sstore\n  pop\n    /* \"@openzeppelin/contracts/access/AccessControl.sol\":7289:7298  adminRole */\n  dup2\n    /* \"@openzeppelin/contracts/access/AccessControl.sol\":7270:7287  previousAdminRole */\n  dup2\n    /* \"@openzeppelin/contracts/access/AccessControl.sol\":7264:7268  role */\n  dup5\n    /* \"@openzeppelin/contracts/access/AccessControl.sol\":7247:7299  RoleAdminChanged(role, previousAdminRole, adminRole) */\n  0xbd79b86ffe0ab8e8776151514217cd7cacd52c909f66475c3af44e129f0b00ff\n  mload(0x40)\n  mload(0x40)\n  dup1\n  swap2\n  sub\n  swap1\n  log4\n    /* \"@openzeppelin/contracts/access/AccessControl.sol\":7132:7306  {... */\n  pop\n    /* \"@openzeppelin/contracts/access/AccessControl.sol\":7059:7306  function _setRoleAdmin(bytes32 role, bytes32 adminRole) internal virtual {... */\n  pop\n  pop\n  jump\t// out\n    /* \"@openzeppelin/contracts/utils/Context.sol\":640:736  function _msgSender() internal view virtual returns (address) {... */\ntag_13:\n    /* \"@openzeppelin/contracts/utils/Context.sol\":693:700  address */\n  0x00\n    /* \"@openzeppelin/contracts/utils/Context.sol\":719:729  msg.sender */\n  caller\n    /* \"@openzeppelin/contracts/utils/Context.sol\":712:729  return msg.sender */\n  swap1\n  pop\n    /* \"@openzeppelin/contracts/utils/Context.sol\":640:736  function _msgSender() internal view virtual returns (address) {... */\n  swap1\n  jump\t// out\n    /* \"@openzeppelin/contracts/access/AccessControl.sol\":6824:6934  function _setupRole(bytes32 role, address account) internal virtual {... */\ntag_14:\n    /* \"@openzeppelin/contracts/access/AccessControl.sol\":6902:6927  _grantRole(role, account) */\n  tag_43\n    /* \"@openzeppelin/contracts/access/AccessControl.sol\":6913:6917  role */\n  dup3\n    /* \"@openzeppelin/contracts/access/AccessControl.sol\":6919:6926  account */\n  dup3\n    /* \"@openzeppelin/contracts/access/AccessControl.sol\":6902:6912  _grantRole */\n  shl(0x20, tag_44)\n    /* \"@openzeppelin/contracts/access/AccessControl.sol\":6902:6927  _grantRole(role, account) */\n  0x20\n  shr\n  jump\t// in\ntag_43:\n    /* \"@openzeppelin/contracts/access/AccessControl.sol\":6824:6934  function _setupRole(bytes32 role, address account) internal virtual {... */\n  pop\n  pop\n  jump\t// out\n    /* \"@openzeppelin/contracts/access/AccessControl.sol\":4391:4520  function getRoleAdmin(bytes32 role) public view virtual override returns (bytes32) {... */\ntag_40:\n    /* \"@openzeppelin/contracts/access/AccessControl.sol\":4465:4472  bytes32 */\n  0x00\n    /* \"@openzeppelin/contracts/access/AccessControl.sol\":4491:4497  _roles */\n  dup1\n    /* \"@openzeppelin/contracts/access/AccessControl.sol\":4491:4503  _roles[role] */\n  0x00\n    /* \"@openzeppelin/contracts/access/AccessControl.sol\":4498:4502  role */\n  dup4\n    /* \"@openzeppelin/contracts/access/AccessControl.sol\":4491:4503  _roles[role] */\n  dup2\n  mstore\n  0x20\n  add\n  swap1\n  dup2\n  mstore\n  0x20\n  add\n  0x00\n  keccak256\n    /* \"@openzeppelin/contracts/access/AccessControl.sol\":4491:4513  _roles[role].adminRole */\n  0x01\n  add\n  sload\n    /* \"@openzeppelin/contracts/access/AccessControl.sol\":4484:4513  return _roles[role].adminRole */\n  swap1\n  pop\n    /* \"@openzeppelin/contracts/access/AccessControl.sol\":4391:4520  function getRoleAdmin(bytes32 role) public view virtual override returns (bytes32) {... */\n  swap2\n  swap1\n  pop\n  jump\t// out\n    /* \"@openzeppelin/contracts/access/AccessControl.sol\":7474:7707  function _grantRole(bytes32 role, address account) internal virtual {... */\ntag_44:\n    /* \"@openzeppelin/contracts/access/AccessControl.sol\":7557:7579  hasRole(role, account) */\n  tag_47\n    /* \"@openzeppelin/contracts/access/AccessControl.sol\":7565:7569  role */\n  dup3\n    /* \"@openzeppelin/contracts/access/AccessControl.sol\":7571:7578  account */\n  dup3\n    /* \"@openzeppelin/contracts/access/AccessControl.sol\":7557:7564  hasRole */\n  shl(0x20, tag_48)\n    /* \"@openzeppelin/contracts/access/AccessControl.sol\":7557:7579  hasRole(role, account) */\n  0x20\n  shr\n  jump\t// in\ntag_47:\n    /* \"@openzeppelin/contracts/access/AccessControl.sol\":7552:7701  if (!hasRole(role, account)) {... */\n  tag_49\n  jumpi\n    /* \"@openzeppelin/contracts/access/AccessControl.sol\":7627:7631  true */\n  0x01\n    /* \"@openzeppelin/contracts/access/AccessControl.sol\":7595:7601  _roles */\n  0x00\n    /* \"@openzeppelin/contracts/access/AccessControl.sol\":7595:7607  _roles[role] */\n  dup1\n    /* \"@openzeppelin/contracts/access/AccessControl.sol\":7602:7606  role */\n  dup5\n    /* \"@openzeppelin/contracts/access/AccessControl.sol\":7595:7607  _roles[role] */\n  dup2\n  mstore\n  0x20\n  add\n  swap1\n  dup2\n  mstore\n  0x20\n  add\n  0x00\n  keccak256\n    /* \"@openzeppelin/contracts/access/AccessControl.sol\":7595:7615  _roles[role].members */\n  0x00\n  add\n    /* \"@openzeppelin/contracts/access/AccessControl.sol\":7595:7624  _roles[role].members[account] */\n  0x00\n    /* \"@openzeppelin/contracts/access/AccessControl.sol\":7616:7623  account */\n  dup4\n    /* \"@openzeppelin/contracts/access/AccessControl.sol\":7595:7624  _roles[role].members[account] */\n  0xffffffffffffffffffffffffffffffffffffffff\n  and\n  0xffffffffffffffffffffffffffffffffffffffff\n  and\n  dup2\n  mstore\n  0x20\n  add\n  swap1\n  dup2\n  mstore\n  0x20\n  add\n  0x00\n  keccak256\n  0x00\n    /* \"@openzeppelin/contracts/access/AccessControl.sol\":7595:7631  _roles[role].members[account] = true */\n  0x0100\n  exp\n  dup2\n  sload\n  dup2\n  0xff\n  mul\n  not\n  and\n  swap1\n  dup4\n  iszero\n  iszero\n  mul\n  or\n  swap1\n  sstore\n  pop\n    /* \"@openzeppelin/contracts/access/AccessControl.sol\":7677:7689  _msgSender() */\n  tag_50\n    /* \"@openzeppelin/contracts/access/AccessControl.sol\":7677:7687  _msgSender */\n  shl(0x20, tag_13)\n    /* \"@openzeppelin/contracts/access/AccessControl.sol\":7677:7689  _msgSender() */\n  0x20\n  shr\n  jump\t// in\ntag_50:\n    /* \"@openzeppelin/contracts/access/AccessControl.sol\":7650:7690  RoleGranted(role, account, _msgSender()) */\n  0xffffffffffffffffffffffffffffffffffffffff\n  and\n    /* \"@openzeppelin/contracts/access/AccessControl.sol\":7668:7675  account */\n  dup2\n    /* \"@openzeppelin/contracts/access/AccessControl.sol\":7650:7690  RoleGranted(role, account, _msgSender()) */\n  0xffffffffffffffffffffffffffffffffffffffff\n  and\n    /* \"@openzeppelin/contracts/access/AccessControl.sol\":7662:7666  role */\n  dup4\n    /* \"@openzeppelin/contracts/access/AccessControl.sol\":7650:7690  RoleGranted(role, account, _msgSender()) */\n  0x2f8788117e7eff1d82e926ec794901d17c78024a50270940304540a733656f0d\n  mload(0x40)\n  mload(0x40)\n  dup1\n  swap2\n  sub\n  swap1\n  log4\n    /* \"@openzeppelin/contracts/access/AccessControl.sol\":7552:7701  if (!hasRole(role, account)) {... */\ntag_49:\n    /* \"@openzeppelin/contracts/access/AccessControl.sol\":7474:7707  function _grantRole(bytes32 role, address account) internal virtual {... */\n  pop\n  pop\n  jump\t// out\n    /* \"@openzeppelin/contracts/access/AccessControl.sol\":2895:3040  function hasRole(bytes32 role, address account) public view virtual override returns (bool) {... */\ntag_48:\n    /* \"@openzeppelin/contracts/access/AccessControl.sol\":2981:2985  bool */\n  0x00\n    /* \"@openzeppelin/contracts/access/AccessControl.sol\":3004:3010  _roles */\n  dup1\n    /* \"@openzeppelin/contracts/access/AccessControl.sol\":3004:3016  _roles[role] */\n  0x00\n    /* \"@openzeppelin/contracts/access/AccessControl.sol\":3011:3015  role */\n  dup5\n    /* \"@openzeppelin/contracts/access/AccessControl.sol\":3004:3016  _roles[role] */\n  dup2\n  mstore\n  0x20\n  add\n  swap1\n  dup2\n  mstore\n  0x20\n  add\n  0x00\n  keccak256\n    /* \"@openzeppelin/contracts/access/AccessControl.sol\":3004:3024  _roles[role].members */\n  0x00\n  add\n    /* \"@openzeppelin/contracts/access/AccessControl.sol\":3004:3033  _roles[role].members[account] */\n  0x00\n    /* \"@openzeppelin/contracts/access/AccessControl.sol\":3025:3032  account */\n  dup4\n    /* \"@openzeppelin/contracts/access/AccessControl.sol\":3004:3033  _roles[role].members[account] */\n  0xffffffffffffffffffffffffffffffffffffffff\n  and\n  0xffffffffffffffffffffffffffffffffffffffff\n  and\n  dup2\n  mstore\n  0x20\n  add\n  swap1\n  dup2\n  mstore\n  0x20\n  add\n  0x00\n  keccak256\n  0x00\n  swap1\n  sload\n  swap1\n  0x0100\n  exp\n  swap1\n  div\n  0xff\n  and\n    /* \"@openzeppelin/contracts/access/AccessControl.sol\":2997:3033  return _roles[role].members[account] */\n  swap1\n  pop\n    /* \"@openzeppelin/contracts/access/AccessControl.sol\":2895:3040  function hasRole(bytes32 role, address account) public view virtual override returns (bool) {... */\n  swap3\n  swap2\n  pop\n  pop\n  jump\t// out\n    /* \"#utility.yul\":24:768   */\ntag_53:\n    /* \"#utility.yul\":131:136   */\n  0x00\n    /* \"#utility.yul\":156:237   */\n  tag_55\n    /* \"#utility.yul\":172:236   */\n  tag_56\n    /* \"#utility.yul\":229:235   */\n  dup5\n    /* \"#utility.yul\":172:236   */\n  tag_57\n  jump\t// in\ntag_56:\n    /* \"#utility.yul\":156:237   */\n  tag_58\n  jump\t// in\ntag_55:\n    /* \"#utility.yul\":147:237   */\n  swap1\n  pop\n    /* \"#utility.yul\":257:262   */\n  dup1\n    /* \"#utility.yul\":286:292   */\n  dup4\n    /* \"#utility.yul\":279:284   */\n  dup3\n    /* \"#utility.yul\":272:293   */\n  mstore\n    /* \"#utility.yul\":320:324   */\n  0x20\n    /* \"#utility.yul\":313:318   */\n  dup3\n    /* \"#utility.yul\":309:325   */\n  add\n    /* \"#utility.yul\":302:325   */\n  swap1\n  pop\n    /* \"#utility.yul\":346:352   */\n  dup3\n    /* \"#utility.yul\":396:399   */\n  dup6\n    /* \"#utility.yul\":388:392   */\n  0x20\n    /* \"#utility.yul\":380:386   */\n  dup7\n    /* \"#utility.yul\":376:393   */\n  mul\n    /* \"#utility.yul\":371:374   */\n  dup3\n    /* \"#utility.yul\":367:394   */\n  add\n    /* \"#utility.yul\":364:400   */\n  gt\n    /* \"#utility.yul\":361:504   */\n  iszero\n  tag_59\n  jumpi\n    /* \"#utility.yul\":415:494   */\n  tag_60\n  tag_61\n  jump\t// in\ntag_60:\n    /* \"#utility.yul\":361:504   */\ntag_59:\n    /* \"#utility.yul\":528:529   */\n  0x00\n    /* \"#utility.yul\":513:762   */\ntag_62:\n    /* \"#utility.yul\":538:544   */\n  dup6\n    /* \"#utility.yul\":535:536   */\n  dup2\n    /* \"#utility.yul\":532:545   */\n  lt\n    /* \"#utility.yul\":513:762   */\n  iszero\n  tag_64\n  jumpi\n    /* \"#utility.yul\":606:609   */\n  dup2\n    /* \"#utility.yul\":635:683   */\n  tag_65\n    /* \"#utility.yul\":679:682   */\n  dup9\n    /* \"#utility.yul\":667:677   */\n  dup3\n    /* \"#utility.yul\":635:683   */\n  tag_66\n  jump\t// in\ntag_65:\n    /* \"#utility.yul\":630:633   */\n  dup5\n    /* \"#utility.yul\":623:684   */\n  mstore\n    /* \"#utility.yul\":713:717   */\n  0x20\n    /* \"#utility.yul\":708:711   */\n  dup5\n    /* \"#utility.yul\":704:718   */\n  add\n    /* \"#utility.yul\":697:718   */\n  swap4\n  pop\n    /* \"#utility.yul\":747:751   */\n  0x20\n    /* \"#utility.yul\":742:745   */\n  dup4\n    /* \"#utility.yul\":738:752   */\n  add\n    /* \"#utility.yul\":731:752   */\n  swap3\n  pop\n    /* \"#utility.yul\":573:762   */\n  pop\n    /* \"#utility.yul\":560:561   */\n  0x01\n    /* \"#utility.yul\":557:558   */\n  dup2\n    /* \"#utility.yul\":553:562   */\n  add\n    /* \"#utility.yul\":548:562   */\n  swap1\n  pop\n    /* \"#utility.yul\":513:762   */\n  jump(tag_62)\ntag_64:\n    /* \"#utility.yul\":517:531   */\n  pop\n    /* \"#utility.yul\":137:768   */\n  pop\n  pop\n    /* \"#utility.yul\":24:768   */\n  swap4\n  swap3\n  pop\n  pop\n  pop\n  jump\t// out\n    /* \"#utility.yul\":774:917   */\ntag_66:\n    /* \"#utility.yul\":831:836   */\n  0x00\n    /* \"#utility.yul\":862:868   */\n  dup2\n    /* \"#utility.yul\":856:869   */\n  mload\n    /* \"#utility.yul\":847:869   */\n  swap1\n  pop\n    /* \"#utility.yul\":878:911   */\n  tag_68\n    /* \"#utility.yul\":905:910   */\n  dup2\n    /* \"#utility.yul\":878:911   */\n  tag_69\n  jump\t// in\ntag_68:\n    /* \"#utility.yul\":774:917   */\n  swap3\n  swap2\n  pop\n  pop\n  jump\t// out\n    /* \"#utility.yul\":940:1325   */\ntag_70:\n    /* \"#utility.yul\":1022:1027   */\n  0x00\n    /* \"#utility.yul\":1071:1074   */\n  dup3\n    /* \"#utility.yul\":1064:1068   */\n  0x1f\n    /* \"#utility.yul\":1056:1062   */\n  dup4\n    /* \"#utility.yul\":1052:1069   */\n  add\n    /* \"#utility.yul\":1048:1075   */\n  slt\n    /* \"#utility.yul\":1038:1160   */\n  tag_72\n  jumpi\n    /* \"#utility.yul\":1079:1158   */\n  tag_73\n  tag_74\n  jump\t// in\ntag_73:\n    /* \"#utility.yul\":1038:1160   */\ntag_72:\n    /* \"#utility.yul\":1189:1195   */\n  dup2\n    /* \"#utility.yul\":1183:1196   */\n  mload\n    /* \"#utility.yul\":1214:1319   */\n  tag_75\n    /* \"#utility.yul\":1315:1318   */\n  dup5\n    /* \"#utility.yul\":1307:1313   */\n  dup3\n    /* \"#utility.yul\":1300:1304   */\n  0x20\n    /* \"#utility.yul\":1292:1298   */\n  dup7\n    /* \"#utility.yul\":1288:1305   */\n  add\n    /* \"#utility.yul\":1214:1319   */\n  tag_53\n  jump\t// in\ntag_75:\n    /* \"#utility.yul\":1205:1319   */\n  swap2\n  pop\n    /* \"#utility.yul\":1028:1325   */\n  pop\n    /* \"#utility.yul\":940:1325   */\n  swap3\n  swap2\n  pop\n  pop\n  jump\t// out\n    /* \"#utility.yul\":1331:1474   */\ntag_76:\n    /* \"#utility.yul\":1388:1393   */\n  0x00\n    /* \"#utility.yul\":1419:1425   */\n  dup2\n    /* \"#utility.yul\":1413:1426   */\n  mload\n    /* \"#utility.yul\":1404:1426   */\n  swap1\n  pop\n    /* \"#utility.yul\":1435:1468   */\n  tag_78\n    /* \"#utility.yul\":1462:1467   */\n  dup2\n    /* \"#utility.yul\":1435:1468   */\n  tag_79\n  jump\t// in\ntag_78:\n    /* \"#utility.yul\":1331:1474   */\n  swap3\n  swap2\n  pop\n  pop\n  jump\t// out\n    /* \"#utility.yul\":1480:2549   */\ntag_3:\n    /* \"#utility.yul\":1618:1624   */\n  0x00\n    /* \"#utility.yul\":1626:1632   */\n  dup1\n    /* \"#utility.yul\":1634:1640   */\n  0x00\n    /* \"#utility.yul\":1683:1685   */\n  0x60\n    /* \"#utility.yul\":1671:1680   */\n  dup5\n    /* \"#utility.yul\":1662:1669   */\n  dup7\n    /* \"#utility.yul\":1658:1681   */\n  sub\n    /* \"#utility.yul\":1654:1686   */\n  slt\n    /* \"#utility.yul\":1651:1770   */\n  iszero\n  tag_81\n  jumpi\n    /* \"#utility.yul\":1689:1768   */\n  tag_82\n  tag_83\n  jump\t// in\ntag_82:\n    /* \"#utility.yul\":1651:1770   */\ntag_81:\n    /* \"#utility.yul\":1809:1810   */\n  0x00\n    /* \"#utility.yul\":1834:1898   */\n  tag_84\n    /* \"#utility.yul\":1890:1897   */\n  dup7\n    /* \"#utility.yul\":1881:1887   */\n  dup3\n    /* \"#utility.yul\":1870:1879   */\n  dup8\n    /* \"#utility.yul\":1866:1888   */\n  add\n    /* \"#utility.yul\":1834:1898   */\n  tag_76\n  jump\t// in\ntag_84:\n    /* \"#utility.yul\":1824:1898   */\n  swap4\n  pop\n    /* \"#utility.yul\":1780:1908   */\n  pop\n    /* \"#utility.yul\":1968:1970   */\n  0x20\n    /* \"#utility.yul\":1957:1966   */\n  dup5\n    /* \"#utility.yul\":1953:1971   */\n  add\n    /* \"#utility.yul\":1947:1972   */\n  mload\n    /* \"#utility.yul\":1999:2017   */\n  0xffffffffffffffff\n    /* \"#utility.yul\":1991:1997   */\n  dup2\n    /* \"#utility.yul\":1988:2018   */\n  gt\n    /* \"#utility.yul\":1985:2102   */\n  iszero\n  tag_85\n  jumpi\n    /* \"#utility.yul\":2021:2100   */\n  tag_86\n  tag_87\n  jump\t// in\ntag_86:\n    /* \"#utility.yul\":1985:2102   */\ntag_85:\n    /* \"#utility.yul\":2126:2215   */\n  tag_88\n    /* \"#utility.yul\":2207:2214   */\n  dup7\n    /* \"#utility.yul\":2198:2204   */\n  dup3\n    /* \"#utility.yul\":2187:2196   */\n  dup8\n    /* \"#utility.yul\":2183:2205   */\n  add\n    /* \"#utility.yul\":2126:2215   */\n  tag_70\n  jump\t// in\ntag_88:\n    /* \"#utility.yul\":2116:2215   */\n  swap3\n  pop\n    /* \"#utility.yul\":1918:2225   */\n  pop\n    /* \"#utility.yul\":2285:2287   */\n  0x40\n    /* \"#utility.yul\":2274:2283   */\n  dup5\n    /* \"#utility.yul\":2270:2288   */\n  add\n    /* \"#utility.yul\":2264:2289   */\n  mload\n    /* \"#utility.yul\":2316:2334   */\n  0xffffffffffffffff\n    /* \"#utility.yul\":2308:2314   */\n  dup2\n    /* \"#utility.yul\":2305:2335   */\n  gt\n    /* \"#utility.yul\":2302:2419   */\n  iszero\n  tag_89\n  jumpi\n    /* \"#utility.yul\":2338:2417   */\n  tag_90\n  tag_87\n  jump\t// in\ntag_90:\n    /* \"#utility.yul\":2302:2419   */\ntag_89:\n    /* \"#utility.yul\":2443:2532   */\n  tag_91\n    /* \"#utility.yul\":2524:2531   */\n  dup7\n    /* \"#utility.yul\":2515:2521   */\n  dup3\n    /* \"#utility.yul\":2504:2513   */\n  dup8\n    /* \"#utility.yul\":2500:2522   */\n  add\n    /* \"#utility.yul\":2443:2532   */\n  tag_70\n  jump\t// in\ntag_91:\n    /* \"#utility.yul\":2433:2532   */\n  swap2\n  pop\n    /* \"#utility.yul\":2235:2542   */\n  pop\n    /* \"#utility.yul\":1480:2549   */\n  swap3\n  pop\n  swap3\n  pop\n  swap3\n  jump\t// out\n    /* \"#utility.yul\":2555:2702   */\ntag_92:\n    /* \"#utility.yul\":2650:2695   */\n  tag_94\n    /* \"#utility.yul\":2689:2694   */\n  dup2\n    /* \"#utility.yul\":2650:2695   */\n  tag_95\n  jump\t// in\ntag_94:\n    /* \"#utility.yul\":2645:2648   */\n  dup3\n    /* \"#utility.yul\":2638:2696   */\n  mstore\n    /* \"#utility.yul\":2555:2702   */\n  pop\n  pop\n  jump\t// out\n    /* \"#utility.yul\":2708:2826   */\ntag_96:\n    /* \"#utility.yul\":2795:2819   */\n  tag_98\n    /* \"#utility.yul\":2813:2818   */\n  dup2\n    /* \"#utility.yul\":2795:2819   */\n  tag_99\n  jump\t// in\ntag_98:\n    /* \"#utility.yul\":2790:2793   */\n  dup3\n    /* \"#utility.yul\":2783:2820   */\n  mstore\n    /* \"#utility.yul\":2708:2826   */\n  pop\n  pop\n  jump\t// out\n    /* \"#utility.yul\":2832:3180   */\ntag_36:\n    /* \"#utility.yul\":2961:2965   */\n  0x00\n    /* \"#utility.yul\":2999:3001   */\n  0x40\n    /* \"#utility.yul\":2988:2997   */\n  dup3\n    /* \"#utility.yul\":2984:3002   */\n  add\n    /* \"#utility.yul\":2976:3002   */\n  swap1\n  pop\n    /* \"#utility.yul\":3012:3091   */\n  tag_101\n    /* \"#utility.yul\":3088:3089   */\n  0x00\n    /* \"#utility.yul\":3077:3086   */\n  dup4\n    /* \"#utility.yul\":3073:3090   */\n  add\n    /* \"#utility.yul\":3064:3070   */\n  dup6\n    /* \"#utility.yul\":3012:3091   */\n  tag_92\n  jump\t// in\ntag_101:\n    /* \"#utility.yul\":3101:3173   */\n  tag_102\n    /* \"#utility.yul\":3169:3171   */\n  0x20\n    /* \"#utility.yul\":3158:3167   */\n  dup4\n    /* \"#utility.yul\":3154:3172   */\n  add\n    /* \"#utility.yul\":3145:3151   */\n  dup5\n    /* \"#utility.yul\":3101:3173   */\n  tag_96\n  jump\t// in\ntag_102:\n    /* \"#utility.yul\":2832:3180   */\n  swap4\n  swap3\n  pop\n  pop\n  pop\n  jump\t// out\n    /* \"#utility.yul\":3186:3315   */\ntag_58:\n    /* \"#utility.yul\":3220:3226   */\n  0x00\n    /* \"#utility.yul\":3247:3267   */\n  tag_104\n  tag_105\n  jump\t// in\ntag_104:\n    /* \"#utility.yul\":3237:3267   */\n  swap1\n  pop\n    /* \"#utility.yul\":3276:3309   */\n  tag_106\n    /* \"#utility.yul\":3304:3308   */\n  dup3\n    /* \"#utility.yul\":3296:3302   */\n  dup3\n    /* \"#utility.yul\":3276:3309   */\n  tag_107\n  jump\t// in\ntag_106:\n    /* \"#utility.yul\":3186:3315   */\n  swap2\n  swap1\n  pop\n  jump\t// out\n    /* \"#utility.yul\":3321:3396   */\ntag_105:\n    /* \"#utility.yul\":3354:3360   */\n  0x00\n    /* \"#utility.yul\":3387:3389   */\n  0x40\n    /* \"#utility.yul\":3381:3390   */\n  mload\n    /* \"#utility.yul\":3371:3390   */\n  swap1\n  pop\n    /* \"#utility.yul\":3321:3396   */\n  swap1\n  jump\t// out\n    /* \"#utility.yul\":3402:3713   */\ntag_57:\n    /* \"#utility.yul\":3479:3483   */\n  0x00\n    /* \"#utility.yul\":3569:3587   */\n  0xffffffffffffffff\n    /* \"#utility.yul\":3561:3567   */\n  dup3\n    /* \"#utility.yul\":3558:3588   */\n  gt\n    /* \"#utility.yul\":3555:3611   */\n  iszero\n  tag_110\n  jumpi\n    /* \"#utility.yul\":3591:3609   */\n  tag_111\n  tag_112\n  jump\t// in\ntag_111:\n    /* \"#utility.yul\":3555:3611   */\ntag_110:\n    /* \"#utility.yul\":3641:3645   */\n  0x20\n    /* \"#utility.yul\":3633:3639   */\n  dup3\n    /* \"#utility.yul\":3629:3646   */\n  mul\n    /* \"#utility.yul\":3621:3646   */\n  swap1\n  pop\n    /* \"#utility.yul\":3701:3705   */\n  0x20\n    /* \"#utility.yul\":3695:3699   */\n  dup2\n    /* \"#utility.yul\":3691:3706   */\n  add\n    /* \"#utility.yul\":3683:3706   */\n  swap1\n  pop\n    /* \"#utility.yul\":3402:3713   */\n  swap2\n  swap1\n  pop\n  jump\t// out\n    /* \"#utility.yul\":3719:3815   */\ntag_113:\n    /* \"#utility.yul\":3756:3763   */\n  0x00\n    /* \"#utility.yul\":3785:3809   */\n  tag_115\n    /* \"#utility.yul\":3803:3808   */\n  dup3\n    /* \"#utility.yul\":3785:3809   */\n  tag_116\n  jump\t// in\ntag_115:\n    /* \"#utility.yul\":3774:3809   */\n  swap1\n  pop\n    /* \"#utility.yul\":3719:3815   */\n  swap2\n  swap1\n  pop\n  jump\t// out\n    /* \"#utility.yul\":3821:3947   */\ntag_116:\n    /* \"#utility.yul\":3858:3865   */\n  0x00\n    /* \"#utility.yul\":3898:3940   */\n  0xffffffffffffffffffffffffffffffffffffffff\n    /* \"#utility.yul\":3891:3896   */\n  dup3\n    /* \"#utility.yul\":3887:3941   */\n  and\n    /* \"#utility.yul\":3876:3941   */\n  swap1\n  pop\n    /* \"#utility.yul\":3821:3947   */\n  swap2\n  swap1\n  pop\n  jump\t// out\n    /* \"#utility.yul\":3953:4030   */\ntag_99:\n    /* \"#utility.yul\":3990:3997   */\n  0x00\n    /* \"#utility.yul\":4019:4024   */\n  dup2\n    /* \"#utility.yul\":4008:4024   */\n  swap1\n  pop\n    /* \"#utility.yul\":3953:4030   */\n  swap2\n  swap1\n  pop\n  jump\t// out\n    /* \"#utility.yul\":4036:4157   */\ntag_95:\n    /* \"#utility.yul\":4094:4103   */\n  0x00\n    /* \"#utility.yul\":4127:4151   */\n  tag_120\n    /* \"#utility.yul\":4145:4150   */\n  dup3\n    /* \"#utility.yul\":4127:4151   */\n  tag_99\n  jump\t// in\ntag_120:\n    /* \"#utility.yul\":4114:4151   */\n  swap1\n  pop\n    /* \"#utility.yul\":4036:4157   */\n  swap2\n  swap1\n  pop\n  jump\t// out\n    /* \"#utility.yul\":4163:4444   */\ntag_107:\n    /* \"#utility.yul\":4246:4273   */\n  tag_122\n    /* \"#utility.yul\":4268:4272   */\n  dup3\n    /* \"#utility.yul\":4246:4273   */\n  tag_123\n  jump\t// in\ntag_122:\n    /* \"#utility.yul\":4238:4244   */\n  dup2\n    /* \"#utility.yul\":4234:4274   */\n  add\n    /* \"#utility.yul\":4376:4382   */\n  dup2\n    /* \"#utility.yul\":4364:4374   */\n  dup2\n    /* \"#utility.yul\":4361:4383   */\n  lt\n    /* \"#utility.yul\":4340:4358   */\n  0xffffffffffffffff\n    /* \"#utility.yul\":4328:4338   */\n  dup3\n    /* \"#utility.yul\":4325:4359   */\n  gt\n    /* \"#utility.yul\":4322:4384   */\n  or\n    /* \"#utility.yul\":4319:4407   */\n  iszero\n  tag_124\n  jumpi\n    /* \"#utility.yul\":4387:4405   */\n  tag_125\n  tag_112\n  jump\t// in\ntag_125:\n    /* \"#utility.yul\":4319:4407   */\ntag_124:\n    /* \"#utility.yul\":4427:4437   */\n  dup1\n    /* \"#utility.yul\":4423:4425   */\n  0x40\n    /* \"#utility.yul\":4416:4438   */\n  mstore\n    /* \"#utility.yul\":4206:4444   */\n  pop\n    /* \"#utility.yul\":4163:4444   */\n  pop\n  pop\n  jump\t// out\n    /* \"#utility.yul\":4450:4683   */\ntag_27:\n    /* \"#utility.yul\":4489:4492   */\n  0x00\n    /* \"#utility.yul\":4512:4536   */\n  tag_127\n    /* \"#utility.yul\":4530:4535   */\n  dup3\n    /* \"#utility.yul\":4512:4536   */\n  tag_99\n  jump\t// in\ntag_127:\n    /* \"#utility.yul\":4503:4536   */\n  swap2\n  pop\n    /* \"#utility.yul\":4558:4624   */\n  0xffffffffffffffffffffffffffffffffffffffffffffffffffffffffffffffff\n    /* \"#utility.yul\":4551:4556   */\n  dup3\n    /* \"#utility.yul\":4548:4625   */\n  eq\n    /* \"#utility.yul\":4545:4648   */\n  iszero\n  tag_128\n  jumpi\n    /* \"#utility.yul\":4628:4646   */\n  tag_129\n  tag_130\n  jump\t// in\ntag_129:\n    /* \"#utility.yul\":4545:4648   */\ntag_128:\n    /* \"#utility.yul\":4675:4676   */\n  0x01\n    /* \"#utility.yul\":4668:4673   */\n  dup3\n    /* \"#utility.yul\":4664:4677   */\n  add\n    /* \"#utility.yul\":4657:4677   */\n  swap1\n  pop\n    /* \"#utility.yul\":4450:4683   */\n  swap2\n  swap1\n  pop\n  jump\t// out\n    /* \"#utility.yul\":4689:4869   */\ntag_130:\n    /* \"#utility.yul\":4737:4814   */\n  0x4e487b7100000000000000000000000000000000000000000000000000000000\n    /* \"#utility.yul\":4734:4735   */\n  0x00\n    /* \"#utility.yul\":4727:4815   */\n  mstore\n    /* \"#utility.yul\":4834:4838   */\n  0x11\n    /* \"#utility.yul\":4831:4832   */\n  0x04\n    /* \"#utility.yul\":4824:4839   */\n  mstore\n    /* \"#utility.yul\":4858:4862   */\n  0x24\n    /* \"#utility.yul\":4855:4856   */\n  0x00\n    /* \"#utility.yul\":4848:4863   */\n  revert\n    /* \"#utility.yul\":4875:5055   */\ntag_22:\n    /* \"#utility.yul\":4923:5000   */\n  0x4e487b7100000000000000000000000000000000000000000000000000000000\n    /* \"#utility.yul\":4920:4921   */\n  0x00\n    /* \"#utility.yul\":4913:5001   */\n  mstore\n    /* \"#utility.yul\":5020:5024   */\n  0x32\n    /* \"#utility.yul\":5017:5018   */\n  0x04\n    /* \"#utility.yul\":5010:5025   */\n  mstore\n    /* \"#utility.yul\":5044:5048   */\n  0x24\n    /* \"#utility.yul\":5041:5042   */\n  0x00\n    /* \"#utility.yul\":5034:5049   */\n  revert\n    /* \"#utility.yul\":5061:5241   */\ntag_112:\n    /* \"#utility.yul\":5109:5186   */\n  0x4e487b7100000000000000000000000000000000000000000000000000000000\n    /* \"#utility.yul\":5106:5107   */\n  0x00\n    /* \"#utility.yul\":5099:5187   */\n  mstore\n    /* \"#utility.yul\":5206:5210   */\n  0x41\n    /* \"#utility.yul\":5203:5204   */\n  0x04\n    /* \"#utility.yul\":5196:5211   */\n  mstore\n    /* \"#utility.yul\":5230:5234   */\n  0x24\n    /* \"#utility.yul\":5227:5228   */\n  0x00\n    /* \"#utility.yul\":5220:5235   */\n  revert\n    /* \"#utility.yul\":5247:5364   */\ntag_74:\n    /* \"#utility.yul\":5356:5357   */\n  0x00\n    /* \"#utility.yul\":5353:5354   */\n  dup1\n    /* \"#utility.yul\":5346:5358   */\n  revert\n    /* \"#utility.yul\":5370:5487   */\ntag_61:\n    /* \"#utility.yul\":5479:5480   */\n  0x00\n    /* \"#utility.yul\":5476:5477   */\n  dup1\n    /* \"#utility.yul\":5469:5481   */\n  revert\n    /* \"#utility.yul\":5493:5610   */\ntag_87:\n    /* \"#utility.yul\":5602:5603   */\n  0x00\n    /* \"#utility.yul\":5599:5600   */\n  dup1\n    /* \"#utility.yul\":5592:5604   */\n  revert\n    /* \"#utility.yul\":5616:5733   */\ntag_83:\n    /* \"#utility.yul\":5725:5726   */\n  0x00\n    /* \"#utility.yul\":5722:5723   */\n  dup1\n    /* \"#utility.yul\":5715:5727   */\n  revert\n    /* \"#utility.yul\":5739:5841   */\ntag_123:\n    /* \"#utility.yul\":5780:5786   */\n  0x00\n    /* \"#utility.yul\":5831:5833   */\n  0x1f\n    /* \"#utility.yul\":5827:5834   */\n  not\n    /* \"#utility.yul\":5822:5824   */\n  0x1f\n    /* \"#utility.yul\":5815:5820   */\n  dup4\n    /* \"#utility.yul\":5811:5825   */\n  add\n    /* \"#utility.yul\":5807:5835   */\n  and\n    /* \"#utility.yul\":5797:5835   */\n  swap1\n  pop\n    /* \"#utility.yul\":5739:5841   */\n  swap2\n  swap1\n  pop\n  jump\t// out\n    /* \"#utility.yul\":5847:5969   */\ntag_69:\n    /* \"#utility.yul\":5920:5944   */\n  tag_140\n    /* \"#utility.yul\":5938:5943   */\n  dup2\n    /* \"#utility.yul\":5920:5944   */\n  tag_113\n  jump\t// in\ntag_140:\n    /* \"#utility.yul\":5913:5918   */\n  dup2\n    /* \"#utility.yul\":5910:5945   */\n  eq\n    /* \"#utility.yul\":5900:5963   */\n  tag_141\n  jumpi\n    /* \"#utility.yul\":5959:5960   */\n  0x00\n    /* \"#utility.yul\":5956:5957   */\n  dup1\n    /* \"#utility.yul\":5949:5961   */\n  revert\n    /* \"#utility.yul\":5900:5963   */\ntag_141:\n    /* \"#utility.yul\":5847:5969   */\n  pop\n  jump\t// out\n    /* \"#utility.yul\":5975:6097   */\ntag_79:\n    /* \"#utility.yul\":6048:6072   */\n  tag_143\n    /* \"#utility.yul\":6066:6071   */\n  dup2\n    /* \"#utility.yul\":6048:6072   */\n  tag_99\n  jump\t// in\ntag_143:\n    /* \"#utility.yul\":6041:6046   */\n  dup2\n    /* \"#utility.yul\":6038:6073   */\n  eq\n    /* \"#utility.yul\":6028:6091   */\n  tag_144\n  jumpi\n    /* \"#utility.yul\":6087:6088   */\n  0x00\n    /* \"#utility.yul\":6084:6085   */\n  dup1\n    /* \"#utility.yul\":6077:6089   */\n  revert\n    /* \"#utility.yul\":6028:6091   */\ntag_144:\n    /* \"#utility.yul\":5975:6097   */\n  pop\n  jump\t// out\n    /* \"@openzeppelin/contracts/governance/TimelockController.sol\":1030:14091  contract TimelockController is AccessControl, IERC721Receiver, IERC1155Receiver {... */\ntag_37:\n  dataSize(sub_0)\n  dup1\n  dataOffset(sub_0)\n  0x00\n  codecopy\n  0x00\n  return\nstop\n\nsub_0: assembly {\n        /* \"@openzeppelin/contracts/governance/TimelockController.sol\":1030:14091  contract TimelockController is AccessControl, IERC721Receiver, IERC1155Receiver {... */\n      mstore(0x40, 0x80)\n      jumpi(tag_1, lt(calldatasize, 0x04))\n      shr(0xe0, calldataload(0x00))\n      dup1\n      0x8065657f\n      gt\n      tag_31\n      jumpi\n      dup1\n      0xbc197c81\n      gt\n      tag_32\n      jumpi\n      dup1\n      0xd547741f\n      gt\n      tag_33\n      jumpi\n      dup1\n      0xd547741f\n      eq\n      tag_27\n      jumpi\n      dup1\n      0xe38335e5\n      eq\n      tag_28\n      jumpi\n      dup1\n      0xf23a6e61\n      eq\n      tag_29\n      jumpi\n      dup1\n      0xf27a0c92\n      eq\n      tag_30\n      jumpi\n      jump(tag_2)\n    tag_33:\n      dup1\n      0xbc197c81\n      eq\n      tag_24\n      jumpi\n      dup1\n      0xc4d252f5\n      eq\n      tag_25\n      jumpi\n      dup1\n      0xd45c4435\n      eq\n      tag_26\n      jumpi\n      jump(tag_2)\n    tag_32:\n      dup1\n      0x91d14854\n      gt\n      tag_34\n      jumpi\n      dup1\n      0x91d14854\n      eq\n      tag_20\n      jumpi\n      dup1\n      0xa217fddf\n      eq\n      tag_21\n      jumpi\n      dup1\n      0xb08e51c0\n      eq\n      tag_22\n      jumpi\n      dup1\n      0xb1c5f427\n      eq\n      tag_23\n      jumpi\n      jump(tag_2)\n    tag_34:\n      dup1\n      0x8065657f\n      eq\n      tag_17\n      jumpi\n      dup1\n      0x8f2a0bb0\n      eq\n      tag_18\n      jumpi\n      dup1\n      0x8f61f4f5\n      eq\n      tag_19\n      jumpi\n      jump(tag_2)\n    tag_31:\n      dup1\n      0x248a9ca3\n      gt\n      tag_35\n      jumpi\n      dup1\n      0x31d50750\n      gt\n      tag_36\n      jumpi\n      dup1\n      0x31d50750\n      eq\n      tag_13\n      jumpi\n      dup1\n      0x36568abe\n      eq\n      tag_14\n      jumpi\n      dup1\n      0x584b153e\n      eq\n      tag_15\n      jumpi\n      dup1\n      0x64d62353\n      eq\n      tag_16\n      jumpi\n      jump(tag_2)\n    tag_36:\n      dup1\n      0x248a9ca3\n      eq\n      tag_10\n      jumpi\n      dup1\n      0x2ab0f529\n      eq\n      tag_11\n      jumpi\n      dup1\n      0x2f2ff15d\n      eq\n      tag_12\n      jumpi\n      jump(tag_2)\n    tag_35:\n      dup1\n      0x0d3cf6fc\n      gt\n      tag_37\n      jumpi\n      dup1\n      0x0d3cf6fc\n      eq\n      tag_6\n      jumpi\n      dup1\n      0x134008d3\n      eq\n      tag_7\n      jumpi\n      dup1\n      0x13bc9f20\n      eq\n      tag_8\n      jumpi\n      dup1\n      0x150b7a02\n      eq\n      tag_9\n      jumpi\n      jump(tag_2)\n    tag_37:\n      dup1\n      0x01d5062a\n      eq\n      tag_3\n      jumpi\n      dup1\n      0x01ffc9a7\n      eq\n      tag_4\n      jumpi\n      dup1\n      0x07bd0265\n      eq\n      tag_5\n      jumpi\n      jump(tag_2)\n    tag_1:\n      jumpi(tag_2, calldatasize)\n      stop\n    tag_2:\n      0x00\n      dup1\n      revert\n        /* \"@openzeppelin/contracts/governance/TimelockController.sol\":7418:7820  function schedule(... */\n    tag_3:\n      callvalue\n      dup1\n      iszero\n      tag_40\n      jumpi\n      0x00\n      dup1\n      revert\n    tag_40:\n      pop\n      tag_41\n      0x04\n      dup1\n      calldatasize\n      sub\n      dup2\n      add\n      swap1\n      tag_42\n      swap2\n      swap1\n      tag_43\n      jump\t// in\n    tag_42:\n      tag_44\n      jump\t// in\n    tag_41:\n      stop\n        /* \"@openzeppelin/contracts/governance/TimelockController.sol\":4570:4798  function supportsInterface(bytes4 interfaceId) public view virtual override(IERC165, AccessControl) returns (bool) {... */\n    tag_4:\n      callvalue\n      dup1\n      iszero\n      tag_45\n      jumpi\n      0x00\n      dup1\n      revert\n    tag_45:\n      pop\n      tag_46\n      0x04\n      dup1\n      calldatasize\n      sub\n      dup2\n      add\n      swap1\n      tag_47\n      swap2\n      swap1\n      tag_48\n      jump\t// in\n    tag_47:\n      tag_49\n      jump\t// in\n    tag_46:\n      mload(0x40)\n      tag_50\n      swap2\n      swap1\n      tag_51\n      jump\t// in\n    tag_50:\n      mload(0x40)\n      dup1\n      swap2\n      sub\n      swap1\n      return\n        /* \"@openzeppelin/contracts/governance/TimelockController.sol\":1272:1338  bytes32 public constant EXECUTOR_ROLE = keccak256(\"EXECUTOR_ROLE\") */\n    tag_5:\n      callvalue\n      dup1\n      iszero\n      tag_52\n      jumpi\n      0x00\n      dup1\n      revert\n    tag_52:\n      pop\n      tag_53\n      tag_54\n      jump\t// in\n    tag_53:\n      mload(0x40)\n      tag_55\n      swap2\n      swap1\n      tag_56\n      jump\t// in\n    tag_55:\n      mload(0x40)\n      dup1\n      swap2\n      sub\n      swap1\n      return\n        /* \"@openzeppelin/contracts/governance/TimelockController.sol\":1116:1194  bytes32 public constant TIMELOCK_ADMIN_ROLE = keccak256(\"TIMELOCK_ADMIN_ROLE\") */\n    tag_6:\n      callvalue\n      dup1\n      iszero\n      tag_57\n      jumpi\n      0x00\n      dup1\n      revert\n    tag_57:\n      pop\n      tag_58\n      tag_59\n      jump\t// in\n    tag_58:\n      mload(0x40)\n      tag_60\n      swap2\n      swap1\n      tag_56\n      jump\t// in\n    tag_60:\n      mload(0x40)\n      dup1\n      swap2\n      sub\n      swap1\n      return\n        /* \"@openzeppelin/contracts/governance/TimelockController.sol\":10016:10475  function execute(... */\n    tag_7:\n      tag_61\n      0x04\n      dup1\n      calldatasize\n      sub\n      dup2\n      add\n      swap1\n      tag_62\n      swap2\n      swap1\n      tag_63\n      jump\t// in\n    tag_62:\n      tag_64\n      jump\t// in\n    tag_61:\n      stop\n        /* \"@openzeppelin/contracts/governance/TimelockController.sol\":5380:5588  function isOperationReady(bytes32 id) public view virtual returns (bool ready) {... */\n    tag_8:\n      callvalue\n      dup1\n      iszero\n      tag_65\n      jumpi\n      0x00\n      dup1\n      revert\n    tag_65:\n      pop\n      tag_66\n      0x04\n      dup1\n      calldatasize\n      sub\n      dup2\n      add\n      swap1\n      tag_67\n      swap2\n      swap1\n      tag_68\n      jump\t// in\n    tag_67:\n      tag_69\n      jump\t// in\n    tag_66:\n      mload(0x40)\n      tag_70\n      swap2\n      swap1\n      tag_51\n      jump\t// in\n    tag_70:\n      mload(0x40)\n      dup1\n      swap2\n      sub\n      swap1\n      return\n        /* \"@openzeppelin/contracts/governance/TimelockController.sol\":13266:13466  function onERC721Received(... */\n    tag_9:\n      callvalue\n      dup1\n      iszero\n      tag_71\n      jumpi\n      0x00\n      dup1\n      revert\n    tag_71:\n      pop\n      tag_72\n      0x04\n      dup1\n      calldatasize\n      sub\n      dup2\n      add\n      swap1\n      tag_73\n      swap2\n      swap1\n      tag_74\n      jump\t// in\n    tag_73:\n      tag_75\n      jump\t// in\n    tag_72:\n      mload(0x40)\n      tag_76\n      swap2\n      swap1\n      tag_77\n      jump\t// in\n    tag_76:\n      mload(0x40)\n      dup1\n      swap2\n      sub\n      swap1\n      return\n        /* \"@openzeppelin/contracts/access/AccessControl.sol\":4391:4520  function getRoleAdmin(bytes32 role) public view virtual override returns (bytes32) {... */\n    tag_10:\n      callvalue\n      dup1\n      iszero\n      tag_78\n      jumpi\n      0x00\n      dup1\n      revert\n    tag_78:\n      pop\n      tag_79\n      0x04\n      dup1\n      calldatasize\n      sub\n      dup2\n      add\n      swap1\n      tag_80\n      swap2\n      swap1\n      tag_68\n      jump\t// in\n    tag_80:\n      tag_81\n      jump\t// in\n    tag_79:\n      mload(0x40)\n      tag_82\n      swap2\n      swap1\n      tag_56\n      jump\t// in\n    tag_82:\n      mload(0x40)\n      dup1\n      swap2\n      sub\n      swap1\n      return\n        /* \"@openzeppelin/contracts/governance/TimelockController.sol\":5667:5803  function isOperationDone(bytes32 id) public view virtual returns (bool done) {... */\n    tag_11:\n      callvalue\n      dup1\n      iszero\n      tag_83\n      jumpi\n      0x00\n      dup1\n      revert\n    tag_83:\n      pop\n      tag_84\n      0x04\n      dup1\n      calldatasize\n      sub\n      dup2\n      add\n      swap1\n      tag_85\n      swap2\n      swap1\n      tag_68\n      jump\t// in\n    tag_85:\n      tag_86\n      jump\t// in\n    tag_84:\n      mload(0x40)\n      tag_87\n      swap2\n      swap1\n      tag_51\n      jump\t// in\n    tag_87:\n      mload(0x40)\n      dup1\n      swap2\n      sub\n      swap1\n      return\n        /* \"@openzeppelin/contracts/access/AccessControl.sol\":4816:4961  function grantRole(bytes32 role, address account) public virtual override onlyRole(getRoleAdmin(role)) {... */\n    tag_12:\n      callvalue\n      dup1\n      iszero\n      tag_88\n      jumpi\n      0x00\n      dup1\n      revert\n    tag_88:\n      pop\n      tag_89\n      0x04\n      dup1\n      calldatasize\n      sub\n      dup2\n      add\n      swap1\n      tag_90\n      swap2\n      swap1\n      tag_91\n      jump\t// in\n    tag_90:\n      tag_92\n      jump\t// in\n    tag_89:\n      stop\n        /* \"@openzeppelin/contracts/governance/TimelockController.sol\":4954:5077  function isOperation(bytes32 id) public view virtual returns (bool registered) {... */\n    tag_13:\n      callvalue\n      dup1\n      iszero\n      tag_93\n      jumpi\n      0x00\n      dup1\n      revert\n    tag_93:\n      pop\n      tag_94\n      0x04\n      dup1\n      calldatasize\n      sub\n      dup2\n      add\n      swap1\n      tag_95\n      swap2\n      swap1\n      tag_68\n      jump\t// in\n    tag_95:\n      tag_96\n      jump\t// in\n    tag_94:\n      mload(0x40)\n      tag_97\n      swap2\n      swap1\n      tag_51\n      jump\t// in\n    tag_97:\n      mload(0x40)\n      dup1\n      swap2\n      sub\n      swap1\n      return\n        /* \"@openzeppelin/contracts/access/AccessControl.sol\":5925:6139  function renounceRole(bytes32 role, address account) public virtual override {... */\n    tag_14:\n      callvalue\n      dup1\n      iszero\n      tag_98\n      jumpi\n      0x00\n      dup1\n      revert\n    tag_98:\n      pop\n      tag_99\n      0x04\n      dup1\n      calldatasize\n      sub\n      dup2\n      add\n      swap1\n      tag_100\n      swap2\n      swap1\n      tag_91\n      jump\t// in\n    tag_100:\n      tag_101\n      jump\t// in\n    tag_99:\n      stop\n        /* \"@openzeppelin/contracts/governance/TimelockController.sol\":5159:5300  function isOperationPending(bytes32 id) public view virtual returns (bool pending) {... */\n    tag_15:\n      callvalue\n      dup1\n      iszero\n      tag_102\n      jumpi\n      0x00\n      dup1\n      revert\n    tag_102:\n      pop\n      tag_103\n      0x04\n      dup1\n      calldatasize\n      sub\n      dup2\n      add\n      swap1\n      tag_104\n      swap2\n      swap1\n      tag_68\n      jump\t// in\n    tag_104:\n      tag_105\n      jump\t// in\n    tag_103:\n      mload(0x40)\n      tag_106\n      swap2\n      swap1\n      tag_51\n      jump\t// in\n    tag_106:\n      mload(0x40)\n      dup1\n      swap2\n      sub\n      swap1\n      return\n        /* \"@openzeppelin/contracts/governance/TimelockController.sol\":12956:13192  function updateDelay(uint256 newDelay) external virtual {... */\n    tag_16:\n      callvalue\n      dup1\n      iszero\n      tag_107\n      jumpi\n      0x00\n      dup1\n      revert\n    tag_107:\n      pop\n      tag_108\n      0x04\n      dup1\n      calldatasize\n      sub\n      dup2\n      add\n      swap1\n      tag_109\n      swap2\n      swap1\n      tag_110\n      jump\t// in\n    tag_109:\n      tag_111\n      jump\t// in\n    tag_108:\n      stop\n        /* \"@openzeppelin/contracts/governance/TimelockController.sol\":6473:6757  function hashOperation(... */\n    tag_17:\n      callvalue\n      dup1\n      iszero\n      tag_112\n      jumpi\n      0x00\n      dup1\n      revert\n    tag_112:\n      pop\n      tag_113\n      0x04\n      dup1\n      calldatasize\n      sub\n      dup2\n      add\n      swap1\n      tag_114\n      swap2\n      swap1\n      tag_63\n      jump\t// in\n    tag_114:\n      tag_115\n      jump\t// in\n    tag_113:\n      mload(0x40)\n      tag_116\n      swap2\n      swap1\n      tag_56\n      jump\t// in\n    tag_116:\n      mload(0x40)\n      dup1\n      swap2\n      sub\n      swap1\n      return\n        /* \"@openzeppelin/contracts/governance/TimelockController.sol\":8074:8787  function scheduleBatch(... */\n    tag_18:\n      callvalue\n      dup1\n      iszero\n      tag_117\n      jumpi\n      0x00\n      dup1\n      revert\n    tag_117:\n      pop\n      tag_118\n      0x04\n      dup1\n      calldatasize\n      sub\n      dup2\n      add\n      swap1\n      tag_119\n      swap2\n      swap1\n      tag_120\n      jump\t// in\n    tag_119:\n      tag_121\n      jump\t// in\n    tag_118:\n      stop\n        /* \"@openzeppelin/contracts/governance/TimelockController.sol\":1200:1266  bytes32 public constant PROPOSER_ROLE = keccak256(\"PROPOSER_ROLE\") */\n    tag_19:\n      callvalue\n      dup1\n      iszero\n      tag_122\n      jumpi\n      0x00\n      dup1\n      revert\n    tag_122:\n      pop\n      tag_123\n      tag_124\n      jump\t// in\n    tag_123:\n      mload(0x40)\n      tag_125\n      swap2\n      swap1\n      tag_56\n      jump\t// in\n    tag_125:\n      mload(0x40)\n      dup1\n      swap2\n      sub\n      swap1\n      return\n        /* \"@openzeppelin/contracts/access/AccessControl.sol\":2895:3040  function hasRole(bytes32 role, address account) public view virtual override returns (bool) {... */\n    tag_20:\n      callvalue\n      dup1\n      iszero\n      tag_126\n      jumpi\n      0x00\n      dup1\n      revert\n    tag_126:\n      pop\n      tag_127\n      0x04\n      dup1\n      calldatasize\n      sub\n      dup2\n      add\n      swap1\n      tag_128\n      swap2\n      swap1\n      tag_91\n      jump\t// in\n    tag_128:\n      tag_129\n      jump\t// in\n    tag_127:\n      mload(0x40)\n      tag_130\n      swap2\n      swap1\n      tag_51\n      jump\t// in\n    tag_130:\n      mload(0x40)\n      dup1\n      swap2\n      sub\n      swap1\n      return\n        /* \"@openzeppelin/contracts/access/AccessControl.sol\":2027:2076  bytes32 public constant DEFAULT_ADMIN_ROLE = 0x00 */\n    tag_21:\n      callvalue\n      dup1\n      iszero\n      tag_131\n      jumpi\n      0x00\n      dup1\n      revert\n    tag_131:\n      pop\n      tag_132\n      tag_133\n      jump\t// in\n    tag_132:\n      mload(0x40)\n      tag_134\n      swap2\n      swap1\n      tag_56\n      jump\t// in\n    tag_134:\n      mload(0x40)\n      dup1\n      swap2\n      sub\n      swap1\n      return\n        /* \"@openzeppelin/contracts/governance/TimelockController.sol\":1344:1412  bytes32 public constant CANCELLER_ROLE = keccak256(\"CANCELLER_ROLE\") */\n    tag_22:\n      callvalue\n      dup1\n      iszero\n      tag_135\n      jumpi\n      0x00\n      dup1\n      revert\n    tag_135:\n      pop\n      tag_136\n      tag_137\n      jump\t// in\n    tag_136:\n      mload(0x40)\n      tag_138\n      swap2\n      swap1\n      tag_56\n      jump\t// in\n    tag_138:\n      mload(0x40)\n      dup1\n      swap2\n      sub\n      swap1\n      return\n        /* \"@openzeppelin/contracts/governance/TimelockController.sol\":6873:7198  function hashOperationBatch(... */\n    tag_23:\n      callvalue\n      dup1\n      iszero\n      tag_139\n      jumpi\n      0x00\n      dup1\n      revert\n    tag_139:\n      pop\n      tag_140\n      0x04\n      dup1\n      calldatasize\n      sub\n      dup2\n      add\n      swap1\n      tag_141\n      swap2\n      swap1\n      tag_142\n      jump\t// in\n    tag_141:\n      tag_143\n      jump\t// in\n    tag_140:\n      mload(0x40)\n      tag_144\n      swap2\n      swap1\n      tag_56\n      jump\t// in\n    tag_144:\n      mload(0x40)\n      dup1\n      swap2\n      sub\n      swap1\n      return\n        /* \"@openzeppelin/contracts/governance/TimelockController.sol\":13842:14089  function onERC1155BatchReceived(... */\n    tag_24:\n      callvalue\n      dup1\n      iszero\n      tag_145\n      jumpi\n      0x00\n      dup1\n      revert\n    tag_145:\n      pop\n      tag_146\n      0x04\n      dup1\n      calldatasize\n      sub\n      dup2\n      add\n      swap1\n      tag_147\n      swap2\n      swap1\n      tag_148\n      jump\t// in\n    tag_147:\n      tag_149\n      jump\t// in\n    tag_146:\n      mload(0x40)\n      tag_150\n      swap2\n      swap1\n      tag_77\n      jump\t// in\n    tag_150:\n      mload(0x40)\n      dup1\n      swap2\n      sub\n      swap1\n      return\n        /* \"@openzeppelin/contracts/governance/TimelockController.sol\":9312:9542  function cancel(bytes32 id) public virtual onlyRole(CANCELLER_ROLE) {... */\n    tag_25:\n      callvalue\n      dup1\n      iszero\n      tag_151\n      jumpi\n      0x00\n      dup1\n      revert\n    tag_151:\n      pop\n      tag_152\n      0x04\n      dup1\n      calldatasize\n      sub\n      dup2\n      add\n      swap1\n      tag_153\n      swap2\n      swap1\n      tag_68\n      jump\t// in\n    tag_153:\n      tag_154\n      jump\t// in\n    tag_152:\n      stop\n        /* \"@openzeppelin/contracts/governance/TimelockController.sol\":5950:6071  function getTimestamp(bytes32 id) public view virtual returns (uint256 timestamp) {... */\n    tag_26:\n      callvalue\n      dup1\n      iszero\n      tag_155\n      jumpi\n      0x00\n      dup1\n      revert\n    tag_155:\n      pop\n      tag_156\n      0x04\n      dup1\n      calldatasize\n      sub\n      dup2\n      add\n      swap1\n      tag_157\n      swap2\n      swap1\n      tag_68\n      jump\t// in\n    tag_157:\n      tag_158\n      jump\t// in\n    tag_156:\n      mload(0x40)\n      tag_159\n      swap2\n      swap1\n      tag_160\n      jump\t// in\n    tag_159:\n      mload(0x40)\n      dup1\n      swap2\n      sub\n      swap1\n      return\n        /* \"@openzeppelin/contracts/access/AccessControl.sol\":5241:5388  function revokeRole(bytes32 role, address account) public virtual override onlyRole(getRoleAdmin(role)) {... */\n    tag_27:\n      callvalue\n      dup1\n      iszero\n      tag_161\n      jumpi\n      0x00\n      dup1\n      revert\n    tag_161:\n      pop\n      tag_162\n      0x04\n      dup1\n      calldatasize\n      sub\n      dup2\n      add\n      swap1\n      tag_163\n      swap2\n      swap1\n      tag_91\n      jump\t// in\n    tag_163:\n      tag_164\n      jump\t// in\n    tag_162:\n      stop\n        /* \"@openzeppelin/contracts/governance/TimelockController.sol\":10735:11618  function executeBatch(... */\n    tag_28:\n      tag_165\n      0x04\n      dup1\n      calldatasize\n      sub\n      dup2\n      add\n      swap1\n      tag_166\n      swap2\n      swap1\n      tag_142\n      jump\t// in\n    tag_166:\n      tag_167\n      jump\t// in\n    tag_165:\n      stop\n        /* \"@openzeppelin/contracts/governance/TimelockController.sol\":13542:13761  function onERC1155Received(... */\n    tag_29:\n      callvalue\n      dup1\n      iszero\n      tag_168\n      jumpi\n      0x00\n      dup1\n      revert\n    tag_168:\n      pop\n      tag_169\n      0x04\n      dup1\n      calldatasize\n      sub\n      dup2\n      add\n      swap1\n      tag_170\n      swap2\n      swap1\n      tag_171\n      jump\t// in\n    tag_170:\n      tag_172\n      jump\t// in\n    tag_169:\n      mload(0x40)\n      tag_173\n      swap2\n      swap1\n      tag_77\n      jump\t// in\n    tag_173:\n      mload(0x40)\n      dup1\n      swap2\n      sub\n      swap1\n      return\n        /* \"@openzeppelin/contracts/governance/TimelockController.sol\":6257:6360  function getMinDelay() public view virtual returns (uint256 duration) {... */\n    tag_30:\n      callvalue\n      dup1\n      iszero\n      tag_174\n      jumpi\n      0x00\n      dup1\n      revert\n    tag_174:\n      pop\n      tag_175\n      tag_176\n      jump\t// in\n    tag_175:\n      mload(0x40)\n      tag_177\n      swap2\n      swap1\n      tag_160\n      jump\t// in\n    tag_177:\n      mload(0x40)\n      dup1\n      swap2\n      sub\n      swap1\n      return\n        /* \"@openzeppelin/contracts/governance/TimelockController.sol\":7418:7820  function schedule(... */\n    tag_44:\n        /* \"@openzeppelin/contracts/governance/TimelockController.sol\":1240:1266  keccak256(\"PROPOSER_ROLE\") */\n      0xb09aa5aeb3702cfd50b6b62bc4532604938f21248a27a1d5ca736082b6819cc1\n        /* \"@openzeppelin/contracts/access/AccessControl.sol\":2505:2521  _checkRole(role) */\n      tag_179\n        /* \"@openzeppelin/contracts/access/AccessControl.sol\":2516:2520  role */\n      dup2\n        /* \"@openzeppelin/contracts/access/AccessControl.sol\":2505:2515  _checkRole */\n      tag_180\n        /* \"@openzeppelin/contracts/access/AccessControl.sol\":2505:2521  _checkRole(role) */\n      jump\t// in\n    tag_179:\n        /* \"@openzeppelin/contracts/governance/TimelockController.sol\":7641:7651  bytes32 id */\n      0x00\n        /* \"@openzeppelin/contracts/governance/TimelockController.sol\":7654:7707  hashOperation(target, value, data, predecessor, salt) */\n      tag_182\n        /* \"@openzeppelin/contracts/governance/TimelockController.sol\":7668:7674  target */\n      dup10\n        /* \"@openzeppelin/contracts/governance/TimelockController.sol\":7676:7681  value */\n      dup10\n        /* \"@openzeppelin/contracts/governance/TimelockController.sol\":7683:7687  data */\n      dup10\n      dup10\n        /* \"@openzeppelin/contracts/governance/TimelockController.sol\":7689:7700  predecessor */\n      dup10\n        /* \"@openzeppelin/contracts/governance/TimelockController.sol\":7702:7706  salt */\n      dup10\n        /* \"@openzeppelin/contracts/governance/TimelockController.sol\":7654:7667  hashOperation */\n      tag_115\n        /* \"@openzeppelin/contracts/governance/TimelockController.sol\":7654:7707  hashOperation(target, value, data, predecessor, salt) */\n      jump\t// in\n    tag_182:\n        /* \"@openzeppelin/contracts/governance/TimelockController.sol\":7641:7707  bytes32 id = hashOperation(target, value, data, predecessor, salt) */\n      swap1\n      pop\n        /* \"@openzeppelin/contracts/governance/TimelockController.sol\":7717:7737  _schedule(id, delay) */\n      tag_183\n        /* \"@openzeppelin/contracts/governance/TimelockController.sol\":7727:7729  id */\n      dup2\n        /* \"@openzeppelin/contracts/governance/TimelockController.sol\":7731:7736  delay */\n      dup5\n        /* \"@openzeppelin/contracts/governance/TimelockController.sol\":7717:7726  _schedule */\n      tag_184\n        /* \"@openzeppelin/contracts/governance/TimelockController.sol\":7717:7737  _schedule(id, delay) */\n      jump\t// in\n    tag_183:\n        /* \"@openzeppelin/contracts/governance/TimelockController.sol\":7770:7771  0 */\n      0x00\n        /* \"@openzeppelin/contracts/governance/TimelockController.sol\":7766:7768  id */\n      dup2\n        /* \"@openzeppelin/contracts/governance/TimelockController.sol\":7752:7813  CallScheduled(id, 0, target, value, data, predecessor, delay) */\n      0x4cf4410cc57040e44862ef0f45f3dd5a5e02db8eb8add648d4b0e236f1d07dca\n        /* \"@openzeppelin/contracts/governance/TimelockController.sol\":7773:7779  target */\n      dup12\n        /* \"@openzeppelin/contracts/governance/TimelockController.sol\":7781:7786  value */\n      dup12\n        /* \"@openzeppelin/contracts/governance/TimelockController.sol\":7788:7792  data */\n      dup12\n      dup12\n        /* \"@openzeppelin/contracts/governance/TimelockController.sol\":7794:7805  predecessor */\n      dup12\n        /* \"@openzeppelin/contracts/governance/TimelockController.sol\":7807:7812  delay */\n      dup11\n        /* \"@openzeppelin/contracts/governance/TimelockController.sol\":7752:7813  CallScheduled(id, 0, target, value, data, predecessor, delay) */\n      mload(0x40)\n      tag_185\n      swap7\n      swap6\n      swap5\n      swap4\n      swap3\n      swap2\n      swap1\n      tag_186\n      jump\t// in\n    tag_185:\n      mload(0x40)\n      dup1\n      swap2\n      sub\n      swap1\n      log3\n        /* \"@openzeppelin/contracts/governance/TimelockController.sol\":7631:7820  {... */\n      pop\n        /* \"@openzeppelin/contracts/governance/TimelockController.sol\":7418:7820  function schedule(... */\n      pop\n      pop\n      pop\n      pop\n      pop\n      pop\n      pop\n      pop\n      jump\t// out\n        /* \"@openzeppelin/contracts/governance/TimelockController.sol\":4570:4798  function supportsInterface(bytes4 interfaceId) public view virtual override(IERC165, AccessControl) returns (bool) {... */\n    tag_49:\n        /* \"@openzeppelin/contracts/governance/TimelockController.sol\":4679:4683  bool */\n      0x00\n        /* \"@openzeppelin/contracts/governance/TimelockController.sol\":4717:4751  type(IERC1155Receiver).interfaceId */\n      0x4e2312e000000000000000000000000000000000000000000000000000000000\n        /* \"@openzeppelin/contracts/governance/TimelockController.sol\":4702:4751  interfaceId == type(IERC1155Receiver).interfaceId */\n      not(0xffffffffffffffffffffffffffffffffffffffffffffffffffffffff)\n      and\n        /* \"@openzeppelin/contracts/governance/TimelockController.sol\":4702:4713  interfaceId */\n      dup3\n        /* \"@openzeppelin/contracts/governance/TimelockController.sol\":4702:4751  interfaceId == type(IERC1155Receiver).interfaceId */\n      not(0xffffffffffffffffffffffffffffffffffffffffffffffffffffffff)\n      and\n      eq\n        /* \"@openzeppelin/contracts/governance/TimelockController.sol\":4702:4791  interfaceId == type(IERC1155Receiver).interfaceId || super.supportsInterface(interfaceId) */\n      dup1\n      tag_188\n      jumpi\n      pop\n        /* \"@openzeppelin/contracts/governance/TimelockController.sol\":4755:4791  super.supportsInterface(interfaceId) */\n      tag_189\n        /* \"@openzeppelin/contracts/governance/TimelockController.sol\":4779:4790  interfaceId */\n      dup3\n        /* \"@openzeppelin/contracts/governance/TimelockController.sol\":4755:4778  super.supportsInterface */\n      tag_190\n        /* \"@openzeppelin/contracts/governance/TimelockController.sol\":4755:4791  super.supportsInterface(interfaceId) */\n      jump\t// in\n    tag_189:\n        /* \"@openzeppelin/contracts/governance/TimelockController.sol\":4702:4791  interfaceId == type(IERC1155Receiver).interfaceId || super.supportsInterface(interfaceId) */\n    tag_188:\n        /* \"@openzeppelin/contracts/governance/TimelockController.sol\":4695:4791  return interfaceId == type(IERC1155Receiver).interfaceId || super.supportsInterface(interfaceId) */\n      swap1\n      pop\n        /* \"@openzeppelin/contracts/governance/TimelockController.sol\":4570:4798  function supportsInterface(bytes4 interfaceId) public view virtual override(IERC165, AccessControl) returns (bool) {... */\n      swap2\n      swap1\n      pop\n      jump\t// out\n        /* \"@openzeppelin/contracts/governance/TimelockController.sol\":1272:1338  bytes32 public constant EXECUTOR_ROLE = keccak256(\"EXECUTOR_ROLE\") */\n    tag_54:\n        /* \"@openzeppelin/contracts/governance/TimelockController.sol\":1312:1338  keccak256(\"EXECUTOR_ROLE\") */\n      0xd8aa0f3194971a2a116679f7c2090f6939c8d4e01a2a8d7e41d55e5351469e63\n        /* \"@openzeppelin/contracts/governance/TimelockController.sol\":1272:1338  bytes32 public constant EXECUTOR_ROLE = keccak256(\"EXECUTOR_ROLE\") */\n      dup2\n      jump\t// out\n        /* \"@openzeppelin/contracts/governance/TimelockController.sol\":1116:1194  bytes32 public constant TIMELOCK_ADMIN_ROLE = keccak256(\"TIMELOCK_ADMIN_ROLE\") */\n    tag_59:\n        /* \"@openzeppelin/contracts/governance/TimelockController.sol\":1162:1194  keccak256(\"TIMELOCK_ADMIN_ROLE\") */\n      0x5f58e3a2316349923ce3780f8d587db2d72378aed66a8261c916544fa6846ca5\n        /* \"@openzeppelin/contracts/governance/TimelockController.sol\":1116:1194  bytes32 public constant TIMELOCK_ADMIN_ROLE = keccak256(\"TIMELOCK_ADMIN_ROLE\") */\n      dup2\n      jump\t// out\n        /* \"@openzeppelin/contracts/governance/TimelockController.sol\":10016:10475  function execute(... */\n    tag_64:\n        /* \"@openzeppelin/contracts/governance/TimelockController.sol\":1312:1338  keccak256(\"EXECUTOR_ROLE\") */\n      0xd8aa0f3194971a2a116679f7c2090f6939c8d4e01a2a8d7e41d55e5351469e63\n        /* \"@openzeppelin/contracts/governance/TimelockController.sol\":4273:4298  hasRole(role, address(0)) */\n      tag_192\n        /* \"@openzeppelin/contracts/governance/TimelockController.sol\":4281:4285  role */\n      dup2\n        /* \"@openzeppelin/contracts/governance/TimelockController.sol\":4295:4296  0 */\n      0x00\n        /* \"@openzeppelin/contracts/governance/TimelockController.sol\":4273:4280  hasRole */\n      tag_129\n        /* \"@openzeppelin/contracts/governance/TimelockController.sol\":4273:4298  hasRole(role, address(0)) */\n      jump\t// in\n    tag_192:\n        /* \"@openzeppelin/contracts/governance/TimelockController.sol\":4268:4355  if (!hasRole(role, address(0))) {... */\n      tag_193\n      jumpi\n        /* \"@openzeppelin/contracts/governance/TimelockController.sol\":4314:4344  _checkRole(role, _msgSender()) */\n      tag_194\n        /* \"@openzeppelin/contracts/governance/TimelockController.sol\":4325:4329  role */\n      dup2\n        /* \"@openzeppelin/contracts/governance/TimelockController.sol\":4331:4343  _msgSender() */\n      tag_195\n        /* \"@openzeppelin/contracts/governance/TimelockController.sol\":4331:4341  _msgSender */\n      tag_196\n        /* \"@openzeppelin/contracts/governance/TimelockController.sol\":4331:4343  _msgSender() */\n      jump\t// in\n    tag_195:\n        /* \"@openzeppelin/contracts/governance/TimelockController.sol\":4314:4324  _checkRole */\n      tag_197\n        /* \"@openzeppelin/contracts/governance/TimelockController.sol\":4314:4344  _checkRole(role, _msgSender()) */\n      jump\t// in\n    tag_194:\n        /* \"@openzeppelin/contracts/governance/TimelockController.sol\":4268:4355  if (!hasRole(role, address(0))) {... */\n    tag_193:\n        /* \"@openzeppelin/contracts/governance/TimelockController.sol\":10236:10246  bytes32 id */\n      0x00\n        /* \"@openzeppelin/contracts/governance/TimelockController.sol\":10249:10305  hashOperation(target, value, payload, predecessor, salt) */\n      tag_199\n        /* \"@openzeppelin/contracts/governance/TimelockController.sol\":10263:10269  target */\n      dup9\n        /* \"@openzeppelin/contracts/governance/TimelockController.sol\":10271:10276  value */\n      dup9\n        /* \"@openzeppelin/contracts/governance/TimelockController.sol\":10278:10285  payload */\n      dup9\n      dup9\n        /* \"@openzeppelin/contracts/governance/TimelockController.sol\":10287:10298  predecessor */\n      dup9\n        /* \"@openzeppelin/contracts/governance/TimelockController.sol\":10300:10304  salt */\n      dup9\n        /* \"@openzeppelin/contracts/governance/TimelockController.sol\":10249:10262  hashOperation */\n      tag_115\n        /* \"@openzeppelin/contracts/governance/TimelockController.sol\":10249:10305  hashOperation(target, value, payload, predecessor, salt) */\n      jump\t// in\n    tag_199:\n        /* \"@openzeppelin/contracts/governance/TimelockController.sol\":10236:10305  bytes32 id = hashOperation(target, value, payload, predecessor, salt) */\n      swap1\n      pop\n        /* \"@openzeppelin/contracts/governance/TimelockController.sol\":10316:10344  _beforeCall(id, predecessor) */\n      tag_200\n        /* \"@openzeppelin/contracts/governance/TimelockController.sol\":10328:10330  id */\n      dup2\n        /* \"@openzeppelin/contracts/governance/TimelockController.sol\":10332:10343  predecessor */\n      dup6\n        /* \"@openzeppelin/contracts/governance/TimelockController.sol\":10316:10327  _beforeCall */\n      tag_201\n        /* \"@openzeppelin/contracts/governance/TimelockController.sol\":10316:10344  _beforeCall(id, predecessor) */\n      jump\t// in\n    tag_200:\n        /* \"@openzeppelin/contracts/governance/TimelockController.sol\":10354:10386  _execute(target, value, payload) */\n      tag_202\n        /* \"@openzeppelin/contracts/governance/TimelockController.sol\":10363:10369  target */\n      dup9\n        /* \"@openzeppelin/contracts/governance/TimelockController.sol\":10371:10376  value */\n      dup9\n        /* \"@openzeppelin/contracts/governance/TimelockController.sol\":10378:10385  payload */\n      dup9\n      dup9\n        /* \"@openzeppelin/contracts/governance/TimelockController.sol\":10354:10362  _execute */\n      tag_203\n        /* \"@openzeppelin/contracts/governance/TimelockController.sol\":10354:10386  _execute(target, value, payload) */\n      jump\t// in\n    tag_202:\n        /* \"@openzeppelin/contracts/governance/TimelockController.sol\":10418:10419  0 */\n      0x00\n        /* \"@openzeppelin/contracts/governance/TimelockController.sol\":10414:10416  id */\n      dup2\n        /* \"@openzeppelin/contracts/governance/TimelockController.sol\":10401:10444  CallExecuted(id, 0, target, value, payload) */\n      0xc2617efa69bab66782fa219543714338489c4e9e178271560a91b82c3f612b58\n        /* \"@openzeppelin/contracts/governance/TimelockController.sol\":10421:10427  target */\n      dup11\n        /* \"@openzeppelin/contracts/governance/TimelockController.sol\":10429:10434  value */\n      dup11\n        /* \"@openzeppelin/contracts/governance/TimelockController.sol\":10436:10443  payload */\n      dup11\n      dup11\n        /* \"@openzeppelin/contracts/governance/TimelockController.sol\":10401:10444  CallExecuted(id, 0, target, value, payload) */\n      mload(0x40)\n      tag_204\n      swap5\n      swap4\n      swap3\n      swap2\n      swap1\n      tag_205\n      jump\t// in\n    tag_204:\n      mload(0x40)\n      dup1\n      swap2\n      sub\n      swap1\n      log3\n        /* \"@openzeppelin/contracts/governance/TimelockController.sol\":10454:10468  _afterCall(id) */\n      tag_206\n        /* \"@openzeppelin/contracts/governance/TimelockController.sol\":10465:10467  id */\n      dup2\n        /* \"@openzeppelin/contracts/governance/TimelockController.sol\":10454:10464  _afterCall */\n      tag_207\n        /* \"@openzeppelin/contracts/governance/TimelockController.sol\":10454:10468  _afterCall(id) */\n      jump\t// in\n    tag_206:\n        /* \"@openzeppelin/contracts/governance/TimelockController.sol\":10226:10475  {... */\n      pop\n        /* \"@openzeppelin/contracts/governance/TimelockController.sol\":10016:10475  function execute(... */\n      pop\n      pop\n      pop\n      pop\n      pop\n      pop\n      pop\n      jump\t// out\n        /* \"@openzeppelin/contracts/governance/TimelockController.sol\":5380:5588  function isOperationReady(bytes32 id) public view virtual returns (bool ready) {... */\n    tag_69:\n        /* \"@openzeppelin/contracts/governance/TimelockController.sol\":5447:5457  bool ready */\n      0x00\n        /* \"@openzeppelin/contracts/governance/TimelockController.sol\":5469:5486  uint256 timestamp */\n      dup1\n        /* \"@openzeppelin/contracts/governance/TimelockController.sol\":5489:5505  getTimestamp(id) */\n      tag_209\n        /* \"@openzeppelin/contracts/governance/TimelockController.sol\":5502:5504  id */\n      dup4\n        /* \"@openzeppelin/contracts/governance/TimelockController.sol\":5489:5501  getTimestamp */\n      tag_158\n        /* \"@openzeppelin/contracts/governance/TimelockController.sol\":5489:5505  getTimestamp(id) */\n      jump\t// in\n    tag_209:\n        /* \"@openzeppelin/contracts/governance/TimelockController.sol\":5469:5505  uint256 timestamp = getTimestamp(id) */\n      swap1\n      pop\n        /* \"@openzeppelin/contracts/governance/TimelockController.sol\":1470:1471  1 */\n      0x01\n        /* \"@openzeppelin/contracts/governance/TimelockController.sol\":5522:5531  timestamp */\n      dup2\n        /* \"@openzeppelin/contracts/governance/TimelockController.sol\":5522:5549  timestamp > _DONE_TIMESTAMP */\n      gt\n        /* \"@openzeppelin/contracts/governance/TimelockController.sol\":5522:5581  timestamp > _DONE_TIMESTAMP && timestamp <= block.timestamp */\n      dup1\n      iszero\n      tag_210\n      jumpi\n      pop\n        /* \"@openzeppelin/contracts/governance/TimelockController.sol\":5566:5581  block.timestamp */\n      timestamp\n        /* \"@openzeppelin/contracts/governance/TimelockController.sol\":5553:5562  timestamp */\n      dup2\n        /* \"@openzeppelin/contracts/governance/TimelockController.sol\":5553:5581  timestamp <= block.timestamp */\n      gt\n      iszero\n        /* \"@openzeppelin/contracts/governance/TimelockController.sol\":5522:5581  timestamp > _DONE_TIMESTAMP && timestamp <= block.timestamp */\n    tag_210:\n        /* \"@openzeppelin/contracts/governance/TimelockController.sol\":5515:5581  return timestamp > _DONE_TIMESTAMP && timestamp <= block.timestamp */\n      swap2\n      pop\n      pop\n        /* \"@openzeppelin/contracts/governance/TimelockController.sol\":5380:5588  function isOperationReady(bytes32 id) public view virtual returns (bool ready) {... */\n      swap2\n      swap1\n      pop\n      jump\t// out\n        /* \"@openzeppelin/contracts/governance/TimelockController.sol\":13266:13466  function onERC721Received(... */\n    tag_75:\n        /* \"@openzeppelin/contracts/governance/TimelockController.sol\":13404:13410  bytes4 */\n      0x00\n        /* \"@openzeppelin/contracts/governance/TimelockController.sol\":13429:13459  this.onERC721Received.selector */\n      shl(0xe0, 0x150b7a02)\n        /* \"@openzeppelin/contracts/governance/TimelockController.sol\":13422:13459  return this.onERC721Received.selector */\n      swap1\n      pop\n        /* \"@openzeppelin/contracts/governance/TimelockController.sol\":13266:13466  function onERC721Received(... */\n      swap5\n      swap4\n      pop\n      pop\n      pop\n      pop\n      jump\t// out\n        /* \"@openzeppelin/contracts/access/AccessControl.sol\":4391:4520  function getRoleAdmin(bytes32 role) public view virtual override returns (bytes32) {... */\n    tag_81:\n        /* \"@openzeppelin/contracts/access/AccessControl.sol\":4465:4472  bytes32 */\n      0x00\n        /* \"@openzeppelin/contracts/access/AccessControl.sol\":4491:4497  _roles */\n      dup1\n        /* \"@openzeppelin/contracts/access/AccessControl.sol\":4491:4503  _roles[role] */\n      0x00\n        /* \"@openzeppelin/contracts/access/AccessControl.sol\":4498:4502  role */\n      dup4\n        /* \"@openzeppelin/contracts/access/AccessControl.sol\":4491:4503  _roles[role] */\n      dup2\n      mstore\n      0x20\n      add\n      swap1\n      dup2\n      mstore\n      0x20\n      add\n      0x00\n      keccak256\n        /* \"@openzeppelin/contracts/access/AccessControl.sol\":4491:4513  _roles[role].adminRole */\n      0x01\n      add\n      sload\n        /* \"@openzeppelin/contracts/access/AccessControl.sol\":4484:4513  return _roles[role].adminRole */\n      swap1\n      pop\n        /* \"@openzeppelin/contracts/access/AccessControl.sol\":4391:4520  function getRoleAdmin(bytes32 role) public view virtual override returns (bytes32) {... */\n      swap2\n      swap1\n      pop\n      jump\t// out\n        /* \"@openzeppelin/contracts/governance/TimelockController.sol\":5667:5803  function isOperationDone(bytes32 id) public view virtual returns (bool done) {... */\n    tag_86:\n        /* \"@openzeppelin/contracts/governance/TimelockController.sol\":5733:5742  bool done */\n      0x00\n        /* \"@openzeppelin/contracts/governance/TimelockController.sol\":1470:1471  1 */\n      0x01\n        /* \"@openzeppelin/contracts/governance/TimelockController.sol\":5761:5777  getTimestamp(id) */\n      tag_214\n        /* \"@openzeppelin/contracts/governance/TimelockController.sol\":5774:5776  id */\n      dup4\n        /* \"@openzeppelin/contracts/governance/TimelockController.sol\":5761:5773  getTimestamp */\n      tag_158\n        /* \"@openzeppelin/contracts/governance/TimelockController.sol\":5761:5777  getTimestamp(id) */\n      jump\t// in\n    tag_214:\n        /* \"@openzeppelin/contracts/governance/TimelockController.sol\":5761:5796  getTimestamp(id) == _DONE_TIMESTAMP */\n      eq\n        /* \"@openzeppelin/contracts/governance/TimelockController.sol\":5754:5796  return getTimestamp(id) == _DONE_TIMESTAMP */\n      swap1\n      pop\n        /* \"@openzeppelin/contracts/governance/TimelockController.sol\":5667:5803  function isOperationDone(bytes32 id) public view virtual returns (bool done) {... */\n      swap2\n      swap1\n      pop\n      jump\t// out\n        /* \"@openzeppelin/contracts/access/AccessControl.sol\":4816:4961  function grantRole(bytes32 role, address account) public virtual override onlyRole(getRoleAdmin(role)) {... */\n    tag_92:\n        /* \"@openzeppelin/contracts/access/AccessControl.sol\":4899:4917  getRoleAdmin(role) */\n      tag_215\n        /* \"@openzeppelin/contracts/access/AccessControl.sol\":4912:4916  role */\n      dup3\n        /* \"@openzeppelin/contracts/access/AccessControl.sol\":4899:4911  getRoleAdmin */\n      tag_81\n        /* \"@openzeppelin/contracts/access/AccessControl.sol\":4899:4917  getRoleAdmin(role) */\n      jump\t// in\n    tag_215:\n        /* \"@openzeppelin/contracts/access/AccessControl.sol\":2505:2521  _checkRole(role) */\n      tag_217\n        /* \"@openzeppelin/contracts/access/AccessControl.sol\":2516:2520  role */\n      dup2\n        /* \"@openzeppelin/contracts/access/AccessControl.sol\":2505:2515  _checkRole */\n      tag_180\n        /* \"@openzeppelin/contracts/access/AccessControl.sol\":2505:2521  _checkRole(role) */\n      jump\t// in\n    tag_217:\n        /* \"@openzeppelin/contracts/access/AccessControl.sol\":4929:4954  _grantRole(role, account) */\n      tag_219\n        /* \"@openzeppelin/contracts/access/AccessControl.sol\":4940:4944  role */\n      dup4\n        /* \"@openzeppelin/contracts/access/AccessControl.sol\":4946:4953  account */\n      dup4\n        /* \"@openzeppelin/contracts/access/AccessControl.sol\":4929:4939  _grantRole */\n      tag_220\n        /* \"@openzeppelin/contracts/access/AccessControl.sol\":4929:4954  _grantRole(role, account) */\n      jump\t// in\n    tag_219:\n        /* \"@openzeppelin/contracts/access/AccessControl.sol\":4816:4961  function grantRole(bytes32 role, address account) public virtual override onlyRole(getRoleAdmin(role)) {... */\n      pop\n      pop\n      pop\n      jump\t// out\n        /* \"@openzeppelin/contracts/governance/TimelockController.sol\":4954:5077  function isOperation(bytes32 id) public view virtual returns (bool registered) {... */\n    tag_96:\n        /* \"@openzeppelin/contracts/governance/TimelockController.sol\":5016:5031  bool registered */\n      0x00\n        /* \"@openzeppelin/contracts/governance/TimelockController.sol\":5069:5070  0 */\n      dup1\n        /* \"@openzeppelin/contracts/governance/TimelockController.sol\":5050:5066  getTimestamp(id) */\n      tag_222\n        /* \"@openzeppelin/contracts/governance/TimelockController.sol\":5063:5065  id */\n      dup4\n        /* \"@openzeppelin/contracts/governance/TimelockController.sol\":5050:5062  getTimestamp */\n      tag_158\n        /* \"@openzeppelin/contracts/governance/TimelockController.sol\":5050:5066  getTimestamp(id) */\n      jump\t// in\n    tag_222:\n        /* \"@openzeppelin/contracts/governance/TimelockController.sol\":5050:5070  getTimestamp(id) > 0 */\n      gt\n        /* \"@openzeppelin/contracts/governance/TimelockController.sol\":5043:5070  return getTimestamp(id) > 0 */\n      swap1\n      pop\n        /* \"@openzeppelin/contracts/governance/TimelockController.sol\":4954:5077  function isOperation(bytes32 id) public view virtual returns (bool registered) {... */\n      swap2\n      swap1\n      pop\n      jump\t// out\n        /* \"@openzeppelin/contracts/access/AccessControl.sol\":5925:6139  function renounceRole(bytes32 role, address account) public virtual override {... */\n    tag_101:\n        /* \"@openzeppelin/contracts/access/AccessControl.sol\":6031:6043  _msgSender() */\n      tag_224\n        /* \"@openzeppelin/contracts/access/AccessControl.sol\":6031:6041  _msgSender */\n      tag_196\n        /* \"@openzeppelin/contracts/access/AccessControl.sol\":6031:6043  _msgSender() */\n      jump\t// in\n    tag_224:\n        /* \"@openzeppelin/contracts/access/AccessControl.sol\":6020:6043  account == _msgSender() */\n      0xffffffffffffffffffffffffffffffffffffffff\n      and\n        /* \"@openzeppelin/contracts/access/AccessControl.sol\":6020:6027  account */\n      dup2\n        /* \"@openzeppelin/contracts/access/AccessControl.sol\":6020:6043  account == _msgSender() */\n      0xffffffffffffffffffffffffffffffffffffffff\n      and\n      eq\n        /* \"@openzeppelin/contracts/access/AccessControl.sol\":6012:6095  require(account == _msgSender(), \"AccessControl: can only renounce roles for self\") */\n      tag_225\n      jumpi\n      mload(0x40)\n      0x08c379a000000000000000000000000000000000000000000000000000000000\n      dup2\n      mstore\n      0x04\n      add\n      tag_226\n      swap1\n      tag_227\n      jump\t// in\n    tag_226:\n      mload(0x40)\n      dup1\n      swap2\n      sub\n      swap1\n      revert\n    tag_225:\n        /* \"@openzeppelin/contracts/access/AccessControl.sol\":6106:6132  _revokeRole(role, account) */\n      tag_228\n        /* \"@openzeppelin/contracts/access/AccessControl.sol\":6118:6122  role */\n      dup3\n        /* \"@openzeppelin/contracts/access/AccessControl.sol\":6124:6131  account */\n      dup3\n        /* \"@openzeppelin/contracts/access/AccessControl.sol\":6106:6117  _revokeRole */\n      tag_229\n        /* \"@openzeppelin/contracts/access/AccessControl.sol\":6106:6132  _revokeRole(role, account) */\n      jump\t// in\n    tag_228:\n        /* \"@openzeppelin/contracts/access/AccessControl.sol\":5925:6139  function renounceRole(bytes32 role, address account) public virtual override {... */\n      pop\n      pop\n      jump\t// out\n        /* \"@openzeppelin/contracts/governance/TimelockController.sol\":5159:5300  function isOperationPending(bytes32 id) public view virtual returns (bool pending) {... */\n    tag_105:\n        /* \"@openzeppelin/contracts/governance/TimelockController.sol\":5228:5240  bool pending */\n      0x00\n        /* \"@openzeppelin/contracts/governance/TimelockController.sol\":1470:1471  1 */\n      0x01\n        /* \"@openzeppelin/contracts/governance/TimelockController.sol\":5259:5275  getTimestamp(id) */\n      tag_231\n        /* \"@openzeppelin/contracts/governance/TimelockController.sol\":5272:5274  id */\n      dup4\n        /* \"@openzeppelin/contracts/governance/TimelockController.sol\":5259:5271  getTimestamp */\n      tag_158\n        /* \"@openzeppelin/contracts/governance/TimelockController.sol\":5259:5275  getTimestamp(id) */\n      jump\t// in\n    tag_231:\n        /* \"@openzeppelin/contracts/governance/TimelockController.sol\":5259:5293  getTimestamp(id) > _DONE_TIMESTAMP */\n      gt\n        /* \"@openzeppelin/contracts/governance/TimelockController.sol\":5252:5293  return getTimestamp(id) > _DONE_TIMESTAMP */\n      swap1\n      pop\n        /* \"@openzeppelin/contracts/governance/TimelockController.sol\":5159:5300  function isOperationPending(bytes32 id) public view virtual returns (bool pending) {... */\n      swap2\n      swap1\n      pop\n      jump\t// out\n        /* \"@openzeppelin/contracts/governance/TimelockController.sol\":12956:13192  function updateDelay(uint256 newDelay) external virtual {... */\n    tag_111:\n        /* \"@openzeppelin/contracts/governance/TimelockController.sol\":13052:13056  this */\n      address\n        /* \"@openzeppelin/contracts/governance/TimelockController.sol\":13030:13057  msg.sender == address(this) */\n      0xffffffffffffffffffffffffffffffffffffffff\n      and\n        /* \"@openzeppelin/contracts/governance/TimelockController.sol\":13030:13040  msg.sender */\n      caller\n        /* \"@openzeppelin/contracts/governance/TimelockController.sol\":13030:13057  msg.sender == address(this) */\n      0xffffffffffffffffffffffffffffffffffffffff\n      and\n      eq\n        /* \"@openzeppelin/contracts/governance/TimelockController.sol\":13022:13105  require(msg.sender == address(this), \"TimelockController: caller must be timelock\") */\n      tag_233\n      jumpi\n      mload(0x40)\n      0x08c379a000000000000000000000000000000000000000000000000000000000\n      dup2\n      mstore\n      0x04\n      add\n      tag_234\n      swap1\n      tag_235\n      jump\t// in\n    tag_234:\n      mload(0x40)\n      dup1\n      swap2\n      sub\n      swap1\n      revert\n    tag_233:\n        /* \"@openzeppelin/contracts/governance/TimelockController.sol\":13120:13155  MinDelayChange(_minDelay, newDelay) */\n      0x11c24f4ead16507c69ac467fbd5e4eed5fb5c699626d2cc6d66421df253886d5\n        /* \"@openzeppelin/contracts/governance/TimelockController.sol\":13135:13144  _minDelay */\n      sload(0x02)\n        /* \"@openzeppelin/contracts/governance/TimelockController.sol\":13146:13154  newDelay */\n      dup3\n        /* \"@openzeppelin/contracts/governance/TimelockController.sol\":13120:13155  MinDelayChange(_minDelay, newDelay) */\n      mload(0x40)\n      tag_236\n      swap3\n      swap2\n      swap1\n      tag_237\n      jump\t// in\n    tag_236:\n      mload(0x40)\n      dup1\n      swap2\n      sub\n      swap1\n      log1\n        /* \"@openzeppelin/contracts/governance/TimelockController.sol\":13177:13185  newDelay */\n      dup1\n        /* \"@openzeppelin/contracts/governance/TimelockController.sol\":13165:13174  _minDelay */\n      0x02\n        /* \"@openzeppelin/contracts/governance/TimelockController.sol\":13165:13185  _minDelay = newDelay */\n      dup2\n      swap1\n      sstore\n      pop\n        /* \"@openzeppelin/contracts/governance/TimelockController.sol\":12956:13192  function updateDelay(uint256 newDelay) external virtual {... */\n      pop\n      jump\t// out\n        /* \"@openzeppelin/contracts/governance/TimelockController.sol\":6473:6757  function hashOperation(... */\n    tag_115:\n        /* \"@openzeppelin/contracts/governance/TimelockController.sol\":6658:6670  bytes32 hash */\n      0x00\n        /* \"@openzeppelin/contracts/governance/TimelockController.sol\":6710:6716  target */\n      dup7\n        /* \"@openzeppelin/contracts/governance/TimelockController.sol\":6718:6723  value */\n      dup7\n        /* \"@openzeppelin/contracts/governance/TimelockController.sol\":6725:6729  data */\n      dup7\n      dup7\n        /* \"@openzeppelin/contracts/governance/TimelockController.sol\":6731:6742  predecessor */\n      dup7\n        /* \"@openzeppelin/contracts/governance/TimelockController.sol\":6744:6748  salt */\n      dup7\n        /* \"@openzeppelin/contracts/governance/TimelockController.sol\":6699:6749  abi.encode(target, value, data, predecessor, salt) */\n      add(0x20, mload(0x40))\n      tag_239\n      swap7\n      swap6\n      swap5\n      swap4\n      swap3\n      swap2\n      swap1\n      tag_240\n      jump\t// in\n    tag_239:\n      mload(0x40)\n      0x20\n      dup2\n      dup4\n      sub\n      sub\n      dup2\n      mstore\n      swap1\n      0x40\n      mstore\n        /* \"@openzeppelin/contracts/governance/TimelockController.sol\":6689:6750  keccak256(abi.encode(target, value, data, predecessor, salt)) */\n      dup1\n      mload\n      swap1\n      0x20\n      add\n      keccak256\n        /* \"@openzeppelin/contracts/governance/TimelockController.sol\":6682:6750  return keccak256(abi.encode(target, value, data, predecessor, salt)) */\n      swap1\n      pop\n        /* \"@openzeppelin/contracts/governance/TimelockController.sol\":6473:6757  function hashOperation(... */\n      swap7\n      swap6\n      pop\n      pop\n      pop\n      pop\n      pop\n      pop\n      jump\t// out\n        /* \"@openzeppelin/contracts/governance/TimelockController.sol\":8074:8787  function scheduleBatch(... */\n    tag_121:\n        /* \"@openzeppelin/contracts/governance/TimelockController.sol\":1240:1266  keccak256(\"PROPOSER_ROLE\") */\n      0xb09aa5aeb3702cfd50b6b62bc4532604938f21248a27a1d5ca736082b6819cc1\n        /* \"@openzeppelin/contracts/access/AccessControl.sol\":2505:2521  _checkRole(role) */\n      tag_242\n        /* \"@openzeppelin/contracts/access/AccessControl.sol\":2516:2520  role */\n      dup2\n        /* \"@openzeppelin/contracts/access/AccessControl.sol\":2505:2515  _checkRole */\n      tag_180\n        /* \"@openzeppelin/contracts/access/AccessControl.sol\":2505:2521  _checkRole(role) */\n      jump\t// in\n    tag_242:\n        /* \"@openzeppelin/contracts/governance/TimelockController.sol\":8358:8364  values */\n      dup8\n      dup8\n        /* \"@openzeppelin/contracts/governance/TimelockController.sol\":8358:8371  values.length */\n      swap1\n      pop\n        /* \"@openzeppelin/contracts/governance/TimelockController.sol\":8340:8347  targets */\n      dup11\n      dup11\n        /* \"@openzeppelin/contracts/governance/TimelockController.sol\":8340:8354  targets.length */\n      swap1\n      pop\n        /* \"@openzeppelin/contracts/governance/TimelockController.sol\":8340:8371  targets.length == values.length */\n      eq\n        /* \"@openzeppelin/contracts/governance/TimelockController.sol\":8332:8411  require(targets.length == values.length, \"TimelockController: length mismatch\") */\n      tag_244\n      jumpi\n      mload(0x40)\n      0x08c379a000000000000000000000000000000000000000000000000000000000\n      dup2\n      mstore\n      0x04\n      add\n      tag_245\n      swap1\n      tag_246\n      jump\t// in\n    tag_245:\n      mload(0x40)\n      dup1\n      swap2\n      sub\n      swap1\n      revert\n    tag_244:\n        /* \"@openzeppelin/contracts/governance/TimelockController.sol\":8447:8455  payloads */\n      dup6\n      dup6\n        /* \"@openzeppelin/contracts/governance/TimelockController.sol\":8447:8462  payloads.length */\n      swap1\n      pop\n        /* \"@openzeppelin/contracts/governance/TimelockController.sol\":8429:8436  targets */\n      dup11\n      dup11\n        /* \"@openzeppelin/contracts/governance/TimelockController.sol\":8429:8443  targets.length */\n      swap1\n      pop\n        /* \"@openzeppelin/contracts/governance/TimelockController.sol\":8429:8462  targets.length == payloads.length */\n      eq\n        /* \"@openzeppelin/contracts/governance/TimelockController.sol\":8421:8502  require(targets.length == payloads.length, \"TimelockController: length mismatch\") */\n      tag_247\n      jumpi\n      mload(0x40)\n      0x08c379a000000000000000000000000000000000000000000000000000000000\n      dup2\n      mstore\n      0x04\n      add\n      tag_248\n      swap1\n      tag_246\n      jump\t// in\n    tag_248:\n      mload(0x40)\n      dup1\n      swap2\n      sub\n      swap1\n      revert\n    tag_247:\n        /* \"@openzeppelin/contracts/governance/TimelockController.sol\":8513:8523  bytes32 id */\n      0x00\n        /* \"@openzeppelin/contracts/governance/TimelockController.sol\":8526:8590  hashOperationBatch(targets, values, payloads, predecessor, salt) */\n      tag_249\n        /* \"@openzeppelin/contracts/governance/TimelockController.sol\":8545:8552  targets */\n      dup12\n      dup12\n        /* \"@openzeppelin/contracts/governance/TimelockController.sol\":8554:8560  values */\n      dup12\n      dup12\n        /* \"@openzeppelin/contracts/governance/TimelockController.sol\":8562:8570  payloads */\n      dup12\n      dup12\n        /* \"@openzeppelin/contracts/governance/TimelockController.sol\":8572:8583  predecessor */\n      dup12\n        /* \"@openzeppelin/contracts/governance/TimelockController.sol\":8585:8589  salt */\n      dup12\n        /* \"@openzeppelin/contracts/governance/TimelockController.sol\":8526:8544  hashOperationBatch */\n      tag_143\n        /* \"@openzeppelin/contracts/governance/TimelockController.sol\":8526:8590  hashOperationBatch(targets, values, payloads, predecessor, salt) */\n      jump\t// in\n    tag_249:\n        /* \"@openzeppelin/contracts/governance/TimelockController.sol\":8513:8590  bytes32 id = hashOperationBatch(targets, values, payloads, predecessor, salt) */\n      swap1\n      pop\n        /* \"@openzeppelin/contracts/governance/TimelockController.sol\":8600:8620  _schedule(id, delay) */\n      tag_250\n        /* \"@openzeppelin/contracts/governance/TimelockController.sol\":8610:8612  id */\n      dup2\n        /* \"@openzeppelin/contracts/governance/TimelockController.sol\":8614:8619  delay */\n      dup5\n        /* \"@openzeppelin/contracts/governance/TimelockController.sol\":8600:8609  _schedule */\n      tag_184\n        /* \"@openzeppelin/contracts/governance/TimelockController.sol\":8600:8620  _schedule(id, delay) */\n      jump\t// in\n    tag_250:\n        /* \"@openzeppelin/contracts/governance/TimelockController.sol\":8635:8644  uint256 i */\n      0x00\n        /* \"@openzeppelin/contracts/governance/TimelockController.sol\":8630:8781  for (uint256 i = 0; i < targets.length; ++i) {... */\n    tag_251:\n        /* \"@openzeppelin/contracts/governance/TimelockController.sol\":8654:8661  targets */\n      dup12\n      dup12\n        /* \"@openzeppelin/contracts/governance/TimelockController.sol\":8654:8668  targets.length */\n      swap1\n      pop\n        /* \"@openzeppelin/contracts/governance/TimelockController.sol\":8650:8651  i */\n      dup2\n        /* \"@openzeppelin/contracts/governance/TimelockController.sol\":8650:8668  i < targets.length */\n      lt\n        /* \"@openzeppelin/contracts/governance/TimelockController.sol\":8630:8781  for (uint256 i = 0; i < targets.length; ++i) {... */\n      iszero\n      tag_252\n      jumpi\n        /* \"@openzeppelin/contracts/governance/TimelockController.sol\":8712:8713  i */\n      dup1\n        /* \"@openzeppelin/contracts/governance/TimelockController.sol\":8708:8710  id */\n      dup3\n        /* \"@openzeppelin/contracts/governance/TimelockController.sol\":8694:8770  CallScheduled(id, i, targets[i], values[i], payloads[i], predecessor, delay) */\n      0x4cf4410cc57040e44862ef0f45f3dd5a5e02db8eb8add648d4b0e236f1d07dca\n        /* \"@openzeppelin/contracts/governance/TimelockController.sol\":8715:8722  targets */\n      dup15\n      dup15\n        /* \"@openzeppelin/contracts/governance/TimelockController.sol\":8723:8724  i */\n      dup6\n        /* \"@openzeppelin/contracts/governance/TimelockController.sol\":8715:8725  targets[i] */\n      dup2\n      dup2\n      lt\n      tag_254\n      jumpi\n      tag_255\n      tag_256\n      jump\t// in\n    tag_255:\n    tag_254:\n      swap1\n      pop\n      0x20\n      mul\n      add\n      0x20\n      dup2\n      add\n      swap1\n      tag_257\n      swap2\n      swap1\n      tag_258\n      jump\t// in\n    tag_257:\n        /* \"@openzeppelin/contracts/governance/TimelockController.sol\":8727:8733  values */\n      dup14\n      dup14\n        /* \"@openzeppelin/contracts/governance/TimelockController.sol\":8734:8735  i */\n      dup7\n        /* \"@openzeppelin/contracts/governance/TimelockController.sol\":8727:8736  values[i] */\n      dup2\n      dup2\n      lt\n      tag_259\n      jumpi\n      tag_260\n      tag_256\n      jump\t// in\n    tag_260:\n    tag_259:\n      swap1\n      pop\n      0x20\n      mul\n      add\n      calldataload\n        /* \"@openzeppelin/contracts/governance/TimelockController.sol\":8738:8746  payloads */\n      dup13\n      dup13\n        /* \"@openzeppelin/contracts/governance/TimelockController.sol\":8747:8748  i */\n      dup8\n        /* \"@openzeppelin/contracts/governance/TimelockController.sol\":8738:8749  payloads[i] */\n      dup2\n      dup2\n      lt\n      tag_261\n      jumpi\n      tag_262\n      tag_256\n      jump\t// in\n    tag_262:\n    tag_261:\n      swap1\n      pop\n      0x20\n      mul\n      dup2\n      add\n      swap1\n      tag_263\n      swap2\n      swap1\n      tag_264\n      jump\t// in\n    tag_263:\n        /* \"@openzeppelin/contracts/governance/TimelockController.sol\":8751:8762  predecessor */\n      dup13\n        /* \"@openzeppelin/contracts/governance/TimelockController.sol\":8764:8769  delay */\n      dup12\n        /* \"@openzeppelin/contracts/governance/TimelockController.sol\":8694:8770  CallScheduled(id, i, targets[i], values[i], payloads[i], predecessor, delay) */\n      mload(0x40)\n      tag_265\n      swap7\n      swap6\n      swap5\n      swap4\n      swap3\n      swap2\n      swap1\n      tag_186\n      jump\t// in\n    tag_265:\n      mload(0x40)\n      dup1\n      swap2\n      sub\n      swap1\n      log3\n        /* \"@openzeppelin/contracts/governance/TimelockController.sol\":8670:8673  ++i */\n      dup1\n      tag_266\n      swap1\n      tag_267\n      jump\t// in\n    tag_266:\n      swap1\n      pop\n        /* \"@openzeppelin/contracts/governance/TimelockController.sol\":8630:8781  for (uint256 i = 0; i < targets.length; ++i) {... */\n      jump(tag_251)\n    tag_252:\n      pop\n        /* \"@openzeppelin/contracts/governance/TimelockController.sol\":8322:8787  {... */\n      pop\n        /* \"@openzeppelin/contracts/governance/TimelockController.sol\":8074:8787  function scheduleBatch(... */\n      pop\n      pop\n      pop\n      pop\n      pop\n      pop\n      pop\n      pop\n      pop\n      pop\n      jump\t// out\n        /* \"@openzeppelin/contracts/governance/TimelockController.sol\":1200:1266  bytes32 public constant PROPOSER_ROLE = keccak256(\"PROPOSER_ROLE\") */\n    tag_124:\n        /* \"@openzeppelin/contracts/governance/TimelockController.sol\":1240:1266  keccak256(\"PROPOSER_ROLE\") */\n      0xb09aa5aeb3702cfd50b6b62bc4532604938f21248a27a1d5ca736082b6819cc1\n        /* \"@openzeppelin/contracts/governance/TimelockController.sol\":1200:1266  bytes32 public constant PROPOSER_ROLE = keccak256(\"PROPOSER_ROLE\") */\n      dup2\n      jump\t// out\n        /* \"@openzeppelin/contracts/access/AccessControl.sol\":2895:3040  function hasRole(bytes32 role, address account) public view virtual override returns (bool) {... */\n    tag_129:\n        /* \"@openzeppelin/contracts/access/AccessControl.sol\":2981:2985  bool */\n      0x00\n        /* \"@openzeppelin/contracts/access/AccessControl.sol\":3004:3010  _roles */\n      dup1\n        /* \"@openzeppelin/contracts/access/AccessControl.sol\":3004:3016  _roles[role] */\n      0x00\n        /* \"@openzeppelin/contracts/access/AccessControl.sol\":3011:3015  role */\n      dup5\n        /* \"@openzeppelin/contracts/access/AccessControl.sol\":3004:3016  _roles[role] */\n      dup2\n      mstore\n      0x20\n      add\n      swap1\n      dup2\n      mstore\n      0x20\n      add\n      0x00\n      keccak256\n        /* \"@openzeppelin/contracts/access/AccessControl.sol\":3004:3024  _roles[role].members */\n      0x00\n      add\n        /* \"@openzeppelin/contracts/access/AccessControl.sol\":3004:3033  _roles[role].members[account] */\n      0x00\n        /* \"@openzeppelin/contracts/access/AccessControl.sol\":3025:3032  account */\n      dup4\n        /* \"@openzeppelin/contracts/access/AccessControl.sol\":3004:3033  _roles[role].members[account] */\n      0xffffffffffffffffffffffffffffffffffffffff\n      and\n      0xffffffffffffffffffffffffffffffffffffffff\n      and\n      dup2\n      mstore\n      0x20\n      add\n      swap1\n      dup2\n      mstore\n      0x20\n      add\n      0x00\n      keccak256\n      0x00\n      swap1\n      sload\n      swap1\n      0x0100\n      exp\n      swap1\n      div\n      0xff\n      and\n        /* \"@openzeppelin/contracts/access/AccessControl.sol\":2997:3033  return _roles[role].members[account] */\n      swap1\n      pop\n        /* \"@openzeppelin/contracts/access/AccessControl.sol\":2895:3040  function hasRole(bytes32 role, address account) public view virtual override returns (bool) {... */\n      swap3\n      swap2\n      pop\n      pop\n      jump\t// out\n        /* \"@openzeppelin/contracts/access/AccessControl.sol\":2027:2076  bytes32 public constant DEFAULT_ADMIN_ROLE = 0x00 */\n    tag_133:\n        /* \"@openzeppelin/contracts/access/AccessControl.sol\":2072:2076  0x00 */\n      0x00\n        /* \"@openzeppelin/contracts/access/AccessControl.sol\":2027:2076  bytes32 public constant DEFAULT_ADMIN_ROLE = 0x00 */\n      dup1\n      shl\n      dup2\n      jump\t// out\n        /* \"@openzeppelin/contracts/governance/TimelockController.sol\":1344:1412  bytes32 public constant CANCELLER_ROLE = keccak256(\"CANCELLER_ROLE\") */\n    tag_137:\n        /* \"@openzeppelin/contracts/governance/TimelockController.sol\":1385:1412  keccak256(\"CANCELLER_ROLE\") */\n      0xfd643c72710c63c0180259aba6b2d05451e3591a24e58b62239378085726f783\n        /* \"@openzeppelin/contracts/governance/TimelockController.sol\":1344:1412  bytes32 public constant CANCELLER_ROLE = keccak256(\"CANCELLER_ROLE\") */\n      dup2\n      jump\t// out\n        /* \"@openzeppelin/contracts/governance/TimelockController.sol\":6873:7198  function hashOperationBatch(... */\n    tag_143:\n        /* \"@openzeppelin/contracts/governance/TimelockController.sol\":7093:7105  bytes32 hash */\n      0x00\n        /* \"@openzeppelin/contracts/governance/TimelockController.sol\":7145:7152  targets */\n      dup9\n      dup9\n        /* \"@openzeppelin/contracts/governance/TimelockController.sol\":7154:7160  values */\n      dup9\n      dup9\n        /* \"@openzeppelin/contracts/governance/TimelockController.sol\":7162:7170  payloads */\n      dup9\n      dup9\n        /* \"@openzeppelin/contracts/governance/TimelockController.sol\":7172:7183  predecessor */\n      dup9\n        /* \"@openzeppelin/contracts/governance/TimelockController.sol\":7185:7189  salt */\n      dup9\n        /* \"@openzeppelin/contracts/governance/TimelockController.sol\":7134:7190  abi.encode(targets, values, payloads, predecessor, salt) */\n      add(0x20, mload(0x40))\n      tag_270\n      swap9\n      swap8\n      swap7\n      swap6\n      swap5\n      swap4\n      swap3\n      swap2\n      swap1\n      tag_271\n      jump\t// in\n    tag_270:\n      mload(0x40)\n      0x20\n      dup2\n      dup4\n      sub\n      sub\n      dup2\n      mstore\n      swap1\n      0x40\n      mstore\n        /* \"@openzeppelin/contracts/governance/TimelockController.sol\":7124:7191  keccak256(abi.encode(targets, values, payloads, predecessor, salt)) */\n      dup1\n      mload\n      swap1\n      0x20\n      add\n      keccak256\n        /* \"@openzeppelin/contracts/governance/TimelockController.sol\":7117:7191  return keccak256(abi.encode(targets, values, payloads, predecessor, salt)) */\n      swap1\n      pop\n        /* \"@openzeppelin/contracts/governance/TimelockController.sol\":6873:7198  function hashOperationBatch(... */\n      swap9\n      swap8\n      pop\n      pop\n      pop\n      pop\n      pop\n      pop\n      pop\n      pop\n      jump\t// out\n        /* \"@openzeppelin/contracts/governance/TimelockController.sol\":13842:14089  function onERC1155BatchReceived(... */\n    tag_149:\n        /* \"@openzeppelin/contracts/governance/TimelockController.sol\":14021:14027  bytes4 */\n      0x00\n        /* \"@openzeppelin/contracts/governance/TimelockController.sol\":14046:14082  this.onERC1155BatchReceived.selector */\n      shl(0xe0, 0xbc197c81)\n        /* \"@openzeppelin/contracts/governance/TimelockController.sol\":14039:14082  return this.onERC1155BatchReceived.selector */\n      swap1\n      pop\n        /* \"@openzeppelin/contracts/governance/TimelockController.sol\":13842:14089  function onERC1155BatchReceived(... */\n      swap6\n      swap5\n      pop\n      pop\n      pop\n      pop\n      pop\n      jump\t// out\n        /* \"@openzeppelin/contracts/governance/TimelockController.sol\":9312:9542  function cancel(bytes32 id) public virtual onlyRole(CANCELLER_ROLE) {... */\n    tag_154:\n        /* \"@openzeppelin/contracts/governance/TimelockController.sol\":1385:1412  keccak256(\"CANCELLER_ROLE\") */\n      0xfd643c72710c63c0180259aba6b2d05451e3591a24e58b62239378085726f783\n        /* \"@openzeppelin/contracts/access/AccessControl.sol\":2505:2521  _checkRole(role) */\n      tag_274\n        /* \"@openzeppelin/contracts/access/AccessControl.sol\":2516:2520  role */\n      dup2\n        /* \"@openzeppelin/contracts/access/AccessControl.sol\":2505:2515  _checkRole */\n      tag_180\n        /* \"@openzeppelin/contracts/access/AccessControl.sol\":2505:2521  _checkRole(role) */\n      jump\t// in\n    tag_274:\n        /* \"@openzeppelin/contracts/governance/TimelockController.sol\":9398:9420  isOperationPending(id) */\n      tag_276\n        /* \"@openzeppelin/contracts/governance/TimelockController.sol\":9417:9419  id */\n      dup3\n        /* \"@openzeppelin/contracts/governance/TimelockController.sol\":9398:9416  isOperationPending */\n      tag_105\n        /* \"@openzeppelin/contracts/governance/TimelockController.sol\":9398:9420  isOperationPending(id) */\n      jump\t// in\n    tag_276:\n        /* \"@openzeppelin/contracts/governance/TimelockController.sol\":9390:9474  require(isOperationPending(id), \"TimelockController: operation cannot be cancelled\") */\n      tag_277\n      jumpi\n      mload(0x40)\n      0x08c379a000000000000000000000000000000000000000000000000000000000\n      dup2\n      mstore\n      0x04\n      add\n      tag_278\n      swap1\n      tag_279\n      jump\t// in\n    tag_278:\n      mload(0x40)\n      dup1\n      swap2\n      sub\n      swap1\n      revert\n    tag_277:\n        /* \"@openzeppelin/contracts/governance/TimelockController.sol\":9491:9502  _timestamps */\n      0x01\n        /* \"@openzeppelin/contracts/governance/TimelockController.sol\":9491:9506  _timestamps[id] */\n      0x00\n        /* \"@openzeppelin/contracts/governance/TimelockController.sol\":9503:9505  id */\n      dup4\n        /* \"@openzeppelin/contracts/governance/TimelockController.sol\":9491:9506  _timestamps[id] */\n      dup2\n      mstore\n      0x20\n      add\n      swap1\n      dup2\n      mstore\n      0x20\n      add\n      0x00\n      keccak256\n        /* \"@openzeppelin/contracts/governance/TimelockController.sol\":9484:9506  delete _timestamps[id] */\n      0x00\n      swap1\n      sstore\n        /* \"@openzeppelin/contracts/governance/TimelockController.sol\":9532:9534  id */\n      dup2\n        /* \"@openzeppelin/contracts/governance/TimelockController.sol\":9522:9535  Cancelled(id) */\n      0xbaa1eb22f2a492ba1a5fea61b8df4d27c6c8b5f3971e63bb58fa14ff72eedb70\n      mload(0x40)\n      mload(0x40)\n      dup1\n      swap2\n      sub\n      swap1\n      log2\n        /* \"@openzeppelin/contracts/governance/TimelockController.sol\":9312:9542  function cancel(bytes32 id) public virtual onlyRole(CANCELLER_ROLE) {... */\n      pop\n      pop\n      jump\t// out\n        /* \"@openzeppelin/contracts/governance/TimelockController.sol\":5950:6071  function getTimestamp(bytes32 id) public view virtual returns (uint256 timestamp) {... */\n    tag_158:\n        /* \"@openzeppelin/contracts/governance/TimelockController.sol\":6013:6030  uint256 timestamp */\n      0x00\n        /* \"@openzeppelin/contracts/governance/TimelockController.sol\":6049:6060  _timestamps */\n      0x01\n        /* \"@openzeppelin/contracts/governance/TimelockController.sol\":6049:6064  _timestamps[id] */\n      0x00\n        /* \"@openzeppelin/contracts/governance/TimelockController.sol\":6061:6063  id */\n      dup4\n        /* \"@openzeppelin/contracts/governance/TimelockController.sol\":6049:6064  _timestamps[id] */\n      dup2\n      mstore\n      0x20\n      add\n      swap1\n      dup2\n      mstore\n      0x20\n      add\n      0x00\n      keccak256\n      sload\n        /* \"@openzeppelin/contracts/governance/TimelockController.sol\":6042:6064  return _timestamps[id] */\n      swap1\n      pop\n        /* \"@openzeppelin/contracts/governance/TimelockController.sol\":5950:6071  function getTimestamp(bytes32 id) public view virtual returns (uint256 timestamp) {... */\n      swap2\n      swap1\n      pop\n      jump\t// out\n        /* \"@openzeppelin/contracts/access/AccessControl.sol\":5241:5388  function revokeRole(bytes32 role, address account) public virtual override onlyRole(getRoleAdmin(role)) {... */\n    tag_164:\n        /* \"@openzeppelin/contracts/access/AccessControl.sol\":5325:5343  getRoleAdmin(role) */\n      tag_281\n        /* \"@openzeppelin/contracts/access/AccessControl.sol\":5338:5342  role */\n      dup3\n        /* \"@openzeppelin/contracts/access/AccessControl.sol\":5325:5337  getRoleAdmin */\n      tag_81\n        /* \"@openzeppelin/contracts/access/AccessControl.sol\":5325:5343  getRoleAdmin(role) */\n      jump\t// in\n    tag_281:\n        /* \"@openzeppelin/contracts/access/AccessControl.sol\":2505:2521  _checkRole(role) */\n      tag_283\n        /* \"@openzeppelin/contracts/access/AccessControl.sol\":2516:2520  role */\n      dup2\n        /* \"@openzeppelin/contracts/access/AccessControl.sol\":2505:2515  _checkRole */\n      tag_180\n        /* \"@openzeppelin/contracts/access/AccessControl.sol\":2505:2521  _checkRole(role) */\n      jump\t// in\n    tag_283:\n        /* \"@openzeppelin/contracts/access/AccessControl.sol\":5355:5381  _revokeRole(role, account) */\n      tag_285\n        /* \"@openzeppelin/contracts/access/AccessControl.sol\":5367:5371  role */\n      dup4\n        /* \"@openzeppelin/contracts/access/AccessControl.sol\":5373:5380  account */\n      dup4\n        /* \"@openzeppelin/contracts/access/AccessControl.sol\":5355:5366  _revokeRole */\n      tag_229\n        /* \"@openzeppelin/contracts/access/AccessControl.sol\":5355:5381  _revokeRole(role, account) */\n      jump\t// in\n    tag_285:\n        /* \"@openzeppelin/contracts/access/AccessControl.sol\":5241:5388  function revokeRole(bytes32 role, address account) public virtual override onlyRole(getRoleAdmin(role)) {... */\n      pop\n      pop\n      pop\n      jump\t// out\n        /* \"@openzeppelin/contracts/governance/TimelockController.sol\":10735:11618  function executeBatch(... */\n    tag_167:\n        /* \"@openzeppelin/contracts/governance/TimelockController.sol\":1312:1338  keccak256(\"EXECUTOR_ROLE\") */\n      0xd8aa0f3194971a2a116679f7c2090f6939c8d4e01a2a8d7e41d55e5351469e63\n        /* \"@openzeppelin/contracts/governance/TimelockController.sol\":4273:4298  hasRole(role, address(0)) */\n      tag_287\n        /* \"@openzeppelin/contracts/governance/TimelockController.sol\":4281:4285  role */\n      dup2\n        /* \"@openzeppelin/contracts/governance/TimelockController.sol\":4295:4296  0 */\n      0x00\n        /* \"@openzeppelin/contracts/governance/TimelockController.sol\":4273:4280  hasRole */\n      tag_129\n        /* \"@openzeppelin/contracts/governance/TimelockController.sol\":4273:4298  hasRole(role, address(0)) */\n      jump\t// in\n    tag_287:\n        /* \"@openzeppelin/contracts/governance/TimelockController.sol\":4268:4355  if (!hasRole(role, address(0))) {... */\n      tag_288\n      jumpi\n        /* \"@openzeppelin/contracts/governance/TimelockController.sol\":4314:4344  _checkRole(role, _msgSender()) */\n      tag_289\n        /* \"@openzeppelin/contracts/governance/TimelockController.sol\":4325:4329  role */\n      dup2\n        /* \"@openzeppelin/contracts/governance/TimelockController.sol\":4331:4343  _msgSender() */\n      tag_290\n        /* \"@openzeppelin/contracts/governance/TimelockController.sol\":4331:4341  _msgSender */\n      tag_196\n        /* \"@openzeppelin/contracts/governance/TimelockController.sol\":4331:4343  _msgSender() */\n      jump\t// in\n    tag_290:\n        /* \"@openzeppelin/contracts/governance/TimelockController.sol\":4314:4324  _checkRole */\n      tag_197\n        /* \"@openzeppelin/contracts/governance/TimelockController.sol\":4314:4344  _checkRole(role, _msgSender()) */\n      jump\t// in\n    tag_289:\n        /* \"@openzeppelin/contracts/governance/TimelockController.sol\":4268:4355  if (!hasRole(role, address(0))) {... */\n    tag_288:\n        /* \"@openzeppelin/contracts/governance/TimelockController.sol\":11013:11019  values */\n      dup7\n      dup7\n        /* \"@openzeppelin/contracts/governance/TimelockController.sol\":11013:11026  values.length */\n      swap1\n      pop\n        /* \"@openzeppelin/contracts/governance/TimelockController.sol\":10995:11002  targets */\n      dup10\n      dup10\n        /* \"@openzeppelin/contracts/governance/TimelockController.sol\":10995:11009  targets.length */\n      swap1\n      pop\n        /* \"@openzeppelin/contracts/governance/TimelockController.sol\":10995:11026  targets.length == values.length */\n      eq\n        /* \"@openzeppelin/contracts/governance/TimelockController.sol\":10987:11066  require(targets.length == values.length, \"TimelockController: length mismatch\") */\n      tag_292\n      jumpi\n      mload(0x40)\n      0x08c379a000000000000000000000000000000000000000000000000000000000\n      dup2\n      mstore\n      0x04\n      add\n      tag_293\n      swap1\n      tag_246\n      jump\t// in\n    tag_293:\n      mload(0x40)\n      dup1\n      swap2\n      sub\n      swap1\n      revert\n    tag_292:\n        /* \"@openzeppelin/contracts/governance/TimelockController.sol\":11102:11110  payloads */\n      dup5\n      dup5\n        /* \"@openzeppelin/contracts/governance/TimelockController.sol\":11102:11117  payloads.length */\n      swap1\n      pop\n        /* \"@openzeppelin/contracts/governance/TimelockController.sol\":11084:11091  targets */\n      dup10\n      dup10\n        /* \"@openzeppelin/contracts/governance/TimelockController.sol\":11084:11098  targets.length */\n      swap1\n      pop\n        /* \"@openzeppelin/contracts/governance/TimelockController.sol\":11084:11117  targets.length == payloads.length */\n      eq\n        /* \"@openzeppelin/contracts/governance/TimelockController.sol\":11076:11157  require(targets.length == payloads.length, \"TimelockController: length mismatch\") */\n      tag_294\n      jumpi\n      mload(0x40)\n      0x08c379a000000000000000000000000000000000000000000000000000000000\n      dup2\n      mstore\n      0x04\n      add\n      tag_295\n      swap1\n      tag_246\n      jump\t// in\n    tag_295:\n      mload(0x40)\n      dup1\n      swap2\n      sub\n      swap1\n      revert\n    tag_294:\n        /* \"@openzeppelin/contracts/governance/TimelockController.sol\":11168:11178  bytes32 id */\n      0x00\n        /* \"@openzeppelin/contracts/governance/TimelockController.sol\":11181:11245  hashOperationBatch(targets, values, payloads, predecessor, salt) */\n      tag_296\n        /* \"@openzeppelin/contracts/governance/TimelockController.sol\":11200:11207  targets */\n      dup11\n      dup11\n        /* \"@openzeppelin/contracts/governance/TimelockController.sol\":11209:11215  values */\n      dup11\n      dup11\n        /* \"@openzeppelin/contracts/governance/TimelockController.sol\":11217:11225  payloads */\n      dup11\n      dup11\n        /* \"@openzeppelin/contracts/governance/TimelockController.sol\":11227:11238  predecessor */\n      dup11\n        /* \"@openzeppelin/contracts/governance/TimelockController.sol\":11240:11244  salt */\n      dup11\n        /* \"@openzeppelin/contracts/governance/TimelockController.sol\":11181:11199  hashOperationBatch */\n      tag_143\n        /* \"@openzeppelin/contracts/governance/TimelockController.sol\":11181:11245  hashOperationBatch(targets, values, payloads, predecessor, salt) */\n      jump\t// in\n    tag_296:\n        /* \"@openzeppelin/contracts/governance/TimelockController.sol\":11168:11245  bytes32 id = hashOperationBatch(targets, values, payloads, predecessor, salt) */\n      swap1\n      pop\n        /* \"@openzeppelin/contracts/governance/TimelockController.sol\":11256:11284  _beforeCall(id, predecessor) */\n      tag_297\n        /* \"@openzeppelin/contracts/governance/TimelockController.sol\":11268:11270  id */\n      dup2\n        /* \"@openzeppelin/contracts/governance/TimelockController.sol\":11272:11283  predecessor */\n      dup6\n        /* \"@openzeppelin/contracts/governance/TimelockController.sol\":11256:11267  _beforeCall */\n      tag_201\n        /* \"@openzeppelin/contracts/governance/TimelockController.sol\":11256:11284  _beforeCall(id, predecessor) */\n      jump\t// in\n    tag_297:\n        /* \"@openzeppelin/contracts/governance/TimelockController.sol\":11299:11308  uint256 i */\n      0x00\n        /* \"@openzeppelin/contracts/governance/TimelockController.sol\":11294:11588  for (uint256 i = 0; i < targets.length; ++i) {... */\n    tag_298:\n        /* \"@openzeppelin/contracts/governance/TimelockController.sol\":11318:11325  targets */\n      dup11\n      dup11\n        /* \"@openzeppelin/contracts/governance/TimelockController.sol\":11318:11332  targets.length */\n      swap1\n      pop\n        /* \"@openzeppelin/contracts/governance/TimelockController.sol\":11314:11315  i */\n      dup2\n        /* \"@openzeppelin/contracts/governance/TimelockController.sol\":11314:11332  i < targets.length */\n      lt\n        /* \"@openzeppelin/contracts/governance/TimelockController.sol\":11294:11588  for (uint256 i = 0; i < targets.length; ++i) {... */\n      iszero\n      tag_299\n      jumpi\n        /* \"@openzeppelin/contracts/governance/TimelockController.sol\":11353:11367  address target */\n      0x00\n        /* \"@openzeppelin/contracts/governance/TimelockController.sol\":11370:11377  targets */\n      dup12\n      dup12\n        /* \"@openzeppelin/contracts/governance/TimelockController.sol\":11378:11379  i */\n      dup4\n        /* \"@openzeppelin/contracts/governance/TimelockController.sol\":11370:11380  targets[i] */\n      dup2\n      dup2\n      lt\n      tag_301\n      jumpi\n      tag_302\n      tag_256\n      jump\t// in\n    tag_302:\n    tag_301:\n      swap1\n      pop\n      0x20\n      mul\n      add\n      0x20\n      dup2\n      add\n      swap1\n      tag_303\n      swap2\n      swap1\n      tag_258\n      jump\t// in\n    tag_303:\n        /* \"@openzeppelin/contracts/governance/TimelockController.sol\":11353:11380  address target = targets[i] */\n      swap1\n      pop\n        /* \"@openzeppelin/contracts/governance/TimelockController.sol\":11394:11407  uint256 value */\n      0x00\n        /* \"@openzeppelin/contracts/governance/TimelockController.sol\":11410:11416  values */\n      dup11\n      dup11\n        /* \"@openzeppelin/contracts/governance/TimelockController.sol\":11417:11418  i */\n      dup5\n        /* \"@openzeppelin/contracts/governance/TimelockController.sol\":11410:11419  values[i] */\n      dup2\n      dup2\n      lt\n      tag_304\n      jumpi\n      tag_305\n      tag_256\n      jump\t// in\n    tag_305:\n    tag_304:\n      swap1\n      pop\n      0x20\n      mul\n      add\n      calldataload\n        /* \"@openzeppelin/contracts/governance/TimelockController.sol\":11394:11419  uint256 value = values[i] */\n      swap1\n      pop\n        /* \"@openzeppelin/contracts/governance/TimelockController.sol\":11433:11455  bytes calldata payload */\n      calldatasize\n      0x00\n        /* \"@openzeppelin/contracts/governance/TimelockController.sol\":11458:11466  payloads */\n      dup11\n      dup11\n        /* \"@openzeppelin/contracts/governance/TimelockController.sol\":11467:11468  i */\n      dup7\n        /* \"@openzeppelin/contracts/governance/TimelockController.sol\":11458:11469  payloads[i] */\n      dup2\n      dup2\n      lt\n      tag_306\n      jumpi\n      tag_307\n      tag_256\n      jump\t// in\n    tag_307:\n    tag_306:\n      swap1\n      pop\n      0x20\n      mul\n      dup2\n      add\n      swap1\n      tag_308\n      swap2\n      swap1\n      tag_264\n      jump\t// in\n    tag_308:\n        /* \"@openzeppelin/contracts/governance/TimelockController.sol\":11433:11469  bytes calldata payload = payloads[i] */\n      swap2\n      pop\n      swap2\n      pop\n        /* \"@openzeppelin/contracts/governance/TimelockController.sol\":11483:11515  _execute(target, value, payload) */\n      tag_309\n        /* \"@openzeppelin/contracts/governance/TimelockController.sol\":11492:11498  target */\n      dup5\n        /* \"@openzeppelin/contracts/governance/TimelockController.sol\":11500:11505  value */\n      dup5\n        /* \"@openzeppelin/contracts/governance/TimelockController.sol\":11507:11514  payload */\n      dup5\n      dup5\n        /* \"@openzeppelin/contracts/governance/TimelockController.sol\":11483:11491  _execute */\n      tag_203\n        /* \"@openzeppelin/contracts/governance/TimelockController.sol\":11483:11515  _execute(target, value, payload) */\n      jump\t// in\n    tag_309:\n        /* \"@openzeppelin/contracts/governance/TimelockController.sol\":11551:11552  i */\n      dup5\n        /* \"@openzeppelin/contracts/governance/TimelockController.sol\":11547:11549  id */\n      dup7\n        /* \"@openzeppelin/contracts/governance/TimelockController.sol\":11534:11577  CallExecuted(id, i, target, value, payload) */\n      0xc2617efa69bab66782fa219543714338489c4e9e178271560a91b82c3f612b58\n        /* \"@openzeppelin/contracts/governance/TimelockController.sol\":11554:11560  target */\n      dup7\n        /* \"@openzeppelin/contracts/governance/TimelockController.sol\":11562:11567  value */\n      dup7\n        /* \"@openzeppelin/contracts/governance/TimelockController.sol\":11569:11576  payload */\n      dup7\n      dup7\n        /* \"@openzeppelin/contracts/governance/TimelockController.sol\":11534:11577  CallExecuted(id, i, target, value, payload) */\n      mload(0x40)\n      tag_310\n      swap5\n      swap4\n      swap3\n      swap2\n      swap1\n      tag_205\n      jump\t// in\n    tag_310:\n      mload(0x40)\n      dup1\n      swap2\n      sub\n      swap1\n      log3\n        /* \"@openzeppelin/contracts/governance/TimelockController.sol\":11339:11588  {... */\n      pop\n      pop\n      pop\n      pop\n        /* \"@openzeppelin/contracts/governance/TimelockController.sol\":11334:11337  ++i */\n      dup1\n      tag_311\n      swap1\n      tag_267\n      jump\t// in\n    tag_311:\n      swap1\n      pop\n        /* \"@openzeppelin/contracts/governance/TimelockController.sol\":11294:11588  for (uint256 i = 0; i < targets.length; ++i) {... */\n      jump(tag_298)\n    tag_299:\n      pop\n        /* \"@openzeppelin/contracts/governance/TimelockController.sol\":11597:11611  _afterCall(id) */\n      tag_312\n        /* \"@openzeppelin/contracts/governance/TimelockController.sol\":11608:11610  id */\n      dup2\n        /* \"@openzeppelin/contracts/governance/TimelockController.sol\":11597:11607  _afterCall */\n      tag_207\n        /* \"@openzeppelin/contracts/governance/TimelockController.sol\":11597:11611  _afterCall(id) */\n      jump\t// in\n    tag_312:\n        /* \"@openzeppelin/contracts/governance/TimelockController.sol\":10977:11618  {... */\n      pop\n        /* \"@openzeppelin/contracts/governance/TimelockController.sol\":10735:11618  function executeBatch(... */\n      pop\n      pop\n      pop\n      pop\n      pop\n      pop\n      pop\n      pop\n      pop\n      jump\t// out\n        /* \"@openzeppelin/contracts/governance/TimelockController.sol\":13542:13761  function onERC1155Received(... */\n    tag_172:\n        /* \"@openzeppelin/contracts/governance/TimelockController.sol\":13698:13704  bytes4 */\n      0x00\n        /* \"@openzeppelin/contracts/governance/TimelockController.sol\":13723:13754  this.onERC1155Received.selector */\n      shl(0xe0, 0xf23a6e61)\n        /* \"@openzeppelin/contracts/governance/TimelockController.sol\":13716:13754  return this.onERC1155Received.selector */\n      swap1\n      pop\n        /* \"@openzeppelin/contracts/governance/TimelockController.sol\":13542:13761  function onERC1155Received(... */\n      swap6\n      swap5\n      pop\n      pop\n      pop\n      pop\n      pop\n      jump\t// out\n        /* \"@openzeppelin/contracts/governance/TimelockController.sol\":6257:6360  function getMinDelay() public view virtual returns (uint256 duration) {... */\n    tag_176:\n        /* \"@openzeppelin/contracts/governance/TimelockController.sol\":6309:6325  uint256 duration */\n      0x00\n        /* \"@openzeppelin/contracts/governance/TimelockController.sol\":6344:6353  _minDelay */\n      sload(0x02)\n        /* \"@openzeppelin/contracts/governance/TimelockController.sol\":6337:6353  return _minDelay */\n      swap1\n      pop\n        /* \"@openzeppelin/contracts/governance/TimelockController.sol\":6257:6360  function getMinDelay() public view virtual returns (uint256 duration) {... */\n      swap1\n      jump\t// out\n        /* \"@openzeppelin/contracts/access/AccessControl.sol\":3334:3437  function _checkRole(bytes32 role) internal view virtual {... */\n    tag_180:\n        /* \"@openzeppelin/contracts/access/AccessControl.sol\":3400:3430  _checkRole(role, _msgSender()) */\n      tag_316\n        /* \"@openzeppelin/contracts/access/AccessControl.sol\":3411:3415  role */\n      dup2\n        /* \"@openzeppelin/contracts/access/AccessControl.sol\":3417:3429  _msgSender() */\n      tag_317\n        /* \"@openzeppelin/contracts/access/AccessControl.sol\":3417:3427  _msgSender */\n      tag_196\n        /* \"@openzeppelin/contracts/access/AccessControl.sol\":3417:3429  _msgSender() */\n      jump\t// in\n    tag_317:\n        /* \"@openzeppelin/contracts/access/AccessControl.sol\":3400:3410  _checkRole */\n      tag_197\n        /* \"@openzeppelin/contracts/access/AccessControl.sol\":3400:3430  _checkRole(role, _msgSender()) */\n      jump\t// in\n    tag_316:\n        /* \"@openzeppelin/contracts/access/AccessControl.sol\":3334:3437  function _checkRole(bytes32 role) internal view virtual {... */\n      pop\n      jump\t// out\n        /* \"@openzeppelin/contracts/governance/TimelockController.sol\":8889:9170  function _schedule(bytes32 id, uint256 delay) private {... */\n    tag_184:\n        /* \"@openzeppelin/contracts/governance/TimelockController.sol\":8962:8977  isOperation(id) */\n      tag_319\n        /* \"@openzeppelin/contracts/governance/TimelockController.sol\":8974:8976  id */\n      dup3\n        /* \"@openzeppelin/contracts/governance/TimelockController.sol\":8962:8973  isOperation */\n      tag_96\n        /* \"@openzeppelin/contracts/governance/TimelockController.sol\":8962:8977  isOperation(id) */\n      jump\t// in\n    tag_319:\n        /* \"@openzeppelin/contracts/governance/TimelockController.sol\":8961:8977  !isOperation(id) */\n      iszero\n        /* \"@openzeppelin/contracts/governance/TimelockController.sol\":8953:9029  require(!isOperation(id), \"TimelockController: operation already scheduled\") */\n      tag_320\n      jumpi\n      mload(0x40)\n      0x08c379a000000000000000000000000000000000000000000000000000000000\n      dup2\n      mstore\n      0x04\n      add\n      tag_321\n      swap1\n      tag_322\n      jump\t// in\n    tag_321:\n      mload(0x40)\n      dup1\n      swap2\n      sub\n      swap1\n      revert\n    tag_320:\n        /* \"@openzeppelin/contracts/governance/TimelockController.sol\":9056:9069  getMinDelay() */\n      tag_323\n        /* \"@openzeppelin/contracts/governance/TimelockController.sol\":9056:9067  getMinDelay */\n      tag_176\n        /* \"@openzeppelin/contracts/governance/TimelockController.sol\":9056:9069  getMinDelay() */\n      jump\t// in\n    tag_323:\n        /* \"@openzeppelin/contracts/governance/TimelockController.sol\":9047:9052  delay */\n      dup2\n        /* \"@openzeppelin/contracts/governance/TimelockController.sol\":9047:9069  delay >= getMinDelay() */\n      lt\n      iszero\n        /* \"@openzeppelin/contracts/governance/TimelockController.sol\":9039:9112  require(delay >= getMinDelay(), \"TimelockController: insufficient delay\") */\n      tag_324\n      jumpi\n      mload(0x40)\n      0x08c379a000000000000000000000000000000000000000000000000000000000\n      dup2\n      mstore\n      0x04\n      add\n      tag_325\n      swap1\n      tag_326\n      jump\t// in\n    tag_325:\n      mload(0x40)\n      dup1\n      swap2\n      sub\n      swap1\n      revert\n    tag_324:\n        /* \"@openzeppelin/contracts/governance/TimelockController.sol\":9158:9163  delay */\n      dup1\n        /* \"@openzeppelin/contracts/governance/TimelockController.sol\":9140:9155  block.timestamp */\n      timestamp\n        /* \"@openzeppelin/contracts/governance/TimelockController.sol\":9140:9163  block.timestamp + delay */\n      tag_327\n      swap2\n      swap1\n      tag_328\n      jump\t// in\n    tag_327:\n        /* \"@openzeppelin/contracts/governance/TimelockController.sol\":9122:9133  _timestamps */\n      0x01\n        /* \"@openzeppelin/contracts/governance/TimelockController.sol\":9122:9137  _timestamps[id] */\n      0x00\n        /* \"@openzeppelin/contracts/governance/TimelockController.sol\":9134:9136  id */\n      dup5\n        /* \"@openzeppelin/contracts/governance/TimelockController.sol\":9122:9137  _timestamps[id] */\n      dup2\n      mstore\n      0x20\n      add\n      swap1\n      dup2\n      mstore\n      0x20\n      add\n      0x00\n      keccak256\n        /* \"@openzeppelin/contracts/governance/TimelockController.sol\":9122:9163  _timestamps[id] = block.timestamp + delay */\n      dup2\n      swap1\n      sstore\n      pop\n        /* \"@openzeppelin/contracts/governance/TimelockController.sol\":8889:9170  function _schedule(bytes32 id, uint256 delay) private {... */\n      pop\n      pop\n      jump\t// out\n        /* \"@openzeppelin/contracts/access/AccessControl.sol\":2606:2808  function supportsInterface(bytes4 interfaceId) public view virtual override returns (bool) {... */\n    tag_190:\n        /* \"@openzeppelin/contracts/access/AccessControl.sol\":2691:2695  bool */\n      0x00\n        /* \"@openzeppelin/contracts/access/AccessControl.sol\":2729:2761  type(IAccessControl).interfaceId */\n      0x7965db0b00000000000000000000000000000000000000000000000000000000\n        /* \"@openzeppelin/contracts/access/AccessControl.sol\":2714:2761  interfaceId == type(IAccessControl).interfaceId */\n      not(0xffffffffffffffffffffffffffffffffffffffffffffffffffffffff)\n      and\n        /* \"@openzeppelin/contracts/access/AccessControl.sol\":2714:2725  interfaceId */\n      dup3\n        /* \"@openzeppelin/contracts/access/AccessControl.sol\":2714:2761  interfaceId == type(IAccessControl).interfaceId */\n      not(0xffffffffffffffffffffffffffffffffffffffffffffffffffffffff)\n      and\n      eq\n        /* \"@openzeppelin/contracts/access/AccessControl.sol\":2714:2801  interfaceId == type(IAccessControl).interfaceId || super.supportsInterface(interfaceId) */\n      dup1\n      tag_330\n      jumpi\n      pop\n        /* \"@openzeppelin/contracts/access/AccessControl.sol\":2765:2801  super.supportsInterface(interfaceId) */\n      tag_331\n        /* \"@openzeppelin/contracts/access/AccessControl.sol\":2789:2800  interfaceId */\n      dup3\n        /* \"@openzeppelin/contracts/access/AccessControl.sol\":2765:2788  super.supportsInterface */\n      tag_332\n        /* \"@openzeppelin/contracts/access/AccessControl.sol\":2765:2801  super.supportsInterface(interfaceId) */\n      jump\t// in\n    tag_331:\n        /* \"@openzeppelin/contracts/access/AccessControl.sol\":2714:2801  interfaceId == type(IAccessControl).interfaceId || super.supportsInterface(interfaceId) */\n    tag_330:\n        /* \"@openzeppelin/contracts/access/AccessControl.sol\":2707:2801  return interfaceId == type(IAccessControl).interfaceId || super.supportsInterface(interfaceId) */\n      swap1\n      pop\n        /* \"@openzeppelin/contracts/access/AccessControl.sol\":2606:2808  function supportsInterface(bytes4 interfaceId) public view virtual override returns (bool) {... */\n      swap2\n      swap1\n      pop\n      jump\t// out\n        /* \"@openzeppelin/contracts/utils/Context.sol\":640:736  function _msgSender() internal view virtual returns (address) {... */\n    tag_196:\n        /* \"@openzeppelin/contracts/utils/Context.sol\":693:700  address */\n      0x00\n        /* \"@openzeppelin/contracts/utils/Context.sol\":719:729  msg.sender */\n      caller\n        /* \"@openzeppelin/contracts/utils/Context.sol\":712:729  return msg.sender */\n      swap1\n      pop\n        /* \"@openzeppelin/contracts/utils/Context.sol\":640:736  function _msgSender() internal view virtual returns (address) {... */\n      swap1\n      jump\t// out\n        /* \"@openzeppelin/contracts/access/AccessControl.sol\":3718:4210  function _checkRole(bytes32 role, address account) internal view virtual {... */\n    tag_197:\n        /* \"@openzeppelin/contracts/access/AccessControl.sol\":3806:3828  hasRole(role, account) */\n      tag_335\n        /* \"@openzeppelin/contracts/access/AccessControl.sol\":3814:3818  role */\n      dup3\n        /* \"@openzeppelin/contracts/access/AccessControl.sol\":3820:3827  account */\n      dup3\n        /* \"@openzeppelin/contracts/access/AccessControl.sol\":3806:3813  hasRole */\n      tag_129\n        /* \"@openzeppelin/contracts/access/AccessControl.sol\":3806:3828  hasRole(role, account) */\n      jump\t// in\n    tag_335:\n        /* \"@openzeppelin/contracts/access/AccessControl.sol\":3801:4204  if (!hasRole(role, account)) {... */\n      tag_336\n      jumpi\n        /* \"@openzeppelin/contracts/access/AccessControl.sol\":3989:4030  Strings.toHexString(uint160(account), 20) */\n      tag_337\n        /* \"@openzeppelin/contracts/access/AccessControl.sol\":4017:4024  account */\n      dup2\n        /* \"@openzeppelin/contracts/access/AccessControl.sol\":3989:4030  Strings.toHexString(uint160(account), 20) */\n      0xffffffffffffffffffffffffffffffffffffffff\n      and\n        /* \"@openzeppelin/contracts/access/AccessControl.sol\":4027:4029  20 */\n      0x14\n        /* \"@openzeppelin/contracts/access/AccessControl.sol\":3989:4008  Strings.toHexString */\n      tag_338\n        /* \"@openzeppelin/contracts/access/AccessControl.sol\":3989:4030  Strings.toHexString(uint160(account), 20) */\n      jump\t// in\n    tag_337:\n        /* \"@openzeppelin/contracts/access/AccessControl.sol\":4101:4139  Strings.toHexString(uint256(role), 32) */\n      tag_339\n        /* \"@openzeppelin/contracts/access/AccessControl.sol\":4129:4133  role */\n      dup4\n        /* \"@openzeppelin/contracts/access/AccessControl.sol\":4121:4134  uint256(role) */\n      0x00\n      shr\n        /* \"@openzeppelin/contracts/access/AccessControl.sol\":4136:4138  32 */\n      0x20\n        /* \"@openzeppelin/contracts/access/AccessControl.sol\":4101:4120  Strings.toHexString */\n      tag_338\n        /* \"@openzeppelin/contracts/access/AccessControl.sol\":4101:4139  Strings.toHexString(uint256(role), 32) */\n      jump\t// in\n    tag_339:\n        /* \"@openzeppelin/contracts/access/AccessControl.sol\":3896:4161  abi.encodePacked(... */\n      add(0x20, mload(0x40))\n      tag_340\n      swap3\n      swap2\n      swap1\n      tag_341\n      jump\t// in\n    tag_340:\n      mload(0x40)\n      0x20\n      dup2\n      dup4\n      sub\n      sub\n      dup2\n      mstore\n      swap1\n      0x40\n      mstore\n        /* \"@openzeppelin/contracts/access/AccessControl.sol\":3844:4193  revert(... */\n      mload(0x40)\n      0x08c379a000000000000000000000000000000000000000000000000000000000\n      dup2\n      mstore\n      0x04\n      add\n      tag_342\n      swap2\n      swap1\n      tag_343\n      jump\t// in\n    tag_342:\n      mload(0x40)\n      dup1\n      swap2\n      sub\n      swap1\n      revert\n        /* \"@openzeppelin/contracts/access/AccessControl.sol\":3801:4204  if (!hasRole(role, account)) {... */\n    tag_336:\n        /* \"@openzeppelin/contracts/access/AccessControl.sol\":3718:4210  function _checkRole(bytes32 role, address account) internal view virtual {... */\n      pop\n      pop\n      jump\t// out\n        /* \"@openzeppelin/contracts/governance/TimelockController.sol\":12029:12306  function _beforeCall(bytes32 id, bytes32 predecessor) private view {... */\n    tag_201:\n        /* \"@openzeppelin/contracts/governance/TimelockController.sol\":12114:12134  isOperationReady(id) */\n      tag_345\n        /* \"@openzeppelin/contracts/governance/TimelockController.sol\":12131:12133  id */\n      dup3\n        /* \"@openzeppelin/contracts/governance/TimelockController.sol\":12114:12130  isOperationReady */\n      tag_69\n        /* \"@openzeppelin/contracts/governance/TimelockController.sol\":12114:12134  isOperationReady(id) */\n      jump\t// in\n    tag_345:\n        /* \"@openzeppelin/contracts/governance/TimelockController.sol\":12106:12181  require(isOperationReady(id), \"TimelockController: operation is not ready\") */\n      tag_346\n      jumpi\n      mload(0x40)\n      0x08c379a000000000000000000000000000000000000000000000000000000000\n      dup2\n      mstore\n      0x04\n      add\n      tag_347\n      swap1\n      tag_348\n      jump\t// in\n    tag_347:\n      mload(0x40)\n      dup1\n      swap2\n      sub\n      swap1\n      revert\n    tag_346:\n        /* \"@openzeppelin/contracts/governance/TimelockController.sol\":12222:12223  0 */\n      0x00\n        /* \"@openzeppelin/contracts/governance/TimelockController.sol\":12214:12224  bytes32(0) */\n      dup1\n      shl\n        /* \"@openzeppelin/contracts/governance/TimelockController.sol\":12199:12210  predecessor */\n      dup2\n        /* \"@openzeppelin/contracts/governance/TimelockController.sol\":12199:12224  predecessor == bytes32(0) */\n      eq\n        /* \"@openzeppelin/contracts/governance/TimelockController.sol\":12199:12256  predecessor == bytes32(0) || isOperationDone(predecessor) */\n      dup1\n      tag_349\n      jumpi\n      pop\n        /* \"@openzeppelin/contracts/governance/TimelockController.sol\":12228:12256  isOperationDone(predecessor) */\n      tag_350\n        /* \"@openzeppelin/contracts/governance/TimelockController.sol\":12244:12255  predecessor */\n      dup2\n        /* \"@openzeppelin/contracts/governance/TimelockController.sol\":12228:12243  isOperationDone */\n      tag_86\n        /* \"@openzeppelin/contracts/governance/TimelockController.sol\":12228:12256  isOperationDone(predecessor) */\n      jump\t// in\n    tag_350:\n        /* \"@openzeppelin/contracts/governance/TimelockController.sol\":12199:12256  predecessor == bytes32(0) || isOperationDone(predecessor) */\n    tag_349:\n        /* \"@openzeppelin/contracts/governance/TimelockController.sol\":12191:12299  require(predecessor == bytes32(0) || isOperationDone(predecessor), \"TimelockController: missing dependency\") */\n      tag_351\n      jumpi\n      mload(0x40)\n      0x08c379a000000000000000000000000000000000000000000000000000000000\n      dup2\n      mstore\n      0x04\n      add\n      tag_352\n      swap1\n      tag_353\n      jump\t// in\n    tag_352:\n      mload(0x40)\n      dup1\n      swap2\n      sub\n      swap1\n      revert\n    tag_351:\n        /* \"@openzeppelin/contracts/governance/TimelockController.sol\":12029:12306  function _beforeCall(bytes32 id, bytes32 predecessor) private view {... */\n      pop\n      pop\n      jump\t// out\n        /* \"@openzeppelin/contracts/governance/TimelockController.sol\":11681:11946  function _execute(... */\n    tag_203:\n        /* \"@openzeppelin/contracts/governance/TimelockController.sol\":11809:11821  bool success */\n      0x00\n        /* \"@openzeppelin/contracts/governance/TimelockController.sol\":11827:11833  target */\n      dup5\n        /* \"@openzeppelin/contracts/governance/TimelockController.sol\":11827:11838  target.call */\n      0xffffffffffffffffffffffffffffffffffffffff\n      and\n        /* \"@openzeppelin/contracts/governance/TimelockController.sol\":11846:11851  value */\n      dup5\n        /* \"@openzeppelin/contracts/governance/TimelockController.sol\":11853:11857  data */\n      dup5\n      dup5\n        /* \"@openzeppelin/contracts/governance/TimelockController.sol\":11827:11858  target.call{value: value}(data) */\n      mload(0x40)\n      tag_355\n      swap3\n      swap2\n      swap1\n      tag_356\n      jump\t// in\n    tag_355:\n      0x00\n      mload(0x40)\n      dup1\n      dup4\n      sub\n      dup2\n      dup6\n      dup8\n      gas\n      call\n      swap3\n      pop\n      pop\n      pop\n      returndatasize\n      dup1\n      0x00\n      dup2\n      eq\n      tag_359\n      jumpi\n      mload(0x40)\n      swap2\n      pop\n      and(add(returndatasize, 0x3f), not(0x1f))\n      dup3\n      add\n      0x40\n      mstore\n      returndatasize\n      dup3\n      mstore\n      returndatasize\n      0x00\n      0x20\n      dup5\n      add\n      returndatacopy\n      jump(tag_358)\n    tag_359:\n      0x60\n      swap2\n      pop\n    tag_358:\n      pop\n        /* \"@openzeppelin/contracts/governance/TimelockController.sol\":11808:11858  (bool success, ) = target.call{value: value}(data) */\n      pop\n      swap1\n      pop\n        /* \"@openzeppelin/contracts/governance/TimelockController.sol\":11876:11883  success */\n      dup1\n        /* \"@openzeppelin/contracts/governance/TimelockController.sol\":11868:11939  require(success, \"TimelockController: underlying transaction reverted\") */\n      tag_360\n      jumpi\n      mload(0x40)\n      0x08c379a000000000000000000000000000000000000000000000000000000000\n      dup2\n      mstore\n      0x04\n      add\n      tag_361\n      swap1\n      tag_362\n      jump\t// in\n    tag_361:\n      mload(0x40)\n      dup1\n      swap2\n      sub\n      swap1\n      revert\n    tag_360:\n        /* \"@openzeppelin/contracts/governance/TimelockController.sol\":11798:11946  {... */\n      pop\n        /* \"@openzeppelin/contracts/governance/TimelockController.sol\":11681:11946  function _execute(... */\n      pop\n      pop\n      pop\n      pop\n      jump\t// out\n        /* \"@openzeppelin/contracts/governance/TimelockController.sol\":12388:12563  function _afterCall(bytes32 id) private {... */\n    tag_207:\n        /* \"@openzeppelin/contracts/governance/TimelockController.sol\":12446:12466  isOperationReady(id) */\n      tag_364\n        /* \"@openzeppelin/contracts/governance/TimelockController.sol\":12463:12465  id */\n      dup2\n        /* \"@openzeppelin/contracts/governance/TimelockController.sol\":12446:12462  isOperationReady */\n      tag_69\n        /* \"@openzeppelin/contracts/governance/TimelockController.sol\":12446:12466  isOperationReady(id) */\n      jump\t// in\n    tag_364:\n        /* \"@openzeppelin/contracts/governance/TimelockController.sol\":12438:12513  require(isOperationReady(id), \"TimelockController: operation is not ready\") */\n      tag_365\n      jumpi\n      mload(0x40)\n      0x08c379a000000000000000000000000000000000000000000000000000000000\n      dup2\n      mstore\n      0x04\n      add\n      tag_366\n      swap1\n      tag_348\n      jump\t// in\n    tag_366:\n      mload(0x40)\n      dup1\n      swap2\n      sub\n      swap1\n      revert\n    tag_365:\n        /* \"@openzeppelin/contracts/governance/TimelockController.sol\":1470:1471  1 */\n      0x01\n        /* \"@openzeppelin/contracts/governance/TimelockController.sol\":12523:12534  _timestamps */\n      dup1\n        /* \"@openzeppelin/contracts/governance/TimelockController.sol\":12523:12538  _timestamps[id] */\n      0x00\n        /* \"@openzeppelin/contracts/governance/TimelockController.sol\":12535:12537  id */\n      dup4\n        /* \"@openzeppelin/contracts/governance/TimelockController.sol\":12523:12538  _timestamps[id] */\n      dup2\n      mstore\n      0x20\n      add\n      swap1\n      dup2\n      mstore\n      0x20\n      add\n      0x00\n      keccak256\n        /* \"@openzeppelin/contracts/governance/TimelockController.sol\":12523:12556  _timestamps[id] = _DONE_TIMESTAMP */\n      dup2\n      swap1\n      sstore\n      pop\n        /* \"@openzeppelin/contracts/governance/TimelockController.sol\":12388:12563  function _afterCall(bytes32 id) private {... */\n      pop\n      jump\t// out\n        /* \"@openzeppelin/contracts/access/AccessControl.sol\":7474:7707  function _grantRole(bytes32 role, address account) internal virtual {... */\n    tag_220:\n        /* \"@openzeppelin/contracts/access/AccessControl.sol\":7557:7579  hasRole(role, account) */\n      tag_368\n        /* \"@openzeppelin/contracts/access/AccessControl.sol\":7565:7569  role */\n      dup3\n        /* \"@openzeppelin/contracts/access/AccessControl.sol\":7571:7578  account */\n      dup3\n        /* \"@openzeppelin/contracts/access/AccessControl.sol\":7557:7564  hasRole */\n      tag_129\n        /* \"@openzeppelin/contracts/access/AccessControl.sol\":7557:7579  hasRole(role, account) */\n      jump\t// in\n    tag_368:\n        /* \"@openzeppelin/contracts/access/AccessControl.sol\":7552:7701  if (!hasRole(role, account)) {... */\n      tag_369\n      jumpi\n        /* \"@openzeppelin/contracts/access/AccessControl.sol\":7627:7631  true */\n      0x01\n        /* \"@openzeppelin/contracts/access/AccessControl.sol\":7595:7601  _roles */\n      0x00\n        /* \"@openzeppelin/contracts/access/AccessControl.sol\":7595:7607  _roles[role] */\n      dup1\n        /* \"@openzeppelin/contracts/access/AccessControl.sol\":7602:7606  role */\n      dup5\n        /* \"@openzeppelin/contracts/access/AccessControl.sol\":7595:7607  _roles[role] */\n      dup2\n      mstore\n      0x20\n      add\n      swap1\n      dup2\n      mstore\n      0x20\n      add\n      0x00\n      keccak256\n        /* \"@openzeppelin/contracts/access/AccessControl.sol\":7595:7615  _roles[role].members */\n      0x00\n      add\n        /* \"@openzeppelin/contracts/access/AccessControl.sol\":7595:7624  _roles[role].members[account] */\n      0x00\n        /* \"@openzeppelin/contracts/access/AccessControl.sol\":7616:7623  account */\n      dup4\n        /* \"@openzeppelin/contracts/access/AccessControl.sol\":7595:7624  _roles[role].members[account] */\n      0xffffffffffffffffffffffffffffffffffffffff\n      and\n      0xffffffffffffffffffffffffffffffffffffffff\n      and\n      dup2\n      mstore\n      0x20\n      add\n      swap1\n      dup2\n      mstore\n      0x20\n      add\n      0x00\n      keccak256\n      0x00\n        /* \"@openzeppelin/contracts/access/AccessControl.sol\":7595:7631  _roles[role].members[account] = true */\n      0x0100\n      exp\n      dup2\n      sload\n      dup2\n      0xff\n      mul\n      not\n      and\n      swap1\n      dup4\n      iszero\n      iszero\n      mul\n      or\n      swap1\n      sstore\n      pop\n        /* \"@openzeppelin/contracts/access/AccessControl.sol\":7677:7689  _msgSender() */\n      tag_370\n        /* \"@openzeppelin/contracts/access/AccessControl.sol\":7677:7687  _msgSender */\n      tag_196\n        /* \"@openzeppelin/contracts/access/AccessControl.sol\":7677:7689  _msgSender() */\n      jump\t// in\n    tag_370:\n        /* \"@openzeppelin/contracts/access/AccessControl.sol\":7650:7690  RoleGranted(role, account, _msgSender()) */\n      0xffffffffffffffffffffffffffffffffffffffff\n      and\n        /* \"@openzeppelin/contracts/access/AccessControl.sol\":7668:7675  account */\n      dup2\n        /* \"@openzeppelin/contracts/access/AccessControl.sol\":7650:7690  RoleGranted(role, account, _msgSender()) */\n      0xffffffffffffffffffffffffffffffffffffffff\n      and\n        /* \"@openzeppelin/contracts/access/AccessControl.sol\":7662:7666  role */\n      dup4\n        /* \"@openzeppelin/contracts/access/AccessControl.sol\":7650:7690  RoleGranted(role, account, _msgSender()) */\n      0x2f8788117e7eff1d82e926ec794901d17c78024a50270940304540a733656f0d\n      mload(0x40)\n      mload(0x40)\n      dup1\n      swap2\n      sub\n      swap1\n      log4\n        /* \"@openzeppelin/contracts/access/AccessControl.sol\":7552:7701  if (!hasRole(role, account)) {... */\n    tag_369:\n        /* \"@openzeppelin/contracts/access/AccessControl.sol\":7474:7707  function _grantRole(bytes32 role, address account) internal virtual {... */\n      pop\n      pop\n      jump\t// out\n        /* \"@openzeppelin/contracts/access/AccessControl.sol\":7878:8112  function _revokeRole(bytes32 role, address account) internal virtual {... */\n    tag_229:\n        /* \"@openzeppelin/contracts/access/AccessControl.sol\":7961:7983  hasRole(role, account) */\n      tag_372\n        /* \"@openzeppelin/contracts/access/AccessControl.sol\":7969:7973  role */\n      dup3\n        /* \"@openzeppelin/contracts/access/AccessControl.sol\":7975:7982  account */\n      dup3\n        /* \"@openzeppelin/contracts/access/AccessControl.sol\":7961:7968  hasRole */\n      tag_129\n        /* \"@openzeppelin/contracts/access/AccessControl.sol\":7961:7983  hasRole(role, account) */\n      jump\t// in\n    tag_372:\n        /* \"@openzeppelin/contracts/access/AccessControl.sol\":7957:8106  if (hasRole(role, account)) {... */\n      iszero\n      tag_373\n      jumpi\n        /* \"@openzeppelin/contracts/access/AccessControl.sol\":8031:8036  false */\n      0x00\n        /* \"@openzeppelin/contracts/access/AccessControl.sol\":7999:8005  _roles */\n      dup1\n        /* \"@openzeppelin/contracts/access/AccessControl.sol\":7999:8011  _roles[role] */\n      0x00\n        /* \"@openzeppelin/contracts/access/AccessControl.sol\":8006:8010  role */\n      dup5\n        /* \"@openzeppelin/contracts/access/AccessControl.sol\":7999:8011  _roles[role] */\n      dup2\n      mstore\n      0x20\n      add\n      swap1\n      dup2\n      mstore\n      0x20\n      add\n      0x00\n      keccak256\n        /* \"@openzeppelin/contracts/access/AccessControl.sol\":7999:8019  _roles[role].members */\n      0x00\n      add\n        /* \"@openzeppelin/contracts/access/AccessControl.sol\":7999:8028  _roles[role].members[account] */\n      0x00\n        /* \"@openzeppelin/contracts/access/AccessControl.sol\":8020:8027  account */\n      dup4\n        /* \"@openzeppelin/contracts/access/AccessControl.sol\":7999:8028  _roles[role].members[account] */\n      0xffffffffffffffffffffffffffffffffffffffff\n      and\n      0xffffffffffffffffffffffffffffffffffffffff\n      and\n      dup2\n      mstore\n      0x20\n      add\n      swap1\n      dup2\n      mstore\n      0x20\n      add\n      0x00\n      keccak256\n      0x00\n        /* \"@openzeppelin/contracts/access/AccessControl.sol\":7999:8036  _roles[role].members[account] = false */\n      0x0100\n      exp\n      dup2\n      sload\n      dup2\n      0xff\n      mul\n      not\n      and\n      swap1\n      dup4\n      iszero\n      iszero\n      mul\n      or\n      swap1\n      sstore\n      pop\n        /* \"@openzeppelin/contracts/access/AccessControl.sol\":8082:8094  _msgSender() */\n      tag_374\n        /* \"@openzeppelin/contracts/access/AccessControl.sol\":8082:8092  _msgSender */\n      tag_196\n        /* \"@openzeppelin/contracts/access/AccessControl.sol\":8082:8094  _msgSender() */\n      jump\t// in\n    tag_374:\n        /* \"@openzeppelin/contracts/access/AccessControl.sol\":8055:8095  RoleRevoked(role, account, _msgSender()) */\n      0xffffffffffffffffffffffffffffffffffffffff\n      and\n        /* \"@openzeppelin/contracts/access/AccessControl.sol\":8073:8080  account */\n      dup2\n        /* \"@openzeppelin/contracts/access/AccessControl.sol\":8055:8095  RoleRevoked(role, account, _msgSender()) */\n      0xffffffffffffffffffffffffffffffffffffffff\n      and\n        /* \"@openzeppelin/contracts/access/AccessControl.sol\":8067:8071  role */\n      dup4\n        /* \"@openzeppelin/contracts/access/AccessControl.sol\":8055:8095  RoleRevoked(role, account, _msgSender()) */\n      0xf6391f5c32d9c69d2a47ea670b442974b53935d1edc7fd64eb21e047a839171b\n      mload(0x40)\n      mload(0x40)\n      dup1\n      swap2\n      sub\n      swap1\n      log4\n        /* \"@openzeppelin/contracts/access/AccessControl.sol\":7957:8106  if (hasRole(role, account)) {... */\n    tag_373:\n        /* \"@openzeppelin/contracts/access/AccessControl.sol\":7878:8112  function _revokeRole(bytes32 role, address account) internal virtual {... */\n      pop\n      pop\n      jump\t// out\n        /* \"@openzeppelin/contracts/utils/introspection/ERC165.sol\":829:984  function supportsInterface(bytes4 interfaceId) public view virtual override returns (bool) {... */\n    tag_332:\n        /* \"@openzeppelin/contracts/utils/introspection/ERC165.sol\":914:918  bool */\n      0x00\n        /* \"@openzeppelin/contracts/utils/introspection/ERC165.sol\":952:977  type(IERC165).interfaceId */\n      0x01ffc9a700000000000000000000000000000000000000000000000000000000\n        /* \"@openzeppelin/contracts/utils/introspection/ERC165.sol\":937:977  interfaceId == type(IERC165).interfaceId */\n      not(0xffffffffffffffffffffffffffffffffffffffffffffffffffffffff)\n      and\n        /* \"@openzeppelin/contracts/utils/introspection/ERC165.sol\":937:948  interfaceId */\n      dup3\n        /* \"@openzeppelin/contracts/utils/introspection/ERC165.sol\":937:977  interfaceId == type(IERC165).interfaceId */\n      not(0xffffffffffffffffffffffffffffffffffffffffffffffffffffffff)\n      and\n      eq\n        /* \"@openzeppelin/contracts/utils/introspection/ERC165.sol\":930:977  return interfaceId == type(IERC165).interfaceId */\n      swap1\n      pop\n        /* \"@openzeppelin/contracts/utils/introspection/ERC165.sol\":829:984  function supportsInterface(bytes4 interfaceId) public view virtual override returns (bool) {... */\n      swap2\n      swap1\n      pop\n      jump\t// out\n        /* \"@openzeppelin/contracts/utils/Strings.sol\":1652:2093  function toHexString(uint256 value, uint256 length) internal pure returns (string memory) {... */\n    tag_338:\n        /* \"@openzeppelin/contracts/utils/Strings.sol\":1727:1740  string memory */\n      0x60\n        /* \"@openzeppelin/contracts/utils/Strings.sol\":1752:1771  bytes memory buffer */\n      0x00\n        /* \"@openzeppelin/contracts/utils/Strings.sol\":1797:1798  2 */\n      0x02\n        /* \"@openzeppelin/contracts/utils/Strings.sol\":1788:1794  length */\n      dup4\n        /* \"@openzeppelin/contracts/utils/Strings.sol\":1784:1785  2 */\n      0x02\n        /* \"@openzeppelin/contracts/utils/Strings.sol\":1784:1794  2 * length */\n      tag_377\n      swap2\n      swap1\n      tag_378\n      jump\t// in\n    tag_377:\n        /* \"@openzeppelin/contracts/utils/Strings.sol\":1784:1798  2 * length + 2 */\n      tag_379\n      swap2\n      swap1\n      tag_328\n      jump\t// in\n    tag_379:\n        /* \"@openzeppelin/contracts/utils/Strings.sol\":1774:1799  new bytes(2 * length + 2) */\n      0xffffffffffffffff\n      dup2\n      gt\n      iszero\n      tag_380\n      jumpi\n      tag_381\n      tag_382\n      jump\t// in\n    tag_381:\n    tag_380:\n      mload(0x40)\n      swap1\n      dup1\n      dup3\n      mstore\n      dup1\n      0x1f\n      add\n      not(0x1f)\n      and\n      0x20\n      add\n      dup3\n      add\n      0x40\n      mstore\n      dup1\n      iszero\n      tag_383\n      jumpi\n      dup2\n      0x20\n      add\n      0x01\n      dup3\n      mul\n      dup1\n      calldatasize\n      dup4\n      calldatacopy\n      dup1\n      dup3\n      add\n      swap2\n      pop\n      pop\n      swap1\n      pop\n    tag_383:\n      pop\n        /* \"@openzeppelin/contracts/utils/Strings.sol\":1752:1799  bytes memory buffer = new bytes(2 * length + 2) */\n      swap1\n      pop\n        /* \"@openzeppelin/contracts/utils/Strings.sol\":1809:1824  buffer[0] = \"0\" */\n      0x3000000000000000000000000000000000000000000000000000000000000000\n        /* \"@openzeppelin/contracts/utils/Strings.sol\":1809:1815  buffer */\n      dup2\n        /* \"@openzeppelin/contracts/utils/Strings.sol\":1816:1817  0 */\n      0x00\n        /* \"@openzeppelin/contracts/utils/Strings.sol\":1809:1818  buffer[0] */\n      dup2\n      mload\n      dup2\n      lt\n      tag_384\n      jumpi\n      tag_385\n      tag_256\n      jump\t// in\n    tag_385:\n    tag_384:\n      0x20\n      add\n      add\n        /* \"@openzeppelin/contracts/utils/Strings.sol\":1809:1824  buffer[0] = \"0\" */\n      swap1\n      not(0xffffffffffffffffffffffffffffffffffffffffffffffffffffffffffffff)\n      and\n      swap1\n      dup2\n      0x00\n      byte\n      swap1\n      mstore8\n      pop\n        /* \"@openzeppelin/contracts/utils/Strings.sol\":1834:1849  buffer[1] = \"x\" */\n      0x7800000000000000000000000000000000000000000000000000000000000000\n        /* \"@openzeppelin/contracts/utils/Strings.sol\":1834:1840  buffer */\n      dup2\n        /* \"@openzeppelin/contracts/utils/Strings.sol\":1841:1842  1 */\n      0x01\n        /* \"@openzeppelin/contracts/utils/Strings.sol\":1834:1843  buffer[1] */\n      dup2\n      mload\n      dup2\n      lt\n      tag_386\n      jumpi\n      tag_387\n      tag_256\n      jump\t// in\n    tag_387:\n    tag_386:\n      0x20\n      add\n      add\n        /* \"@openzeppelin/contracts/utils/Strings.sol\":1834:1849  buffer[1] = \"x\" */\n      swap1\n      not(0xffffffffffffffffffffffffffffffffffffffffffffffffffffffffffffff)\n      and\n      swap1\n      dup2\n      0x00\n      byte\n      swap1\n      mstore8\n      pop\n        /* \"@openzeppelin/contracts/utils/Strings.sol\":1864:1873  uint256 i */\n      0x00\n        /* \"@openzeppelin/contracts/utils/Strings.sol\":1889:1890  1 */\n      0x01\n        /* \"@openzeppelin/contracts/utils/Strings.sol\":1880:1886  length */\n      dup5\n        /* \"@openzeppelin/contracts/utils/Strings.sol\":1876:1877  2 */\n      0x02\n        /* \"@openzeppelin/contracts/utils/Strings.sol\":1876:1886  2 * length */\n      tag_391\n      swap2\n      swap1\n      tag_378\n      jump\t// in\n    tag_391:\n        /* \"@openzeppelin/contracts/utils/Strings.sol\":1876:1890  2 * length + 1 */\n      tag_392\n      swap2\n      swap1\n      tag_328\n      jump\t// in\n    tag_392:\n        /* \"@openzeppelin/contracts/utils/Strings.sol\":1864:1890  uint256 i = 2 * length + 1 */\n      swap1\n      pop\n        /* \"@openzeppelin/contracts/utils/Strings.sol\":1859:1991  for (uint256 i = 2 * length + 1; i > 1; --i) {... */\n    tag_388:\n        /* \"@openzeppelin/contracts/utils/Strings.sol\":1896:1897  1 */\n      0x01\n        /* \"@openzeppelin/contracts/utils/Strings.sol\":1892:1893  i */\n      dup2\n        /* \"@openzeppelin/contracts/utils/Strings.sol\":1892:1897  i > 1 */\n      gt\n        /* \"@openzeppelin/contracts/utils/Strings.sol\":1859:1991  for (uint256 i = 2 * length + 1; i > 1; --i) {... */\n      iszero\n      tag_389\n      jumpi\n        /* \"@openzeppelin/contracts/utils/Strings.sol\":1930:1942  _HEX_SYMBOLS */\n      0x3031323334353637383961626364656600000000000000000000000000000000\n        /* \"@openzeppelin/contracts/utils/Strings.sol\":1951:1954  0xf */\n      0x0f\n        /* \"@openzeppelin/contracts/utils/Strings.sol\":1943:1948  value */\n      dup7\n        /* \"@openzeppelin/contracts/utils/Strings.sol\":1943:1954  value & 0xf */\n      and\n        /* \"@openzeppelin/contracts/utils/Strings.sol\":1930:1955  _HEX_SYMBOLS[value & 0xf] */\n      0x10\n      dup2\n      lt\n      tag_393\n      jumpi\n      tag_394\n      tag_256\n      jump\t// in\n    tag_394:\n    tag_393:\n      byte\n      0xf8\n      shl\n        /* \"@openzeppelin/contracts/utils/Strings.sol\":1918:1924  buffer */\n      dup3\n        /* \"@openzeppelin/contracts/utils/Strings.sol\":1925:1926  i */\n      dup3\n        /* \"@openzeppelin/contracts/utils/Strings.sol\":1918:1927  buffer[i] */\n      dup2\n      mload\n      dup2\n      lt\n      tag_395\n      jumpi\n      tag_396\n      tag_256\n      jump\t// in\n    tag_396:\n    tag_395:\n      0x20\n      add\n      add\n        /* \"@openzeppelin/contracts/utils/Strings.sol\":1918:1955  buffer[i] = _HEX_SYMBOLS[value & 0xf] */\n      swap1\n      not(0xffffffffffffffffffffffffffffffffffffffffffffffffffffffffffffff)\n      and\n      swap1\n      dup2\n      0x00\n      byte\n      swap1\n      mstore8\n      pop\n        /* \"@openzeppelin/contracts/utils/Strings.sol\":1979:1980  4 */\n      0x04\n        /* \"@openzeppelin/contracts/utils/Strings.sol\":1969:1980  value >>= 4 */\n      dup6\n      swap1\n      shr\n      swap5\n      pop\n        /* \"@openzeppelin/contracts/utils/Strings.sol\":1899:1902  --i */\n      dup1\n      tag_397\n      swap1\n      tag_398\n      jump\t// in\n    tag_397:\n      swap1\n      pop\n        /* \"@openzeppelin/contracts/utils/Strings.sol\":1859:1991  for (uint256 i = 2 * length + 1; i > 1; --i) {... */\n      jump(tag_388)\n    tag_389:\n      pop\n        /* \"@openzeppelin/contracts/utils/Strings.sol\":2017:2018  0 */\n      0x00\n        /* \"@openzeppelin/contracts/utils/Strings.sol\":2008:2013  value */\n      dup5\n        /* \"@openzeppelin/contracts/utils/Strings.sol\":2008:2018  value == 0 */\n      eq\n        /* \"@openzeppelin/contracts/utils/Strings.sol\":2000:2055  require(value == 0, \"Strings: hex length insufficient\") */\n      tag_399\n      jumpi\n      mload(0x40)\n      0x08c379a000000000000000000000000000000000000000000000000000000000\n      dup2\n      mstore\n      0x04\n      add\n      tag_400\n      swap1\n      tag_401\n      jump\t// in\n    tag_400:\n      mload(0x40)\n      dup1\n      swap2\n      sub\n      swap1\n      revert\n    tag_399:\n        /* \"@openzeppelin/contracts/utils/Strings.sol\":2079:2085  buffer */\n      dup1\n        /* \"@openzeppelin/contracts/utils/Strings.sol\":2065:2086  return string(buffer) */\n      swap2\n      pop\n      pop\n        /* \"@openzeppelin/contracts/utils/Strings.sol\":1652:2093  function toHexString(uint256 value, uint256 length) internal pure returns (string memory) {... */\n      swap3\n      swap2\n      pop\n      pop\n      jump\t// out\n        /* \"#utility.yul\":24:746   */\n    tag_403:\n        /* \"#utility.yul\":120:125   */\n      0x00\n        /* \"#utility.yul\":145:226   */\n      tag_405\n        /* \"#utility.yul\":161:225   */\n      tag_406\n        /* \"#utility.yul\":218:224   */\n      dup5\n        /* \"#utility.yul\":161:225   */\n      tag_407\n      jump\t// in\n    tag_406:\n        /* \"#utility.yul\":145:226   */\n      tag_408\n      jump\t// in\n    tag_405:\n        /* \"#utility.yul\":136:226   */\n      swap1\n      pop\n        /* \"#utility.yul\":246:251   */\n      dup1\n        /* \"#utility.yul\":275:281   */\n      dup4\n        /* \"#utility.yul\":268:273   */\n      dup3\n        /* \"#utility.yul\":261:282   */\n      mstore\n        /* \"#utility.yul\":309:313   */\n      0x20\n        /* \"#utility.yul\":302:307   */\n      dup3\n        /* \"#utility.yul\":298:314   */\n      add\n        /* \"#utility.yul\":291:314   */\n      swap1\n      pop\n        /* \"#utility.yul\":335:341   */\n      dup3\n        /* \"#utility.yul\":385:388   */\n      dup6\n        /* \"#utility.yul\":377:381   */\n      0x20\n        /* \"#utility.yul\":369:375   */\n      dup7\n        /* \"#utility.yul\":365:382   */\n      mul\n        /* \"#utility.yul\":360:363   */\n      dup3\n        /* \"#utility.yul\":356:383   */\n      add\n        /* \"#utility.yul\":353:389   */\n      gt\n        /* \"#utility.yul\":350:493   */\n      iszero\n      tag_409\n      jumpi\n        /* \"#utility.yul\":404:483   */\n      tag_410\n      tag_411\n      jump\t// in\n    tag_410:\n        /* \"#utility.yul\":350:493   */\n    tag_409:\n        /* \"#utility.yul\":517:518   */\n      0x00\n        /* \"#utility.yul\":502:740   */\n    tag_412:\n        /* \"#utility.yul\":527:533   */\n      dup6\n        /* \"#utility.yul\":524:525   */\n      dup2\n        /* \"#utility.yul\":521:534   */\n      lt\n        /* \"#utility.yul\":502:740   */\n      iszero\n      tag_414\n      jumpi\n        /* \"#utility.yul\":595:598   */\n      dup2\n        /* \"#utility.yul\":624:661   */\n      tag_415\n        /* \"#utility.yul\":657:660   */\n      dup9\n        /* \"#utility.yul\":645:655   */\n      dup3\n        /* \"#utility.yul\":624:661   */\n      tag_416\n      jump\t// in\n    tag_415:\n        /* \"#utility.yul\":619:622   */\n      dup5\n        /* \"#utility.yul\":612:662   */\n      mstore\n        /* \"#utility.yul\":691:695   */\n      0x20\n        /* \"#utility.yul\":686:689   */\n      dup5\n        /* \"#utility.yul\":682:696   */\n      add\n        /* \"#utility.yul\":675:696   */\n      swap4\n      pop\n        /* \"#utility.yul\":725:729   */\n      0x20\n        /* \"#utility.yul\":720:723   */\n      dup4\n        /* \"#utility.yul\":716:730   */\n      add\n        /* \"#utility.yul\":709:730   */\n      swap3\n      pop\n        /* \"#utility.yul\":562:740   */\n      pop\n        /* \"#utility.yul\":549:550   */\n      0x01\n        /* \"#utility.yul\":546:547   */\n      dup2\n        /* \"#utility.yul\":542:551   */\n      add\n        /* \"#utility.yul\":537:551   */\n      swap1\n      pop\n        /* \"#utility.yul\":502:740   */\n      jump(tag_412)\n    tag_414:\n        /* \"#utility.yul\":506:520   */\n      pop\n        /* \"#utility.yul\":126:746   */\n      pop\n      pop\n        /* \"#utility.yul\":24:746   */\n      swap4\n      swap3\n      pop\n      pop\n      pop\n      jump\t// out\n        /* \"#utility.yul\":752:1162   */\n    tag_417:\n        /* \"#utility.yul\":829:834   */\n      0x00\n        /* \"#utility.yul\":854:919   */\n      tag_419\n        /* \"#utility.yul\":870:918   */\n      tag_420\n        /* \"#utility.yul\":911:917   */\n      dup5\n        /* \"#utility.yul\":870:918   */\n      tag_421\n      jump\t// in\n    tag_420:\n        /* \"#utility.yul\":854:919   */\n      tag_408\n      jump\t// in\n    tag_419:\n        /* \"#utility.yul\":845:919   */\n      swap1\n      pop\n        /* \"#utility.yul\":942:948   */\n      dup3\n        /* \"#utility.yul\":935:940   */\n      dup2\n        /* \"#utility.yul\":928:949   */\n      mstore\n        /* \"#utility.yul\":980:984   */\n      0x20\n        /* \"#utility.yul\":973:978   */\n      dup2\n        /* \"#utility.yul\":969:985   */\n      add\n        /* \"#utility.yul\":1018:1021   */\n      dup5\n        /* \"#utility.yul\":1009:1015   */\n      dup5\n        /* \"#utility.yul\":1004:1007   */\n      dup5\n        /* \"#utility.yul\":1000:1016   */\n      add\n        /* \"#utility.yul\":997:1022   */\n      gt\n        /* \"#utility.yul\":994:1106   */\n      iszero\n      tag_422\n      jumpi\n        /* \"#utility.yul\":1025:1104   */\n      tag_423\n      tag_424\n      jump\t// in\n    tag_423:\n        /* \"#utility.yul\":994:1106   */\n    tag_422:\n        /* \"#utility.yul\":1115:1156   */\n      tag_425\n        /* \"#utility.yul\":1149:1155   */\n      dup5\n        /* \"#utility.yul\":1144:1147   */\n      dup3\n        /* \"#utility.yul\":1139:1142   */\n      dup6\n        /* \"#utility.yul\":1115:1156   */\n      tag_426\n      jump\t// in\n    tag_425:\n        /* \"#utility.yul\":835:1162   */\n      pop\n        /* \"#utility.yul\":752:1162   */\n      swap4\n      swap3\n      pop\n      pop\n      pop\n      jump\t// out\n        /* \"#utility.yul\":1168:1307   */\n    tag_427:\n        /* \"#utility.yul\":1214:1219   */\n      0x00\n        /* \"#utility.yul\":1252:1258   */\n      dup2\n        /* \"#utility.yul\":1239:1259   */\n      calldataload\n        /* \"#utility.yul\":1230:1259   */\n      swap1\n      pop\n        /* \"#utility.yul\":1268:1301   */\n      tag_429\n        /* \"#utility.yul\":1295:1300   */\n      dup2\n        /* \"#utility.yul\":1268:1301   */\n      tag_430\n      jump\t// in\n    tag_429:\n        /* \"#utility.yul\":1168:1307   */\n      swap3\n      swap2\n      pop\n      pop\n      jump\t// out\n        /* \"#utility.yul\":1330:1898   */\n    tag_431:\n        /* \"#utility.yul\":1403:1411   */\n      0x00\n        /* \"#utility.yul\":1413:1419   */\n      dup1\n        /* \"#utility.yul\":1463:1466   */\n      dup4\n        /* \"#utility.yul\":1456:1460   */\n      0x1f\n        /* \"#utility.yul\":1448:1454   */\n      dup5\n        /* \"#utility.yul\":1444:1461   */\n      add\n        /* \"#utility.yul\":1440:1467   */\n      slt\n        /* \"#utility.yul\":1430:1552   */\n      tag_433\n      jumpi\n        /* \"#utility.yul\":1471:1550   */\n      tag_434\n      tag_435\n      jump\t// in\n    tag_434:\n        /* \"#utility.yul\":1430:1552   */\n    tag_433:\n        /* \"#utility.yul\":1584:1590   */\n      dup3\n        /* \"#utility.yul\":1571:1591   */\n      calldataload\n        /* \"#utility.yul\":1561:1591   */\n      swap1\n      pop\n        /* \"#utility.yul\":1614:1632   */\n      0xffffffffffffffff\n        /* \"#utility.yul\":1606:1612   */\n      dup2\n        /* \"#utility.yul\":1603:1633   */\n      gt\n        /* \"#utility.yul\":1600:1717   */\n      iszero\n      tag_436\n      jumpi\n        /* \"#utility.yul\":1636:1715   */\n      tag_437\n      tag_438\n      jump\t// in\n    tag_437:\n        /* \"#utility.yul\":1600:1717   */\n    tag_436:\n        /* \"#utility.yul\":1750:1754   */\n      0x20\n        /* \"#utility.yul\":1742:1748   */\n      dup4\n        /* \"#utility.yul\":1738:1755   */\n      add\n        /* \"#utility.yul\":1726:1755   */\n      swap2\n      pop\n        /* \"#utility.yul\":1804:1807   */\n      dup4\n        /* \"#utility.yul\":1796:1800   */\n      0x20\n        /* \"#utility.yul\":1788:1794   */\n      dup3\n        /* \"#utility.yul\":1784:1801   */\n      mul\n        /* \"#utility.yul\":1774:1782   */\n      dup4\n        /* \"#utility.yul\":1770:1802   */\n      add\n        /* \"#utility.yul\":1767:1808   */\n      gt\n        /* \"#utility.yul\":1764:1892   */\n      iszero\n      tag_439\n      jumpi\n        /* \"#utility.yul\":1811:1890   */\n      tag_440\n      tag_411\n      jump\t// in\n    tag_440:\n        /* \"#utility.yul\":1764:1892   */\n    tag_439:\n        /* \"#utility.yul\":1330:1898   */\n      swap3\n      pop\n      swap3\n      swap1\n      pop\n      jump\t// out\n        /* \"#utility.yul\":1919:2498   */\n    tag_441:\n        /* \"#utility.yul\":2003:2011   */\n      0x00\n        /* \"#utility.yul\":2013:2019   */\n      dup1\n        /* \"#utility.yul\":2063:2066   */\n      dup4\n        /* \"#utility.yul\":2056:2060   */\n      0x1f\n        /* \"#utility.yul\":2048:2054   */\n      dup5\n        /* \"#utility.yul\":2044:2061   */\n      add\n        /* \"#utility.yul\":2040:2067   */\n      slt\n        /* \"#utility.yul\":2030:2152   */\n      tag_443\n      jumpi\n        /* \"#utility.yul\":2071:2150   */\n      tag_444\n      tag_435\n      jump\t// in\n    tag_444:\n        /* \"#utility.yul\":2030:2152   */\n    tag_443:\n        /* \"#utility.yul\":2184:2190   */\n      dup3\n        /* \"#utility.yul\":2171:2191   */\n      calldataload\n        /* \"#utility.yul\":2161:2191   */\n      swap1\n      pop\n        /* \"#utility.yul\":2214:2232   */\n      0xffffffffffffffff\n        /* \"#utility.yul\":2206:2212   */\n      dup2\n        /* \"#utility.yul\":2203:2233   */\n      gt\n        /* \"#utility.yul\":2200:2317   */\n      iszero\n      tag_445\n      jumpi\n        /* \"#utility.yul\":2236:2315   */\n      tag_446\n      tag_438\n      jump\t// in\n    tag_446:\n        /* \"#utility.yul\":2200:2317   */\n    tag_445:\n        /* \"#utility.yul\":2350:2354   */\n      0x20\n        /* \"#utility.yul\":2342:2348   */\n      dup4\n        /* \"#utility.yul\":2338:2355   */\n      add\n        /* \"#utility.yul\":2326:2355   */\n      swap2\n      pop\n        /* \"#utility.yul\":2404:2407   */\n      dup4\n        /* \"#utility.yul\":2396:2400   */\n      0x20\n        /* \"#utility.yul\":2388:2394   */\n      dup3\n        /* \"#utility.yul\":2384:2401   */\n      mul\n        /* \"#utility.yul\":2374:2382   */\n      dup4\n        /* \"#utility.yul\":2370:2402   */\n      add\n        /* \"#utility.yul\":2367:2408   */\n      gt\n        /* \"#utility.yul\":2364:2492   */\n      iszero\n      tag_447\n      jumpi\n        /* \"#utility.yul\":2411:2490   */\n      tag_448\n      tag_411\n      jump\t// in\n    tag_448:\n        /* \"#utility.yul\":2364:2492   */\n    tag_447:\n        /* \"#utility.yul\":1919:2498   */\n      swap3\n      pop\n      swap3\n      swap1\n      pop\n      jump\t// out\n        /* \"#utility.yul\":2521:3089   */\n    tag_449:\n        /* \"#utility.yul\":2594:2602   */\n      0x00\n        /* \"#utility.yul\":2604:2610   */\n      dup1\n        /* \"#utility.yul\":2654:2657   */\n      dup4\n        /* \"#utility.yul\":2647:2651   */\n      0x1f\n        /* \"#utility.yul\":2639:2645   */\n      dup5\n        /* \"#utility.yul\":2635:2652   */\n      add\n        /* \"#utility.yul\":2631:2658   */\n      slt\n        /* \"#utility.yul\":2621:2743   */\n      tag_451\n      jumpi\n        /* \"#utility.yul\":2662:2741   */\n      tag_452\n      tag_435\n      jump\t// in\n    tag_452:\n        /* \"#utility.yul\":2621:2743   */\n    tag_451:\n        /* \"#utility.yul\":2775:2781   */\n      dup3\n        /* \"#utility.yul\":2762:2782   */\n      calldataload\n        /* \"#utility.yul\":2752:2782   */\n      swap1\n      pop\n        /* \"#utility.yul\":2805:2823   */\n      0xffffffffffffffff\n        /* \"#utility.yul\":2797:2803   */\n      dup2\n        /* \"#utility.yul\":2794:2824   */\n      gt\n        /* \"#utility.yul\":2791:2908   */\n      iszero\n      tag_453\n      jumpi\n        /* \"#utility.yul\":2827:2906   */\n      tag_454\n      tag_438\n      jump\t// in\n    tag_454:\n        /* \"#utility.yul\":2791:2908   */\n    tag_453:\n        /* \"#utility.yul\":2941:2945   */\n      0x20\n        /* \"#utility.yul\":2933:2939   */\n      dup4\n        /* \"#utility.yul\":2929:2946   */\n      add\n        /* \"#utility.yul\":2917:2946   */\n      swap2\n      pop\n        /* \"#utility.yul\":2995:2998   */\n      dup4\n        /* \"#utility.yul\":2987:2991   */\n      0x20\n        /* \"#utility.yul\":2979:2985   */\n      dup3\n        /* \"#utility.yul\":2975:2992   */\n      mul\n        /* \"#utility.yul\":2965:2973   */\n      dup4\n        /* \"#utility.yul\":2961:2993   */\n      add\n        /* \"#utility.yul\":2958:2999   */\n      gt\n        /* \"#utility.yul\":2955:3083   */\n      iszero\n      tag_455\n      jumpi\n        /* \"#utility.yul\":3002:3081   */\n      tag_456\n      tag_411\n      jump\t// in\n    tag_456:\n        /* \"#utility.yul\":2955:3083   */\n    tag_455:\n        /* \"#utility.yul\":2521:3089   */\n      swap3\n      pop\n      swap3\n      swap1\n      pop\n      jump\t// out\n        /* \"#utility.yul\":3112:3482   */\n    tag_457:\n        /* \"#utility.yul\":3183:3188   */\n      0x00\n        /* \"#utility.yul\":3232:3235   */\n      dup3\n        /* \"#utility.yul\":3225:3229   */\n      0x1f\n        /* \"#utility.yul\":3217:3223   */\n      dup4\n        /* \"#utility.yul\":3213:3230   */\n      add\n        /* \"#utility.yul\":3209:3236   */\n      slt\n        /* \"#utility.yul\":3199:3321   */\n      tag_459\n      jumpi\n        /* \"#utility.yul\":3240:3319   */\n      tag_460\n      tag_435\n      jump\t// in\n    tag_460:\n        /* \"#utility.yul\":3199:3321   */\n    tag_459:\n        /* \"#utility.yul\":3357:3363   */\n      dup2\n        /* \"#utility.yul\":3344:3364   */\n      calldataload\n        /* \"#utility.yul\":3382:3476   */\n      tag_461\n        /* \"#utility.yul\":3472:3475   */\n      dup5\n        /* \"#utility.yul\":3464:3470   */\n      dup3\n        /* \"#utility.yul\":3457:3461   */\n      0x20\n        /* \"#utility.yul\":3449:3455   */\n      dup7\n        /* \"#utility.yul\":3445:3462   */\n      add\n        /* \"#utility.yul\":3382:3476   */\n      tag_403\n      jump\t// in\n    tag_461:\n        /* \"#utility.yul\":3373:3476   */\n      swap2\n      pop\n        /* \"#utility.yul\":3189:3482   */\n      pop\n        /* \"#utility.yul\":3112:3482   */\n      swap3\n      swap2\n      pop\n      pop\n      jump\t// out\n        /* \"#utility.yul\":3488:3627   */\n    tag_462:\n        /* \"#utility.yul\":3534:3539   */\n      0x00\n        /* \"#utility.yul\":3572:3578   */\n      dup2\n        /* \"#utility.yul\":3559:3579   */\n      calldataload\n        /* \"#utility.yul\":3550:3579   */\n      swap1\n      pop\n        /* \"#utility.yul\":3588:3621   */\n      tag_464\n        /* \"#utility.yul\":3615:3620   */\n      dup2\n        /* \"#utility.yul\":3588:3621   */\n      tag_465\n      jump\t// in\n    tag_464:\n        /* \"#utility.yul\":3488:3627   */\n      swap3\n      swap2\n      pop\n      pop\n      jump\t// out\n        /* \"#utility.yul\":3633:3770   */\n    tag_466:\n        /* \"#utility.yul\":3678:3683   */\n      0x00\n        /* \"#utility.yul\":3716:3722   */\n      dup2\n        /* \"#utility.yul\":3703:3723   */\n      calldataload\n        /* \"#utility.yul\":3694:3723   */\n      swap1\n      pop\n        /* \"#utility.yul\":3732:3764   */\n      tag_468\n        /* \"#utility.yul\":3758:3763   */\n      dup2\n        /* \"#utility.yul\":3732:3764   */\n      tag_469\n      jump\t// in\n    tag_468:\n        /* \"#utility.yul\":3633:3770   */\n      swap3\n      swap2\n      pop\n      pop\n      jump\t// out\n        /* \"#utility.yul\":3789:4341   */\n    tag_470:\n        /* \"#utility.yul\":3846:3854   */\n      0x00\n        /* \"#utility.yul\":3856:3862   */\n      dup1\n        /* \"#utility.yul\":3906:3909   */\n      dup4\n        /* \"#utility.yul\":3899:3903   */\n      0x1f\n        /* \"#utility.yul\":3891:3897   */\n      dup5\n        /* \"#utility.yul\":3887:3904   */\n      add\n        /* \"#utility.yul\":3883:3910   */\n      slt\n        /* \"#utility.yul\":3873:3995   */\n      tag_472\n      jumpi\n        /* \"#utility.yul\":3914:3993   */\n      tag_473\n      tag_435\n      jump\t// in\n    tag_473:\n        /* \"#utility.yul\":3873:3995   */\n    tag_472:\n        /* \"#utility.yul\":4027:4033   */\n      dup3\n        /* \"#utility.yul\":4014:4034   */\n      calldataload\n        /* \"#utility.yul\":4004:4034   */\n      swap1\n      pop\n        /* \"#utility.yul\":4057:4075   */\n      0xffffffffffffffff\n        /* \"#utility.yul\":4049:4055   */\n      dup2\n        /* \"#utility.yul\":4046:4076   */\n      gt\n        /* \"#utility.yul\":4043:4160   */\n      iszero\n      tag_474\n      jumpi\n        /* \"#utility.yul\":4079:4158   */\n      tag_475\n      tag_438\n      jump\t// in\n    tag_475:\n        /* \"#utility.yul\":4043:4160   */\n    tag_474:\n        /* \"#utility.yul\":4193:4197   */\n      0x20\n        /* \"#utility.yul\":4185:4191   */\n      dup4\n        /* \"#utility.yul\":4181:4198   */\n      add\n        /* \"#utility.yul\":4169:4198   */\n      swap2\n      pop\n        /* \"#utility.yul\":4247:4250   */\n      dup4\n        /* \"#utility.yul\":4239:4243   */\n      0x01\n        /* \"#utility.yul\":4231:4237   */\n      dup3\n        /* \"#utility.yul\":4227:4244   */\n      mul\n        /* \"#utility.yul\":4217:4225   */\n      dup4\n        /* \"#utility.yul\":4213:4245   */\n      add\n        /* \"#utility.yul\":4210:4251   */\n      gt\n        /* \"#utility.yul\":4207:4335   */\n      iszero\n      tag_476\n      jumpi\n        /* \"#utility.yul\":4254:4333   */\n      tag_477\n      tag_411\n      jump\t// in\n    tag_477:\n        /* \"#utility.yul\":4207:4335   */\n    tag_476:\n        /* \"#utility.yul\":3789:4341   */\n      swap3\n      pop\n      swap3\n      swap1\n      pop\n      jump\t// out\n        /* \"#utility.yul\":4360:4698   */\n    tag_478:\n        /* \"#utility.yul\":4415:4420   */\n      0x00\n        /* \"#utility.yul\":4464:4467   */\n      dup3\n        /* \"#utility.yul\":4457:4461   */\n      0x1f\n        /* \"#utility.yul\":4449:4455   */\n      dup4\n        /* \"#utility.yul\":4445:4462   */\n      add\n        /* \"#utility.yul\":4441:4468   */\n      slt\n        /* \"#utility.yul\":4431:4553   */\n      tag_480\n      jumpi\n        /* \"#utility.yul\":4472:4551   */\n      tag_481\n      tag_435\n      jump\t// in\n    tag_481:\n        /* \"#utility.yul\":4431:4553   */\n    tag_480:\n        /* \"#utility.yul\":4589:4595   */\n      dup2\n        /* \"#utility.yul\":4576:4596   */\n      calldataload\n        /* \"#utility.yul\":4614:4692   */\n      tag_482\n        /* \"#utility.yul\":4688:4691   */\n      dup5\n        /* \"#utility.yul\":4680:4686   */\n      dup3\n        /* \"#utility.yul\":4673:4677   */\n      0x20\n        /* \"#utility.yul\":4665:4671   */\n      dup7\n        /* \"#utility.yul\":4661:4678   */\n      add\n        /* \"#utility.yul\":4614:4692   */\n      tag_417\n      jump\t// in\n    tag_482:\n        /* \"#utility.yul\":4605:4692   */\n      swap2\n      pop\n        /* \"#utility.yul\":4421:4698   */\n      pop\n        /* \"#utility.yul\":4360:4698   */\n      swap3\n      swap2\n      pop\n      pop\n      jump\t// out\n        /* \"#utility.yul\":4704:4843   */\n    tag_416:\n        /* \"#utility.yul\":4750:4755   */\n      0x00\n        /* \"#utility.yul\":4788:4794   */\n      dup2\n        /* \"#utility.yul\":4775:4795   */\n      calldataload\n        /* \"#utility.yul\":4766:4795   */\n      swap1\n      pop\n        /* \"#utility.yul\":4804:4837   */\n      tag_484\n        /* \"#utility.yul\":4831:4836   */\n      dup2\n        /* \"#utility.yul\":4804:4837   */\n      tag_485\n      jump\t// in\n    tag_484:\n        /* \"#utility.yul\":4704:4843   */\n      swap3\n      swap2\n      pop\n      pop\n      jump\t// out\n        /* \"#utility.yul\":4849:5178   */\n    tag_258:\n        /* \"#utility.yul\":4908:4914   */\n      0x00\n        /* \"#utility.yul\":4957:4959   */\n      0x20\n        /* \"#utility.yul\":4945:4954   */\n      dup3\n        /* \"#utility.yul\":4936:4943   */\n      dup5\n        /* \"#utility.yul\":4932:4955   */\n      sub\n        /* \"#utility.yul\":4928:4960   */\n      slt\n        /* \"#utility.yul\":4925:5044   */\n      iszero\n      tag_487\n      jumpi\n        /* \"#utility.yul\":4963:5042   */\n      tag_488\n      tag_489\n      jump\t// in\n    tag_488:\n        /* \"#utility.yul\":4925:5044   */\n    tag_487:\n        /* \"#utility.yul\":5083:5084   */\n      0x00\n        /* \"#utility.yul\":5108:5161   */\n      tag_490\n        /* \"#utility.yul\":5153:5160   */\n      dup5\n        /* \"#utility.yul\":5144:5150   */\n      dup3\n        /* \"#utility.yul\":5133:5142   */\n      dup6\n        /* \"#utility.yul\":5129:5151   */\n      add\n        /* \"#utility.yul\":5108:5161   */\n      tag_427\n      jump\t// in\n    tag_490:\n        /* \"#utility.yul\":5098:5161   */\n      swap2\n      pop\n        /* \"#utility.yul\":5054:5171   */\n      pop\n        /* \"#utility.yul\":4849:5178   */\n      swap3\n      swap2\n      pop\n      pop\n      jump\t// out\n        /* \"#utility.yul\":5184:6693   */\n    tag_148:\n        /* \"#utility.yul\":5338:5344   */\n      0x00\n        /* \"#utility.yul\":5346:5352   */\n      dup1\n        /* \"#utility.yul\":5354:5360   */\n      0x00\n        /* \"#utility.yul\":5362:5368   */\n      dup1\n        /* \"#utility.yul\":5370:5376   */\n      0x00\n        /* \"#utility.yul\":5419:5422   */\n      0xa0\n        /* \"#utility.yul\":5407:5416   */\n      dup7\n        /* \"#utility.yul\":5398:5405   */\n      dup9\n        /* \"#utility.yul\":5394:5417   */\n      sub\n        /* \"#utility.yul\":5390:5423   */\n      slt\n        /* \"#utility.yul\":5387:5507   */\n      iszero\n      tag_492\n      jumpi\n        /* \"#utility.yul\":5426:5505   */\n      tag_493\n      tag_489\n      jump\t// in\n    tag_493:\n        /* \"#utility.yul\":5387:5507   */\n    tag_492:\n        /* \"#utility.yul\":5546:5547   */\n      0x00\n        /* \"#utility.yul\":5571:5624   */\n      tag_494\n        /* \"#utility.yul\":5616:5623   */\n      dup9\n        /* \"#utility.yul\":5607:5613   */\n      dup3\n        /* \"#utility.yul\":5596:5605   */\n      dup10\n        /* \"#utility.yul\":5592:5614   */\n      add\n        /* \"#utility.yul\":5571:5624   */\n      tag_427\n      jump\t// in\n    tag_494:\n        /* \"#utility.yul\":5561:5624   */\n      swap6\n      pop\n        /* \"#utility.yul\":5517:5634   */\n      pop\n        /* \"#utility.yul\":5673:5675   */\n      0x20\n        /* \"#utility.yul\":5699:5752   */\n      tag_495\n        /* \"#utility.yul\":5744:5751   */\n      dup9\n        /* \"#utility.yul\":5735:5741   */\n      dup3\n        /* \"#utility.yul\":5724:5733   */\n      dup10\n        /* \"#utility.yul\":5720:5742   */\n      add\n        /* \"#utility.yul\":5699:5752   */\n      tag_427\n      jump\t// in\n    tag_495:\n        /* \"#utility.yul\":5689:5752   */\n      swap5\n      pop\n        /* \"#utility.yul\":5644:5762   */\n      pop\n        /* \"#utility.yul\":5829:5831   */\n      0x40\n        /* \"#utility.yul\":5818:5827   */\n      dup7\n        /* \"#utility.yul\":5814:5832   */\n      add\n        /* \"#utility.yul\":5801:5833   */\n      calldataload\n        /* \"#utility.yul\":5860:5878   */\n      0xffffffffffffffff\n        /* \"#utility.yul\":5852:5858   */\n      dup2\n        /* \"#utility.yul\":5849:5879   */\n      gt\n        /* \"#utility.yul\":5846:5963   */\n      iszero\n      tag_496\n      jumpi\n        /* \"#utility.yul\":5882:5961   */\n      tag_497\n      tag_498\n      jump\t// in\n    tag_497:\n        /* \"#utility.yul\":5846:5963   */\n    tag_496:\n        /* \"#utility.yul\":5987:6065   */\n      tag_499\n        /* \"#utility.yul\":6057:6064   */\n      dup9\n        /* \"#utility.yul\":6048:6054   */\n      dup3\n        /* \"#utility.yul\":6037:6046   */\n      dup10\n        /* \"#utility.yul\":6033:6055   */\n      add\n        /* \"#utility.yul\":5987:6065   */\n      tag_457\n      jump\t// in\n    tag_499:\n        /* \"#utility.yul\":5977:6065   */\n      swap4\n      pop\n        /* \"#utility.yul\":5772:6075   */\n      pop\n        /* \"#utility.yul\":6142:6144   */\n      0x60\n        /* \"#utility.yul\":6131:6140   */\n      dup7\n        /* \"#utility.yul\":6127:6145   */\n      add\n        /* \"#utility.yul\":6114:6146   */\n      calldataload\n        /* \"#utility.yul\":6173:6191   */\n      0xffffffffffffffff\n        /* \"#utility.yul\":6165:6171   */\n      dup2\n        /* \"#utility.yul\":6162:6192   */\n      gt\n        /* \"#utility.yul\":6159:6276   */\n      iszero\n      tag_500\n      jumpi\n        /* \"#utility.yul\":6195:6274   */\n      tag_501\n      tag_498\n      jump\t// in\n    tag_501:\n        /* \"#utility.yul\":6159:6276   */\n    tag_500:\n        /* \"#utility.yul\":6300:6378   */\n      tag_502\n        /* \"#utility.yul\":6370:6377   */\n      dup9\n        /* \"#utility.yul\":6361:6367   */\n      dup3\n        /* \"#utility.yul\":6350:6359   */\n      dup10\n        /* \"#utility.yul\":6346:6368   */\n      add\n        /* \"#utility.yul\":6300:6378   */\n      tag_457\n      jump\t// in\n    tag_502:\n        /* \"#utility.yul\":6290:6378   */\n      swap3\n      pop\n        /* \"#utility.yul\":6085:6388   */\n      pop\n        /* \"#utility.yul\":6455:6458   */\n      0x80\n        /* \"#utility.yul\":6444:6453   */\n      dup7\n        /* \"#utility.yul\":6440:6459   */\n      add\n        /* \"#utility.yul\":6427:6460   */\n      calldataload\n        /* \"#utility.yul\":6487:6505   */\n      0xffffffffffffffff\n        /* \"#utility.yul\":6479:6485   */\n      dup2\n        /* \"#utility.yul\":6476:6506   */\n      gt\n        /* \"#utility.yul\":6473:6590   */\n      iszero\n      tag_503\n      jumpi\n        /* \"#utility.yul\":6509:6588   */\n      tag_504\n      tag_498\n      jump\t// in\n    tag_504:\n        /* \"#utility.yul\":6473:6590   */\n    tag_503:\n        /* \"#utility.yul\":6614:6676   */\n      tag_505\n        /* \"#utility.yul\":6668:6675   */\n      dup9\n        /* \"#utility.yul\":6659:6665   */\n      dup3\n        /* \"#utility.yul\":6648:6657   */\n      dup10\n        /* \"#utility.yul\":6644:6666   */\n      add\n        /* \"#utility.yul\":6614:6676   */\n      tag_478\n      jump\t// in\n    tag_505:\n        /* \"#utility.yul\":6604:6676   */\n      swap2\n      pop\n        /* \"#utility.yul\":6398:6686   */\n      pop\n        /* \"#utility.yul\":5184:6693   */\n      swap3\n      swap6\n      pop\n      swap3\n      swap6\n      swap1\n      swap4\n      pop\n      jump\t// out\n        /* \"#utility.yul\":6699:7642   */\n    tag_74:\n        /* \"#utility.yul\":6794:6800   */\n      0x00\n        /* \"#utility.yul\":6802:6808   */\n      dup1\n        /* \"#utility.yul\":6810:6816   */\n      0x00\n        /* \"#utility.yul\":6818:6824   */\n      dup1\n        /* \"#utility.yul\":6867:6870   */\n      0x80\n        /* \"#utility.yul\":6855:6864   */\n      dup6\n        /* \"#utility.yul\":6846:6853   */\n      dup8\n        /* \"#utility.yul\":6842:6865   */\n      sub\n        /* \"#utility.yul\":6838:6871   */\n      slt\n        /* \"#utility.yul\":6835:6955   */\n      iszero\n      tag_507\n      jumpi\n        /* \"#utility.yul\":6874:6953   */\n      tag_508\n      tag_489\n      jump\t// in\n    tag_508:\n        /* \"#utility.yul\":6835:6955   */\n    tag_507:\n        /* \"#utility.yul\":6994:6995   */\n      0x00\n        /* \"#utility.yul\":7019:7072   */\n      tag_509\n        /* \"#utility.yul\":7064:7071   */\n      dup8\n        /* \"#utility.yul\":7055:7061   */\n      dup3\n        /* \"#utility.yul\":7044:7053   */\n      dup9\n        /* \"#utility.yul\":7040:7062   */\n      add\n        /* \"#utility.yul\":7019:7072   */\n      tag_427\n      jump\t// in\n    tag_509:\n        /* \"#utility.yul\":7009:7072   */\n      swap5\n      pop\n        /* \"#utility.yul\":6965:7082   */\n      pop\n        /* \"#utility.yul\":7121:7123   */\n      0x20\n        /* \"#utility.yul\":7147:7200   */\n      tag_510\n        /* \"#utility.yul\":7192:7199   */\n      dup8\n        /* \"#utility.yul\":7183:7189   */\n      dup3\n        /* \"#utility.yul\":7172:7181   */\n      dup9\n        /* \"#utility.yul\":7168:7190   */\n      add\n        /* \"#utility.yul\":7147:7200   */\n      tag_427\n      jump\t// in\n    tag_510:\n        /* \"#utility.yul\":7137:7200   */\n      swap4\n      pop\n        /* \"#utility.yul\":7092:7210   */\n      pop\n        /* \"#utility.yul\":7249:7251   */\n      0x40\n        /* \"#utility.yul\":7275:7328   */\n      tag_511\n        /* \"#utility.yul\":7320:7327   */\n      dup8\n        /* \"#utility.yul\":7311:7317   */\n      dup3\n        /* \"#utility.yul\":7300:7309   */\n      dup9\n        /* \"#utility.yul\":7296:7318   */\n      add\n        /* \"#utility.yul\":7275:7328   */\n      tag_416\n      jump\t// in\n    tag_511:\n        /* \"#utility.yul\":7265:7328   */\n      swap3\n      pop\n        /* \"#utility.yul\":7220:7338   */\n      pop\n        /* \"#utility.yul\":7405:7407   */\n      0x60\n        /* \"#utility.yul\":7394:7403   */\n      dup6\n        /* \"#utility.yul\":7390:7408   */\n      add\n        /* \"#utility.yul\":7377:7409   */\n      calldataload\n        /* \"#utility.yul\":7436:7454   */\n      0xffffffffffffffff\n        /* \"#utility.yul\":7428:7434   */\n      dup2\n        /* \"#utility.yul\":7425:7455   */\n      gt\n        /* \"#utility.yul\":7422:7539   */\n      iszero\n      tag_512\n      jumpi\n        /* \"#utility.yul\":7458:7537   */\n      tag_513\n      tag_498\n      jump\t// in\n    tag_513:\n        /* \"#utility.yul\":7422:7539   */\n    tag_512:\n        /* \"#utility.yul\":7563:7625   */\n      tag_514\n        /* \"#utility.yul\":7617:7624   */\n      dup8\n        /* \"#utility.yul\":7608:7614   */\n      dup3\n        /* \"#utility.yul\":7597:7606   */\n      dup9\n        /* \"#utility.yul\":7593:7615   */\n      add\n        /* \"#utility.yul\":7563:7625   */\n      tag_478\n      jump\t// in\n    tag_514:\n        /* \"#utility.yul\":7553:7625   */\n      swap2\n      pop\n        /* \"#utility.yul\":7348:7635   */\n      pop\n        /* \"#utility.yul\":6699:7642   */\n      swap3\n      swap6\n      swap2\n      swap5\n      pop\n      swap3\n      pop\n      jump\t// out\n        /* \"#utility.yul\":7648:8737   */\n    tag_171:\n        /* \"#utility.yul\":7752:7758   */\n      0x00\n        /* \"#utility.yul\":7760:7766   */\n      dup1\n        /* \"#utility.yul\":7768:7774   */\n      0x00\n        /* \"#utility.yul\":7776:7782   */\n      dup1\n        /* \"#utility.yul\":7784:7790   */\n      0x00\n        /* \"#utility.yul\":7833:7836   */\n      0xa0\n        /* \"#utility.yul\":7821:7830   */\n      dup7\n        /* \"#utility.yul\":7812:7819   */\n      dup9\n        /* \"#utility.yul\":7808:7831   */\n      sub\n        /* \"#utility.yul\":7804:7837   */\n      slt\n        /* \"#utility.yul\":7801:7921   */\n      iszero\n      tag_516\n      jumpi\n        /* \"#utility.yul\":7840:7919   */\n      tag_517\n      tag_489\n      jump\t// in\n    tag_517:\n        /* \"#utility.yul\":7801:7921   */\n    tag_516:\n        /* \"#utility.yul\":7960:7961   */\n      0x00\n        /* \"#utility.yul\":7985:8038   */\n      tag_518\n        /* \"#utility.yul\":8030:8037   */\n      dup9\n        /* \"#utility.yul\":8021:8027   */\n      dup3\n        /* \"#utility.yul\":8010:8019   */\n      dup10\n        /* \"#utility.yul\":8006:8028   */\n      add\n        /* \"#utility.yul\":7985:8038   */\n      tag_427\n      jump\t// in\n    tag_518:\n        /* \"#utility.yul\":7975:8038   */\n      swap6\n      pop\n        /* \"#utility.yul\":7931:8048   */\n      pop\n        /* \"#utility.yul\":8087:8089   */\n      0x20\n        /* \"#utility.yul\":8113:8166   */\n      tag_519\n        /* \"#utility.yul\":8158:8165   */\n      dup9\n        /* \"#utility.yul\":8149:8155   */\n      dup3\n        /* \"#utility.yul\":8138:8147   */\n      dup10\n        /* \"#utility.yul\":8134:8156   */\n      add\n        /* \"#utility.yul\":8113:8166   */\n      tag_427\n      jump\t// in\n    tag_519:\n        /* \"#utility.yul\":8103:8166   */\n      swap5\n      pop\n        /* \"#utility.yul\":8058:8176   */\n      pop\n        /* \"#utility.yul\":8215:8217   */\n      0x40\n        /* \"#utility.yul\":8241:8294   */\n      tag_520\n        /* \"#utility.yul\":8286:8293   */\n      dup9\n        /* \"#utility.yul\":8277:8283   */\n      dup3\n        /* \"#utility.yul\":8266:8275   */\n      dup10\n        /* \"#utility.yul\":8262:8284   */\n      add\n        /* \"#utility.yul\":8241:8294   */\n      tag_416\n      jump\t// in\n    tag_520:\n        /* \"#utility.yul\":8231:8294   */\n      swap4\n      pop\n        /* \"#utility.yul\":8186:8304   */\n      pop\n        /* \"#utility.yul\":8343:8345   */\n      0x60\n        /* \"#utility.yul\":8369:8422   */\n      tag_521\n        /* \"#utility.yul\":8414:8421   */\n      dup9\n        /* \"#utility.yul\":8405:8411   */\n      dup3\n        /* \"#utility.yul\":8394:8403   */\n      dup10\n        /* \"#utility.yul\":8390:8412   */\n      add\n        /* \"#utility.yul\":8369:8422   */\n      tag_416\n      jump\t// in\n    tag_521:\n        /* \"#utility.yul\":8359:8422   */\n      swap3\n      pop\n        /* \"#utility.yul\":8314:8432   */\n      pop\n        /* \"#utility.yul\":8499:8502   */\n      0x80\n        /* \"#utility.yul\":8488:8497   */\n      dup7\n        /* \"#utility.yul\":8484:8503   */\n      add\n        /* \"#utility.yul\":8471:8504   */\n      calldataload\n        /* \"#utility.yul\":8531:8549   */\n      0xffffffffffffffff\n        /* \"#utility.yul\":8523:8529   */\n      dup2\n        /* \"#utility.yul\":8520:8550   */\n      gt\n        /* \"#utility.yul\":8517:8634   */\n      iszero\n      tag_522\n      jumpi\n        /* \"#utility.yul\":8553:8632   */\n      tag_523\n      tag_498\n      jump\t// in\n    tag_523:\n        /* \"#utility.yul\":8517:8634   */\n    tag_522:\n        /* \"#utility.yul\":8658:8720   */\n      tag_524\n        /* \"#utility.yul\":8712:8719   */\n      dup9\n        /* \"#utility.yul\":8703:8709   */\n      dup3\n        /* \"#utility.yul\":8692:8701   */\n      dup10\n        /* \"#utility.yul\":8688:8710   */\n      add\n        /* \"#utility.yul\":8658:8720   */\n      tag_478\n      jump\t// in\n    tag_524:\n        /* \"#utility.yul\":8648:8720   */\n      swap2\n      pop\n        /* \"#utility.yul\":8442:8730   */\n      pop\n        /* \"#utility.yul\":7648:8737   */\n      swap3\n      swap6\n      pop\n      swap3\n      swap6\n      swap1\n      swap4\n      pop\n      jump\t// out\n        /* \"#utility.yul\":8743:9852   */\n    tag_63:\n        /* \"#utility.yul\":8849:8855   */\n      0x00\n        /* \"#utility.yul\":8857:8863   */\n      dup1\n        /* \"#utility.yul\":8865:8871   */\n      0x00\n        /* \"#utility.yul\":8873:8879   */\n      dup1\n        /* \"#utility.yul\":8881:8887   */\n      0x00\n        /* \"#utility.yul\":8889:8895   */\n      dup1\n        /* \"#utility.yul\":8938:8941   */\n      0xa0\n        /* \"#utility.yul\":8926:8935   */\n      dup8\n        /* \"#utility.yul\":8917:8924   */\n      dup10\n        /* \"#utility.yul\":8913:8936   */\n      sub\n        /* \"#utility.yul\":8909:8942   */\n      slt\n        /* \"#utility.yul\":8906:9026   */\n      iszero\n      tag_526\n      jumpi\n        /* \"#utility.yul\":8945:9024   */\n      tag_527\n      tag_489\n      jump\t// in\n    tag_527:\n        /* \"#utility.yul\":8906:9026   */\n    tag_526:\n        /* \"#utility.yul\":9065:9066   */\n      0x00\n        /* \"#utility.yul\":9090:9143   */\n      tag_528\n        /* \"#utility.yul\":9135:9142   */\n      dup10\n        /* \"#utility.yul\":9126:9132   */\n      dup3\n        /* \"#utility.yul\":9115:9124   */\n      dup11\n        /* \"#utility.yul\":9111:9133   */\n      add\n        /* \"#utility.yul\":9090:9143   */\n      tag_427\n      jump\t// in\n    tag_528:\n        /* \"#utility.yul\":9080:9143   */\n      swap7\n      pop\n        /* \"#utility.yul\":9036:9153   */\n      pop\n        /* \"#utility.yul\":9192:9194   */\n      0x20\n        /* \"#utility.yul\":9218:9271   */\n      tag_529\n        /* \"#utility.yul\":9263:9270   */\n      dup10\n        /* \"#utility.yul\":9254:9260   */\n      dup3\n        /* \"#utility.yul\":9243:9252   */\n      dup11\n        /* \"#utility.yul\":9239:9261   */\n      add\n        /* \"#utility.yul\":9218:9271   */\n      tag_416\n      jump\t// in\n    tag_529:\n        /* \"#utility.yul\":9208:9271   */\n      swap6\n      pop\n        /* \"#utility.yul\":9163:9281   */\n      pop\n        /* \"#utility.yul\":9348:9350   */\n      0x40\n        /* \"#utility.yul\":9337:9346   */\n      dup8\n        /* \"#utility.yul\":9333:9351   */\n      add\n        /* \"#utility.yul\":9320:9352   */\n      calldataload\n        /* \"#utility.yul\":9379:9397   */\n      0xffffffffffffffff\n        /* \"#utility.yul\":9371:9377   */\n      dup2\n        /* \"#utility.yul\":9368:9398   */\n      gt\n        /* \"#utility.yul\":9365:9482   */\n      iszero\n      tag_530\n      jumpi\n        /* \"#utility.yul\":9401:9480   */\n      tag_531\n      tag_498\n      jump\t// in\n    tag_531:\n        /* \"#utility.yul\":9365:9482   */\n    tag_530:\n        /* \"#utility.yul\":9514:9578   */\n      tag_532\n        /* \"#utility.yul\":9570:9577   */\n      dup10\n        /* \"#utility.yul\":9561:9567   */\n      dup3\n        /* \"#utility.yul\":9550:9559   */\n      dup11\n        /* \"#utility.yul\":9546:9568   */\n      add\n        /* \"#utility.yul\":9514:9578   */\n      tag_470\n      jump\t// in\n    tag_532:\n        /* \"#utility.yul\":9496:9578   */\n      swap5\n      pop\n      swap5\n      pop\n        /* \"#utility.yul\":9291:9588   */\n      pop\n        /* \"#utility.yul\":9627:9629   */\n      0x60\n        /* \"#utility.yul\":9653:9706   */\n      tag_533\n        /* \"#utility.yul\":9698:9705   */\n      dup10\n        /* \"#utility.yul\":9689:9695   */\n      dup3\n        /* \"#utility.yul\":9678:9687   */\n      dup11\n        /* \"#utility.yul\":9674:9696   */\n      add\n        /* \"#utility.yul\":9653:9706   */\n      tag_462\n      jump\t// in\n    tag_533:\n        /* \"#utility.yul\":9643:9706   */\n      swap3\n      pop\n        /* \"#utility.yul\":9598:9716   */\n      pop\n        /* \"#utility.yul\":9755:9758   */\n      0x80\n        /* \"#utility.yul\":9782:9835   */\n      tag_534\n        /* \"#utility.yul\":9827:9834   */\n      dup10\n        /* \"#utility.yul\":9818:9824   */\n      dup3\n        /* \"#utility.yul\":9807:9816   */\n      dup11\n        /* \"#utility.yul\":9803:9825   */\n      add\n        /* \"#utility.yul\":9782:9835   */\n      tag_462\n      jump\t// in\n    tag_534:\n        /* \"#utility.yul\":9772:9835   */\n      swap2\n      pop\n        /* \"#utility.yul\":9726:9845   */\n      pop\n        /* \"#utility.yul\":8743:9852   */\n      swap3\n      swap6\n      pop\n      swap3\n      swap6\n      pop\n      swap3\n      swap6\n      jump\t// out\n        /* \"#utility.yul\":9858:11113   */\n    tag_43:\n        /* \"#utility.yul\":9973:9979   */\n      0x00\n        /* \"#utility.yul\":9981:9987   */\n      dup1\n        /* \"#utility.yul\":9989:9995   */\n      0x00\n        /* \"#utility.yul\":9997:10003   */\n      dup1\n        /* \"#utility.yul\":10005:10011   */\n      0x00\n        /* \"#utility.yul\":10013:10019   */\n      dup1\n        /* \"#utility.yul\":10021:10027   */\n      0x00\n        /* \"#utility.yul\":10070:10073   */\n      0xc0\n        /* \"#utility.yul\":10058:10067   */\n      dup9\n        /* \"#utility.yul\":10049:10056   */\n      dup11\n        /* \"#utility.yul\":10045:10068   */\n      sub\n        /* \"#utility.yul\":10041:10074   */\n      slt\n        /* \"#utility.yul\":10038:10158   */\n      iszero\n      tag_536\n      jumpi\n        /* \"#utility.yul\":10077:10156   */\n      tag_537\n      tag_489\n      jump\t// in\n    tag_537:\n        /* \"#utility.yul\":10038:10158   */\n    tag_536:\n        /* \"#utility.yul\":10197:10198   */\n      0x00\n        /* \"#utility.yul\":10222:10275   */\n      tag_538\n        /* \"#utility.yul\":10267:10274   */\n      dup11\n        /* \"#utility.yul\":10258:10264   */\n      dup3\n        /* \"#utility.yul\":10247:10256   */\n      dup12\n        /* \"#utility.yul\":10243:10265   */\n      add\n        /* \"#utility.yul\":10222:10275   */\n      tag_427\n      jump\t// in\n    tag_538:\n        /* \"#utility.yul\":10212:10275   */\n      swap8\n      pop\n        /* \"#utility.yul\":10168:10285   */\n      pop\n        /* \"#utility.yul\":10324:10326   */\n      0x20\n        /* \"#utility.yul\":10350:10403   */\n      tag_539\n        /* \"#utility.yul\":10395:10402   */\n      dup11\n        /* \"#utility.yul\":10386:10392   */\n      dup3\n        /* \"#utility.yul\":10375:10384   */\n      dup12\n        /* \"#utility.yul\":10371:10393   */\n      add\n        /* \"#utility.yul\":10350:10403   */\n      tag_416\n      jump\t// in\n    tag_539:\n        /* \"#utility.yul\":10340:10403   */\n      swap7\n      pop\n        /* \"#utility.yul\":10295:10413   */\n      pop\n        /* \"#utility.yul\":10480:10482   */\n      0x40\n        /* \"#utility.yul\":10469:10478   */\n      dup9\n        /* \"#utility.yul\":10465:10483   */\n      add\n        /* \"#utility.yul\":10452:10484   */\n      calldataload\n        /* \"#utility.yul\":10511:10529   */\n      0xffffffffffffffff\n        /* \"#utility.yul\":10503:10509   */\n      dup2\n        /* \"#utility.yul\":10500:10530   */\n      gt\n        /* \"#utility.yul\":10497:10614   */\n      iszero\n      tag_540\n      jumpi\n        /* \"#utility.yul\":10533:10612   */\n      tag_541\n      tag_498\n      jump\t// in\n    tag_541:\n        /* \"#utility.yul\":10497:10614   */\n    tag_540:\n        /* \"#utility.yul\":10646:10710   */\n      tag_542\n        /* \"#utility.yul\":10702:10709   */\n      dup11\n        /* \"#utility.yul\":10693:10699   */\n      dup3\n        /* \"#utility.yul\":10682:10691   */\n      dup12\n        /* \"#utility.yul\":10678:10700   */\n      add\n        /* \"#utility.yul\":10646:10710   */\n      tag_470\n      jump\t// in\n    tag_542:\n        /* \"#utility.yul\":10628:10710   */\n      swap6\n      pop\n      swap6\n      pop\n        /* \"#utility.yul\":10423:10720   */\n      pop\n        /* \"#utility.yul\":10759:10761   */\n      0x60\n        /* \"#utility.yul\":10785:10838   */\n      tag_543\n        /* \"#utility.yul\":10830:10837   */\n      dup11\n        /* \"#utility.yul\":10821:10827   */\n      dup3\n        /* \"#utility.yul\":10810:10819   */\n      dup12\n        /* \"#utility.yul\":10806:10828   */\n      add\n        /* \"#utility.yul\":10785:10838   */\n      tag_462\n      jump\t// in\n    tag_543:\n        /* \"#utility.yul\":10775:10838   */\n      swap4\n      pop\n        /* \"#utility.yul\":10730:10848   */\n      pop\n        /* \"#utility.yul\":10887:10890   */\n      0x80\n        /* \"#utility.yul\":10914:10967   */\n      tag_544\n        /* \"#utility.yul\":10959:10966   */\n      dup11\n        /* \"#utility.yul\":10950:10956   */\n      dup3\n        /* \"#utility.yul\":10939:10948   */\n      dup12\n        /* \"#utility.yul\":10935:10957   */\n      add\n        /* \"#utility.yul\":10914:10967   */\n      tag_462\n      jump\t// in\n    tag_544:\n        /* \"#utility.yul\":10904:10967   */\n      swap3\n      pop\n        /* \"#utility.yul\":10858:10977   */\n      pop\n        /* \"#utility.yul\":11016:11019   */\n      0xa0\n        /* \"#utility.yul\":11043:11096   */\n      tag_545\n        /* \"#utility.yul\":11088:11095   */\n      dup11\n        /* \"#utility.yul\":11079:11085   */\n      dup3\n        /* \"#utility.yul\":11068:11077   */\n      dup12\n        /* \"#utility.yul\":11064:11086   */\n      add\n        /* \"#utility.yul\":11043:11096   */\n      tag_416\n      jump\t// in\n    tag_545:\n        /* \"#utility.yul\":11033:11096   */\n      swap2\n      pop\n        /* \"#utility.yul\":10987:11106   */\n      pop\n        /* \"#utility.yul\":9858:11113   */\n      swap3\n      swap6\n      swap9\n      swap2\n      swap5\n      swap8\n      pop\n      swap3\n      swap6\n      pop\n      jump\t// out\n        /* \"#utility.yul\":11119:12742   */\n    tag_142:\n        /* \"#utility.yul\":11306:11312   */\n      0x00\n        /* \"#utility.yul\":11314:11320   */\n      dup1\n        /* \"#utility.yul\":11322:11328   */\n      0x00\n        /* \"#utility.yul\":11330:11336   */\n      dup1\n        /* \"#utility.yul\":11338:11344   */\n      0x00\n        /* \"#utility.yul\":11346:11352   */\n      dup1\n        /* \"#utility.yul\":11354:11360   */\n      0x00\n        /* \"#utility.yul\":11362:11368   */\n      dup1\n        /* \"#utility.yul\":11411:11414   */\n      0xa0\n        /* \"#utility.yul\":11399:11408   */\n      dup10\n        /* \"#utility.yul\":11390:11397   */\n      dup12\n        /* \"#utility.yul\":11386:11409   */\n      sub\n        /* \"#utility.yul\":11382:11415   */\n      slt\n        /* \"#utility.yul\":11379:11499   */\n      iszero\n      tag_547\n      jumpi\n        /* \"#utility.yul\":11418:11497   */\n      tag_548\n      tag_489\n      jump\t// in\n    tag_548:\n        /* \"#utility.yul\":11379:11499   */\n    tag_547:\n        /* \"#utility.yul\":11566:11567   */\n      0x00\n        /* \"#utility.yul\":11555:11564   */\n      dup10\n        /* \"#utility.yul\":11551:11568   */\n      add\n        /* \"#utility.yul\":11538:11569   */\n      calldataload\n        /* \"#utility.yul\":11596:11614   */\n      0xffffffffffffffff\n        /* \"#utility.yul\":11588:11594   */\n      dup2\n        /* \"#utility.yul\":11585:11615   */\n      gt\n        /* \"#utility.yul\":11582:11699   */\n      iszero\n      tag_549\n      jumpi\n        /* \"#utility.yul\":11618:11697   */\n      tag_550\n      tag_498\n      jump\t// in\n    tag_550:\n        /* \"#utility.yul\":11582:11699   */\n    tag_549:\n        /* \"#utility.yul\":11731:11811   */\n      tag_551\n        /* \"#utility.yul\":11803:11810   */\n      dup12\n        /* \"#utility.yul\":11794:11800   */\n      dup3\n        /* \"#utility.yul\":11783:11792   */\n      dup13\n        /* \"#utility.yul\":11779:11801   */\n      add\n        /* \"#utility.yul\":11731:11811   */\n      tag_431\n      jump\t// in\n    tag_551:\n        /* \"#utility.yul\":11713:11811   */\n      swap9\n      pop\n      swap9\n      pop\n        /* \"#utility.yul\":11509:11821   */\n      pop\n        /* \"#utility.yul\":11888:11890   */\n      0x20\n        /* \"#utility.yul\":11877:11886   */\n      dup10\n        /* \"#utility.yul\":11873:11891   */\n      add\n        /* \"#utility.yul\":11860:11892   */\n      calldataload\n        /* \"#utility.yul\":11919:11937   */\n      0xffffffffffffffff\n        /* \"#utility.yul\":11911:11917   */\n      dup2\n        /* \"#utility.yul\":11908:11938   */\n      gt\n        /* \"#utility.yul\":11905:12022   */\n      iszero\n      tag_552\n      jumpi\n        /* \"#utility.yul\":11941:12020   */\n      tag_553\n      tag_498\n      jump\t// in\n    tag_553:\n        /* \"#utility.yul\":11905:12022   */\n    tag_552:\n        /* \"#utility.yul\":12054:12134   */\n      tag_554\n        /* \"#utility.yul\":12126:12133   */\n      dup12\n        /* \"#utility.yul\":12117:12123   */\n      dup3\n        /* \"#utility.yul\":12106:12115   */\n      dup13\n        /* \"#utility.yul\":12102:12124   */\n      add\n        /* \"#utility.yul\":12054:12134   */\n      tag_449\n      jump\t// in\n    tag_554:\n        /* \"#utility.yul\":12036:12134   */\n      swap7\n      pop\n      swap7\n      pop\n        /* \"#utility.yul\":11831:12144   */\n      pop\n        /* \"#utility.yul\":12211:12213   */\n      0x40\n        /* \"#utility.yul\":12200:12209   */\n      dup10\n        /* \"#utility.yul\":12196:12214   */\n      add\n        /* \"#utility.yul\":12183:12215   */\n      calldataload\n        /* \"#utility.yul\":12242:12260   */\n      0xffffffffffffffff\n        /* \"#utility.yul\":12234:12240   */\n      dup2\n        /* \"#utility.yul\":12231:12261   */\n      gt\n        /* \"#utility.yul\":12228:12345   */\n      iszero\n      tag_555\n      jumpi\n        /* \"#utility.yul\":12264:12343   */\n      tag_556\n      tag_498\n      jump\t// in\n    tag_556:\n        /* \"#utility.yul\":12228:12345   */\n    tag_555:\n        /* \"#utility.yul\":12377:12468   */\n      tag_557\n        /* \"#utility.yul\":12460:12467   */\n      dup12\n        /* \"#utility.yul\":12451:12457   */\n      dup3\n        /* \"#utility.yul\":12440:12449   */\n      dup13\n        /* \"#utility.yul\":12436:12458   */\n      add\n        /* \"#utility.yul\":12377:12468   */\n      tag_441\n      jump\t// in\n    tag_557:\n        /* \"#utility.yul\":12359:12468   */\n      swap5\n      pop\n      swap5\n      pop\n        /* \"#utility.yul\":12154:12478   */\n      pop\n        /* \"#utility.yul\":12517:12519   */\n      0x60\n        /* \"#utility.yul\":12543:12596   */\n      tag_558\n        /* \"#utility.yul\":12588:12595   */\n      dup12\n        /* \"#utility.yul\":12579:12585   */\n      dup3\n        /* \"#utility.yul\":12568:12577   */\n      dup13\n        /* \"#utility.yul\":12564:12586   */\n      add\n        /* \"#utility.yul\":12543:12596   */\n      tag_462\n      jump\t// in\n    tag_558:\n        /* \"#utility.yul\":12533:12596   */\n      swap3\n      pop\n        /* \"#utility.yul\":12488:12606   */\n      pop\n        /* \"#utility.yul\":12645:12648   */\n      0x80\n        /* \"#utility.yul\":12672:12725   */\n      tag_559\n        /* \"#utility.yul\":12717:12724   */\n      dup12\n        /* \"#utility.yul\":12708:12714   */\n      dup3\n        /* \"#utility.yul\":12697:12706   */\n      dup13\n        /* \"#utility.yul\":12693:12715   */\n      add\n        /* \"#utility.yul\":12672:12725   */\n      tag_462\n      jump\t// in\n    tag_559:\n        /* \"#utility.yul\":12662:12725   */\n      swap2\n      pop\n        /* \"#utility.yul\":12616:12735   */\n      pop\n        /* \"#utility.yul\":11119:12742   */\n      swap3\n      swap6\n      swap9\n      pop\n      swap3\n      swap6\n      swap9\n      swap1\n      swap4\n      swap7\n      pop\n      jump\t// out\n        /* \"#utility.yul\":12748:14517   */\n    tag_120:\n        /* \"#utility.yul\":12944:12950   */\n      0x00\n        /* \"#utility.yul\":12952:12958   */\n      dup1\n        /* \"#utility.yul\":12960:12966   */\n      0x00\n        /* \"#utility.yul\":12968:12974   */\n      dup1\n        /* \"#utility.yul\":12976:12982   */\n      0x00\n        /* \"#utility.yul\":12984:12990   */\n      dup1\n        /* \"#utility.yul\":12992:12998   */\n      0x00\n        /* \"#utility.yul\":13000:13006   */\n      dup1\n        /* \"#utility.yul\":13008:13014   */\n      0x00\n        /* \"#utility.yul\":13057:13060   */\n      0xc0\n        /* \"#utility.yul\":13045:13054   */\n      dup11\n        /* \"#utility.yul\":13036:13043   */\n      dup13\n        /* \"#utility.yul\":13032:13055   */\n      sub\n        /* \"#utility.yul\":13028:13061   */\n      slt\n        /* \"#utility.yul\":13025:13145   */\n      iszero\n      tag_561\n      jumpi\n        /* \"#utility.yul\":13064:13143   */\n      tag_562\n      tag_489\n      jump\t// in\n    tag_562:\n        /* \"#utility.yul\":13025:13145   */\n    tag_561:\n        /* \"#utility.yul\":13212:13213   */\n      0x00\n        /* \"#utility.yul\":13201:13210   */\n      dup11\n        /* \"#utility.yul\":13197:13214   */\n      add\n        /* \"#utility.yul\":13184:13215   */\n      calldataload\n        /* \"#utility.yul\":13242:13260   */\n      0xffffffffffffffff\n        /* \"#utility.yul\":13234:13240   */\n      dup2\n        /* \"#utility.yul\":13231:13261   */\n      gt\n        /* \"#utility.yul\":13228:13345   */\n      iszero\n      tag_563\n      jumpi\n        /* \"#utility.yul\":13264:13343   */\n      tag_564\n      tag_498\n      jump\t// in\n    tag_564:\n        /* \"#utility.yul\":13228:13345   */\n    tag_563:\n        /* \"#utility.yul\":13377:13457   */\n      tag_565\n        /* \"#utility.yul\":13449:13456   */\n      dup13\n        /* \"#utility.yul\":13440:13446   */\n      dup3\n        /* \"#utility.yul\":13429:13438   */\n      dup14\n        /* \"#utility.yul\":13425:13447   */\n      add\n        /* \"#utility.yul\":13377:13457   */\n      tag_431\n      jump\t// in\n    tag_565:\n        /* \"#utility.yul\":13359:13457   */\n      swap10\n      pop\n      swap10\n      pop\n        /* \"#utility.yul\":13155:13467   */\n      pop\n        /* \"#utility.yul\":13534:13536   */\n      0x20\n        /* \"#utility.yul\":13523:13532   */\n      dup11\n        /* \"#utility.yul\":13519:13537   */\n      add\n        /* \"#utility.yul\":13506:13538   */\n      calldataload\n        /* \"#utility.yul\":13565:13583   */\n      0xffffffffffffffff\n        /* \"#utility.yul\":13557:13563   */\n      dup2\n        /* \"#utility.yul\":13554:13584   */\n      gt\n        /* \"#utility.yul\":13551:13668   */\n      iszero\n      tag_566\n      jumpi\n        /* \"#utility.yul\":13587:13666   */\n      tag_567\n      tag_498\n      jump\t// in\n    tag_567:\n        /* \"#utility.yul\":13551:13668   */\n    tag_566:\n        /* \"#utility.yul\":13700:13780   */\n      tag_568\n        /* \"#utility.yul\":13772:13779   */\n      dup13\n        /* \"#utility.yul\":13763:13769   */\n      dup3\n        /* \"#utility.yul\":13752:13761   */\n      dup14\n        /* \"#utility.yul\":13748:13770   */\n      add\n        /* \"#utility.yul\":13700:13780   */\n      tag_449\n      jump\t// in\n    tag_568:\n        /* \"#utility.yul\":13682:13780   */\n      swap8\n      pop\n      swap8\n      pop\n        /* \"#utility.yul\":13477:13790   */\n      pop\n        /* \"#utility.yul\":13857:13859   */\n      0x40\n        /* \"#utility.yul\":13846:13855   */\n      dup11\n        /* \"#utility.yul\":13842:13860   */\n      add\n        /* \"#utility.yul\":13829:13861   */\n      calldataload\n        /* \"#utility.yul\":13888:13906   */\n      0xffffffffffffffff\n        /* \"#utility.yul\":13880:13886   */\n      dup2\n        /* \"#utility.yul\":13877:13907   */\n      gt\n        /* \"#utility.yul\":13874:13991   */\n      iszero\n      tag_569\n      jumpi\n        /* \"#utility.yul\":13910:13989   */\n      tag_570\n      tag_498\n      jump\t// in\n    tag_570:\n        /* \"#utility.yul\":13874:13991   */\n    tag_569:\n        /* \"#utility.yul\":14023:14114   */\n      tag_571\n        /* \"#utility.yul\":14106:14113   */\n      dup13\n        /* \"#utility.yul\":14097:14103   */\n      dup3\n        /* \"#utility.yul\":14086:14095   */\n      dup14\n        /* \"#utility.yul\":14082:14104   */\n      add\n        /* \"#utility.yul\":14023:14114   */\n      tag_441\n      jump\t// in\n    tag_571:\n        /* \"#utility.yul\":14005:14114   */\n      swap6\n      pop\n      swap6\n      pop\n        /* \"#utility.yul\":13800:14124   */\n      pop\n        /* \"#utility.yul\":14163:14165   */\n      0x60\n        /* \"#utility.yul\":14189:14242   */\n      tag_572\n        /* \"#utility.yul\":14234:14241   */\n      dup13\n        /* \"#utility.yul\":14225:14231   */\n      dup3\n        /* \"#utility.yul\":14214:14223   */\n      dup14\n        /* \"#utility.yul\":14210:14232   */\n      add\n        /* \"#utility.yul\":14189:14242   */\n      tag_462\n      jump\t// in\n    tag_572:\n        /* \"#utility.yul\":14179:14242   */\n      swap4\n      pop\n        /* \"#utility.yul\":14134:14252   */\n      pop\n        /* \"#utility.yul\":14291:14294   */\n      0x80\n        /* \"#utility.yul\":14318:14371   */\n      tag_573\n        /* \"#utility.yul\":14363:14370   */\n      dup13\n        /* \"#utility.yul\":14354:14360   */\n      dup3\n        /* \"#utility.yul\":14343:14352   */\n      dup14\n        /* \"#utility.yul\":14339:14361   */\n      add\n        /* \"#utility.yul\":14318:14371   */\n      tag_462\n      jump\t// in\n    tag_573:\n        /* \"#utility.yul\":14308:14371   */\n      swap3\n      pop\n        /* \"#utility.yul\":14262:14381   */\n      pop\n        /* \"#utility.yul\":14420:14423   */\n      0xa0\n        /* \"#utility.yul\":14447:14500   */\n      tag_574\n        /* \"#utility.yul\":14492:14499   */\n      dup13\n        /* \"#utility.yul\":14483:14489   */\n      dup3\n        /* \"#utility.yul\":14472:14481   */\n      dup14\n        /* \"#utility.yul\":14468:14490   */\n      add\n        /* \"#utility.yul\":14447:14500   */\n      tag_416\n      jump\t// in\n    tag_574:\n        /* \"#utility.yul\":14437:14500   */\n      swap2\n      pop\n        /* \"#utility.yul\":14391:14510   */\n      pop\n        /* \"#utility.yul\":12748:14517   */\n      swap3\n      swap6\n      swap9\n      pop\n      swap3\n      swap6\n      swap9\n      pop\n      swap3\n      swap6\n      swap9\n      jump\t// out\n        /* \"#utility.yul\":14523:14852   */\n    tag_68:\n        /* \"#utility.yul\":14582:14588   */\n      0x00\n        /* \"#utility.yul\":14631:14633   */\n      0x20\n        /* \"#utility.yul\":14619:14628   */\n      dup3\n        /* \"#utility.yul\":14610:14617   */\n      dup5\n        /* \"#utility.yul\":14606:14629   */\n      sub\n        /* \"#utility.yul\":14602:14634   */\n      slt\n        /* \"#utility.yul\":14599:14718   */\n      iszero\n      tag_576\n      jumpi\n        /* \"#utility.yul\":14637:14716   */\n      tag_577\n      tag_489\n      jump\t// in\n    tag_577:\n        /* \"#utility.yul\":14599:14718   */\n    tag_576:\n        /* \"#utility.yul\":14757:14758   */\n      0x00\n        /* \"#utility.yul\":14782:14835   */\n      tag_578\n        /* \"#utility.yul\":14827:14834   */\n      dup5\n        /* \"#utility.yul\":14818:14824   */\n      dup3\n        /* \"#utility.yul\":14807:14816   */\n      dup6\n        /* \"#utility.yul\":14803:14825   */\n      add\n        /* \"#utility.yul\":14782:14835   */\n      tag_462\n      jump\t// in\n    tag_578:\n        /* \"#utility.yul\":14772:14835   */\n      swap2\n      pop\n        /* \"#utility.yul\":14728:14845   */\n      pop\n        /* \"#utility.yul\":14523:14852   */\n      swap3\n      swap2\n      pop\n      pop\n      jump\t// out\n        /* \"#utility.yul\":14858:15332   */\n    tag_91:\n        /* \"#utility.yul\":14926:14932   */\n      0x00\n        /* \"#utility.yul\":14934:14940   */\n      dup1\n        /* \"#utility.yul\":14983:14985   */\n      0x40\n        /* \"#utility.yul\":14971:14980   */\n      dup4\n        /* \"#utility.yul\":14962:14969   */\n      dup6\n        /* \"#utility.yul\":14958:14981   */\n      sub\n        /* \"#utility.yul\":14954:14986   */\n      slt\n        /* \"#utility.yul\":14951:15070   */\n      iszero\n      tag_580\n      jumpi\n        /* \"#utility.yul\":14989:15068   */\n      tag_581\n      tag_489\n      jump\t// in\n    tag_581:\n        /* \"#utility.yul\":14951:15070   */\n    tag_580:\n        /* \"#utility.yul\":15109:15110   */\n      0x00\n        /* \"#utility.yul\":15134:15187   */\n      tag_582\n        /* \"#utility.yul\":15179:15186   */\n      dup6\n        /* \"#utility.yul\":15170:15176   */\n      dup3\n        /* \"#utility.yul\":15159:15168   */\n      dup7\n        /* \"#utility.yul\":15155:15177   */\n      add\n        /* \"#utility.yul\":15134:15187   */\n      tag_462\n      jump\t// in\n    tag_582:\n        /* \"#utility.yul\":15124:15187   */\n      swap3\n      pop\n        /* \"#utility.yul\":15080:15197   */\n      pop\n        /* \"#utility.yul\":15236:15238   */\n      0x20\n        /* \"#utility.yul\":15262:15315   */\n      tag_583\n        /* \"#utility.yul\":15307:15314   */\n      dup6\n        /* \"#utility.yul\":15298:15304   */\n      dup3\n        /* \"#utility.yul\":15287:15296   */\n      dup7\n        /* \"#utility.yul\":15283:15305   */\n      add\n        /* \"#utility.yul\":15262:15315   */\n      tag_427\n      jump\t// in\n    tag_583:\n        /* \"#utility.yul\":15252:15315   */\n      swap2\n      pop\n        /* \"#utility.yul\":15207:15325   */\n      pop\n        /* \"#utility.yul\":14858:15332   */\n      swap3\n      pop\n      swap3\n      swap1\n      pop\n      jump\t// out\n        /* \"#utility.yul\":15338:15665   */\n    tag_48:\n        /* \"#utility.yul\":15396:15402   */\n      0x00\n        /* \"#utility.yul\":15445:15447   */\n      0x20\n        /* \"#utility.yul\":15433:15442   */\n      dup3\n        /* \"#utility.yul\":15424:15431   */\n      dup5\n        /* \"#utility.yul\":15420:15443   */\n      sub\n        /* \"#utility.yul\":15416:15448   */\n      slt\n        /* \"#utility.yul\":15413:15532   */\n      iszero\n      tag_585\n      jumpi\n        /* \"#utility.yul\":15451:15530   */\n      tag_586\n      tag_489\n      jump\t// in\n    tag_586:\n        /* \"#utility.yul\":15413:15532   */\n    tag_585:\n        /* \"#utility.yul\":15571:15572   */\n      0x00\n        /* \"#utility.yul\":15596:15648   */\n      tag_587\n        /* \"#utility.yul\":15640:15647   */\n      dup5\n        /* \"#utility.yul\":15631:15637   */\n      dup3\n        /* \"#utility.yul\":15620:15629   */\n      dup6\n        /* \"#utility.yul\":15616:15638   */\n      add\n        /* \"#utility.yul\":15596:15648   */\n      tag_466\n      jump\t// in\n    tag_587:\n        /* \"#utility.yul\":15586:15648   */\n      swap2\n      pop\n        /* \"#utility.yul\":15542:15658   */\n      pop\n        /* \"#utility.yul\":15338:15665   */\n      swap3\n      swap2\n      pop\n      pop\n      jump\t// out\n        /* \"#utility.yul\":15671:16000   */\n    tag_110:\n        /* \"#utility.yul\":15730:15736   */\n      0x00\n        /* \"#utility.yul\":15779:15781   */\n      0x20\n        /* \"#utility.yul\":15767:15776   */\n      dup3\n        /* \"#utility.yul\":15758:15765   */\n      dup5\n        /* \"#utility.yul\":15754:15777   */\n      sub\n        /* \"#utility.yul\":15750:15782   */\n      slt\n        /* \"#utility.yul\":15747:15866   */\n      iszero\n      tag_589\n      jumpi\n        /* \"#utility.yul\":15785:15864   */\n      tag_590\n      tag_489\n      jump\t// in\n    tag_590:\n        /* \"#utility.yul\":15747:15866   */\n    tag_589:\n        /* \"#utility.yul\":15905:15906   */\n      0x00\n        /* \"#utility.yul\":15930:15983   */\n      tag_591\n        /* \"#utility.yul\":15975:15982   */\n      dup5\n        /* \"#utility.yul\":15966:15972   */\n      dup3\n        /* \"#utility.yul\":15955:15964   */\n      dup6\n        /* \"#utility.yul\":15951:15973   */\n      add\n        /* \"#utility.yul\":15930:15983   */\n      tag_416\n      jump\t// in\n    tag_591:\n        /* \"#utility.yul\":15920:15983   */\n      swap2\n      pop\n        /* \"#utility.yul\":15876:15993   */\n      pop\n        /* \"#utility.yul\":15671:16000   */\n      swap3\n      swap2\n      pop\n      pop\n      jump\t// out\n        /* \"#utility.yul\":16006:16185   */\n    tag_592:\n        /* \"#utility.yul\":16075:16085   */\n      0x00\n        /* \"#utility.yul\":16096:16142   */\n      tag_594\n        /* \"#utility.yul\":16138:16141   */\n      dup4\n        /* \"#utility.yul\":16130:16136   */\n      dup4\n        /* \"#utility.yul\":16096:16142   */\n      tag_595\n      jump\t// in\n    tag_594:\n        /* \"#utility.yul\":16174:16178   */\n      0x20\n        /* \"#utility.yul\":16169:16172   */\n      dup4\n        /* \"#utility.yul\":16165:16179   */\n      add\n        /* \"#utility.yul\":16151:16179   */\n      swap1\n      pop\n        /* \"#utility.yul\":16006:16185   */\n      swap3\n      swap2\n      pop\n      pop\n      jump\t// out\n        /* \"#utility.yul\":16191:16403   */\n    tag_596:\n        /* \"#utility.yul\":16288:16298   */\n      0x00\n        /* \"#utility.yul\":16323:16397   */\n      tag_598\n        /* \"#utility.yul\":16393:16396   */\n      dup5\n        /* \"#utility.yul\":16385:16391   */\n      dup5\n        /* \"#utility.yul\":16377:16383   */\n      dup5\n        /* \"#utility.yul\":16323:16397   */\n      tag_599\n      jump\t// in\n    tag_598:\n        /* \"#utility.yul\":16309:16397   */\n      swap1\n      pop\n        /* \"#utility.yul\":16191:16403   */\n      swap4\n      swap3\n      pop\n      pop\n      pop\n      jump\t// out\n        /* \"#utility.yul\":16409:16517   */\n    tag_595:\n        /* \"#utility.yul\":16486:16510   */\n      tag_601\n        /* \"#utility.yul\":16504:16509   */\n      dup2\n        /* \"#utility.yul\":16486:16510   */\n      tag_602\n      jump\t// in\n    tag_601:\n        /* \"#utility.yul\":16481:16484   */\n      dup3\n        /* \"#utility.yul\":16474:16511   */\n      mstore\n        /* \"#utility.yul\":16409:16517   */\n      pop\n      pop\n      jump\t// out\n        /* \"#utility.yul\":16523:16641   */\n    tag_603:\n        /* \"#utility.yul\":16610:16634   */\n      tag_605\n        /* \"#utility.yul\":16628:16633   */\n      dup2\n        /* \"#utility.yul\":16610:16634   */\n      tag_602\n      jump\t// in\n    tag_605:\n        /* \"#utility.yul\":16605:16608   */\n      dup3\n        /* \"#utility.yul\":16598:16635   */\n      mstore\n        /* \"#utility.yul\":16523:16641   */\n      pop\n      pop\n      jump\t// out\n        /* \"#utility.yul\":16677:17376   */\n    tag_606:\n        /* \"#utility.yul\":16806:16809   */\n      0x00\n        /* \"#utility.yul\":16829:16915   */\n      tag_608\n        /* \"#utility.yul\":16908:16914   */\n      dup4\n        /* \"#utility.yul\":16903:16906   */\n      dup6\n        /* \"#utility.yul\":16829:16915   */\n      tag_609\n      jump\t// in\n    tag_608:\n        /* \"#utility.yul\":16822:16915   */\n      swap4\n      pop\n        /* \"#utility.yul\":16939:16997   */\n      tag_610\n        /* \"#utility.yul\":16991:16996   */\n      dup3\n        /* \"#utility.yul\":16939:16997   */\n      tag_611\n      jump\t// in\n    tag_610:\n        /* \"#utility.yul\":17020:17027   */\n      dup1\n        /* \"#utility.yul\":17051:17052   */\n      0x00\n        /* \"#utility.yul\":17036:17351   */\n    tag_612:\n        /* \"#utility.yul\":17061:17067   */\n      dup6\n        /* \"#utility.yul\":17058:17059   */\n      dup2\n        /* \"#utility.yul\":17055:17068   */\n      lt\n        /* \"#utility.yul\":17036:17351   */\n      iszero\n      tag_614\n      jumpi\n        /* \"#utility.yul\":17131:17173   */\n      tag_615\n        /* \"#utility.yul\":17166:17172   */\n      dup3\n        /* \"#utility.yul\":17157:17164   */\n      dup5\n        /* \"#utility.yul\":17131:17173   */\n      tag_616\n      jump\t// in\n    tag_615:\n        /* \"#utility.yul\":17193:17256   */\n      tag_617\n        /* \"#utility.yul\":17252:17255   */\n      dup9\n        /* \"#utility.yul\":17237:17250   */\n      dup3\n        /* \"#utility.yul\":17193:17256   */\n      tag_592\n      jump\t// in\n    tag_617:\n        /* \"#utility.yul\":17186:17256   */\n      swap8\n      pop\n        /* \"#utility.yul\":17279:17341   */\n      tag_618\n        /* \"#utility.yul\":17334:17340   */\n      dup4\n        /* \"#utility.yul\":17279:17341   */\n      tag_619\n      jump\t// in\n    tag_618:\n        /* \"#utility.yul\":17269:17341   */\n      swap3\n      pop\n        /* \"#utility.yul\":17096:17351   */\n      pop\n        /* \"#utility.yul\":17083:17084   */\n      0x01\n        /* \"#utility.yul\":17080:17081   */\n      dup2\n        /* \"#utility.yul\":17076:17085   */\n      add\n        /* \"#utility.yul\":17071:17085   */\n      swap1\n      pop\n        /* \"#utility.yul\":17036:17351   */\n      jump(tag_612)\n    tag_614:\n        /* \"#utility.yul\":17040:17054   */\n      pop\n        /* \"#utility.yul\":17367:17370   */\n      dup6\n        /* \"#utility.yul\":17360:17370   */\n      swap3\n      pop\n        /* \"#utility.yul\":16811:17376   */\n      pop\n      pop\n        /* \"#utility.yul\":16677:17376   */\n      swap4\n      swap3\n      pop\n      pop\n      pop\n      jump\t// out\n        /* \"#utility.yul\":17408:18398   */\n    tag_620:\n        /* \"#utility.yul\":17557:17560   */\n      0x00\n        /* \"#utility.yul\":17580:17675   */\n      tag_622\n        /* \"#utility.yul\":17668:17674   */\n      dup4\n        /* \"#utility.yul\":17663:17666   */\n      dup6\n        /* \"#utility.yul\":17580:17675   */\n      tag_623\n      jump\t// in\n    tag_622:\n        /* \"#utility.yul\":17573:17675   */\n      swap4\n      pop\n        /* \"#utility.yul\":17701:17704   */\n      dup4\n        /* \"#utility.yul\":17746:17750   */\n      0x20\n        /* \"#utility.yul\":17738:17744   */\n      dup5\n        /* \"#utility.yul\":17734:17751   */\n      mul\n        /* \"#utility.yul\":17729:17732   */\n      dup6\n        /* \"#utility.yul\":17725:17752   */\n      add\n        /* \"#utility.yul\":17776:17845   */\n      tag_624\n        /* \"#utility.yul\":17839:17844   */\n      dup5\n        /* \"#utility.yul\":17776:17845   */\n      tag_625\n      jump\t// in\n    tag_624:\n        /* \"#utility.yul\":17868:17875   */\n      dup1\n        /* \"#utility.yul\":17899:17900   */\n      0x00\n        /* \"#utility.yul\":17884:18353   */\n    tag_626:\n        /* \"#utility.yul\":17909:17915   */\n      dup8\n        /* \"#utility.yul\":17906:17907   */\n      dup2\n        /* \"#utility.yul\":17903:17916   */\n      lt\n        /* \"#utility.yul\":17884:18353   */\n      iszero\n      tag_628\n      jumpi\n        /* \"#utility.yul\":17980:17989   */\n      dup5\n        /* \"#utility.yul\":17974:17978   */\n      dup5\n        /* \"#utility.yul\":17970:17990   */\n      sub\n        /* \"#utility.yul\":17965:17968   */\n      dup10\n        /* \"#utility.yul\":17958:17991   */\n      mstore\n        /* \"#utility.yul\":18040:18093   */\n      tag_629\n        /* \"#utility.yul\":18086:18092   */\n      dup3\n        /* \"#utility.yul\":18077:18084   */\n      dup5\n        /* \"#utility.yul\":18040:18093   */\n      tag_630\n      jump\t// in\n    tag_629:\n        /* \"#utility.yul\":18114:18213   */\n      tag_631\n        /* \"#utility.yul\":18208:18212   */\n      dup7\n        /* \"#utility.yul\":18193:18206   */\n      dup3\n        /* \"#utility.yul\":18178:18191   */\n      dup5\n        /* \"#utility.yul\":18114:18213   */\n      tag_596\n      jump\t// in\n    tag_631:\n        /* \"#utility.yul\":18106:18213   */\n      swap6\n      pop\n        /* \"#utility.yul\":18236:18309   */\n      tag_632\n        /* \"#utility.yul\":18302:18308   */\n      dup5\n        /* \"#utility.yul\":18236:18309   */\n      tag_633\n      jump\t// in\n    tag_632:\n        /* \"#utility.yul\":18226:18309   */\n      swap4\n      pop\n        /* \"#utility.yul\":18338:18342   */\n      0x20\n        /* \"#utility.yul\":18333:18336   */\n      dup12\n        /* \"#utility.yul\":18329:18343   */\n      add\n        /* \"#utility.yul\":18322:18343   */\n      swap11\n      pop\n        /* \"#utility.yul\":17944:18353   */\n      pop\n      pop\n        /* \"#utility.yul\":17931:17932   */\n      0x01\n        /* \"#utility.yul\":17928:17929   */\n      dup2\n        /* \"#utility.yul\":17924:17933   */\n      add\n        /* \"#utility.yul\":17919:17933   */\n      swap1\n      pop\n        /* \"#utility.yul\":17884:18353   */\n      jump(tag_626)\n    tag_628:\n        /* \"#utility.yul\":17888:17902   */\n      pop\n        /* \"#utility.yul\":18369:18373   */\n      dup3\n        /* \"#utility.yul\":18362:18373   */\n      swap8\n      pop\n        /* \"#utility.yul\":18389:18392   */\n      dup8\n        /* \"#utility.yul\":18382:18392   */\n      swap5\n      pop\n        /* \"#utility.yul\":17562:18398   */\n      pop\n      pop\n      pop\n      pop\n        /* \"#utility.yul\":17408:18398   */\n      swap4\n      swap3\n      pop\n      pop\n      pop\n      jump\t// out\n        /* \"#utility.yul\":18434:18971   */\n    tag_634:\n        /* \"#utility.yul\":18562:18565   */\n      0x00\n        /* \"#utility.yul\":18583:18669   */\n      tag_636\n        /* \"#utility.yul\":18662:18668   */\n      dup4\n        /* \"#utility.yul\":18657:18660   */\n      dup6\n        /* \"#utility.yul\":18583:18669   */\n      tag_637\n      jump\t// in\n    tag_636:\n        /* \"#utility.yul\":18576:18669   */\n      swap4\n      pop\n        /* \"#utility.yul\":18693:18759   */\n      0x07ffffffffffffffffffffffffffffffffffffffffffffffffffffffffffffff\n        /* \"#utility.yul\":18685:18691   */\n      dup4\n        /* \"#utility.yul\":18682:18760   */\n      gt\n        /* \"#utility.yul\":18679:18844   */\n      iszero\n      tag_638\n      jumpi\n        /* \"#utility.yul\":18763:18842   */\n      tag_639\n      tag_640\n      jump\t// in\n    tag_639:\n        /* \"#utility.yul\":18679:18844   */\n    tag_638:\n        /* \"#utility.yul\":18875:18879   */\n      0x20\n        /* \"#utility.yul\":18867:18873   */\n      dup4\n        /* \"#utility.yul\":18863:18880   */\n      mul\n        /* \"#utility.yul\":18853:18880   */\n      swap3\n      pop\n        /* \"#utility.yul\":18890:18933   */\n      tag_641\n        /* \"#utility.yul\":18926:18932   */\n      dup4\n        /* \"#utility.yul\":18921:18924   */\n      dup6\n        /* \"#utility.yul\":18914:18919   */\n      dup5\n        /* \"#utility.yul\":18890:18933   */\n      tag_426\n      jump\t// in\n    tag_641:\n        /* \"#utility.yul\":18958:18964   */\n      dup3\n        /* \"#utility.yul\":18953:18956   */\n      dup5\n        /* \"#utility.yul\":18949:18965   */\n      add\n        /* \"#utility.yul\":18942:18965   */\n      swap1\n      pop\n        /* \"#utility.yul\":18434:18971   */\n      swap4\n      swap3\n      pop\n      pop\n      pop\n      jump\t// out\n        /* \"#utility.yul\":18977:19086   */\n    tag_642:\n        /* \"#utility.yul\":19058:19079   */\n      tag_644\n        /* \"#utility.yul\":19073:19078   */\n      dup2\n        /* \"#utility.yul\":19058:19079   */\n      tag_645\n      jump\t// in\n    tag_644:\n        /* \"#utility.yul\":19053:19056   */\n      dup3\n        /* \"#utility.yul\":19046:19080   */\n      mstore\n        /* \"#utility.yul\":18977:19086   */\n      pop\n      pop\n      jump\t// out\n        /* \"#utility.yul\":19092:19210   */\n    tag_646:\n        /* \"#utility.yul\":19179:19203   */\n      tag_648\n        /* \"#utility.yul\":19197:19202   */\n      dup2\n        /* \"#utility.yul\":19179:19203   */\n      tag_649\n      jump\t// in\n    tag_648:\n        /* \"#utility.yul\":19174:19177   */\n      dup3\n        /* \"#utility.yul\":19167:19204   */\n      mstore\n        /* \"#utility.yul\":19092:19210   */\n      pop\n      pop\n      jump\t// out\n        /* \"#utility.yul\":19216:19331   */\n    tag_650:\n        /* \"#utility.yul\":19301:19324   */\n      tag_652\n        /* \"#utility.yul\":19318:19323   */\n      dup2\n        /* \"#utility.yul\":19301:19324   */\n      tag_653\n      jump\t// in\n    tag_652:\n        /* \"#utility.yul\":19296:19299   */\n      dup3\n        /* \"#utility.yul\":19289:19325   */\n      mstore\n        /* \"#utility.yul\":19216:19331   */\n      pop\n      pop\n      jump\t// out\n        /* \"#utility.yul\":19359:19640   */\n    tag_599:\n        /* \"#utility.yul\":19445:19448   */\n      0x00\n        /* \"#utility.yul\":19466:19526   */\n      tag_655\n        /* \"#utility.yul\":19519:19525   */\n      dup4\n        /* \"#utility.yul\":19514:19517   */\n      dup6\n        /* \"#utility.yul\":19466:19526   */\n      tag_656\n      jump\t// in\n    tag_655:\n        /* \"#utility.yul\":19459:19526   */\n      swap4\n      pop\n        /* \"#utility.yul\":19536:19579   */\n      tag_657\n        /* \"#utility.yul\":19572:19578   */\n      dup4\n        /* \"#utility.yul\":19567:19570   */\n      dup6\n        /* \"#utility.yul\":19560:19565   */\n      dup5\n        /* \"#utility.yul\":19536:19579   */\n      tag_426\n      jump\t// in\n    tag_657:\n        /* \"#utility.yul\":19604:19633   */\n      tag_658\n        /* \"#utility.yul\":19626:19632   */\n      dup4\n        /* \"#utility.yul\":19604:19633   */\n      tag_659\n      jump\t// in\n    tag_658:\n        /* \"#utility.yul\":19599:19602   */\n      dup5\n        /* \"#utility.yul\":19595:19634   */\n      add\n        /* \"#utility.yul\":19588:19634   */\n      swap1\n      pop\n        /* \"#utility.yul\":19359:19640   */\n      swap4\n      swap3\n      pop\n      pop\n      pop\n      jump\t// out\n        /* \"#utility.yul\":19668:19969   */\n    tag_660:\n        /* \"#utility.yul\":19764:19767   */\n      0x00\n        /* \"#utility.yul\":19785:19855   */\n      tag_662\n        /* \"#utility.yul\":19848:19854   */\n      dup4\n        /* \"#utility.yul\":19843:19846   */\n      dup6\n        /* \"#utility.yul\":19785:19855   */\n      tag_663\n      jump\t// in\n    tag_662:\n        /* \"#utility.yul\":19778:19855   */\n      swap4\n      pop\n        /* \"#utility.yul\":19865:19908   */\n      tag_664\n        /* \"#utility.yul\":19901:19907   */\n      dup4\n        /* \"#utility.yul\":19896:19899   */\n      dup6\n        /* \"#utility.yul\":19889:19894   */\n      dup5\n        /* \"#utility.yul\":19865:19908   */\n      tag_426\n      jump\t// in\n    tag_664:\n        /* \"#utility.yul\":19933:19962   */\n      tag_665\n        /* \"#utility.yul\":19955:19961   */\n      dup4\n        /* \"#utility.yul\":19933:19962   */\n      tag_659\n      jump\t// in\n    tag_665:\n        /* \"#utility.yul\":19928:19931   */\n      dup5\n        /* \"#utility.yul\":19924:19963   */\n      add\n        /* \"#utility.yul\":19917:19963   */\n      swap1\n      pop\n        /* \"#utility.yul\":19668:19969   */\n      swap4\n      swap3\n      pop\n      pop\n      pop\n      jump\t// out\n        /* \"#utility.yul\":19997:20311   */\n    tag_666:\n        /* \"#utility.yul\":20111:20114   */\n      0x00\n        /* \"#utility.yul\":20132:20220   */\n      tag_668\n        /* \"#utility.yul\":20213:20219   */\n      dup4\n        /* \"#utility.yul\":20208:20211   */\n      dup6\n        /* \"#utility.yul\":20132:20220   */\n      tag_669\n      jump\t// in\n    tag_668:\n        /* \"#utility.yul\":20125:20220   */\n      swap4\n      pop\n        /* \"#utility.yul\":20230:20273   */\n      tag_670\n        /* \"#utility.yul\":20266:20272   */\n      dup4\n        /* \"#utility.yul\":20261:20264   */\n      dup6\n        /* \"#utility.yul\":20254:20259   */\n      dup5\n        /* \"#utility.yul\":20230:20273   */\n      tag_426\n      jump\t// in\n    tag_670:\n        /* \"#utility.yul\":20298:20304   */\n      dup3\n        /* \"#utility.yul\":20293:20296   */\n      dup5\n        /* \"#utility.yul\":20289:20305   */\n      add\n        /* \"#utility.yul\":20282:20305   */\n      swap1\n      pop\n        /* \"#utility.yul\":19997:20311   */\n      swap4\n      swap3\n      pop\n      pop\n      pop\n      jump\t// out\n        /* \"#utility.yul\":20317:20681   */\n    tag_671:\n        /* \"#utility.yul\":20405:20408   */\n      0x00\n        /* \"#utility.yul\":20433:20472   */\n      tag_673\n        /* \"#utility.yul\":20466:20471   */\n      dup3\n        /* \"#utility.yul\":20433:20472   */\n      tag_674\n      jump\t// in\n    tag_673:\n        /* \"#utility.yul\":20488:20559   */\n      tag_675\n        /* \"#utility.yul\":20552:20558   */\n      dup2\n        /* \"#utility.yul\":20547:20550   */\n      dup6\n        /* \"#utility.yul\":20488:20559   */\n      tag_676\n      jump\t// in\n    tag_675:\n        /* \"#utility.yul\":20481:20559   */\n      swap4\n      pop\n        /* \"#utility.yul\":20568:20620   */\n      tag_677\n        /* \"#utility.yul\":20613:20619   */\n      dup2\n        /* \"#utility.yul\":20608:20611   */\n      dup6\n        /* \"#utility.yul\":20601:20605   */\n      0x20\n        /* \"#utility.yul\":20594:20599   */\n      dup7\n        /* \"#utility.yul\":20590:20606   */\n      add\n        /* \"#utility.yul\":20568:20620   */\n      tag_678\n      jump\t// in\n    tag_677:\n        /* \"#utility.yul\":20645:20674   */\n      tag_679\n        /* \"#utility.yul\":20667:20673   */\n      dup2\n        /* \"#utility.yul\":20645:20674   */\n      tag_659\n      jump\t// in\n    tag_679:\n        /* \"#utility.yul\":20640:20643   */\n      dup5\n        /* \"#utility.yul\":20636:20675   */\n      add\n        /* \"#utility.yul\":20629:20675   */\n      swap2\n      pop\n        /* \"#utility.yul\":20409:20681   */\n      pop\n        /* \"#utility.yul\":20317:20681   */\n      swap3\n      swap2\n      pop\n      pop\n      jump\t// out\n        /* \"#utility.yul\":20687:21064   */\n    tag_680:\n        /* \"#utility.yul\":20793:20796   */\n      0x00\n        /* \"#utility.yul\":20821:20860   */\n      tag_682\n        /* \"#utility.yul\":20854:20859   */\n      dup3\n        /* \"#utility.yul\":20821:20860   */\n      tag_674\n      jump\t// in\n    tag_682:\n        /* \"#utility.yul\":20876:20965   */\n      tag_683\n        /* \"#utility.yul\":20958:20964   */\n      dup2\n        /* \"#utility.yul\":20953:20956   */\n      dup6\n        /* \"#utility.yul\":20876:20965   */\n      tag_684\n      jump\t// in\n    tag_683:\n        /* \"#utility.yul\":20869:20965   */\n      swap4\n      pop\n        /* \"#utility.yul\":20974:21026   */\n      tag_685\n        /* \"#utility.yul\":21019:21025   */\n      dup2\n        /* \"#utility.yul\":21014:21017   */\n      dup6\n        /* \"#utility.yul\":21007:21011   */\n      0x20\n        /* \"#utility.yul\":21000:21005   */\n      dup7\n        /* \"#utility.yul\":20996:21012   */\n      add\n        /* \"#utility.yul\":20974:21026   */\n      tag_678\n      jump\t// in\n    tag_685:\n        /* \"#utility.yul\":21051:21057   */\n      dup1\n        /* \"#utility.yul\":21046:21049   */\n      dup5\n        /* \"#utility.yul\":21042:21058   */\n      add\n        /* \"#utility.yul\":21035:21058   */\n      swap2\n      pop\n        /* \"#utility.yul\":20797:21064   */\n      pop\n        /* \"#utility.yul\":20687:21064   */\n      swap3\n      swap2\n      pop\n      pop\n      jump\t// out\n        /* \"#utility.yul\":21070:21436   */\n    tag_686:\n        /* \"#utility.yul\":21212:21215   */\n      0x00\n        /* \"#utility.yul\":21233:21300   */\n      tag_688\n        /* \"#utility.yul\":21297:21299   */\n      0x20\n        /* \"#utility.yul\":21292:21295   */\n      dup4\n        /* \"#utility.yul\":21233:21300   */\n      tag_676\n      jump\t// in\n    tag_688:\n        /* \"#utility.yul\":21226:21300   */\n      swap2\n      pop\n        /* \"#utility.yul\":21309:21402   */\n      tag_689\n        /* \"#utility.yul\":21398:21401   */\n      dup3\n        /* \"#utility.yul\":21309:21402   */\n      tag_690\n      jump\t// in\n    tag_689:\n        /* \"#utility.yul\":21427:21429   */\n      0x20\n        /* \"#utility.yul\":21422:21425   */\n      dup3\n        /* \"#utility.yul\":21418:21430   */\n      add\n        /* \"#utility.yul\":21411:21430   */\n      swap1\n      pop\n        /* \"#utility.yul\":21070:21436   */\n      swap2\n      swap1\n      pop\n      jump\t// out\n        /* \"#utility.yul\":21442:21808   */\n    tag_691:\n        /* \"#utility.yul\":21584:21587   */\n      0x00\n        /* \"#utility.yul\":21605:21672   */\n      tag_693\n        /* \"#utility.yul\":21669:21671   */\n      0x26\n        /* \"#utility.yul\":21664:21667   */\n      dup4\n        /* \"#utility.yul\":21605:21672   */\n      tag_676\n      jump\t// in\n    tag_693:\n        /* \"#utility.yul\":21598:21672   */\n      swap2\n      pop\n        /* \"#utility.yul\":21681:21774   */\n      tag_694\n        /* \"#utility.yul\":21770:21773   */\n      dup3\n        /* \"#utility.yul\":21681:21774   */\n      tag_695\n      jump\t// in\n    tag_694:\n        /* \"#utility.yul\":21799:21801   */\n      0x40\n        /* \"#utility.yul\":21794:21797   */\n      dup3\n        /* \"#utility.yul\":21790:21802   */\n      add\n        /* \"#utility.yul\":21783:21802   */\n      swap1\n      pop\n        /* \"#utility.yul\":21442:21808   */\n      swap2\n      swap1\n      pop\n      jump\t// out\n        /* \"#utility.yul\":21814:22180   */\n    tag_696:\n        /* \"#utility.yul\":21956:21959   */\n      0x00\n        /* \"#utility.yul\":21977:22044   */\n      tag_698\n        /* \"#utility.yul\":22041:22043   */\n      0x23\n        /* \"#utility.yul\":22036:22039   */\n      dup4\n        /* \"#utility.yul\":21977:22044   */\n      tag_676\n      jump\t// in\n    tag_698:\n        /* \"#utility.yul\":21970:22044   */\n      swap2\n      pop\n        /* \"#utility.yul\":22053:22146   */\n      tag_699\n        /* \"#utility.yul\":22142:22145   */\n      dup3\n        /* \"#utility.yul\":22053:22146   */\n      tag_700\n      jump\t// in\n    tag_699:\n        /* \"#utility.yul\":22171:22173   */\n      0x40\n        /* \"#utility.yul\":22166:22169   */\n      dup3\n        /* \"#utility.yul\":22162:22174   */\n      add\n        /* \"#utility.yul\":22155:22174   */\n      swap1\n      pop\n        /* \"#utility.yul\":21814:22180   */\n      swap2\n      swap1\n      pop\n      jump\t// out\n        /* \"#utility.yul\":22186:22552   */\n    tag_701:\n        /* \"#utility.yul\":22328:22331   */\n      0x00\n        /* \"#utility.yul\":22349:22416   */\n      tag_703\n        /* \"#utility.yul\":22413:22415   */\n      0x26\n        /* \"#utility.yul\":22408:22411   */\n      dup4\n        /* \"#utility.yul\":22349:22416   */\n      tag_676\n      jump\t// in\n    tag_703:\n        /* \"#utility.yul\":22342:22416   */\n      swap2\n      pop\n        /* \"#utility.yul\":22425:22518   */\n      tag_704\n        /* \"#utility.yul\":22514:22517   */\n      dup3\n        /* \"#utility.yul\":22425:22518   */\n      tag_705\n      jump\t// in\n    tag_704:\n        /* \"#utility.yul\":22543:22545   */\n      0x40\n        /* \"#utility.yul\":22538:22541   */\n      dup3\n        /* \"#utility.yul\":22534:22546   */\n      add\n        /* \"#utility.yul\":22527:22546   */\n      swap1\n      pop\n        /* \"#utility.yul\":22186:22552   */\n      swap2\n      swap1\n      pop\n      jump\t// out\n        /* \"#utility.yul\":22558:22924   */\n    tag_706:\n        /* \"#utility.yul\":22700:22703   */\n      0x00\n        /* \"#utility.yul\":22721:22788   */\n      tag_708\n        /* \"#utility.yul\":22785:22787   */\n      0x2f\n        /* \"#utility.yul\":22780:22783   */\n      dup4\n        /* \"#utility.yul\":22721:22788   */\n      tag_676\n      jump\t// in\n    tag_708:\n        /* \"#utility.yul\":22714:22788   */\n      swap2\n      pop\n        /* \"#utility.yul\":22797:22890   */\n      tag_709\n        /* \"#utility.yul\":22886:22889   */\n      dup3\n        /* \"#utility.yul\":22797:22890   */\n      tag_710\n      jump\t// in\n    tag_709:\n        /* \"#utility.yul\":22915:22917   */\n      0x40\n        /* \"#utility.yul\":22910:22913   */\n      dup3\n        /* \"#utility.yul\":22906:22918   */\n      add\n        /* \"#utility.yul\":22899:22918   */\n      swap1\n      pop\n        /* \"#utility.yul\":22558:22924   */\n      swap2\n      swap1\n      pop\n      jump\t// out\n        /* \"#utility.yul\":22930:23296   */\n    tag_711:\n        /* \"#utility.yul\":23072:23075   */\n      0x00\n        /* \"#utility.yul\":23093:23160   */\n      tag_713\n        /* \"#utility.yul\":23157:23159   */\n      0x2a\n        /* \"#utility.yul\":23152:23155   */\n      dup4\n        /* \"#utility.yul\":23093:23160   */\n      tag_676\n      jump\t// in\n    tag_713:\n        /* \"#utility.yul\":23086:23160   */\n      swap2\n      pop\n        /* \"#utility.yul\":23169:23262   */\n      tag_714\n        /* \"#utility.yul\":23258:23261   */\n      dup3\n        /* \"#utility.yul\":23169:23262   */\n      tag_715\n      jump\t// in\n    tag_714:\n        /* \"#utility.yul\":23287:23289   */\n      0x40\n        /* \"#utility.yul\":23282:23285   */\n      dup3\n        /* \"#utility.yul\":23278:23290   */\n      add\n        /* \"#utility.yul\":23271:23290   */\n      swap1\n      pop\n        /* \"#utility.yul\":22930:23296   */\n      swap2\n      swap1\n      pop\n      jump\t// out\n        /* \"#utility.yul\":23302:23704   */\n    tag_716:\n        /* \"#utility.yul\":23462:23465   */\n      0x00\n        /* \"#utility.yul\":23483:23568   */\n      tag_718\n        /* \"#utility.yul\":23565:23567   */\n      0x17\n        /* \"#utility.yul\":23560:23563   */\n      dup4\n        /* \"#utility.yul\":23483:23568   */\n      tag_684\n      jump\t// in\n    tag_718:\n        /* \"#utility.yul\":23476:23568   */\n      swap2\n      pop\n        /* \"#utility.yul\":23577:23670   */\n      tag_719\n        /* \"#utility.yul\":23666:23669   */\n      dup3\n        /* \"#utility.yul\":23577:23670   */\n      tag_720\n      jump\t// in\n    tag_719:\n        /* \"#utility.yul\":23695:23697   */\n      0x17\n        /* \"#utility.yul\":23690:23693   */\n      dup3\n        /* \"#utility.yul\":23686:23698   */\n      add\n        /* \"#utility.yul\":23679:23698   */\n      swap1\n      pop\n        /* \"#utility.yul\":23302:23704   */\n      swap2\n      swap1\n      pop\n      jump\t// out\n        /* \"#utility.yul\":23710:24076   */\n    tag_721:\n        /* \"#utility.yul\":23852:23855   */\n      0x00\n        /* \"#utility.yul\":23873:23940   */\n      tag_723\n        /* \"#utility.yul\":23937:23939   */\n      0x31\n        /* \"#utility.yul\":23932:23935   */\n      dup4\n        /* \"#utility.yul\":23873:23940   */\n      tag_676\n      jump\t// in\n    tag_723:\n        /* \"#utility.yul\":23866:23940   */\n      swap2\n      pop\n        /* \"#utility.yul\":23949:24042   */\n      tag_724\n        /* \"#utility.yul\":24038:24041   */\n      dup3\n        /* \"#utility.yul\":23949:24042   */\n      tag_725\n      jump\t// in\n    tag_724:\n        /* \"#utility.yul\":24067:24069   */\n      0x40\n        /* \"#utility.yul\":24062:24065   */\n      dup3\n        /* \"#utility.yul\":24058:24070   */\n      add\n        /* \"#utility.yul\":24051:24070   */\n      swap1\n      pop\n        /* \"#utility.yul\":23710:24076   */\n      swap2\n      swap1\n      pop\n      jump\t// out\n        /* \"#utility.yul\":24082:24484   */\n    tag_726:\n        /* \"#utility.yul\":24242:24245   */\n      0x00\n        /* \"#utility.yul\":24263:24348   */\n      tag_728\n        /* \"#utility.yul\":24345:24347   */\n      0x11\n        /* \"#utility.yul\":24340:24343   */\n      dup4\n        /* \"#utility.yul\":24263:24348   */\n      tag_684\n      jump\t// in\n    tag_728:\n        /* \"#utility.yul\":24256:24348   */\n      swap2\n      pop\n        /* \"#utility.yul\":24357:24450   */\n      tag_729\n        /* \"#utility.yul\":24446:24449   */\n      dup3\n        /* \"#utility.yul\":24357:24450   */\n      tag_730\n      jump\t// in\n    tag_729:\n        /* \"#utility.yul\":24475:24477   */\n      0x11\n        /* \"#utility.yul\":24470:24473   */\n      dup3\n        /* \"#utility.yul\":24466:24478   */\n      add\n        /* \"#utility.yul\":24459:24478   */\n      swap1\n      pop\n        /* \"#utility.yul\":24082:24484   */\n      swap2\n      swap1\n      pop\n      jump\t// out\n        /* \"#utility.yul\":24490:24856   */\n    tag_731:\n        /* \"#utility.yul\":24632:24635   */\n      0x00\n        /* \"#utility.yul\":24653:24720   */\n      tag_733\n        /* \"#utility.yul\":24717:24719   */\n      0x2b\n        /* \"#utility.yul\":24712:24715   */\n      dup4\n        /* \"#utility.yul\":24653:24720   */\n      tag_676\n      jump\t// in\n    tag_733:\n        /* \"#utility.yul\":24646:24720   */\n      swap2\n      pop\n        /* \"#utility.yul\":24729:24822   */\n      tag_734\n        /* \"#utility.yul\":24818:24821   */\n      dup3\n        /* \"#utility.yul\":24729:24822   */\n      tag_735\n      jump\t// in\n    tag_734:\n        /* \"#utility.yul\":24847:24849   */\n      0x40\n        /* \"#utility.yul\":24842:24845   */\n      dup3\n        /* \"#utility.yul\":24838:24850   */\n      add\n        /* \"#utility.yul\":24831:24850   */\n      swap1\n      pop\n        /* \"#utility.yul\":24490:24856   */\n      swap2\n      swap1\n      pop\n      jump\t// out\n        /* \"#utility.yul\":24862:25228   */\n    tag_736:\n        /* \"#utility.yul\":25004:25007   */\n      0x00\n        /* \"#utility.yul\":25025:25092   */\n      tag_738\n        /* \"#utility.yul\":25089:25091   */\n      0x2f\n        /* \"#utility.yul\":25084:25087   */\n      dup4\n        /* \"#utility.yul\":25025:25092   */\n      tag_676\n      jump\t// in\n    tag_738:\n        /* \"#utility.yul\":25018:25092   */\n      swap2\n      pop\n        /* \"#utility.yul\":25101:25194   */\n      tag_739\n        /* \"#utility.yul\":25190:25193   */\n      dup3\n        /* \"#utility.yul\":25101:25194   */\n      tag_740\n      jump\t// in\n    tag_739:\n        /* \"#utility.yul\":25219:25221   */\n      0x40\n        /* \"#utility.yul\":25214:25217   */\n      dup3\n        /* \"#utility.yul\":25210:25222   */\n      add\n        /* \"#utility.yul\":25203:25222   */\n      swap1\n      pop\n        /* \"#utility.yul\":24862:25228   */\n      swap2\n      swap1\n      pop\n      jump\t// out\n        /* \"#utility.yul\":25234:25600   */\n    tag_741:\n        /* \"#utility.yul\":25376:25379   */\n      0x00\n        /* \"#utility.yul\":25397:25464   */\n      tag_743\n        /* \"#utility.yul\":25461:25463   */\n      0x33\n        /* \"#utility.yul\":25456:25459   */\n      dup4\n        /* \"#utility.yul\":25397:25464   */\n      tag_676\n      jump\t// in\n    tag_743:\n        /* \"#utility.yul\":25390:25464   */\n      swap2\n      pop\n        /* \"#utility.yul\":25473:25566   */\n      tag_744\n        /* \"#utility.yul\":25562:25565   */\n      dup3\n        /* \"#utility.yul\":25473:25566   */\n      tag_745\n      jump\t// in\n    tag_744:\n        /* \"#utility.yul\":25591:25593   */\n      0x40\n        /* \"#utility.yul\":25586:25589   */\n      dup3\n        /* \"#utility.yul\":25582:25594   */\n      add\n        /* \"#utility.yul\":25575:25594   */\n      swap1\n      pop\n        /* \"#utility.yul\":25234:25600   */\n      swap2\n      swap1\n      pop\n      jump\t// out\n        /* \"#utility.yul\":25606:25724   */\n    tag_746:\n        /* \"#utility.yul\":25693:25717   */\n      tag_748\n        /* \"#utility.yul\":25711:25716   */\n      dup2\n        /* \"#utility.yul\":25693:25717   */\n      tag_749\n      jump\t// in\n    tag_748:\n        /* \"#utility.yul\":25688:25691   */\n      dup3\n        /* \"#utility.yul\":25681:25718   */\n      mstore\n        /* \"#utility.yul\":25606:25724   */\n      pop\n      pop\n      jump\t// out\n        /* \"#utility.yul\":25730:26021   */\n    tag_356:\n        /* \"#utility.yul\":25870:25873   */\n      0x00\n        /* \"#utility.yul\":25892:25995   */\n      tag_751\n        /* \"#utility.yul\":25991:25994   */\n      dup3\n        /* \"#utility.yul\":25982:25988   */\n      dup5\n        /* \"#utility.yul\":25974:25980   */\n      dup7\n        /* \"#utility.yul\":25892:25995   */\n      tag_666\n      jump\t// in\n    tag_751:\n        /* \"#utility.yul\":25885:25995   */\n      swap2\n      pop\n        /* \"#utility.yul\":26012:26015   */\n      dup2\n        /* \"#utility.yul\":26005:26015   */\n      swap1\n      pop\n        /* \"#utility.yul\":25730:26021   */\n      swap4\n      swap3\n      pop\n      pop\n      pop\n      jump\t// out\n        /* \"#utility.yul\":26027:26994   */\n    tag_341:\n        /* \"#utility.yul\":26409:26412   */\n      0x00\n        /* \"#utility.yul\":26431:26579   */\n      tag_753\n        /* \"#utility.yul\":26575:26578   */\n      dup3\n        /* \"#utility.yul\":26431:26579   */\n      tag_716\n      jump\t// in\n    tag_753:\n        /* \"#utility.yul\":26424:26579   */\n      swap2\n      pop\n        /* \"#utility.yul\":26596:26691   */\n      tag_754\n        /* \"#utility.yul\":26687:26690   */\n      dup3\n        /* \"#utility.yul\":26678:26684   */\n      dup6\n        /* \"#utility.yul\":26596:26691   */\n      tag_680\n      jump\t// in\n    tag_754:\n        /* \"#utility.yul\":26589:26691   */\n      swap2\n      pop\n        /* \"#utility.yul\":26708:26856   */\n      tag_755\n        /* \"#utility.yul\":26852:26855   */\n      dup3\n        /* \"#utility.yul\":26708:26856   */\n      tag_726\n      jump\t// in\n    tag_755:\n        /* \"#utility.yul\":26701:26856   */\n      swap2\n      pop\n        /* \"#utility.yul\":26873:26968   */\n      tag_756\n        /* \"#utility.yul\":26964:26967   */\n      dup3\n        /* \"#utility.yul\":26955:26961   */\n      dup5\n        /* \"#utility.yul\":26873:26968   */\n      tag_680\n      jump\t// in\n    tag_756:\n        /* \"#utility.yul\":26866:26968   */\n      swap2\n      pop\n        /* \"#utility.yul\":26985:26988   */\n      dup2\n        /* \"#utility.yul\":26978:26988   */\n      swap1\n      pop\n        /* \"#utility.yul\":26027:26994   */\n      swap4\n      swap3\n      pop\n      pop\n      pop\n      jump\t// out\n        /* \"#utility.yul\":27000:27549   */\n    tag_205:\n        /* \"#utility.yul\":27177:27181   */\n      0x00\n        /* \"#utility.yul\":27215:27217   */\n      0x60\n        /* \"#utility.yul\":27204:27213   */\n      dup3\n        /* \"#utility.yul\":27200:27218   */\n      add\n        /* \"#utility.yul\":27192:27218   */\n      swap1\n      pop\n        /* \"#utility.yul\":27228:27299   */\n      tag_758\n        /* \"#utility.yul\":27296:27297   */\n      0x00\n        /* \"#utility.yul\":27285:27294   */\n      dup4\n        /* \"#utility.yul\":27281:27298   */\n      add\n        /* \"#utility.yul\":27272:27278   */\n      dup8\n        /* \"#utility.yul\":27228:27299   */\n      tag_603\n      jump\t// in\n    tag_758:\n        /* \"#utility.yul\":27309:27381   */\n      tag_759\n        /* \"#utility.yul\":27377:27379   */\n      0x20\n        /* \"#utility.yul\":27366:27375   */\n      dup4\n        /* \"#utility.yul\":27362:27380   */\n      add\n        /* \"#utility.yul\":27353:27359   */\n      dup7\n        /* \"#utility.yul\":27309:27381   */\n      tag_746\n      jump\t// in\n    tag_759:\n        /* \"#utility.yul\":27428:27437   */\n      dup2\n        /* \"#utility.yul\":27422:27426   */\n      dup2\n        /* \"#utility.yul\":27418:27438   */\n      sub\n        /* \"#utility.yul\":27413:27415   */\n      0x40\n        /* \"#utility.yul\":27402:27411   */\n      dup4\n        /* \"#utility.yul\":27398:27416   */\n      add\n        /* \"#utility.yul\":27391:27439   */\n      mstore\n        /* \"#utility.yul\":27456:27542   */\n      tag_760\n        /* \"#utility.yul\":27537:27541   */\n      dup2\n        /* \"#utility.yul\":27528:27534   */\n      dup5\n        /* \"#utility.yul\":27520:27526   */\n      dup7\n        /* \"#utility.yul\":27456:27542   */\n      tag_660\n      jump\t// in\n    tag_760:\n        /* \"#utility.yul\":27448:27542   */\n      swap1\n      pop\n        /* \"#utility.yul\":27000:27549   */\n      swap6\n      swap5\n      pop\n      pop\n      pop\n      pop\n      pop\n      jump\t// out\n        /* \"#utility.yul\":27555:28326   */\n    tag_240:\n        /* \"#utility.yul\":27788:27792   */\n      0x00\n        /* \"#utility.yul\":27826:27829   */\n      0xa0\n        /* \"#utility.yul\":27815:27824   */\n      dup3\n        /* \"#utility.yul\":27811:27830   */\n      add\n        /* \"#utility.yul\":27803:27830   */\n      swap1\n      pop\n        /* \"#utility.yul\":27840:27911   */\n      tag_762\n        /* \"#utility.yul\":27908:27909   */\n      0x00\n        /* \"#utility.yul\":27897:27906   */\n      dup4\n        /* \"#utility.yul\":27893:27910   */\n      add\n        /* \"#utility.yul\":27884:27890   */\n      dup10\n        /* \"#utility.yul\":27840:27911   */\n      tag_603\n      jump\t// in\n    tag_762:\n        /* \"#utility.yul\":27921:27993   */\n      tag_763\n        /* \"#utility.yul\":27989:27991   */\n      0x20\n        /* \"#utility.yul\":27978:27987   */\n      dup4\n        /* \"#utility.yul\":27974:27992   */\n      add\n        /* \"#utility.yul\":27965:27971   */\n      dup9\n        /* \"#utility.yul\":27921:27993   */\n      tag_746\n      jump\t// in\n    tag_763:\n        /* \"#utility.yul\":28040:28049   */\n      dup2\n        /* \"#utility.yul\":28034:28038   */\n      dup2\n        /* \"#utility.yul\":28030:28050   */\n      sub\n        /* \"#utility.yul\":28025:28027   */\n      0x40\n        /* \"#utility.yul\":28014:28023   */\n      dup4\n        /* \"#utility.yul\":28010:28028   */\n      add\n        /* \"#utility.yul\":28003:28051   */\n      mstore\n        /* \"#utility.yul\":28068:28154   */\n      tag_764\n        /* \"#utility.yul\":28149:28153   */\n      dup2\n        /* \"#utility.yul\":28140:28146   */\n      dup7\n        /* \"#utility.yul\":28132:28138   */\n      dup9\n        /* \"#utility.yul\":28068:28154   */\n      tag_660\n      jump\t// in\n    tag_764:\n        /* \"#utility.yul\":28060:28154   */\n      swap1\n      pop\n        /* \"#utility.yul\":28164:28236   */\n      tag_765\n        /* \"#utility.yul\":28232:28234   */\n      0x60\n        /* \"#utility.yul\":28221:28230   */\n      dup4\n        /* \"#utility.yul\":28217:28235   */\n      add\n        /* \"#utility.yul\":28208:28214   */\n      dup6\n        /* \"#utility.yul\":28164:28236   */\n      tag_646\n      jump\t// in\n    tag_765:\n        /* \"#utility.yul\":28246:28319   */\n      tag_766\n        /* \"#utility.yul\":28314:28317   */\n      0x80\n        /* \"#utility.yul\":28303:28312   */\n      dup4\n        /* \"#utility.yul\":28299:28318   */\n      add\n        /* \"#utility.yul\":28290:28296   */\n      dup5\n        /* \"#utility.yul\":28246:28319   */\n      tag_646\n      jump\t// in\n    tag_766:\n        /* \"#utility.yul\":27555:28326   */\n      swap8\n      swap7\n      pop\n      pop\n      pop\n      pop\n      pop\n      pop\n      pop\n      jump\t// out\n        /* \"#utility.yul\":28332:29103   */\n    tag_186:\n        /* \"#utility.yul\":28565:28569   */\n      0x00\n        /* \"#utility.yul\":28603:28606   */\n      0xa0\n        /* \"#utility.yul\":28592:28601   */\n      dup3\n        /* \"#utility.yul\":28588:28607   */\n      add\n        /* \"#utility.yul\":28580:28607   */\n      swap1\n      pop\n        /* \"#utility.yul\":28617:28688   */\n      tag_768\n        /* \"#utility.yul\":28685:28686   */\n      0x00\n        /* \"#utility.yul\":28674:28683   */\n      dup4\n        /* \"#utility.yul\":28670:28687   */\n      add\n        /* \"#utility.yul\":28661:28667   */\n      dup10\n        /* \"#utility.yul\":28617:28688   */\n      tag_603\n      jump\t// in\n    tag_768:\n        /* \"#utility.yul\":28698:28770   */\n      tag_769\n        /* \"#utility.yul\":28766:28768   */\n      0x20\n        /* \"#utility.yul\":28755:28764   */\n      dup4\n        /* \"#utility.yul\":28751:28769   */\n      add\n        /* \"#utility.yul\":28742:28748   */\n      dup9\n        /* \"#utility.yul\":28698:28770   */\n      tag_746\n      jump\t// in\n    tag_769:\n        /* \"#utility.yul\":28817:28826   */\n      dup2\n        /* \"#utility.yul\":28811:28815   */\n      dup2\n        /* \"#utility.yul\":28807:28827   */\n      sub\n        /* \"#utility.yul\":28802:28804   */\n      0x40\n        /* \"#utility.yul\":28791:28800   */\n      dup4\n        /* \"#utility.yul\":28787:28805   */\n      add\n        /* \"#utility.yul\":28780:28828   */\n      mstore\n        /* \"#utility.yul\":28845:28931   */\n      tag_770\n        /* \"#utility.yul\":28926:28930   */\n      dup2\n        /* \"#utility.yul\":28917:28923   */\n      dup7\n        /* \"#utility.yul\":28909:28915   */\n      dup9\n        /* \"#utility.yul\":28845:28931   */\n      tag_660\n      jump\t// in\n    tag_770:\n        /* \"#utility.yul\":28837:28931   */\n      swap1\n      pop\n        /* \"#utility.yul\":28941:29013   */\n      tag_771\n        /* \"#utility.yul\":29009:29011   */\n      0x60\n        /* \"#utility.yul\":28998:29007   */\n      dup4\n        /* \"#utility.yul\":28994:29012   */\n      add\n        /* \"#utility.yul\":28985:28991   */\n      dup6\n        /* \"#utility.yul\":28941:29013   */\n      tag_646\n      jump\t// in\n    tag_771:\n        /* \"#utility.yul\":29023:29096   */\n      tag_772\n        /* \"#utility.yul\":29091:29094   */\n      0x80\n        /* \"#utility.yul\":29080:29089   */\n      dup4\n        /* \"#utility.yul\":29076:29095   */\n      add\n        /* \"#utility.yul\":29067:29073   */\n      dup5\n        /* \"#utility.yul\":29023:29096   */\n      tag_746\n      jump\t// in\n    tag_772:\n        /* \"#utility.yul\":28332:29103   */\n      swap8\n      swap7\n      pop\n      pop\n      pop\n      pop\n      pop\n      pop\n      pop\n      jump\t// out\n        /* \"#utility.yul\":29109:30326   */\n    tag_271:\n        /* \"#utility.yul\":29514:29518   */\n      0x00\n        /* \"#utility.yul\":29552:29555   */\n      0xa0\n        /* \"#utility.yul\":29541:29550   */\n      dup3\n        /* \"#utility.yul\":29537:29556   */\n      add\n        /* \"#utility.yul\":29529:29556   */\n      swap1\n      pop\n        /* \"#utility.yul\":29602:29611   */\n      dup2\n        /* \"#utility.yul\":29596:29600   */\n      dup2\n        /* \"#utility.yul\":29592:29612   */\n      sub\n        /* \"#utility.yul\":29588:29589   */\n      0x00\n        /* \"#utility.yul\":29577:29586   */\n      dup4\n        /* \"#utility.yul\":29573:29590   */\n      add\n        /* \"#utility.yul\":29566:29613   */\n      mstore\n        /* \"#utility.yul\":29630:29748   */\n      tag_774\n        /* \"#utility.yul\":29743:29747   */\n      dup2\n        /* \"#utility.yul\":29734:29740   */\n      dup11\n        /* \"#utility.yul\":29726:29732   */\n      dup13\n        /* \"#utility.yul\":29630:29748   */\n      tag_606\n      jump\t// in\n    tag_774:\n        /* \"#utility.yul\":29622:29748   */\n      swap1\n      pop\n        /* \"#utility.yul\":29795:29804   */\n      dup2\n        /* \"#utility.yul\":29789:29793   */\n      dup2\n        /* \"#utility.yul\":29785:29805   */\n      sub\n        /* \"#utility.yul\":29780:29782   */\n      0x20\n        /* \"#utility.yul\":29769:29778   */\n      dup4\n        /* \"#utility.yul\":29765:29783   */\n      add\n        /* \"#utility.yul\":29758:29806   */\n      mstore\n        /* \"#utility.yul\":29823:29941   */\n      tag_775\n        /* \"#utility.yul\":29936:29940   */\n      dup2\n        /* \"#utility.yul\":29927:29933   */\n      dup9\n        /* \"#utility.yul\":29919:29925   */\n      dup11\n        /* \"#utility.yul\":29823:29941   */\n      tag_634\n      jump\t// in\n    tag_775:\n        /* \"#utility.yul\":29815:29941   */\n      swap1\n      pop\n        /* \"#utility.yul\":29988:29997   */\n      dup2\n        /* \"#utility.yul\":29982:29986   */\n      dup2\n        /* \"#utility.yul\":29978:29998   */\n      sub\n        /* \"#utility.yul\":29973:29975   */\n      0x40\n        /* \"#utility.yul\":29962:29971   */\n      dup4\n        /* \"#utility.yul\":29958:29976   */\n      add\n        /* \"#utility.yul\":29951:29999   */\n      mstore\n        /* \"#utility.yul\":30016:30154   */\n      tag_776\n        /* \"#utility.yul\":30149:30153   */\n      dup2\n        /* \"#utility.yul\":30140:30146   */\n      dup7\n        /* \"#utility.yul\":30132:30138   */\n      dup9\n        /* \"#utility.yul\":30016:30154   */\n      tag_620\n      jump\t// in\n    tag_776:\n        /* \"#utility.yul\":30008:30154   */\n      swap1\n      pop\n        /* \"#utility.yul\":30164:30236   */\n      tag_777\n        /* \"#utility.yul\":30232:30234   */\n      0x60\n        /* \"#utility.yul\":30221:30230   */\n      dup4\n        /* \"#utility.yul\":30217:30235   */\n      add\n        /* \"#utility.yul\":30208:30214   */\n      dup6\n        /* \"#utility.yul\":30164:30236   */\n      tag_646\n      jump\t// in\n    tag_777:\n        /* \"#utility.yul\":30246:30319   */\n      tag_778\n        /* \"#utility.yul\":30314:30317   */\n      0x80\n        /* \"#utility.yul\":30303:30312   */\n      dup4\n        /* \"#utility.yul\":30299:30318   */\n      add\n        /* \"#utility.yul\":30290:30296   */\n      dup5\n        /* \"#utility.yul\":30246:30319   */\n      tag_646\n      jump\t// in\n    tag_778:\n        /* \"#utility.yul\":29109:30326   */\n      swap10\n      swap9\n      pop\n      pop\n      pop\n      pop\n      pop\n      pop\n      pop\n      pop\n      pop\n      jump\t// out\n        /* \"#utility.yul\":30332:30542   */\n    tag_51:\n        /* \"#utility.yul\":30419:30423   */\n      0x00\n        /* \"#utility.yul\":30457:30459   */\n      0x20\n        /* \"#utility.yul\":30446:30455   */\n      dup3\n        /* \"#utility.yul\":30442:30460   */\n      add\n        /* \"#utility.yul\":30434:30460   */\n      swap1\n      pop\n        /* \"#utility.yul\":30470:30535   */\n      tag_780\n        /* \"#utility.yul\":30532:30533   */\n      0x00\n        /* \"#utility.yul\":30521:30530   */\n      dup4\n        /* \"#utility.yul\":30517:30534   */\n      add\n        /* \"#utility.yul\":30508:30514   */\n      dup5\n        /* \"#utility.yul\":30470:30535   */\n      tag_642\n      jump\t// in\n    tag_780:\n        /* \"#utility.yul\":30332:30542   */\n      swap3\n      swap2\n      pop\n      pop\n      jump\t// out\n        /* \"#utility.yul\":30548:30770   */\n    tag_56:\n        /* \"#utility.yul\":30641:30645   */\n      0x00\n        /* \"#utility.yul\":30679:30681   */\n      0x20\n        /* \"#utility.yul\":30668:30677   */\n      dup3\n        /* \"#utility.yul\":30664:30682   */\n      add\n        /* \"#utility.yul\":30656:30682   */\n      swap1\n      pop\n        /* \"#utility.yul\":30692:30763   */\n      tag_782\n        /* \"#utility.yul\":30760:30761   */\n      0x00\n        /* \"#utility.yul\":30749:30758   */\n      dup4\n        /* \"#utility.yul\":30745:30762   */\n      add\n        /* \"#utility.yul\":30736:30742   */\n      dup5\n        /* \"#utility.yul\":30692:30763   */\n      tag_646\n      jump\t// in\n    tag_782:\n        /* \"#utility.yul\":30548:30770   */\n      swap3\n      swap2\n      pop\n      pop\n      jump\t// out\n        /* \"#utility.yul\":30776:30994   */\n    tag_77:\n        /* \"#utility.yul\":30867:30871   */\n      0x00\n        /* \"#utility.yul\":30905:30907   */\n      0x20\n        /* \"#utility.yul\":30894:30903   */\n      dup3\n        /* \"#utility.yul\":30890:30908   */\n      add\n        /* \"#utility.yul\":30882:30908   */\n      swap1\n      pop\n        /* \"#utility.yul\":30918:30987   */\n      tag_784\n        /* \"#utility.yul\":30984:30985   */\n      0x00\n        /* \"#utility.yul\":30973:30982   */\n      dup4\n        /* \"#utility.yul\":30969:30986   */\n      add\n        /* \"#utility.yul\":30960:30966   */\n      dup5\n        /* \"#utility.yul\":30918:30987   */\n      tag_650\n      jump\t// in\n    tag_784:\n        /* \"#utility.yul\":30776:30994   */\n      swap3\n      swap2\n      pop\n      pop\n      jump\t// out\n        /* \"#utility.yul\":31000:31313   */\n    tag_343:\n        /* \"#utility.yul\":31113:31117   */\n      0x00\n        /* \"#utility.yul\":31151:31153   */\n      0x20\n        /* \"#utility.yul\":31140:31149   */\n      dup3\n        /* \"#utility.yul\":31136:31154   */\n      add\n        /* \"#utility.yul\":31128:31154   */\n      swap1\n      pop\n        /* \"#utility.yul\":31200:31209   */\n      dup2\n        /* \"#utility.yul\":31194:31198   */\n      dup2\n        /* \"#utility.yul\":31190:31210   */\n      sub\n        /* \"#utility.yul\":31186:31187   */\n      0x00\n        /* \"#utility.yul\":31175:31184   */\n      dup4\n        /* \"#utility.yul\":31171:31188   */\n      add\n        /* \"#utility.yul\":31164:31211   */\n      mstore\n        /* \"#utility.yul\":31228:31306   */\n      tag_786\n        /* \"#utility.yul\":31301:31305   */\n      dup2\n        /* \"#utility.yul\":31292:31298   */\n      dup5\n        /* \"#utility.yul\":31228:31306   */\n      tag_671\n      jump\t// in\n    tag_786:\n        /* \"#utility.yul\":31220:31306   */\n      swap1\n      pop\n        /* \"#utility.yul\":31000:31313   */\n      swap3\n      swap2\n      pop\n      pop\n      jump\t// out\n        /* \"#utility.yul\":31319:31738   */\n    tag_401:\n        /* \"#utility.yul\":31485:31489   */\n      0x00\n        /* \"#utility.yul\":31523:31525   */\n      0x20\n        /* \"#utility.yul\":31512:31521   */\n      dup3\n        /* \"#utility.yul\":31508:31526   */\n      add\n        /* \"#utility.yul\":31500:31526   */\n      swap1\n      pop\n        /* \"#utility.yul\":31572:31581   */\n      dup2\n        /* \"#utility.yul\":31566:31570   */\n      dup2\n        /* \"#utility.yul\":31562:31582   */\n      sub\n        /* \"#utility.yul\":31558:31559   */\n      0x00\n        /* \"#utility.yul\":31547:31556   */\n      dup4\n        /* \"#utility.yul\":31543:31560   */\n      add\n        /* \"#utility.yul\":31536:31583   */\n      mstore\n        /* \"#utility.yul\":31600:31731   */\n      tag_788\n        /* \"#utility.yul\":31726:31730   */\n      dup2\n        /* \"#utility.yul\":31600:31731   */\n      tag_686\n      jump\t// in\n    tag_788:\n        /* \"#utility.yul\":31592:31731   */\n      swap1\n      pop\n        /* \"#utility.yul\":31319:31738   */\n      swap2\n      swap1\n      pop\n      jump\t// out\n        /* \"#utility.yul\":31744:32163   */\n    tag_353:\n        /* \"#utility.yul\":31910:31914   */\n      0x00\n        /* \"#utility.yul\":31948:31950   */\n      0x20\n        /* \"#utility.yul\":31937:31946   */\n      dup3\n        /* \"#utility.yul\":31933:31951   */\n      add\n        /* \"#utility.yul\":31925:31951   */\n      swap1\n      pop\n        /* \"#utility.yul\":31997:32006   */\n      dup2\n        /* \"#utility.yul\":31991:31995   */\n      dup2\n        /* \"#utility.yul\":31987:32007   */\n      sub\n        /* \"#utility.yul\":31983:31984   */\n      0x00\n        /* \"#utility.yul\":31972:31981   */\n      dup4\n        /* \"#utility.yul\":31968:31985   */\n      add\n        /* \"#utility.yul\":31961:32008   */\n      mstore\n        /* \"#utility.yul\":32025:32156   */\n      tag_790\n        /* \"#utility.yul\":32151:32155   */\n      dup2\n        /* \"#utility.yul\":32025:32156   */\n      tag_691\n      jump\t// in\n    tag_790:\n        /* \"#utility.yul\":32017:32156   */\n      swap1\n      pop\n        /* \"#utility.yul\":31744:32163   */\n      swap2\n      swap1\n      pop\n      jump\t// out\n        /* \"#utility.yul\":32169:32588   */\n    tag_246:\n        /* \"#utility.yul\":32335:32339   */\n      0x00\n        /* \"#utility.yul\":32373:32375   */\n      0x20\n        /* \"#utility.yul\":32362:32371   */\n      dup3\n        /* \"#utility.yul\":32358:32376   */\n      add\n        /* \"#utility.yul\":32350:32376   */\n      swap1\n      pop\n        /* \"#utility.yul\":32422:32431   */\n      dup2\n        /* \"#utility.yul\":32416:32420   */\n      dup2\n        /* \"#utility.yul\":32412:32432   */\n      sub\n        /* \"#utility.yul\":32408:32409   */\n      0x00\n        /* \"#utility.yul\":32397:32406   */\n      dup4\n        /* \"#utility.yul\":32393:32410   */\n      add\n        /* \"#utility.yul\":32386:32433   */\n      mstore\n        /* \"#utility.yul\":32450:32581   */\n      tag_792\n        /* \"#utility.yul\":32576:32580   */\n      dup2\n        /* \"#utility.yul\":32450:32581   */\n      tag_696\n      jump\t// in\n    tag_792:\n        /* \"#utility.yul\":32442:32581   */\n      swap1\n      pop\n        /* \"#utility.yul\":32169:32588   */\n      swap2\n      swap1\n      pop\n      jump\t// out\n        /* \"#utility.yul\":32594:33013   */\n    tag_326:\n        /* \"#utility.yul\":32760:32764   */\n      0x00\n        /* \"#utility.yul\":32798:32800   */\n      0x20\n        /* \"#utility.yul\":32787:32796   */\n      dup3\n        /* \"#utility.yul\":32783:32801   */\n      add\n        /* \"#utility.yul\":32775:32801   */\n      swap1\n      pop\n        /* \"#utility.yul\":32847:32856   */\n      dup2\n        /* \"#utility.yul\":32841:32845   */\n      dup2\n        /* \"#utility.yul\":32837:32857   */\n      sub\n        /* \"#utility.yul\":32833:32834   */\n      0x00\n        /* \"#utility.yul\":32822:32831   */\n      dup4\n        /* \"#utility.yul\":32818:32835   */\n      add\n        /* \"#utility.yul\":32811:32858   */\n      mstore\n        /* \"#utility.yul\":32875:33006   */\n      tag_794\n        /* \"#utility.yul\":33001:33005   */\n      dup2\n        /* \"#utility.yul\":32875:33006   */\n      tag_701\n      jump\t// in\n    tag_794:\n        /* \"#utility.yul\":32867:33006   */\n      swap1\n      pop\n        /* \"#utility.yul\":32594:33013   */\n      swap2\n      swap1\n      pop\n      jump\t// out\n        /* \"#utility.yul\":33019:33438   */\n    tag_322:\n        /* \"#utility.yul\":33185:33189   */\n      0x00\n        /* \"#utility.yul\":33223:33225   */\n      0x20\n        /* \"#utility.yul\":33212:33221   */\n      dup3\n        /* \"#utility.yul\":33208:33226   */\n      add\n        /* \"#utility.yul\":33200:33226   */\n      swap1\n      pop\n        /* \"#utility.yul\":33272:33281   */\n      dup2\n        /* \"#utility.yul\":33266:33270   */\n      dup2\n        /* \"#utility.yul\":33262:33282   */\n      sub\n        /* \"#utility.yul\":33258:33259   */\n      0x00\n        /* \"#utility.yul\":33247:33256   */\n      dup4\n        /* \"#utility.yul\":33243:33260   */\n      add\n        /* \"#utility.yul\":33236:33283   */\n      mstore\n        /* \"#utility.yul\":33300:33431   */\n      tag_796\n        /* \"#utility.yul\":33426:33430   */\n      dup2\n        /* \"#utility.yul\":33300:33431   */\n      tag_706\n      jump\t// in\n    tag_796:\n        /* \"#utility.yul\":33292:33431   */\n      swap1\n      pop\n        /* \"#utility.yul\":33019:33438   */\n      swap2\n      swap1\n      pop\n      jump\t// out\n        /* \"#utility.yul\":33444:33863   */\n    tag_348:\n        /* \"#utility.yul\":33610:33614   */\n      0x00\n        /* \"#utility.yul\":33648:33650   */\n      0x20\n        /* \"#utility.yul\":33637:33646   */\n      dup3\n        /* \"#utility.yul\":33633:33651   */\n      add\n        /* \"#utility.yul\":33625:33651   */\n      swap1\n      pop\n        /* \"#utility.yul\":33697:33706   */\n      dup2\n        /* \"#utility.yul\":33691:33695   */\n      dup2\n        /* \"#utility.yul\":33687:33707   */\n      sub\n        /* \"#utility.yul\":33683:33684   */\n      0x00\n        /* \"#utility.yul\":33672:33681   */\n      dup4\n        /* \"#utility.yul\":33668:33685   */\n      add\n        /* \"#utility.yul\":33661:33708   */\n      mstore\n        /* \"#utility.yul\":33725:33856   */\n      tag_798\n        /* \"#utility.yul\":33851:33855   */\n      dup2\n        /* \"#utility.yul\":33725:33856   */\n      tag_711\n      jump\t// in\n    tag_798:\n        /* \"#utility.yul\":33717:33856   */\n      swap1\n      pop\n        /* \"#utility.yul\":33444:33863   */\n      swap2\n      swap1\n      pop\n      jump\t// out\n        /* \"#utility.yul\":33869:34288   */\n    tag_279:\n        /* \"#utility.yul\":34035:34039   */\n      0x00\n        /* \"#utility.yul\":34073:34075   */\n      0x20\n        /* \"#utility.yul\":34062:34071   */\n      dup3\n        /* \"#utility.yul\":34058:34076   */\n      add\n        /* \"#utility.yul\":34050:34076   */\n      swap1\n      pop\n        /* \"#utility.yul\":34122:34131   */\n      dup2\n        /* \"#utility.yul\":34116:34120   */\n      dup2\n        /* \"#utility.yul\":34112:34132   */\n      sub\n        /* \"#utility.yul\":34108:34109   */\n      0x00\n        /* \"#utility.yul\":34097:34106   */\n      dup4\n        /* \"#utility.yul\":34093:34110   */\n      add\n        /* \"#utility.yul\":34086:34133   */\n      mstore\n        /* \"#utility.yul\":34150:34281   */\n      tag_800\n        /* \"#utility.yul\":34276:34280   */\n      dup2\n        /* \"#utility.yul\":34150:34281   */\n      tag_721\n      jump\t// in\n    tag_800:\n        /* \"#utility.yul\":34142:34281   */\n      swap1\n      pop\n        /* \"#utility.yul\":33869:34288   */\n      swap2\n      swap1\n      pop\n      jump\t// out\n        /* \"#utility.yul\":34294:34713   */\n    tag_235:\n        /* \"#utility.yul\":34460:34464   */\n      0x00\n        /* \"#utility.yul\":34498:34500   */\n      0x20\n        /* \"#utility.yul\":34487:34496   */\n      dup3\n        /* \"#utility.yul\":34483:34501   */\n      add\n        /* \"#utility.yul\":34475:34501   */\n      swap1\n      pop\n        /* \"#utility.yul\":34547:34556   */\n      dup2\n        /* \"#utility.yul\":34541:34545   */\n      dup2\n        /* \"#utility.yul\":34537:34557   */\n      sub\n        /* \"#utility.yul\":34533:34534   */\n      0x00\n        /* \"#utility.yul\":34522:34531   */\n      dup4\n        /* \"#utility.yul\":34518:34535   */\n      add\n        /* \"#utility.yul\":34511:34558   */\n      mstore\n        /* \"#utility.yul\":34575:34706   */\n      tag_802\n        /* \"#utility.yul\":34701:34705   */\n      dup2\n        /* \"#utility.yul\":34575:34706   */\n      tag_731\n      jump\t// in\n    tag_802:\n        /* \"#utility.yul\":34567:34706   */\n      swap1\n      pop\n        /* \"#utility.yul\":34294:34713   */\n      swap2\n      swap1\n      pop\n      jump\t// out\n        /* \"#utility.yul\":34719:35138   */\n    tag_227:\n        /* \"#utility.yul\":34885:34889   */\n      0x00\n        /* \"#utility.yul\":34923:34925   */\n      0x20\n        /* \"#utility.yul\":34912:34921   */\n      dup3\n        /* \"#utility.yul\":34908:34926   */\n      add\n        /* \"#utility.yul\":34900:34926   */\n      swap1\n      pop\n        /* \"#utility.yul\":34972:34981   */\n      dup2\n        /* \"#utility.yul\":34966:34970   */\n      dup2\n        /* \"#utility.yul\":34962:34982   */\n      sub\n        /* \"#utility.yul\":34958:34959   */\n      0x00\n        /* \"#utility.yul\":34947:34956   */\n      dup4\n        /* \"#utility.yul\":34943:34960   */\n      add\n        /* \"#utility.yul\":34936:34983   */\n      mstore\n        /* \"#utility.yul\":35000:35131   */\n      tag_804\n        /* \"#utility.yul\":35126:35130   */\n      dup2\n        /* \"#utility.yul\":35000:35131   */\n      tag_736\n      jump\t// in\n    tag_804:\n        /* \"#utility.yul\":34992:35131   */\n      swap1\n      pop\n        /* \"#utility.yul\":34719:35138   */\n      swap2\n      swap1\n      pop\n      jump\t// out\n        /* \"#utility.yul\":35144:35563   */\n    tag_362:\n        /* \"#utility.yul\":35310:35314   */\n      0x00\n        /* \"#utility.yul\":35348:35350   */\n      0x20\n        /* \"#utility.yul\":35337:35346   */\n      dup3\n        /* \"#utility.yul\":35333:35351   */\n      add\n        /* \"#utility.yul\":35325:35351   */\n      swap1\n      pop\n        /* \"#utility.yul\":35397:35406   */\n      dup2\n        /* \"#utility.yul\":35391:35395   */\n      dup2\n        /* \"#utility.yul\":35387:35407   */\n      sub\n        /* \"#utility.yul\":35383:35384   */\n      0x00\n        /* \"#utility.yul\":35372:35381   */\n      dup4\n        /* \"#utility.yul\":35368:35385   */\n      add\n        /* \"#utility.yul\":35361:35408   */\n      mstore\n        /* \"#utility.yul\":35425:35556   */\n      tag_806\n        /* \"#utility.yul\":35551:35555   */\n      dup2\n        /* \"#utility.yul\":35425:35556   */\n      tag_741\n      jump\t// in\n    tag_806:\n        /* \"#utility.yul\":35417:35556   */\n      swap1\n      pop\n        /* \"#utility.yul\":35144:35563   */\n      swap2\n      swap1\n      pop\n      jump\t// out\n        /* \"#utility.yul\":35569:35791   */\n    tag_160:\n        /* \"#utility.yul\":35662:35666   */\n      0x00\n        /* \"#utility.yul\":35700:35702   */\n      0x20\n        /* \"#utility.yul\":35689:35698   */\n      dup3\n        /* \"#utility.yul\":35685:35703   */\n      add\n        /* \"#utility.yul\":35677:35703   */\n      swap1\n      pop\n        /* \"#utility.yul\":35713:35784   */\n      tag_808\n        /* \"#utility.yul\":35781:35782   */\n      0x00\n        /* \"#utility.yul\":35770:35779   */\n      dup4\n        /* \"#utility.yul\":35766:35783   */\n      add\n        /* \"#utility.yul\":35757:35763   */\n      dup5\n        /* \"#utility.yul\":35713:35784   */\n      tag_746\n      jump\t// in\n    tag_808:\n        /* \"#utility.yul\":35569:35791   */\n      swap3\n      swap2\n      pop\n      pop\n      jump\t// out\n        /* \"#utility.yul\":35797:36129   */\n    tag_237:\n        /* \"#utility.yul\":35918:35922   */\n      0x00\n        /* \"#utility.yul\":35956:35958   */\n      0x40\n        /* \"#utility.yul\":35945:35954   */\n      dup3\n        /* \"#utility.yul\":35941:35959   */\n      add\n        /* \"#utility.yul\":35933:35959   */\n      swap1\n      pop\n        /* \"#utility.yul\":35969:36040   */\n      tag_810\n        /* \"#utility.yul\":36037:36038   */\n      0x00\n        /* \"#utility.yul\":36026:36035   */\n      dup4\n        /* \"#utility.yul\":36022:36039   */\n      add\n        /* \"#utility.yul\":36013:36019   */\n      dup6\n        /* \"#utility.yul\":35969:36040   */\n      tag_746\n      jump\t// in\n    tag_810:\n        /* \"#utility.yul\":36050:36122   */\n      tag_811\n        /* \"#utility.yul\":36118:36120   */\n      0x20\n        /* \"#utility.yul\":36107:36116   */\n      dup4\n        /* \"#utility.yul\":36103:36121   */\n      add\n        /* \"#utility.yul\":36094:36100   */\n      dup5\n        /* \"#utility.yul\":36050:36122   */\n      tag_746\n      jump\t// in\n    tag_811:\n        /* \"#utility.yul\":35797:36129   */\n      swap4\n      swap3\n      pop\n      pop\n      pop\n      jump\t// out\n        /* \"#utility.yul\":36135:36859   */\n    tag_264:\n        /* \"#utility.yul\":36212:36216   */\n      0x00\n        /* \"#utility.yul\":36218:36224   */\n      dup1\n        /* \"#utility.yul\":36274:36285   */\n      dup4\n        /* \"#utility.yul\":36261:36286   */\n      calldataload\n        /* \"#utility.yul\":36374:36375   */\n      0x01\n        /* \"#utility.yul\":36368:36372   */\n      0x20\n        /* \"#utility.yul\":36364:36376   */\n      sub\n        /* \"#utility.yul\":36353:36361   */\n      dup5\n        /* \"#utility.yul\":36337:36351   */\n      calldatasize\n        /* \"#utility.yul\":36333:36362   */\n      sub\n        /* \"#utility.yul\":36329:36377   */\n      sub\n        /* \"#utility.yul\":36309:36327   */\n      dup2\n        /* \"#utility.yul\":36305:36378   */\n      slt\n        /* \"#utility.yul\":36295:36463   */\n      tag_813\n      jumpi\n        /* \"#utility.yul\":36382:36461   */\n      tag_814\n      tag_815\n      jump\t// in\n    tag_814:\n        /* \"#utility.yul\":36295:36463   */\n    tag_813:\n        /* \"#utility.yul\":36494:36512   */\n      dup1\n        /* \"#utility.yul\":36484:36492   */\n      dup5\n        /* \"#utility.yul\":36480:36513   */\n      add\n        /* \"#utility.yul\":36472:36513   */\n      swap3\n      pop\n        /* \"#utility.yul\":36546:36550   */\n      dup3\n        /* \"#utility.yul\":36533:36551   */\n      calldataload\n        /* \"#utility.yul\":36523:36551   */\n      swap2\n      pop\n        /* \"#utility.yul\":36574:36592   */\n      0xffffffffffffffff\n        /* \"#utility.yul\":36566:36572   */\n      dup3\n        /* \"#utility.yul\":36563:36593   */\n      gt\n        /* \"#utility.yul\":36560:36677   */\n      iszero\n      tag_816\n      jumpi\n        /* \"#utility.yul\":36596:36675   */\n      tag_817\n      tag_818\n      jump\t// in\n    tag_817:\n        /* \"#utility.yul\":36560:36677   */\n    tag_816:\n        /* \"#utility.yul\":36704:36706   */\n      0x20\n        /* \"#utility.yul\":36698:36702   */\n      dup4\n        /* \"#utility.yul\":36694:36707   */\n      add\n        /* \"#utility.yul\":36686:36707   */\n      swap3\n      pop\n        /* \"#utility.yul\":36761:36765   */\n      0x01\n        /* \"#utility.yul\":36753:36759   */\n      dup3\n        /* \"#utility.yul\":36749:36766   */\n      mul\n        /* \"#utility.yul\":36733:36747   */\n      calldatasize\n        /* \"#utility.yul\":36729:36767   */\n      sub\n        /* \"#utility.yul\":36723:36727   */\n      dup4\n        /* \"#utility.yul\":36719:36768   */\n      sgt\n        /* \"#utility.yul\":36716:36852   */\n      iszero\n      tag_819\n      jumpi\n        /* \"#utility.yul\":36771:36850   */\n      tag_820\n      tag_821\n      jump\t// in\n    tag_820:\n        /* \"#utility.yul\":36716:36852   */\n    tag_819:\n        /* \"#utility.yul\":36225:36859   */\n      pop\n        /* \"#utility.yul\":36135:36859   */\n      swap3\n      pop\n      swap3\n      swap1\n      pop\n      jump\t// out\n        /* \"#utility.yul\":36865:36994   */\n    tag_408:\n        /* \"#utility.yul\":36899:36905   */\n      0x00\n        /* \"#utility.yul\":36926:36946   */\n      tag_823\n      tag_824\n      jump\t// in\n    tag_823:\n        /* \"#utility.yul\":36916:36946   */\n      swap1\n      pop\n        /* \"#utility.yul\":36955:36988   */\n      tag_825\n        /* \"#utility.yul\":36983:36987   */\n      dup3\n        /* \"#utility.yul\":36975:36981   */\n      dup3\n        /* \"#utility.yul\":36955:36988   */\n      tag_826\n      jump\t// in\n    tag_825:\n        /* \"#utility.yul\":36865:36994   */\n      swap2\n      swap1\n      pop\n      jump\t// out\n        /* \"#utility.yul\":37000:37075   */\n    tag_824:\n        /* \"#utility.yul\":37033:37039   */\n      0x00\n        /* \"#utility.yul\":37066:37068   */\n      0x40\n        /* \"#utility.yul\":37060:37069   */\n      mload\n        /* \"#utility.yul\":37050:37069   */\n      swap1\n      pop\n        /* \"#utility.yul\":37000:37075   */\n      swap1\n      jump\t// out\n        /* \"#utility.yul\":37081:37392   */\n    tag_407:\n        /* \"#utility.yul\":37158:37162   */\n      0x00\n        /* \"#utility.yul\":37248:37266   */\n      0xffffffffffffffff\n        /* \"#utility.yul\":37240:37246   */\n      dup3\n        /* \"#utility.yul\":37237:37267   */\n      gt\n        /* \"#utility.yul\":37234:37290   */\n      iszero\n      tag_829\n      jumpi\n        /* \"#utility.yul\":37270:37288   */\n      tag_830\n      tag_382\n      jump\t// in\n    tag_830:\n        /* \"#utility.yul\":37234:37290   */\n    tag_829:\n        /* \"#utility.yul\":37320:37324   */\n      0x20\n        /* \"#utility.yul\":37312:37318   */\n      dup3\n        /* \"#utility.yul\":37308:37325   */\n      mul\n        /* \"#utility.yul\":37300:37325   */\n      swap1\n      pop\n        /* \"#utility.yul\":37380:37384   */\n      0x20\n        /* \"#utility.yul\":37374:37378   */\n      dup2\n        /* \"#utility.yul\":37370:37385   */\n      add\n        /* \"#utility.yul\":37362:37385   */\n      swap1\n      pop\n        /* \"#utility.yul\":37081:37392   */\n      swap2\n      swap1\n      pop\n      jump\t// out\n        /* \"#utility.yul\":37398:37705   */\n    tag_421:\n        /* \"#utility.yul\":37459:37463   */\n      0x00\n        /* \"#utility.yul\":37549:37567   */\n      0xffffffffffffffff\n        /* \"#utility.yul\":37541:37547   */\n      dup3\n        /* \"#utility.yul\":37538:37568   */\n      gt\n        /* \"#utility.yul\":37535:37591   */\n      iszero\n      tag_832\n      jumpi\n        /* \"#utility.yul\":37571:37589   */\n      tag_833\n      tag_382\n      jump\t// in\n    tag_833:\n        /* \"#utility.yul\":37535:37591   */\n    tag_832:\n        /* \"#utility.yul\":37609:37638   */\n      tag_834\n        /* \"#utility.yul\":37631:37637   */\n      dup3\n        /* \"#utility.yul\":37609:37638   */\n      tag_659\n      jump\t// in\n    tag_834:\n        /* \"#utility.yul\":37601:37638   */\n      swap1\n      pop\n        /* \"#utility.yul\":37693:37697   */\n      0x20\n        /* \"#utility.yul\":37687:37691   */\n      dup2\n        /* \"#utility.yul\":37683:37698   */\n      add\n        /* \"#utility.yul\":37675:37698   */\n      swap1\n      pop\n        /* \"#utility.yul\":37398:37705   */\n      swap2\n      swap1\n      pop\n      jump\t// out\n        /* \"#utility.yul\":37711:37813   */\n    tag_611:\n        /* \"#utility.yul\":37780:37784   */\n      0x00\n        /* \"#utility.yul\":37803:37806   */\n      dup2\n        /* \"#utility.yul\":37795:37806   */\n      swap1\n      pop\n        /* \"#utility.yul\":37711:37813   */\n      swap2\n      swap1\n      pop\n      jump\t// out\n        /* \"#utility.yul\":37819:37932   */\n    tag_625:\n        /* \"#utility.yul\":37899:37903   */\n      0x00\n        /* \"#utility.yul\":37922:37925   */\n      dup2\n        /* \"#utility.yul\":37914:37925   */\n      swap1\n      pop\n        /* \"#utility.yul\":37819:37932   */\n      swap2\n      swap1\n      pop\n      jump\t// out\n        /* \"#utility.yul\":37938:38037   */\n    tag_674:\n        /* \"#utility.yul\":37990:37996   */\n      0x00\n        /* \"#utility.yul\":38024:38029   */\n      dup2\n        /* \"#utility.yul\":38018:38030   */\n      mload\n        /* \"#utility.yul\":38008:38030   */\n      swap1\n      pop\n        /* \"#utility.yul\":37938:38037   */\n      swap2\n      swap1\n      pop\n      jump\t// out\n        /* \"#utility.yul\":38043:38158   */\n    tag_619:\n        /* \"#utility.yul\":38115:38119   */\n      0x00\n        /* \"#utility.yul\":38147:38151   */\n      0x20\n        /* \"#utility.yul\":38142:38145   */\n      dup3\n        /* \"#utility.yul\":38138:38152   */\n      add\n        /* \"#utility.yul\":38130:38152   */\n      swap1\n      pop\n        /* \"#utility.yul\":38043:38158   */\n      swap2\n      swap1\n      pop\n      jump\t// out\n        /* \"#utility.yul\":38164:38290   */\n    tag_633:\n        /* \"#utility.yul\":38247:38251   */\n      0x00\n        /* \"#utility.yul\":38279:38283   */\n      0x20\n        /* \"#utility.yul\":38274:38277   */\n      dup3\n        /* \"#utility.yul\":38270:38284   */\n      add\n        /* \"#utility.yul\":38262:38284   */\n      swap1\n      pop\n        /* \"#utility.yul\":38164:38290   */\n      swap2\n      swap1\n      pop\n      jump\t// out\n        /* \"#utility.yul\":38296:38480   */\n    tag_609:\n        /* \"#utility.yul\":38395:38406   */\n      0x00\n        /* \"#utility.yul\":38429:38435   */\n      dup3\n        /* \"#utility.yul\":38424:38427   */\n      dup3\n        /* \"#utility.yul\":38417:38436   */\n      mstore\n        /* \"#utility.yul\":38469:38473   */\n      0x20\n        /* \"#utility.yul\":38464:38467   */\n      dup3\n        /* \"#utility.yul\":38460:38474   */\n      add\n        /* \"#utility.yul\":38445:38474   */\n      swap1\n      pop\n        /* \"#utility.yul\":38296:38480   */\n      swap3\n      swap2\n      pop\n      pop\n      jump\t// out\n        /* \"#utility.yul\":38486:38679   */\n    tag_623:\n        /* \"#utility.yul\":38594:38605   */\n      0x00\n        /* \"#utility.yul\":38628:38634   */\n      dup3\n        /* \"#utility.yul\":38623:38626   */\n      dup3\n        /* \"#utility.yul\":38616:38635   */\n      mstore\n        /* \"#utility.yul\":38668:38672   */\n      0x20\n        /* \"#utility.yul\":38663:38666   */\n      dup3\n        /* \"#utility.yul\":38659:38673   */\n      add\n        /* \"#utility.yul\":38644:38673   */\n      swap1\n      pop\n        /* \"#utility.yul\":38486:38679   */\n      swap3\n      swap2\n      pop\n      pop\n      jump\t// out\n        /* \"#utility.yul\":38685:38869   */\n    tag_637:\n        /* \"#utility.yul\":38784:38795   */\n      0x00\n        /* \"#utility.yul\":38818:38824   */\n      dup3\n        /* \"#utility.yul\":38813:38816   */\n      dup3\n        /* \"#utility.yul\":38806:38825   */\n      mstore\n        /* \"#utility.yul\":38858:38862   */\n      0x20\n        /* \"#utility.yul\":38853:38856   */\n      dup3\n        /* \"#utility.yul\":38849:38863   */\n      add\n        /* \"#utility.yul\":38834:38863   */\n      swap1\n      pop\n        /* \"#utility.yul\":38685:38869   */\n      swap3\n      swap2\n      pop\n      pop\n      jump\t// out\n        /* \"#utility.yul\":38875:39033   */\n    tag_656:\n        /* \"#utility.yul\":38948:38959   */\n      0x00\n        /* \"#utility.yul\":38982:38988   */\n      dup3\n        /* \"#utility.yul\":38977:38980   */\n      dup3\n        /* \"#utility.yul\":38970:38989   */\n      mstore\n        /* \"#utility.yul\":39022:39026   */\n      0x20\n        /* \"#utility.yul\":39017:39020   */\n      dup3\n        /* \"#utility.yul\":39013:39027   */\n      add\n        /* \"#utility.yul\":38998:39027   */\n      swap1\n      pop\n        /* \"#utility.yul\":38875:39033   */\n      swap3\n      swap2\n      pop\n      pop\n      jump\t// out\n        /* \"#utility.yul\":39039:39207   */\n    tag_663:\n        /* \"#utility.yul\":39122:39133   */\n      0x00\n        /* \"#utility.yul\":39156:39162   */\n      dup3\n        /* \"#utility.yul\":39151:39154   */\n      dup3\n        /* \"#utility.yul\":39144:39163   */\n      mstore\n        /* \"#utility.yul\":39196:39200   */\n      0x20\n        /* \"#utility.yul\":39191:39194   */\n      dup3\n        /* \"#utility.yul\":39187:39201   */\n      add\n        /* \"#utility.yul\":39172:39201   */\n      swap1\n      pop\n        /* \"#utility.yul\":39039:39207   */\n      swap3\n      swap2\n      pop\n      pop\n      jump\t// out\n        /* \"#utility.yul\":39213:39360   */\n    tag_669:\n        /* \"#utility.yul\":39314:39325   */\n      0x00\n        /* \"#utility.yul\":39351:39354   */\n      dup2\n        /* \"#utility.yul\":39336:39354   */\n      swap1\n      pop\n        /* \"#utility.yul\":39213:39360   */\n      swap3\n      swap2\n      pop\n      pop\n      jump\t// out\n        /* \"#utility.yul\":39366:39535   */\n    tag_676:\n        /* \"#utility.yul\":39450:39461   */\n      0x00\n        /* \"#utility.yul\":39484:39490   */\n      dup3\n        /* \"#utility.yul\":39479:39482   */\n      dup3\n        /* \"#utility.yul\":39472:39491   */\n      mstore\n        /* \"#utility.yul\":39524:39528   */\n      0x20\n        /* \"#utility.yul\":39519:39522   */\n      dup3\n        /* \"#utility.yul\":39515:39529   */\n      add\n        /* \"#utility.yul\":39500:39529   */\n      swap1\n      pop\n        /* \"#utility.yul\":39366:39535   */\n      swap3\n      swap2\n      pop\n      pop\n      jump\t// out\n        /* \"#utility.yul\":39541:39689   */\n    tag_684:\n        /* \"#utility.yul\":39643:39654   */\n      0x00\n        /* \"#utility.yul\":39680:39683   */\n      dup2\n        /* \"#utility.yul\":39665:39683   */\n      swap1\n      pop\n        /* \"#utility.yul\":39541:39689   */\n      swap3\n      swap2\n      pop\n      pop\n      jump\t// out\n        /* \"#utility.yul\":39695:39817   */\n    tag_616:\n        /* \"#utility.yul\":39747:39752   */\n      0x00\n        /* \"#utility.yul\":39772:39811   */\n      tag_849\n        /* \"#utility.yul\":39807:39809   */\n      0x20\n        /* \"#utility.yul\":39802:39805   */\n      dup5\n        /* \"#utility.yul\":39798:39810   */\n      add\n        /* \"#utility.yul\":39793:39796   */\n      dup5\n        /* \"#utility.yul\":39772:39811   */\n      tag_427\n      jump\t// in\n    tag_849:\n        /* \"#utility.yul\":39763:39811   */\n      swap1\n      pop\n        /* \"#utility.yul\":39695:39817   */\n      swap3\n      swap2\n      pop\n      pop\n      jump\t// out\n        /* \"#utility.yul\":39823:40537   */\n    tag_630:\n        /* \"#utility.yul\":39887:39892   */\n      0x00\n        /* \"#utility.yul\":39894:39900   */\n      dup1\n        /* \"#utility.yul\":39950:39953   */\n      dup4\n        /* \"#utility.yul\":39937:39954   */\n      calldataload\n        /* \"#utility.yul\":40042:40043   */\n      0x01\n        /* \"#utility.yul\":40036:40040   */\n      0x20\n        /* \"#utility.yul\":40032:40044   */\n      sub\n        /* \"#utility.yul\":40021:40029   */\n      dup5\n        /* \"#utility.yul\":40005:40019   */\n      calldatasize\n        /* \"#utility.yul\":40001:40030   */\n      sub\n        /* \"#utility.yul\":39997:40045   */\n      sub\n        /* \"#utility.yul\":39977:39995   */\n      dup2\n        /* \"#utility.yul\":39973:40046   */\n      slt\n        /* \"#utility.yul\":39963:40131   */\n      tag_851\n      jumpi\n        /* \"#utility.yul\":40050:40129   */\n      tag_852\n      tag_853\n      jump\t// in\n    tag_852:\n        /* \"#utility.yul\":39963:40131   */\n    tag_851:\n        /* \"#utility.yul\":40173:40181   */\n      dup4\n        /* \"#utility.yul\":40153:40171   */\n      dup2\n        /* \"#utility.yul\":40149:40182   */\n      add\n        /* \"#utility.yul\":40140:40182   */\n      swap3\n      pop\n        /* \"#utility.yul\":40215:40220   */\n      dup3\n        /* \"#utility.yul\":40202:40221   */\n      calldataload\n        /* \"#utility.yul\":40192:40221   */\n      swap2\n      pop\n        /* \"#utility.yul\":40250:40254   */\n      0x20\n        /* \"#utility.yul\":40243:40248   */\n      dup4\n        /* \"#utility.yul\":40239:40255   */\n      add\n        /* \"#utility.yul\":40230:40255   */\n      swap3\n      pop\n        /* \"#utility.yul\":40278:40296   */\n      0xffffffffffffffff\n        /* \"#utility.yul\":40270:40276   */\n      dup3\n        /* \"#utility.yul\":40267:40297   */\n      gt\n        /* \"#utility.yul\":40264:40381   */\n      iszero\n      tag_854\n      jumpi\n        /* \"#utility.yul\":40300:40379   */\n      tag_855\n      tag_856\n      jump\t// in\n    tag_855:\n        /* \"#utility.yul\":40264:40381   */\n    tag_854:\n        /* \"#utility.yul\":40439:40443   */\n      0x01\n        /* \"#utility.yul\":40431:40437   */\n      dup3\n        /* \"#utility.yul\":40427:40444   */\n      mul\n        /* \"#utility.yul\":40411:40425   */\n      calldatasize\n        /* \"#utility.yul\":40407:40445   */\n      sub\n        /* \"#utility.yul\":40397:40405   */\n      dup5\n        /* \"#utility.yul\":40393:40446   */\n      sgt\n        /* \"#utility.yul\":40390:40530   */\n      iszero\n      tag_857\n      jumpi\n        /* \"#utility.yul\":40449:40528   */\n      tag_858\n      tag_859\n      jump\t// in\n    tag_858:\n        /* \"#utility.yul\":40390:40530   */\n    tag_857:\n        /* \"#utility.yul\":39901:40537   */\n      pop\n        /* \"#utility.yul\":39823:40537   */\n      swap3\n      pop\n      swap3\n      swap1\n      pop\n      jump\t// out\n        /* \"#utility.yul\":40543:40848   */\n    tag_328:\n        /* \"#utility.yul\":40583:40586   */\n      0x00\n        /* \"#utility.yul\":40602:40622   */\n      tag_861\n        /* \"#utility.yul\":40620:40621   */\n      dup3\n        /* \"#utility.yul\":40602:40622   */\n      tag_749\n      jump\t// in\n    tag_861:\n        /* \"#utility.yul\":40597:40622   */\n      swap2\n      pop\n        /* \"#utility.yul\":40636:40656   */\n      tag_862\n        /* \"#utility.yul\":40654:40655   */\n      dup4\n        /* \"#utility.yul\":40636:40656   */\n      tag_749\n      jump\t// in\n    tag_862:\n        /* \"#utility.yul\":40631:40656   */\n      swap3\n      pop\n        /* \"#utility.yul\":40790:40791   */\n      dup3\n        /* \"#utility.yul\":40722:40788   */\n      0xffffffffffffffffffffffffffffffffffffffffffffffffffffffffffffffff\n        /* \"#utility.yul\":40718:40792   */\n      sub\n        /* \"#utility.yul\":40715:40716   */\n      dup3\n        /* \"#utility.yul\":40712:40793   */\n      gt\n        /* \"#utility.yul\":40709:40816   */\n      iszero\n      tag_863\n      jumpi\n        /* \"#utility.yul\":40796:40814   */\n      tag_864\n      tag_865\n      jump\t// in\n    tag_864:\n        /* \"#utility.yul\":40709:40816   */\n    tag_863:\n        /* \"#utility.yul\":40840:40841   */\n      dup3\n        /* \"#utility.yul\":40837:40838   */\n      dup3\n        /* \"#utility.yul\":40833:40842   */\n      add\n        /* \"#utility.yul\":40826:40842   */\n      swap1\n      pop\n        /* \"#utility.yul\":40543:40848   */\n      swap3\n      swap2\n      pop\n      pop\n      jump\t// out\n        /* \"#utility.yul\":40854:41202   */\n    tag_378:\n        /* \"#utility.yul\":40894:40901   */\n      0x00\n        /* \"#utility.yul\":40917:40937   */\n      tag_867\n        /* \"#utility.yul\":40935:40936   */\n      dup3\n        /* \"#utility.yul\":40917:40937   */\n      tag_749\n      jump\t// in\n    tag_867:\n        /* \"#utility.yul\":40912:40937   */\n      swap2\n      pop\n        /* \"#utility.yul\":40951:40971   */\n      tag_868\n        /* \"#utility.yul\":40969:40970   */\n      dup4\n        /* \"#utility.yul\":40951:40971   */\n      tag_749\n      jump\t// in\n    tag_868:\n        /* \"#utility.yul\":40946:40971   */\n      swap3\n      pop\n        /* \"#utility.yul\":41139:41140   */\n      dup2\n        /* \"#utility.yul\":41071:41137   */\n      0xffffffffffffffffffffffffffffffffffffffffffffffffffffffffffffffff\n        /* \"#utility.yul\":41067:41141   */\n      div\n        /* \"#utility.yul\":41064:41065   */\n      dup4\n        /* \"#utility.yul\":41061:41142   */\n      gt\n        /* \"#utility.yul\":41056:41057   */\n      dup3\n        /* \"#utility.yul\":41049:41058   */\n      iszero\n        /* \"#utility.yul\":41042:41059   */\n      iszero\n        /* \"#utility.yul\":41038:41143   */\n      and\n        /* \"#utility.yul\":41035:41166   */\n      iszero\n      tag_869\n      jumpi\n        /* \"#utility.yul\":41146:41164   */\n      tag_870\n      tag_865\n      jump\t// in\n    tag_870:\n        /* \"#utility.yul\":41035:41166   */\n    tag_869:\n        /* \"#utility.yul\":41194:41195   */\n      dup3\n        /* \"#utility.yul\":41191:41192   */\n      dup3\n        /* \"#utility.yul\":41187:41196   */\n      mul\n        /* \"#utility.yul\":41176:41196   */\n      swap1\n      pop\n        /* \"#utility.yul\":40854:41202   */\n      swap3\n      swap2\n      pop\n      pop\n      jump\t// out\n        /* \"#utility.yul\":41208:41304   */\n    tag_602:\n        /* \"#utility.yul\":41245:41252   */\n      0x00\n        /* \"#utility.yul\":41274:41298   */\n      tag_872\n        /* \"#utility.yul\":41292:41297   */\n      dup3\n        /* \"#utility.yul\":41274:41298   */\n      tag_873\n      jump\t// in\n    tag_872:\n        /* \"#utility.yul\":41263:41298   */\n      swap1\n      pop\n        /* \"#utility.yul\":41208:41304   */\n      swap2\n      swap1\n      pop\n      jump\t// out\n        /* \"#utility.yul\":41310:41400   */\n    tag_645:\n        /* \"#utility.yul\":41344:41351   */\n      0x00\n        /* \"#utility.yul\":41387:41392   */\n      dup2\n        /* \"#utility.yul\":41380:41393   */\n      iszero\n        /* \"#utility.yul\":41373:41394   */\n      iszero\n        /* \"#utility.yul\":41362:41394   */\n      swap1\n      pop\n        /* \"#utility.yul\":41310:41400   */\n      swap2\n      swap1\n      pop\n      jump\t// out\n        /* \"#utility.yul\":41406:41483   */\n    tag_649:\n        /* \"#utility.yul\":41443:41450   */\n      0x00\n        /* \"#utility.yul\":41472:41477   */\n      dup2\n        /* \"#utility.yul\":41461:41477   */\n      swap1\n      pop\n        /* \"#utility.yul\":41406:41483   */\n      swap2\n      swap1\n      pop\n      jump\t// out\n        /* \"#utility.yul\":41489:41638   */\n    tag_653:\n        /* \"#utility.yul\":41525:41532   */\n      0x00\n        /* \"#utility.yul\":41565:41631   */\n      0xffffffff00000000000000000000000000000000000000000000000000000000\n        /* \"#utility.yul\":41558:41563   */\n      dup3\n        /* \"#utility.yul\":41554:41632   */\n      and\n        /* \"#utility.yul\":41543:41632   */\n      swap1\n      pop\n        /* \"#utility.yul\":41489:41638   */\n      swap2\n      swap1\n      pop\n      jump\t// out\n        /* \"#utility.yul\":41644:41770   */\n    tag_873:\n        /* \"#utility.yul\":41681:41688   */\n      0x00\n        /* \"#utility.yul\":41721:41763   */\n      0xffffffffffffffffffffffffffffffffffffffff\n        /* \"#utility.yul\":41714:41719   */\n      dup3\n        /* \"#utility.yul\":41710:41764   */\n      and\n        /* \"#utility.yul\":41699:41764   */\n      swap1\n      pop\n        /* \"#utility.yul\":41644:41770   */\n      swap2\n      swap1\n      pop\n      jump\t// out\n        /* \"#utility.yul\":41776:41853   */\n    tag_749:\n        /* \"#utility.yul\":41813:41820   */\n      0x00\n        /* \"#utility.yul\":41842:41847   */\n      dup2\n        /* \"#utility.yul\":41831:41847   */\n      swap1\n      pop\n        /* \"#utility.yul\":41776:41853   */\n      swap2\n      swap1\n      pop\n      jump\t// out\n        /* \"#utility.yul\":41859:42013   */\n    tag_426:\n        /* \"#utility.yul\":41943:41949   */\n      dup3\n        /* \"#utility.yul\":41938:41941   */\n      dup2\n        /* \"#utility.yul\":41933:41936   */\n      dup4\n        /* \"#utility.yul\":41920:41950   */\n      calldatacopy\n        /* \"#utility.yul\":42005:42006   */\n      0x00\n        /* \"#utility.yul\":41996:42002   */\n      dup4\n        /* \"#utility.yul\":41991:41994   */\n      dup4\n        /* \"#utility.yul\":41987:42003   */\n      add\n        /* \"#utility.yul\":41980:42007   */\n      mstore\n        /* \"#utility.yul\":41859:42013   */\n      pop\n      pop\n      pop\n      jump\t// out\n        /* \"#utility.yul\":42019:42326   */\n    tag_678:\n        /* \"#utility.yul\":42087:42088   */\n      0x00\n        /* \"#utility.yul\":42097:42210   */\n    tag_881:\n        /* \"#utility.yul\":42111:42117   */\n      dup4\n        /* \"#utility.yul\":42108:42109   */\n      dup2\n        /* \"#utility.yul\":42105:42118   */\n      lt\n        /* \"#utility.yul\":42097:42210   */\n      iszero\n      tag_883\n      jumpi\n        /* \"#utility.yul\":42196:42197   */\n      dup1\n        /* \"#utility.yul\":42191:42194   */\n      dup3\n        /* \"#utility.yul\":42187:42198   */\n      add\n        /* \"#utility.yul\":42181:42199   */\n      mload\n        /* \"#utility.yul\":42177:42178   */\n      dup2\n        /* \"#utility.yul\":42172:42175   */\n      dup5\n        /* \"#utility.yul\":42168:42179   */\n      add\n        /* \"#utility.yul\":42161:42200   */\n      mstore\n        /* \"#utility.yul\":42133:42135   */\n      0x20\n        /* \"#utility.yul\":42130:42131   */\n      dup2\n        /* \"#utility.yul\":42126:42136   */\n      add\n        /* \"#utility.yul\":42121:42136   */\n      swap1\n      pop\n        /* \"#utility.yul\":42097:42210   */\n      jump(tag_881)\n    tag_883:\n        /* \"#utility.yul\":42228:42234   */\n      dup4\n        /* \"#utility.yul\":42225:42226   */\n      dup2\n        /* \"#utility.yul\":42222:42235   */\n      gt\n        /* \"#utility.yul\":42219:42320   */\n      iszero\n      tag_884\n      jumpi\n        /* \"#utility.yul\":42308:42309   */\n      0x00\n        /* \"#utility.yul\":42299:42305   */\n      dup5\n        /* \"#utility.yul\":42294:42297   */\n      dup5\n        /* \"#utility.yul\":42290:42306   */\n      add\n        /* \"#utility.yul\":42283:42310   */\n      mstore\n        /* \"#utility.yul\":42219:42320   */\n    tag_884:\n        /* \"#utility.yul\":42068:42326   */\n      pop\n        /* \"#utility.yul\":42019:42326   */\n      pop\n      pop\n      pop\n      jump\t// out\n        /* \"#utility.yul\":42332:42503   */\n    tag_398:\n        /* \"#utility.yul\":42371:42374   */\n      0x00\n        /* \"#utility.yul\":42394:42418   */\n      tag_886\n        /* \"#utility.yul\":42412:42417   */\n      dup3\n        /* \"#utility.yul\":42394:42418   */\n      tag_749\n      jump\t// in\n    tag_886:\n        /* \"#utility.yul\":42385:42418   */\n      swap2\n      pop\n        /* \"#utility.yul\":42440:42444   */\n      0x00\n        /* \"#utility.yul\":42433:42438   */\n      dup3\n        /* \"#utility.yul\":42430:42445   */\n      eq\n        /* \"#utility.yul\":42427:42468   */\n      iszero\n      tag_887\n      jumpi\n        /* \"#utility.yul\":42448:42466   */\n      tag_888\n      tag_865\n      jump\t// in\n    tag_888:\n        /* \"#utility.yul\":42427:42468   */\n    tag_887:\n        /* \"#utility.yul\":42495:42496   */\n      0x01\n        /* \"#utility.yul\":42488:42493   */\n      dup3\n        /* \"#utility.yul\":42484:42497   */\n      sub\n        /* \"#utility.yul\":42477:42497   */\n      swap1\n      pop\n        /* \"#utility.yul\":42332:42503   */\n      swap2\n      swap1\n      pop\n      jump\t// out\n        /* \"#utility.yul\":42509:42790   */\n    tag_826:\n        /* \"#utility.yul\":42592:42619   */\n      tag_890\n        /* \"#utility.yul\":42614:42618   */\n      dup3\n        /* \"#utility.yul\":42592:42619   */\n      tag_659\n      jump\t// in\n    tag_890:\n        /* \"#utility.yul\":42584:42590   */\n      dup2\n        /* \"#utility.yul\":42580:42620   */\n      add\n        /* \"#utility.yul\":42722:42728   */\n      dup2\n        /* \"#utility.yul\":42710:42720   */\n      dup2\n        /* \"#utility.yul\":42707:42729   */\n      lt\n        /* \"#utility.yul\":42686:42704   */\n      0xffffffffffffffff\n        /* \"#utility.yul\":42674:42684   */\n      dup3\n        /* \"#utility.yul\":42671:42705   */\n      gt\n        /* \"#utility.yul\":42668:42730   */\n      or\n        /* \"#utility.yul\":42665:42753   */\n      iszero\n      tag_891\n      jumpi\n        /* \"#utility.yul\":42733:42751   */\n      tag_892\n      tag_382\n      jump\t// in\n    tag_892:\n        /* \"#utility.yul\":42665:42753   */\n    tag_891:\n        /* \"#utility.yul\":42773:42783   */\n      dup1\n        /* \"#utility.yul\":42769:42771   */\n      0x40\n        /* \"#utility.yul\":42762:42784   */\n      mstore\n        /* \"#utility.yul\":42552:42790   */\n      pop\n        /* \"#utility.yul\":42509:42790   */\n      pop\n      pop\n      jump\t// out\n        /* \"#utility.yul\":42796:43029   */\n    tag_267:\n        /* \"#utility.yul\":42835:42838   */\n      0x00\n        /* \"#utility.yul\":42858:42882   */\n      tag_894\n        /* \"#utility.yul\":42876:42881   */\n      dup3\n        /* \"#utility.yul\":42858:42882   */\n      tag_749\n      jump\t// in\n    tag_894:\n        /* \"#utility.yul\":42849:42882   */\n      swap2\n      pop\n        /* \"#utility.yul\":42904:42970   */\n      0xffffffffffffffffffffffffffffffffffffffffffffffffffffffffffffffff\n        /* \"#utility.yul\":42897:42902   */\n      dup3\n        /* \"#utility.yul\":42894:42971   */\n      eq\n        /* \"#utility.yul\":42891:42994   */\n      iszero\n      tag_895\n      jumpi\n        /* \"#utility.yul\":42974:42992   */\n      tag_896\n      tag_865\n      jump\t// in\n    tag_896:\n        /* \"#utility.yul\":42891:42994   */\n    tag_895:\n        /* \"#utility.yul\":43021:43022   */\n      0x01\n        /* \"#utility.yul\":43014:43019   */\n      dup3\n        /* \"#utility.yul\":43010:43023   */\n      add\n        /* \"#utility.yul\":43003:43023   */\n      swap1\n      pop\n        /* \"#utility.yul\":42796:43029   */\n      swap2\n      swap1\n      pop\n      jump\t// out\n        /* \"#utility.yul\":43035:43215   */\n    tag_865:\n        /* \"#utility.yul\":43083:43160   */\n      0x4e487b7100000000000000000000000000000000000000000000000000000000\n        /* \"#utility.yul\":43080:43081   */\n      0x00\n        /* \"#utility.yul\":43073:43161   */\n      mstore\n        /* \"#utility.yul\":43180:43184   */\n      0x11\n        /* \"#utility.yul\":43177:43178   */\n      0x04\n        /* \"#utility.yul\":43170:43185   */\n      mstore\n        /* \"#utility.yul\":43204:43208   */\n      0x24\n        /* \"#utility.yul\":43201:43202   */\n      0x00\n        /* \"#utility.yul\":43194:43209   */\n      revert\n        /* \"#utility.yul\":43221:43401   */\n    tag_256:\n        /* \"#utility.yul\":43269:43346   */\n      0x4e487b7100000000000000000000000000000000000000000000000000000000\n        /* \"#utility.yul\":43266:43267   */\n      0x00\n        /* \"#utility.yul\":43259:43347   */\n      mstore\n        /* \"#utility.yul\":43366:43370   */\n      0x32\n        /* \"#utility.yul\":43363:43364   */\n      0x04\n        /* \"#utility.yul\":43356:43371   */\n      mstore\n        /* \"#utility.yul\":43390:43394   */\n      0x24\n        /* \"#utility.yul\":43387:43388   */\n      0x00\n        /* \"#utility.yul\":43380:43395   */\n      revert\n        /* \"#utility.yul\":43407:43587   */\n    tag_382:\n        /* \"#utility.yul\":43455:43532   */\n      0x4e487b7100000000000000000000000000000000000000000000000000000000\n        /* \"#utility.yul\":43452:43453   */\n      0x00\n        /* \"#utility.yul\":43445:43533   */\n      mstore\n        /* \"#utility.yul\":43552:43556   */\n      0x41\n        /* \"#utility.yul\":43549:43550   */\n      0x04\n        /* \"#utility.yul\":43542:43557   */\n      mstore\n        /* \"#utility.yul\":43576:43580   */\n      0x24\n        /* \"#utility.yul\":43573:43574   */\n      0x00\n        /* \"#utility.yul\":43566:43581   */\n      revert\n        /* \"#utility.yul\":43593:43710   */\n    tag_856:\n        /* \"#utility.yul\":43702:43703   */\n      0x00\n        /* \"#utility.yul\":43699:43700   */\n      dup1\n        /* \"#utility.yul\":43692:43704   */\n      revert\n        /* \"#utility.yul\":43716:43833   */\n    tag_438:\n        /* \"#utility.yul\":43825:43826   */\n      0x00\n        /* \"#utility.yul\":43822:43823   */\n      dup1\n        /* \"#utility.yul\":43815:43827   */\n      revert\n        /* \"#utility.yul\":43839:43956   */\n    tag_435:\n        /* \"#utility.yul\":43948:43949   */\n      0x00\n        /* \"#utility.yul\":43945:43946   */\n      dup1\n        /* \"#utility.yul\":43938:43950   */\n      revert\n        /* \"#utility.yul\":43962:44079   */\n    tag_818:\n        /* \"#utility.yul\":44071:44072   */\n      0x00\n        /* \"#utility.yul\":44068:44069   */\n      dup1\n        /* \"#utility.yul\":44061:44073   */\n      revert\n        /* \"#utility.yul\":44085:44202   */\n    tag_815:\n        /* \"#utility.yul\":44194:44195   */\n      0x00\n        /* \"#utility.yul\":44191:44192   */\n      dup1\n        /* \"#utility.yul\":44184:44196   */\n      revert\n        /* \"#utility.yul\":44208:44325   */\n    tag_859:\n        /* \"#utility.yul\":44317:44318   */\n      0x00\n        /* \"#utility.yul\":44314:44315   */\n      dup1\n        /* \"#utility.yul\":44307:44319   */\n      revert\n        /* \"#utility.yul\":44331:44448   */\n    tag_411:\n        /* \"#utility.yul\":44440:44441   */\n      0x00\n        /* \"#utility.yul\":44437:44438   */\n      dup1\n        /* \"#utility.yul\":44430:44442   */\n      revert\n        /* \"#utility.yul\":44454:44571   */\n    tag_821:\n        /* \"#utility.yul\":44563:44564   */\n      0x00\n        /* \"#utility.yul\":44560:44561   */\n      dup1\n        /* \"#utility.yul\":44553:44565   */\n      revert\n        /* \"#utility.yul\":44577:44694   */\n    tag_424:\n        /* \"#utility.yul\":44686:44687   */\n      0x00\n        /* \"#utility.yul\":44683:44684   */\n      dup1\n        /* \"#utility.yul\":44676:44688   */\n      revert\n        /* \"#utility.yul\":44700:44817   */\n    tag_498:\n        /* \"#utility.yul\":44809:44810   */\n      0x00\n        /* \"#utility.yul\":44806:44807   */\n      dup1\n        /* \"#utility.yul\":44799:44811   */\n      revert\n        /* \"#utility.yul\":44823:44940   */\n    tag_640:\n        /* \"#utility.yul\":44932:44933   */\n      0x00\n        /* \"#utility.yul\":44929:44930   */\n      dup1\n        /* \"#utility.yul\":44922:44934   */\n      revert\n        /* \"#utility.yul\":44946:45063   */\n    tag_853:\n        /* \"#utility.yul\":45055:45056   */\n      0x00\n        /* \"#utility.yul\":45052:45053   */\n      dup1\n        /* \"#utility.yul\":45045:45057   */\n      revert\n        /* \"#utility.yul\":45069:45186   */\n    tag_489:\n        /* \"#utility.yul\":45178:45179   */\n      0x00\n        /* \"#utility.yul\":45175:45176   */\n      dup1\n        /* \"#utility.yul\":45168:45180   */\n      revert\n        /* \"#utility.yul\":45192:45294   */\n    tag_659:\n        /* \"#utility.yul\":45233:45239   */\n      0x00\n        /* \"#utility.yul\":45284:45286   */\n      0x1f\n        /* \"#utility.yul\":45280:45287   */\n      not\n        /* \"#utility.yul\":45275:45277   */\n      0x1f\n        /* \"#utility.yul\":45268:45273   */\n      dup4\n        /* \"#utility.yul\":45264:45278   */\n      add\n        /* \"#utility.yul\":45260:45288   */\n      and\n        /* \"#utility.yul\":45250:45288   */\n      swap1\n      pop\n        /* \"#utility.yul\":45192:45294   */\n      swap2\n      swap1\n      pop\n      jump\t// out\n        /* \"#utility.yul\":45300:45482   */\n    tag_690:\n        /* \"#utility.yul\":45440:45474   */\n      0x537472696e67733a20686578206c656e67746820696e73756666696369656e74\n        /* \"#utility.yul\":45436:45437   */\n      0x00\n        /* \"#utility.yul\":45428:45434   */\n      dup3\n        /* \"#utility.yul\":45424:45438   */\n      add\n        /* \"#utility.yul\":45417:45475   */\n      mstore\n        /* \"#utility.yul\":45300:45482   */\n      pop\n      jump\t// out\n        /* \"#utility.yul\":45488:45713   */\n    tag_695:\n        /* \"#utility.yul\":45628:45662   */\n      0x54696d656c6f636b436f6e74726f6c6c65723a206d697373696e672064657065\n        /* \"#utility.yul\":45624:45625   */\n      0x00\n        /* \"#utility.yul\":45616:45622   */\n      dup3\n        /* \"#utility.yul\":45612:45626   */\n      add\n        /* \"#utility.yul\":45605:45663   */\n      mstore\n        /* \"#utility.yul\":45697:45705   */\n      0x6e64656e63790000000000000000000000000000000000000000000000000000\n        /* \"#utility.yul\":45692:45694   */\n      0x20\n        /* \"#utility.yul\":45684:45690   */\n      dup3\n        /* \"#utility.yul\":45680:45695   */\n      add\n        /* \"#utility.yul\":45673:45706   */\n      mstore\n        /* \"#utility.yul\":45488:45713   */\n      pop\n      jump\t// out\n        /* \"#utility.yul\":45719:45941   */\n    tag_700:\n        /* \"#utility.yul\":45859:45893   */\n      0x54696d656c6f636b436f6e74726f6c6c65723a206c656e677468206d69736d61\n        /* \"#utility.yul\":45855:45856   */\n      0x00\n        /* \"#utility.yul\":45847:45853   */\n      dup3\n        /* \"#utility.yul\":45843:45857   */\n      add\n        /* \"#utility.yul\":45836:45894   */\n      mstore\n        /* \"#utility.yul\":45928:45933   */\n      0x7463680000000000000000000000000000000000000000000000000000000000\n        /* \"#utility.yul\":45923:45925   */\n      0x20\n        /* \"#utility.yul\":45915:45921   */\n      dup3\n        /* \"#utility.yul\":45911:45926   */\n      add\n        /* \"#utility.yul\":45904:45934   */\n      mstore\n        /* \"#utility.yul\":45719:45941   */\n      pop\n      jump\t// out\n        /* \"#utility.yul\":45947:46172   */\n    tag_705:\n        /* \"#utility.yul\":46087:46121   */\n      0x54696d656c6f636b436f6e74726f6c6c65723a20696e73756666696369656e74\n        /* \"#utility.yul\":46083:46084   */\n      0x00\n        /* \"#utility.yul\":46075:46081   */\n      dup3\n        /* \"#utility.yul\":46071:46085   */\n      add\n        /* \"#utility.yul\":46064:46122   */\n      mstore\n        /* \"#utility.yul\":46156:46164   */\n      0x2064656c61790000000000000000000000000000000000000000000000000000\n        /* \"#utility.yul\":46151:46153   */\n      0x20\n        /* \"#utility.yul\":46143:46149   */\n      dup3\n        /* \"#utility.yul\":46139:46154   */\n      add\n        /* \"#utility.yul\":46132:46165   */\n      mstore\n        /* \"#utility.yul\":45947:46172   */\n      pop\n      jump\t// out\n        /* \"#utility.yul\":46178:46412   */\n    tag_710:\n        /* \"#utility.yul\":46318:46352   */\n      0x54696d656c6f636b436f6e74726f6c6c65723a206f7065726174696f6e20616c\n        /* \"#utility.yul\":46314:46315   */\n      0x00\n        /* \"#utility.yul\":46306:46312   */\n      dup3\n        /* \"#utility.yul\":46302:46316   */\n      add\n        /* \"#utility.yul\":46295:46353   */\n      mstore\n        /* \"#utility.yul\":46387:46404   */\n      0x7265616479207363686564756c65640000000000000000000000000000000000\n        /* \"#utility.yul\":46382:46384   */\n      0x20\n        /* \"#utility.yul\":46374:46380   */\n      dup3\n        /* \"#utility.yul\":46370:46385   */\n      add\n        /* \"#utility.yul\":46363:46405   */\n      mstore\n        /* \"#utility.yul\":46178:46412   */\n      pop\n      jump\t// out\n        /* \"#utility.yul\":46418:46647   */\n    tag_715:\n        /* \"#utility.yul\":46558:46592   */\n      0x54696d656c6f636b436f6e74726f6c6c65723a206f7065726174696f6e206973\n        /* \"#utility.yul\":46554:46555   */\n      0x00\n        /* \"#utility.yul\":46546:46552   */\n      dup3\n        /* \"#utility.yul\":46542:46556   */\n      add\n        /* \"#utility.yul\":46535:46593   */\n      mstore\n        /* \"#utility.yul\":46627:46639   */\n      0x206e6f7420726561647900000000000000000000000000000000000000000000\n        /* \"#utility.yul\":46622:46624   */\n      0x20\n        /* \"#utility.yul\":46614:46620   */\n      dup3\n        /* \"#utility.yul\":46610:46625   */\n      add\n        /* \"#utility.yul\":46603:46640   */\n      mstore\n        /* \"#utility.yul\":46418:46647   */\n      pop\n      jump\t// out\n        /* \"#utility.yul\":46653:46826   */\n    tag_720:\n        /* \"#utility.yul\":46793:46818   */\n      0x416363657373436f6e74726f6c3a206163636f756e7420000000000000000000\n        /* \"#utility.yul\":46789:46790   */\n      0x00\n        /* \"#utility.yul\":46781:46787   */\n      dup3\n        /* \"#utility.yul\":46777:46791   */\n      add\n        /* \"#utility.yul\":46770:46819   */\n      mstore\n        /* \"#utility.yul\":46653:46826   */\n      pop\n      jump\t// out\n        /* \"#utility.yul\":46832:47068   */\n    tag_725:\n        /* \"#utility.yul\":46972:47006   */\n      0x54696d656c6f636b436f6e74726f6c6c65723a206f7065726174696f6e206361\n        /* \"#utility.yul\":46968:46969   */\n      0x00\n        /* \"#utility.yul\":46960:46966   */\n      dup3\n        /* \"#utility.yul\":46956:46970   */\n      add\n        /* \"#utility.yul\":46949:47007   */\n      mstore\n        /* \"#utility.yul\":47041:47060   */\n      0x6e6e6f742062652063616e63656c6c6564000000000000000000000000000000\n        /* \"#utility.yul\":47036:47038   */\n      0x20\n        /* \"#utility.yul\":47028:47034   */\n      dup3\n        /* \"#utility.yul\":47024:47039   */\n      add\n        /* \"#utility.yul\":47017:47061   */\n      mstore\n        /* \"#utility.yul\":46832:47068   */\n      pop\n      jump\t// out\n        /* \"#utility.yul\":47074:47241   */\n    tag_730:\n        /* \"#utility.yul\":47214:47233   */\n      0x206973206d697373696e6720726f6c6520000000000000000000000000000000\n        /* \"#utility.yul\":47210:47211   */\n      0x00\n        /* \"#utility.yul\":47202:47208   */\n      dup3\n        /* \"#utility.yul\":47198:47212   */\n      add\n        /* \"#utility.yul\":47191:47234   */\n      mstore\n        /* \"#utility.yul\":47074:47241   */\n      pop\n      jump\t// out\n        /* \"#utility.yul\":47247:47477   */\n    tag_735:\n        /* \"#utility.yul\":47387:47421   */\n      0x54696d656c6f636b436f6e74726f6c6c65723a2063616c6c6572206d75737420\n        /* \"#utility.yul\":47383:47384   */\n      0x00\n        /* \"#utility.yul\":47375:47381   */\n      dup3\n        /* \"#utility.yul\":47371:47385   */\n      add\n        /* \"#utility.yul\":47364:47422   */\n      mstore\n        /* \"#utility.yul\":47456:47469   */\n      0x62652074696d656c6f636b000000000000000000000000000000000000000000\n        /* \"#utility.yul\":47451:47453   */\n      0x20\n        /* \"#utility.yul\":47443:47449   */\n      dup3\n        /* \"#utility.yul\":47439:47454   */\n      add\n        /* \"#utility.yul\":47432:47470   */\n      mstore\n        /* \"#utility.yul\":47247:47477   */\n      pop\n      jump\t// out\n        /* \"#utility.yul\":47483:47717   */\n    tag_740:\n        /* \"#utility.yul\":47623:47657   */\n      0x416363657373436f6e74726f6c3a2063616e206f6e6c792072656e6f756e6365\n        /* \"#utility.yul\":47619:47620   */\n      0x00\n        /* \"#utility.yul\":47611:47617   */\n      dup3\n        /* \"#utility.yul\":47607:47621   */\n      add\n        /* \"#utility.yul\":47600:47658   */\n      mstore\n        /* \"#utility.yul\":47692:47709   */\n      0x20726f6c657320666f722073656c660000000000000000000000000000000000\n        /* \"#utility.yul\":47687:47689   */\n      0x20\n        /* \"#utility.yul\":47679:47685   */\n      dup3\n        /* \"#utility.yul\":47675:47690   */\n      add\n        /* \"#utility.yul\":47668:47710   */\n      mstore\n        /* \"#utility.yul\":47483:47717   */\n      pop\n      jump\t// out\n        /* \"#utility.yul\":47723:47961   */\n    tag_745:\n        /* \"#utility.yul\":47863:47897   */\n      0x54696d656c6f636b436f6e74726f6c6c65723a20756e6465726c79696e672074\n        /* \"#utility.yul\":47859:47860   */\n      0x00\n        /* \"#utility.yul\":47851:47857   */\n      dup3\n        /* \"#utility.yul\":47847:47861   */\n      add\n        /* \"#utility.yul\":47840:47898   */\n      mstore\n        /* \"#utility.yul\":47932:47953   */\n      0x72616e73616374696f6e20726576657274656400000000000000000000000000\n        /* \"#utility.yul\":47927:47929   */\n      0x20\n        /* \"#utility.yul\":47919:47925   */\n      dup3\n        /* \"#utility.yul\":47915:47930   */\n      add\n        /* \"#utility.yul\":47908:47954   */\n      mstore\n        /* \"#utility.yul\":47723:47961   */\n      pop\n      jump\t// out\n        /* \"#utility.yul\":47967:48089   */\n    tag_430:\n        /* \"#utility.yul\":48040:48064   */\n      tag_927\n        /* \"#utility.yul\":48058:48063   */\n      dup2\n        /* \"#utility.yul\":48040:48064   */\n      tag_602\n      jump\t// in\n    tag_927:\n        /* \"#utility.yul\":48033:48038   */\n      dup2\n        /* \"#utility.yul\":48030:48065   */\n      eq\n        /* \"#utility.yul\":48020:48083   */\n      tag_928\n      jumpi\n        /* \"#utility.yul\":48079:48080   */\n      0x00\n        /* \"#utility.yul\":48076:48077   */\n      dup1\n        /* \"#utility.yul\":48069:48081   */\n      revert\n        /* \"#utility.yul\":48020:48083   */\n    tag_928:\n        /* \"#utility.yul\":47967:48089   */\n      pop\n      jump\t// out\n        /* \"#utility.yul\":48095:48217   */\n    tag_465:\n        /* \"#utility.yul\":48168:48192   */\n      tag_930\n        /* \"#utility.yul\":48186:48191   */\n      dup2\n        /* \"#utility.yul\":48168:48192   */\n      tag_649\n      jump\t// in\n    tag_930:\n        /* \"#utility.yul\":48161:48166   */\n      dup2\n        /* \"#utility.yul\":48158:48193   */\n      eq\n        /* \"#utility.yul\":48148:48211   */\n      tag_931\n      jumpi\n        /* \"#utility.yul\":48207:48208   */\n      0x00\n        /* \"#utility.yul\":48204:48205   */\n      dup1\n        /* \"#utility.yul\":48197:48209   */\n      revert\n        /* \"#utility.yul\":48148:48211   */\n    tag_931:\n        /* \"#utility.yul\":48095:48217   */\n      pop\n      jump\t// out\n        /* \"#utility.yul\":48223:48343   */\n    tag_469:\n        /* \"#utility.yul\":48295:48318   */\n      tag_933\n        /* \"#utility.yul\":48312:48317   */\n      dup2\n        /* \"#utility.yul\":48295:48318   */\n      tag_653\n      jump\t// in\n    tag_933:\n        /* \"#utility.yul\":48288:48293   */\n      dup2\n        /* \"#utility.yul\":48285:48319   */\n      eq\n        /* \"#utility.yul\":48275:48337   */\n      tag_934\n      jumpi\n        /* \"#utility.yul\":48333:48334   */\n      0x00\n        /* \"#utility.yul\":48330:48331   */\n      dup1\n        /* \"#utility.yul\":48323:48335   */\n      revert\n        /* \"#utility.yul\":48275:48337   */\n    tag_934:\n        /* \"#utility.yul\":48223:48343   */\n      pop\n      jump\t// out\n        /* \"#utility.yul\":48349:48471   */\n    tag_485:\n        /* \"#utility.yul\":48422:48446   */\n      tag_936\n        /* \"#utility.yul\":48440:48445   */\n      dup2\n        /* \"#utility.yul\":48422:48446   */\n      tag_749\n      jump\t// in\n    tag_936:\n        /* \"#utility.yul\":48415:48420   */\n      dup2\n        /* \"#utility.yul\":48412:48447   */\n      eq\n        /* \"#utility.yul\":48402:48465   */\n      tag_937\n      jumpi\n        /* \"#utility.yul\":48461:48462   */\n      0x00\n        /* \"#utility.yul\":48458:48459   */\n      dup1\n        /* \"#utility.yul\":48451:48463   */\n      revert\n        /* \"#utility.yul\":48402:48465   */\n    tag_937:\n        /* \"#utility.yul\":48349:48471   */\n      pop\n      jump\t// out\n\n    auxdata: 0xa26469706673582212206d9ab4b775314366b17eabd80b4ee7d7abc0f4fc06de7fbb2cb6b07f4f241b8c64736f6c63430008070033\n}\n",
				"bytecode": {
					"linkReferences": {},
					"object": "60806040523480156200001157600080fd5b5060405162003bf538038062003bf5833981810160405281019062000037919062000626565b620000697f5f58e3a2316349923ce3780f8d587db2d72378aed66a8261c916544fa6846ca5806200034f60201b60201c565b620000bb7fb09aa5aeb3702cfd50b6b62bc4532604938f21248a27a1d5ca736082b6819cc17f5f58e3a2316349923ce3780f8d587db2d72378aed66a8261c916544fa6846ca56200034f60201b60201c565b6200010d7fd8aa0f3194971a2a116679f7c2090f6939c8d4e01a2a8d7e41d55e5351469e637f5f58e3a2316349923ce3780f8d587db2d72378aed66a8261c916544fa6846ca56200034f60201b60201c565b6200015f7ffd643c72710c63c0180259aba6b2d05451e3591a24e58b62239378085726f7837f5f58e3a2316349923ce3780f8d587db2d72378aed66a8261c916544fa6846ca56200034f60201b60201c565b620001a07f5f58e3a2316349923ce3780f8d587db2d72378aed66a8261c916544fa6846ca562000194620003b260201b60201c565b620003ba60201b60201c565b620001d27f5f58e3a2316349923ce3780f8d587db2d72378aed66a8261c916544fa6846ca530620003ba60201b60201c565b60005b825181101562000291576200022e7fb09aa5aeb3702cfd50b6b62bc4532604938f21248a27a1d5ca736082b6819cc18483815181106200021a57620002196200086c565b5b6020026020010151620003ba60201b60201c565b6200027d7ffd643c72710c63c0180259aba6b2d05451e3591a24e58b62239378085726f7838483815181106200026957620002686200086c565b5b6020026020010151620003ba60201b60201c565b806200028990620007ef565b9050620001d5565b5060005b81518110156200030257620002ee7fd8aa0f3194971a2a116679f7c2090f6939c8d4e01a2a8d7e41d55e5351469e63838381518110620002da57620002d96200086c565b5b6020026020010151620003ba60201b60201c565b80620002fa90620007ef565b905062000295565b50826002819055507f11c24f4ead16507c69ac467fbd5e4eed5fb5c699626d2cc6d66421df253886d56000846040516200033e929190620006e2565b60405180910390a150505062000923565b60006200036283620003d060201b60201c565b905081600080858152602001908152602001600020600101819055508181847fbd79b86ffe0ab8e8776151514217cd7cacd52c909f66475c3af44e129f0b00ff60405160405180910390a4505050565b600033905090565b620003cc8282620003ef60201b60201c565b5050565b6000806000838152602001908152602001600020600101549050919050565b620004018282620004e060201b60201c565b620004dc57600160008084815260200190815260200160002060000160008373ffffffffffffffffffffffffffffffffffffffff1673ffffffffffffffffffffffffffffffffffffffff16815260200190815260200160002060006101000a81548160ff02191690831515021790555062000481620003b260201b60201c565b73ffffffffffffffffffffffffffffffffffffffff168173ffffffffffffffffffffffffffffffffffffffff16837f2f8788117e7eff1d82e926ec794901d17c78024a50270940304540a733656f0d60405160405180910390a45b5050565b600080600084815260200190815260200160002060000160008373ffffffffffffffffffffffffffffffffffffffff1673ffffffffffffffffffffffffffffffffffffffff16815260200190815260200160002060009054906101000a900460ff16905092915050565b6000620005616200055b8462000738565b6200070f565b90508083825260208201905082856020860282011115620005875762000586620008cf565b5b60005b85811015620005bb5781620005a08882620005c5565b8452602084019350602083019250506001810190506200058a565b5050509392505050565b600081519050620005d681620008ef565b92915050565b600082601f830112620005f457620005f3620008ca565b5b8151620006068482602086016200054a565b91505092915050565b600081519050620006208162000909565b92915050565b600080600060608486031215620006425762000641620008d9565b5b600062000652868287016200060f565b935050602084015167ffffffffffffffff811115620006765762000675620008d4565b5b6200068486828701620005dc565b925050604084015167ffffffffffffffff811115620006a857620006a7620008d4565b5b620006b686828701620005dc565b9150509250925092565b620006cb81620007a5565b82525050565b620006dc816200079b565b82525050565b6000604082019050620006f96000830185620006c0565b620007086020830184620006d1565b9392505050565b60006200071b6200072e565b9050620007298282620007b9565b919050565b6000604051905090565b600067ffffffffffffffff8211156200075657620007556200089b565b5b602082029050602081019050919050565b600062000774826200077b565b9050919050565b600073ffffffffffffffffffffffffffffffffffffffff82169050919050565b6000819050919050565b6000620007b2826200079b565b9050919050565b620007c482620008de565b810181811067ffffffffffffffff82111715620007e657620007e56200089b565b5b80604052505050565b6000620007fc826200079b565b91507fffffffffffffffffffffffffffffffffffffffffffffffffffffffffffffffff8214156200083257620008316200083d565b5b600182019050919050565b7f4e487b7100000000000000000000000000000000000000000000000000000000600052601160045260246000fd5b7f4e487b7100000000000000000000000000000000000000000000000000000000600052603260045260246000fd5b7f4e487b7100000000000000000000000000000000000000000000000000000000600052604160045260246000fd5b600080fd5b600080fd5b600080fd5b600080fd5b6000601f19601f8301169050919050565b620008fa8162000767565b81146200090657600080fd5b50565b62000914816200079b565b81146200092057600080fd5b50565b6132c280620009336000396000f3fe6080604052600436106101bb5760003560e01c80638065657f116100ec578063bc197c811161008a578063d547741f11610064578063d547741f1461068c578063e38335e5146106b5578063f23a6e61146106d1578063f27a0c921461070e576101c2565b8063bc197c81146105e9578063c4d252f514610626578063d45c44351461064f576101c2565b806391d14854116100c657806391d1485414610519578063a217fddf14610556578063b08e51c014610581578063b1c5f427146105ac576101c2565b80638065657f146104885780638f2a0bb0146104c55780638f61f4f5146104ee576101c2565b8063248a9ca31161015957806331d507501161013357806331d50750146103bc57806336568abe146103f9578063584b153e1461042257806364d623531461045f576101c2565b8063248a9ca3146103195780632ab0f529146103565780632f2ff15d14610393576101c2565b80630d3cf6fc116101955780630d3cf6fc14610258578063134008d31461028357806313bc9f201461029f578063150b7a02146102dc576101c2565b806301d5062a146101c757806301ffc9a7146101f057806307bd02651461022d576101c2565b366101c257005b600080fd5b3480156101d357600080fd5b506101ee60048036038101906101e99190611eb2565b610739565b005b3480156101fc57600080fd5b5061021760048036038101906102129190612199565b6107ce565b60405161022491906127f0565b60405180910390f35b34801561023957600080fd5b50610242610848565b60405161024f919061280b565b60405180910390f35b34801561026457600080fd5b5061026d61086c565b60405161027a919061280b565b60405180910390f35b61029d60048036038101906102989190611e18565b610890565b005b3480156102ab57600080fd5b506102c660048036038101906102c1919061212c565b61094d565b6040516102d391906127f0565b60405180910390f35b3480156102e857600080fd5b5061030360048036038101906102fe9190611cfe565b610973565b6040516103109190612826565b60405180910390f35b34801561032557600080fd5b50610340600480360381019061033b919061212c565b610987565b60405161034d919061280b565b60405180910390f35b34801561036257600080fd5b5061037d6004803603810190610378919061212c565b6109a6565b60405161038a91906127f0565b60405180910390f35b34801561039f57600080fd5b506103ba60048036038101906103b59190612159565b6109bb565b005b3480156103c857600080fd5b506103e360048036038101906103de919061212c565b6109dc565b6040516103f091906127f0565b60405180910390f35b34801561040557600080fd5b50610420600480360381019061041b9190612159565b6109f0565b005b34801561042e57600080fd5b506104496004803603810190610444919061212c565b610a73565b60405161045691906127f0565b60405180910390f35b34801561046b57600080fd5b50610486600480360381019061048191906121c6565b610a88565b005b34801561049457600080fd5b506104af60048036038101906104aa9190611e18565b610b3b565b6040516104bc919061280b565b60405180910390f35b3480156104d157600080fd5b506104ec60048036038101906104e7919061203d565b610b7a565b005b3480156104fa57600080fd5b50610503610d25565b604051610510919061280b565b60405180910390f35b34801561052557600080fd5b50610540600480360381019061053b9190612159565b610d49565b60405161054d91906127f0565b60405180910390f35b34801561056257600080fd5b5061056b610db3565b604051610578919061280b565b60405180910390f35b34801561058d57600080fd5b50610596610dba565b6040516105a3919061280b565b60405180910390f35b3480156105b857600080fd5b506105d360048036038101906105ce9190611f61565b610dde565b6040516105e0919061280b565b60405180910390f35b3480156105f557600080fd5b50610610600480360381019061060b9190611c2f565b610e23565b60405161061d9190612826565b60405180910390f35b34801561063257600080fd5b5061064d6004803603810190610648919061212c565b610e38565b005b34801561065b57600080fd5b506106766004803603810190610671919061212c565b610ef2565b60405161068391906129a3565b60405180910390f35b34801561069857600080fd5b506106b360048036038101906106ae9190612159565b610f0f565b005b6106cf60048036038101906106ca9190611f61565b610f30565b005b3480156106dd57600080fd5b506106f860048036038101906106f39190611d81565b61111a565b6040516107059190612826565b60405180910390f35b34801561071a57600080fd5b5061072361112f565b60405161073091906129a3565b60405180910390f35b7fb09aa5aeb3702cfd50b6b62bc4532604938f21248a27a1d5ca736082b6819cc161076381611139565b6000610773898989898989610b3b565b905061077f818461114d565b6000817f4cf4410cc57040e44862ef0f45f3dd5a5e02db8eb8add648d4b0e236f1d07dca8b8b8b8b8b8a6040516107bb96959493929190612726565b60405180910390a3505050505050505050565b60007f4e2312e0000000000000000000000000000000000000000000000000000000007bffffffffffffffffffffffffffffffffffffffffffffffffffffffff1916827bffffffffffffffffffffffffffffffffffffffffffffffffffffffff19161480610841575061084082611207565b5b9050919050565b7fd8aa0f3194971a2a116679f7c2090f6939c8d4e01a2a8d7e41d55e5351469e6381565b7f5f58e3a2316349923ce3780f8d587db2d72378aed66a8261c916544fa6846ca581565b7fd8aa0f3194971a2a116679f7c2090f6939c8d4e01a2a8d7e41d55e5351469e636108bc816000610d49565b6108d2576108d1816108cc611281565b611289565b5b60006108e2888888888888610b3b565b90506108ee8185611326565b6108fa888888886113c7565b6000817fc2617efa69bab66782fa219543714338489c4e9e178271560a91b82c3f612b588a8a8a8a604051610932949392919061268a565b60405180910390a36109438161147e565b5050505050505050565b60008061095983610ef2565b905060018111801561096b5750428111155b915050919050565b600063150b7a0260e01b9050949350505050565b6000806000838152602001908152602001600020600101549050919050565b600060016109b383610ef2565b149050919050565b6109c482610987565b6109cd81611139565b6109d783836114e1565b505050565b6000806109e883610ef2565b119050919050565b6109f8611281565b73ffffffffffffffffffffffffffffffffffffffff168173ffffffffffffffffffffffffffffffffffffffff1614610a65576040517f08c379a0000000000000000000000000000000000000000000000000000000008152600401610a5c90612963565b60405180910390fd5b610a6f82826115c1565b5050565b60006001610a8083610ef2565b119050919050565b3073ffffffffffffffffffffffffffffffffffffffff163373ffffffffffffffffffffffffffffffffffffffff1614610af6576040517f08c379a0000000000000000000000000000000000000000000000000000000008152600401610aed90612943565b60405180910390fd5b7f11c24f4ead16507c69ac467fbd5e4eed5fb5c699626d2cc6d66421df253886d560025482604051610b299291906129be565b60405180910390a18060028190555050565b6000868686868686604051602001610b58969594939291906126ca565b6040516020818303038152906040528051906020012090509695505050505050565b7fb09aa5aeb3702cfd50b6b62bc4532604938f21248a27a1d5ca736082b6819cc1610ba481611139565b878790508a8a905014610bec576040517f08c379a0000000000000000000000000000000000000000000000000000000008152600401610be3906128a3565b60405180910390fd5b858590508a8a905014610c34576040517f08c379a0000000000000000000000000000000000000000000000000000000008152600401610c2b906128a3565b60405180910390fd5b6000610c468b8b8b8b8b8b8b8b610dde565b9050610c52818461114d565b60005b8b8b9050811015610d175780827f4cf4410cc57040e44862ef0f45f3dd5a5e02db8eb8add648d4b0e236f1d07dca8e8e85818110610c9657610c95612e3e565b5b9050602002016020810190610cab9190611c02565b8d8d86818110610cbe57610cbd612e3e565b5b905060200201358c8c87818110610cd857610cd7612e3e565b5b9050602002810190610cea91906129e7565b8c8b604051610cfe96959493929190612726565b60405180910390a380610d1090612dc6565b9050610c55565b505050505050505050505050565b7fb09aa5aeb3702cfd50b6b62bc4532604938f21248a27a1d5ca736082b6819cc181565b600080600084815260200190815260200160002060000160008373ffffffffffffffffffffffffffffffffffffffff1673ffffffffffffffffffffffffffffffffffffffff16815260200190815260200160002060009054906101000a900460ff16905092915050565b6000801b81565b7ffd643c72710c63c0180259aba6b2d05451e3591a24e58b62239378085726f78381565b60008888888888888888604051602001610dff989796959493929190612782565b60405160208183030381529060405280519060200120905098975050505050505050565b600063bc197c8160e01b905095945050505050565b7ffd643c72710c63c0180259aba6b2d05451e3591a24e58b62239378085726f783610e6281611139565b610e6b82610a73565b610eaa576040517f08c379a0000000000000000000000000000000000000000000000000000000008152600401610ea190612923565b60405180910390fd5b6001600083815260200190815260200160002060009055817fbaa1eb22f2a492ba1a5fea61b8df4d27c6c8b5f3971e63bb58fa14ff72eedb7060405160405180910390a25050565b600060016000838152602001908152602001600020549050919050565b610f1882610987565b610f2181611139565b610f2b83836115c1565b505050565b7fd8aa0f3194971a2a116679f7c2090f6939c8d4e01a2a8d7e41d55e5351469e63610f5c816000610d49565b610f7257610f7181610f6c611281565b611289565b5b868690508989905014610fba576040517f08c379a0000000000000000000000000000000000000000000000000000000008152600401610fb1906128a3565b60405180910390fd5b848490508989905014611002576040517f08c379a0000000000000000000000000000000000000000000000000000000008152600401610ff9906128a3565b60405180910390fd5b60006110148a8a8a8a8a8a8a8a610dde565b90506110208185611326565b60005b8a8a90508110156111045760008b8b8381811061104357611042612e3e565b5b90506020020160208101906110589190611c02565b905060008a8a8481811061106f5761106e612e3e565b5b9050602002013590503660008a8a8681811061108e5761108d612e3e565b5b90506020028101906110a091906129e7565b915091506110b0848484846113c7565b84867fc2617efa69bab66782fa219543714338489c4e9e178271560a91b82c3f612b58868686866040516110e7949392919061268a565b60405180910390a350505050806110fd90612dc6565b9050611023565b5061110e8161147e565b50505050505050505050565b600063f23a6e6160e01b905095945050505050565b6000600254905090565b61114a81611145611281565b611289565b50565b611156826109dc565b15611196576040517f08c379a000000000000000000000000000000000000000000000000000000000815260040161118d906128e3565b60405180910390fd5b61119e61112f565b8110156111e0576040517f08c379a00000000000000000000000000000000000000000000000000000000081526004016111d7906128c3565b60405180910390fd5b80426111ec9190612bfb565b60016000848152602001908152602001600020819055505050565b60007f7965db0b000000000000000000000000000000000000000000000000000000007bffffffffffffffffffffffffffffffffffffffffffffffffffffffff1916827bffffffffffffffffffffffffffffffffffffffffffffffffffffffff1916148061127a5750611279826116a2565b5b9050919050565b600033905090565b6112938282610d49565b611322576112b88173ffffffffffffffffffffffffffffffffffffffff16601461170c565b6112c68360001c602061170c565b6040516020016112d7929190612650565b6040516020818303038152906040526040517f08c379a00000000000000000000000000000000000000000000000000000000081526004016113199190612841565b60405180910390fd5b5050565b61132f8261094d565b61136e576040517f08c379a000000000000000000000000000000000000000000000000000000000815260040161136590612903565b60405180910390fd5b6000801b8114806113845750611383816109a6565b5b6113c3576040517f08c379a00000000000000000000000000000000000000000000000000000000081526004016113ba90612883565b60405180910390fd5b5050565b60008473ffffffffffffffffffffffffffffffffffffffff168484846040516113f1929190612637565b60006040518083038185875af1925050503d806000811461142e576040519150601f19603f3d011682016040523d82523d6000602084013e611433565b606091505b5050905080611477576040517f08c379a000000000000000000000000000000000000000000000000000000000815260040161146e90612983565b60405180910390fd5b5050505050565b6114878161094d565b6114c6576040517f08c379a00000000000000000000000000000000000000000000000000000000081526004016114bd90612903565b60405180910390fd5b60018060008381526020019081526020016000208190555050565b6114eb8282610d49565b6115bd57600160008084815260200190815260200160002060000160008373ffffffffffffffffffffffffffffffffffffffff1673ffffffffffffffffffffffffffffffffffffffff16815260200190815260200160002060006101000a81548160ff021916908315150217905550611562611281565b73ffffffffffffffffffffffffffffffffffffffff168173ffffffffffffffffffffffffffffffffffffffff16837f2f8788117e7eff1d82e926ec794901d17c78024a50270940304540a733656f0d60405160405180910390a45b5050565b6115cb8282610d49565b1561169e57600080600084815260200190815260200160002060000160008373ffffffffffffffffffffffffffffffffffffffff1673ffffffffffffffffffffffffffffffffffffffff16815260200190815260200160002060006101000a81548160ff021916908315150217905550611643611281565b73ffffffffffffffffffffffffffffffffffffffff168173ffffffffffffffffffffffffffffffffffffffff16837ff6391f5c32d9c69d2a47ea670b442974b53935d1edc7fd64eb21e047a839171b60405160405180910390a45b5050565b60007f01ffc9a7000000000000000000000000000000000000000000000000000000007bffffffffffffffffffffffffffffffffffffffffffffffffffffffff1916827bffffffffffffffffffffffffffffffffffffffffffffffffffffffff1916149050919050565b60606000600283600261171f9190612c51565b6117299190612bfb565b67ffffffffffffffff81111561174257611741612e6d565b5b6040519080825280601f01601f1916602001820160405280156117745781602001600182028036833780820191505090505b5090507f3000000000000000000000000000000000000000000000000000000000000000816000815181106117ac576117ab612e3e565b5b60200101907effffffffffffffffffffffffffffffffffffffffffffffffffffffffffffff1916908160001a9053507f7800000000000000000000000000000000000000000000000000000000000000816001815181106118105761180f612e3e565b5b60200101907effffffffffffffffffffffffffffffffffffffffffffffffffffffffffffff1916908160001a905350600060018460026118509190612c51565b61185a9190612bfb565b90505b60018111156118fa577f3031323334353637383961626364656600000000000000000000000000000000600f86166010811061189c5761189b612e3e565b5b1a60f81b8282815181106118b3576118b2612e3e565b5b60200101907effffffffffffffffffffffffffffffffffffffffffffffffffffffffffffff1916908160001a905350600485901c9450806118f390612d6b565b905061185d565b506000841461193e576040517f08c379a000000000000000000000000000000000000000000000000000000000815260040161193590612863565b60405180910390fd5b8091505092915050565b600061195b61195684612a6f565b612a4a565b9050808382526020820190508285602086028201111561197e5761197d612eba565b5b60005b858110156119ae57816119948882611bed565b845260208401935060208301925050600181019050611981565b5050509392505050565b60006119cb6119c684612a9b565b612a4a565b9050828152602081018484840111156119e7576119e6612ec4565b5b6119f2848285612d29565b509392505050565b600081359050611a0981613230565b92915050565b60008083601f840112611a2557611a24612ea6565b5b8235905067ffffffffffffffff811115611a4257611a41612ea1565b5b602083019150836020820283011115611a5e57611a5d612eba565b5b9250929050565b60008083601f840112611a7b57611a7a612ea6565b5b8235905067ffffffffffffffff811115611a9857611a97612ea1565b5b602083019150836020820283011115611ab457611ab3612eba565b5b9250929050565b60008083601f840112611ad157611ad0612ea6565b5b8235905067ffffffffffffffff811115611aee57611aed612ea1565b5b602083019150836020820283011115611b0a57611b09612eba565b5b9250929050565b600082601f830112611b2657611b25612ea6565b5b8135611b36848260208601611948565b91505092915050565b600081359050611b4e81613247565b92915050565b600081359050611b638161325e565b92915050565b60008083601f840112611b7f57611b7e612ea6565b5b8235905067ffffffffffffffff811115611b9c57611b9b612ea1565b5b602083019150836001820283011115611bb857611bb7612eba565b5b9250929050565b600082601f830112611bd457611bd3612ea6565b5b8135611be48482602086016119b8565b91505092915050565b600081359050611bfc81613275565b92915050565b600060208284031215611c1857611c17612ed8565b5b6000611c26848285016119fa565b91505092915050565b600080600080600060a08688031215611c4b57611c4a612ed8565b5b6000611c59888289016119fa565b9550506020611c6a888289016119fa565b945050604086013567ffffffffffffffff811115611c8b57611c8a612ec9565b5b611c9788828901611b11565b935050606086013567ffffffffffffffff811115611cb857611cb7612ec9565b5b611cc488828901611b11565b925050608086013567ffffffffffffffff811115611ce557611ce4612ec9565b5b611cf188828901611bbf565b9150509295509295909350565b60008060008060808587031215611d1857611d17612ed8565b5b6000611d26878288016119fa565b9450506020611d37878288016119fa565b9350506040611d4887828801611bed565b925050606085013567ffffffffffffffff811115611d6957611d68612ec9565b5b611d7587828801611bbf565b91505092959194509250565b600080600080600060a08688031215611d9d57611d9c612ed8565b5b6000611dab888289016119fa565b9550506020611dbc888289016119fa565b9450506040611dcd88828901611bed565b9350506060611dde88828901611bed565b925050608086013567ffffffffffffffff811115611dff57611dfe612ec9565b5b611e0b88828901611bbf565b9150509295509295909350565b60008060008060008060a08789031215611e3557611e34612ed8565b5b6000611e4389828a016119fa565b9650506020611e5489828a01611bed565b955050604087013567ffffffffffffffff811115611e7557611e74612ec9565b5b611e8189828a01611b69565b94509450506060611e9489828a01611b3f565b9250506080611ea589828a01611b3f565b9150509295509295509295565b600080600080600080600060c0888a031215611ed157611ed0612ed8565b5b6000611edf8a828b016119fa565b9750506020611ef08a828b01611bed565b965050604088013567ffffffffffffffff811115611f1157611f10612ec9565b5b611f1d8a828b01611b69565b95509550506060611f308a828b01611b3f565b9350506080611f418a828b01611b3f565b92505060a0611f528a828b01611bed565b91505092959891949750929550565b60008060008060008060008060a0898b031215611f8157611f80612ed8565b5b600089013567ffffffffffffffff811115611f9f57611f9e612ec9565b5b611fab8b828c01611a0f565b9850985050602089013567ffffffffffffffff811115611fce57611fcd612ec9565b5b611fda8b828c01611abb565b9650965050604089013567ffffffffffffffff811115611ffd57611ffc612ec9565b5b6120098b828c01611a65565b9450945050606061201c8b828c01611b3f565b925050608061202d8b828c01611b3f565b9150509295985092959890939650565b600080600080600080600080600060c08a8c03121561205f5761205e612ed8565b5b60008a013567ffffffffffffffff81111561207d5761207c612ec9565b5b6120898c828d01611a0f565b995099505060208a013567ffffffffffffffff8111156120ac576120ab612ec9565b5b6120b88c828d01611abb565b975097505060408a013567ffffffffffffffff8111156120db576120da612ec9565b5b6120e78c828d01611a65565b955095505060606120fa8c828d01611b3f565b935050608061210b8c828d01611b3f565b92505060a061211c8c828d01611bed565b9150509295985092959850929598565b60006020828403121561214257612141612ed8565b5b600061215084828501611b3f565b91505092915050565b600080604083850312156121705761216f612ed8565b5b600061217e85828601611b3f565b925050602061218f858286016119fa565b9150509250929050565b6000602082840312156121af576121ae612ed8565b5b60006121bd84828501611b54565b91505092915050565b6000602082840312156121dc576121db612ed8565b5b60006121ea84828501611bed565b91505092915050565b60006121ff8383612221565b60208301905092915050565b600061221884848461239b565b90509392505050565b61222a81612cab565b82525050565b61223981612cab565b82525050565b600061224b8385612b05565b935061225682612acc565b8060005b8581101561228f5761226c8284612b81565b61227688826121f3565b975061228183612aeb565b92505060018101905061225a565b5085925050509392505050565b60006122a88385612b16565b9350836020840285016122ba84612ad6565b8060005b878110156123005784840389526122d58284612b98565b6122e086828461220b565b95506122eb84612af8565b935060208b019a5050506001810190506122be565b50829750879450505050509392505050565b600061231e8385612b27565b93507f07ffffffffffffffffffffffffffffffffffffffffffffffffffffffffffffff83111561235157612350612ece565b5b602083029250612362838584612d29565b82840190509392505050565b61237781612cbd565b82525050565b61238681612cc9565b82525050565b61239581612cd3565b82525050565b60006123a78385612b38565b93506123b4838584612d29565b6123bd83612edd565b840190509392505050565b60006123d48385612b49565b93506123e1838584612d29565b6123ea83612edd565b840190509392505050565b60006124018385612b5a565b935061240e838584612d29565b82840190509392505050565b600061242582612ae0565b61242f8185612b65565b935061243f818560208601612d38565b61244881612edd565b840191505092915050565b600061245e82612ae0565b6124688185612b76565b9350612478818560208601612d38565b80840191505092915050565b6000612491602083612b65565b915061249c82612eee565b602082019050919050565b60006124b4602683612b65565b91506124bf82612f17565b604082019050919050565b60006124d7602383612b65565b91506124e282612f66565b604082019050919050565b60006124fa602683612b65565b915061250582612fb5565b604082019050919050565b600061251d602f83612b65565b915061252882613004565b604082019050919050565b6000612540602a83612b65565b915061254b82613053565b604082019050919050565b6000612563601783612b76565b915061256e826130a2565b601782019050919050565b6000612586603183612b65565b9150612591826130cb565b604082019050919050565b60006125a9601183612b76565b91506125b48261311a565b601182019050919050565b60006125cc602b83612b65565b91506125d782613143565b604082019050919050565b60006125ef602f83612b65565b91506125fa82613192565b604082019050919050565b6000612612603383612b65565b915061261d826131e1565b604082019050919050565b61263181612d1f565b82525050565b60006126448284866123f5565b91508190509392505050565b600061265b82612556565b91506126678285612453565b91506126728261259c565b915061267e8284612453565b91508190509392505050565b600060608201905061269f6000830187612230565b6126ac6020830186612628565b81810360408301526126bf8184866123c8565b905095945050505050565b600060a0820190506126df6000830189612230565b6126ec6020830188612628565b81810360408301526126ff8186886123c8565b905061270e606083018561237d565b61271b608083018461237d565b979650505050505050565b600060a08201905061273b6000830189612230565b6127486020830188612628565b818103604083015261275b8186886123c8565b905061276a606083018561237d565b6127776080830184612628565b979650505050505050565b600060a082019050818103600083015261279d818a8c61223f565b905081810360208301526127b281888a612312565b905081810360408301526127c781868861229c565b90506127d6606083018561237d565b6127e3608083018461237d565b9998505050505050505050565b6000602082019050612805600083018461236e565b92915050565b6000602082019050612820600083018461237d565b92915050565b600060208201905061283b600083018461238c565b92915050565b6000602082019050818103600083015261285b818461241a565b905092915050565b6000602082019050818103600083015261287c81612484565b9050919050565b6000602082019050818103600083015261289c816124a7565b9050919050565b600060208201905081810360008301526128bc816124ca565b9050919050565b600060208201905081810360008301526128dc816124ed565b9050919050565b600060208201905081810360008301526128fc81612510565b9050919050565b6000602082019050818103600083015261291c81612533565b9050919050565b6000602082019050818103600083015261293c81612579565b9050919050565b6000602082019050818103600083015261295c816125bf565b9050919050565b6000602082019050818103600083015261297c816125e2565b9050919050565b6000602082019050818103600083015261299c81612605565b9050919050565b60006020820190506129b86000830184612628565b92915050565b60006040820190506129d36000830185612628565b6129e06020830184612628565b9392505050565b60008083356001602003843603038112612a0457612a03612eb0565b5b80840192508235915067ffffffffffffffff821115612a2657612a25612eab565b5b602083019250600182023603831315612a4257612a41612ebf565b5b509250929050565b6000612a54612a65565b9050612a608282612d95565b919050565b6000604051905090565b600067ffffffffffffffff821115612a8a57612a89612e6d565b5b602082029050602081019050919050565b600067ffffffffffffffff821115612ab657612ab5612e6d565b5b612abf82612edd565b9050602081019050919050565b6000819050919050565b6000819050919050565b600081519050919050565b6000602082019050919050565b6000602082019050919050565b600082825260208201905092915050565b600082825260208201905092915050565b600082825260208201905092915050565b600082825260208201905092915050565b600082825260208201905092915050565b600081905092915050565b600082825260208201905092915050565b600081905092915050565b6000612b9060208401846119fa565b905092915050565b60008083356001602003843603038112612bb557612bb4612ed3565b5b83810192508235915060208301925067ffffffffffffffff821115612bdd57612bdc612e9c565b5b600182023603841315612bf357612bf2612eb5565b5b509250929050565b6000612c0682612d1f565b9150612c1183612d1f565b9250827fffffffffffffffffffffffffffffffffffffffffffffffffffffffffffffffff03821115612c4657612c45612e0f565b5b828201905092915050565b6000612c5c82612d1f565b9150612c6783612d1f565b9250817fffffffffffffffffffffffffffffffffffffffffffffffffffffffffffffffff0483118215151615612ca057612c9f612e0f565b5b828202905092915050565b6000612cb682612cff565b9050919050565b60008115159050919050565b6000819050919050565b60007fffffffff0000000000000000000000000000000000000000000000000000000082169050919050565b600073ffffffffffffffffffffffffffffffffffffffff82169050919050565b6000819050919050565b82818337600083830152505050565b60005b83811015612d56578082015181840152602081019050612d3b565b83811115612d65576000848401525b50505050565b6000612d7682612d1f565b91506000821415612d8a57612d89612e0f565b5b600182039050919050565b612d9e82612edd565b810181811067ffffffffffffffff82111715612dbd57612dbc612e6d565b5b80604052505050565b6000612dd182612d1f565b91507fffffffffffffffffffffffffffffffffffffffffffffffffffffffffffffffff821415612e0457612e03612e0f565b5b600182019050919050565b7f4e487b7100000000000000000000000000000000000000000000000000000000600052601160045260246000fd5b7f4e487b7100000000000000000000000000000000000000000000000000000000600052603260045260246000fd5b7f4e487b7100000000000000000000000000000000000000000000000000000000600052604160045260246000fd5b600080fd5b600080fd5b600080fd5b600080fd5b600080fd5b600080fd5b600080fd5b600080fd5b600080fd5b600080fd5b600080fd5b600080fd5b600080fd5b6000601f19601f8301169050919050565b7f537472696e67733a20686578206c656e67746820696e73756666696369656e74600082015250565b7f54696d656c6f636b436f6e74726f6c6c65723a206d697373696e67206465706560008201527f6e64656e63790000000000000000000000000000000000000000000000000000602082015250565b7f54696d656c6f636b436f6e74726f6c6c65723a206c656e677468206d69736d6160008201527f7463680000000000000000000000000000000000000000000000000000000000602082015250565b7f54696d656c6f636b436f6e74726f6c6c65723a20696e73756666696369656e7460008201527f2064656c61790000000000000000000000000000000000000000000000000000602082015250565b7f54696d656c6f636b436f6e74726f6c6c65723a206f7065726174696f6e20616c60008201527f7265616479207363686564756c65640000000000000000000000000000000000602082015250565b7f54696d656c6f636b436f6e74726f6c6c65723a206f7065726174696f6e20697360008201527f206e6f7420726561647900000000000000000000000000000000000000000000602082015250565b7f416363657373436f6e74726f6c3a206163636f756e7420000000000000000000600082015250565b7f54696d656c6f636b436f6e74726f6c6c65723a206f7065726174696f6e20636160008201527f6e6e6f742062652063616e63656c6c6564000000000000000000000000000000602082015250565b7f206973206d697373696e6720726f6c6520000000000000000000000000000000600082015250565b7f54696d656c6f636b436f6e74726f6c6c65723a2063616c6c6572206d7573742060008201527f62652074696d656c6f636b000000000000000000000000000000000000000000602082015250565b7f416363657373436f6e74726f6c3a2063616e206f6e6c792072656e6f756e636560008201527f20726f6c657320666f722073656c660000000000000000000000000000000000602082015250565b7f54696d656c6f636b436f6e74726f6c6c65723a20756e6465726c79696e67207460008201527f72616e73616374696f6e20726576657274656400000000000000000000000000602082015250565b61323981612cab565b811461324457600080fd5b50565b61325081612cc9565b811461325b57600080fd5b50565b61326781612cd3565b811461327257600080fd5b50565b61327e81612d1f565b811461328957600080fd5b5056fea26469706673582212206d9ab4b775314366b17eabd80b4ee7d7abc0f4fc06de7fbb2cb6b07f4f241b8c64736f6c63430008070033",
					"opcodes": "PUSH1 0x80 PUSH1 0x40 MSTORE CALLVALUE DUP1 ISZERO PUSH3 0x11 JUMPI PUSH1 0x0 DUP1 REVERT JUMPDEST POP PUSH1 0x40 MLOAD PUSH3 0x3BF5 CODESIZE SUB DUP1 PUSH3 0x3BF5 DUP4 CODECOPY DUP2 DUP2 ADD PUSH1 0x40 MSTORE DUP2 ADD SWAP1 PUSH3 0x37 SWAP2 SWAP1 PUSH3 0x626 JUMP JUMPDEST PUSH3 0x69 PUSH32 0x5F58E3A2316349923CE3780F8D587DB2D72378AED66A8261C916544FA6846CA5 DUP1 PUSH3 0x34F PUSH1 0x20 SHL PUSH1 0x20 SHR JUMP JUMPDEST PUSH3 0xBB PUSH32 0xB09AA5AEB3702CFD50B6B62BC4532604938F21248A27A1D5CA736082B6819CC1 PUSH32 0x5F58E3A2316349923CE3780F8D587DB2D72378AED66A8261C916544FA6846CA5 PUSH3 0x34F PUSH1 0x20 SHL PUSH1 0x20 SHR JUMP JUMPDEST PUSH3 0x10D PUSH32 0xD8AA0F3194971A2A116679F7C2090F6939C8D4E01A2A8D7E41D55E5351469E63 PUSH32 0x5F58E3A2316349923CE3780F8D587DB2D72378AED66A8261C916544FA6846CA5 PUSH3 0x34F PUSH1 0x20 SHL PUSH1 0x20 SHR JUMP JUMPDEST PUSH3 0x15F PUSH32 0xFD643C72710C63C0180259ABA6B2D05451E3591A24E58B62239378085726F783 PUSH32 0x5F58E3A2316349923CE3780F8D587DB2D72378AED66A8261C916544FA6846CA5 PUSH3 0x34F PUSH1 0x20 SHL PUSH1 0x20 SHR JUMP JUMPDEST PUSH3 0x1A0 PUSH32 0x5F58E3A2316349923CE3780F8D587DB2D72378AED66A8261C916544FA6846CA5 PUSH3 0x194 PUSH3 0x3B2 PUSH1 0x20 SHL PUSH1 0x20 SHR JUMP JUMPDEST PUSH3 0x3BA PUSH1 0x20 SHL PUSH1 0x20 SHR JUMP JUMPDEST PUSH3 0x1D2 PUSH32 0x5F58E3A2316349923CE3780F8D587DB2D72378AED66A8261C916544FA6846CA5 ADDRESS PUSH3 0x3BA PUSH1 0x20 SHL PUSH1 0x20 SHR JUMP JUMPDEST PUSH1 0x0 JUMPDEST DUP3 MLOAD DUP2 LT ISZERO PUSH3 0x291 JUMPI PUSH3 0x22E PUSH32 0xB09AA5AEB3702CFD50B6B62BC4532604938F21248A27A1D5CA736082B6819CC1 DUP5 DUP4 DUP2 MLOAD DUP2 LT PUSH3 0x21A JUMPI PUSH3 0x219 PUSH3 0x86C JUMP JUMPDEST JUMPDEST PUSH1 0x20 MUL PUSH1 0x20 ADD ADD MLOAD PUSH3 0x3BA PUSH1 0x20 SHL PUSH1 0x20 SHR JUMP JUMPDEST PUSH3 0x27D PUSH32 0xFD643C72710C63C0180259ABA6B2D05451E3591A24E58B62239378085726F783 DUP5 DUP4 DUP2 MLOAD DUP2 LT PUSH3 0x269 JUMPI PUSH3 0x268 PUSH3 0x86C JUMP JUMPDEST JUMPDEST PUSH1 0x20 MUL PUSH1 0x20 ADD ADD MLOAD PUSH3 0x3BA PUSH1 0x20 SHL PUSH1 0x20 SHR JUMP JUMPDEST DUP1 PUSH3 0x289 SWAP1 PUSH3 0x7EF JUMP JUMPDEST SWAP1 POP PUSH3 0x1D5 JUMP JUMPDEST POP PUSH1 0x0 JUMPDEST DUP2 MLOAD DUP2 LT ISZERO PUSH3 0x302 JUMPI PUSH3 0x2EE PUSH32 0xD8AA0F3194971A2A116679F7C2090F6939C8D4E01A2A8D7E41D55E5351469E63 DUP4 DUP4 DUP2 MLOAD DUP2 LT PUSH3 0x2DA JUMPI PUSH3 0x2D9 PUSH3 0x86C JUMP JUMPDEST JUMPDEST PUSH1 0x20 MUL PUSH1 0x20 ADD ADD MLOAD PUSH3 0x3BA PUSH1 0x20 SHL PUSH1 0x20 SHR JUMP JUMPDEST DUP1 PUSH3 0x2FA SWAP1 PUSH3 0x7EF JUMP JUMPDEST SWAP1 POP PUSH3 0x295 JUMP JUMPDEST POP DUP3 PUSH1 0x2 DUP2 SWAP1 SSTORE POP PUSH32 0x11C24F4EAD16507C69AC467FBD5E4EED5FB5C699626D2CC6D66421DF253886D5 PUSH1 0x0 DUP5 PUSH1 0x40 MLOAD PUSH3 0x33E SWAP3 SWAP2 SWAP1 PUSH3 0x6E2 JUMP JUMPDEST PUSH1 0x40 MLOAD DUP1 SWAP2 SUB SWAP1 LOG1 POP POP POP PUSH3 0x923 JUMP JUMPDEST PUSH1 0x0 PUSH3 0x362 DUP4 PUSH3 0x3D0 PUSH1 0x20 SHL PUSH1 0x20 SHR JUMP JUMPDEST SWAP1 POP DUP2 PUSH1 0x0 DUP1 DUP6 DUP2 MSTORE PUSH1 0x20 ADD SWAP1 DUP2 MSTORE PUSH1 0x20 ADD PUSH1 0x0 KECCAK256 PUSH1 0x1 ADD DUP2 SWAP1 SSTORE POP DUP2 DUP2 DUP5 PUSH32 0xBD79B86FFE0AB8E8776151514217CD7CACD52C909F66475C3AF44E129F0B00FF PUSH1 0x40 MLOAD PUSH1 0x40 MLOAD DUP1 SWAP2 SUB SWAP1 LOG4 POP POP POP JUMP JUMPDEST PUSH1 0x0 CALLER SWAP1 POP SWAP1 JUMP JUMPDEST PUSH3 0x3CC DUP3 DUP3 PUSH3 0x3EF PUSH1 0x20 SHL PUSH1 0x20 SHR JUMP JUMPDEST POP POP JUMP JUMPDEST PUSH1 0x0 DUP1 PUSH1 0x0 DUP4 DUP2 MSTORE PUSH1 0x20 ADD SWAP1 DUP2 MSTORE PUSH1 0x20 ADD PUSH1 0x0 KECCAK256 PUSH1 0x1 ADD SLOAD SWAP1 POP SWAP2 SWAP1 POP JUMP JUMPDEST PUSH3 0x401 DUP3 DUP3 PUSH3 0x4E0 PUSH1 0x20 SHL PUSH1 0x20 SHR JUMP JUMPDEST PUSH3 0x4DC JUMPI PUSH1 0x1 PUSH1 0x0 DUP1 DUP5 DUP2 MSTORE PUSH1 0x20 ADD SWAP1 DUP2 MSTORE PUSH1 0x20 ADD PUSH1 0x0 KECCAK256 PUSH1 0x0 ADD PUSH1 0x0 DUP4 PUSH20 0xFFFFFFFFFFFFFFFFFFFFFFFFFFFFFFFFFFFFFFFF AND PUSH20 0xFFFFFFFFFFFFFFFFFFFFFFFFFFFFFFFFFFFFFFFF AND DUP2 MSTORE PUSH1 0x20 ADD SWAP1 DUP2 MSTORE PUSH1 0x20 ADD PUSH1 0x0 KECCAK256 PUSH1 0x0 PUSH2 0x100 EXP DUP2 SLOAD DUP2 PUSH1 0xFF MUL NOT AND SWAP1 DUP4 ISZERO ISZERO MUL OR SWAP1 SSTORE POP PUSH3 0x481 PUSH3 0x3B2 PUSH1 0x20 SHL PUSH1 0x20 SHR JUMP JUMPDEST PUSH20 0xFFFFFFFFFFFFFFFFFFFFFFFFFFFFFFFFFFFFFFFF AND DUP2 PUSH20 0xFFFFFFFFFFFFFFFFFFFFFFFFFFFFFFFFFFFFFFFF AND DUP4 PUSH32 0x2F8788117E7EFF1D82E926EC794901D17C78024A50270940304540A733656F0D PUSH1 0x40 MLOAD PUSH1 0x40 MLOAD DUP1 SWAP2 SUB SWAP1 LOG4 JUMPDEST POP POP JUMP JUMPDEST PUSH1 0x0 DUP1 PUSH1 0x0 DUP5 DUP2 MSTORE PUSH1 0x20 ADD SWAP1 DUP2 MSTORE PUSH1 0x20 ADD PUSH1 0x0 KECCAK256 PUSH1 0x0 ADD PUSH1 0x0 DUP4 PUSH20 0xFFFFFFFFFFFFFFFFFFFFFFFFFFFFFFFFFFFFFFFF AND PUSH20 0xFFFFFFFFFFFFFFFFFFFFFFFFFFFFFFFFFFFFFFFF AND DUP2 MSTORE PUSH1 0x20 ADD SWAP1 DUP2 MSTORE PUSH1 0x20 ADD PUSH1 0x0 KECCAK256 PUSH1 0x0 SWAP1 SLOAD SWAP1 PUSH2 0x100 EXP SWAP1 DIV PUSH1 0xFF AND SWAP1 POP SWAP3 SWAP2 POP POP JUMP JUMPDEST PUSH1 0x0 PUSH3 0x561 PUSH3 0x55B DUP5 PUSH3 0x738 JUMP JUMPDEST PUSH3 0x70F JUMP JUMPDEST SWAP1 POP DUP1 DUP4 DUP3 MSTORE PUSH1 0x20 DUP3 ADD SWAP1 POP DUP3 DUP6 PUSH1 0x20 DUP7 MUL DUP3 ADD GT ISZERO PUSH3 0x587 JUMPI PUSH3 0x586 PUSH3 0x8CF JUMP JUMPDEST JUMPDEST PUSH1 0x0 JUMPDEST DUP6 DUP2 LT ISZERO PUSH3 0x5BB JUMPI DUP2 PUSH3 0x5A0 DUP9 DUP3 PUSH3 0x5C5 JUMP JUMPDEST DUP5 MSTORE PUSH1 0x20 DUP5 ADD SWAP4 POP PUSH1 0x20 DUP4 ADD SWAP3 POP POP PUSH1 0x1 DUP2 ADD SWAP1 POP PUSH3 0x58A JUMP JUMPDEST POP POP POP SWAP4 SWAP3 POP POP POP JUMP JUMPDEST PUSH1 0x0 DUP2 MLOAD SWAP1 POP PUSH3 0x5D6 DUP2 PUSH3 0x8EF JUMP JUMPDEST SWAP3 SWAP2 POP POP JUMP JUMPDEST PUSH1 0x0 DUP3 PUSH1 0x1F DUP4 ADD SLT PUSH3 0x5F4 JUMPI PUSH3 0x5F3 PUSH3 0x8CA JUMP JUMPDEST JUMPDEST DUP2 MLOAD PUSH3 0x606 DUP5 DUP3 PUSH1 0x20 DUP7 ADD PUSH3 0x54A JUMP JUMPDEST SWAP2 POP POP SWAP3 SWAP2 POP POP JUMP JUMPDEST PUSH1 0x0 DUP2 MLOAD SWAP1 POP PUSH3 0x620 DUP2 PUSH3 0x909 JUMP JUMPDEST SWAP3 SWAP2 POP POP JUMP JUMPDEST PUSH1 0x0 DUP1 PUSH1 0x0 PUSH1 0x60 DUP5 DUP7 SUB SLT ISZERO PUSH3 0x642 JUMPI PUSH3 0x641 PUSH3 0x8D9 JUMP JUMPDEST JUMPDEST PUSH1 0x0 PUSH3 0x652 DUP7 DUP3 DUP8 ADD PUSH3 0x60F JUMP JUMPDEST SWAP4 POP POP PUSH1 0x20 DUP5 ADD MLOAD PUSH8 0xFFFFFFFFFFFFFFFF DUP2 GT ISZERO PUSH3 0x676 JUMPI PUSH3 0x675 PUSH3 0x8D4 JUMP JUMPDEST JUMPDEST PUSH3 0x684 DUP7 DUP3 DUP8 ADD PUSH3 0x5DC JUMP JUMPDEST SWAP3 POP POP PUSH1 0x40 DUP5 ADD MLOAD PUSH8 0xFFFFFFFFFFFFFFFF DUP2 GT ISZERO PUSH3 0x6A8 JUMPI PUSH3 0x6A7 PUSH3 0x8D4 JUMP JUMPDEST JUMPDEST PUSH3 0x6B6 DUP7 DUP3 DUP8 ADD PUSH3 0x5DC JUMP JUMPDEST SWAP2 POP POP SWAP3 POP SWAP3 POP SWAP3 JUMP JUMPDEST PUSH3 0x6CB DUP2 PUSH3 0x7A5 JUMP JUMPDEST DUP3 MSTORE POP POP JUMP JUMPDEST PUSH3 0x6DC DUP2 PUSH3 0x79B JUMP JUMPDEST DUP3 MSTORE POP POP JUMP JUMPDEST PUSH1 0x0 PUSH1 0x40 DUP3 ADD SWAP1 POP PUSH3 0x6F9 PUSH1 0x0 DUP4 ADD DUP6 PUSH3 0x6C0 JUMP JUMPDEST PUSH3 0x708 PUSH1 0x20 DUP4 ADD DUP5 PUSH3 0x6D1 JUMP JUMPDEST SWAP4 SWAP3 POP POP POP JUMP JUMPDEST PUSH1 0x0 PUSH3 0x71B PUSH3 0x72E JUMP JUMPDEST SWAP1 POP PUSH3 0x729 DUP3 DUP3 PUSH3 0x7B9 JUMP JUMPDEST SWAP2 SWAP1 POP JUMP JUMPDEST PUSH1 0x0 PUSH1 0x40 MLOAD SWAP1 POP SWAP1 JUMP JUMPDEST PUSH1 0x0 PUSH8 0xFFFFFFFFFFFFFFFF DUP3 GT ISZERO PUSH3 0x756 JUMPI PUSH3 0x755 PUSH3 0x89B JUMP JUMPDEST JUMPDEST PUSH1 0x20 DUP3 MUL SWAP1 POP PUSH1 0x20 DUP2 ADD SWAP1 POP SWAP2 SWAP1 POP JUMP JUMPDEST PUSH1 0x0 PUSH3 0x774 DUP3 PUSH3 0x77B JUMP JUMPDEST SWAP1 POP SWAP2 SWAP1 POP JUMP JUMPDEST PUSH1 0x0 PUSH20 0xFFFFFFFFFFFFFFFFFFFFFFFFFFFFFFFFFFFFFFFF DUP3 AND SWAP1 POP SWAP2 SWAP1 POP JUMP JUMPDEST PUSH1 0x0 DUP2 SWAP1 POP SWAP2 SWAP1 POP JUMP JUMPDEST PUSH1 0x0 PUSH3 0x7B2 DUP3 PUSH3 0x79B JUMP JUMPDEST SWAP1 POP SWAP2 SWAP1 POP JUMP JUMPDEST PUSH3 0x7C4 DUP3 PUSH3 0x8DE JUMP JUMPDEST DUP2 ADD DUP2 DUP2 LT PUSH8 0xFFFFFFFFFFFFFFFF DUP3 GT OR ISZERO PUSH3 0x7E6 JUMPI PUSH3 0x7E5 PUSH3 0x89B JUMP JUMPDEST JUMPDEST DUP1 PUSH1 0x40 MSTORE POP POP POP JUMP JUMPDEST PUSH1 0x0 PUSH3 0x7FC DUP3 PUSH3 0x79B JUMP JUMPDEST SWAP2 POP PUSH32 0xFFFFFFFFFFFFFFFFFFFFFFFFFFFFFFFFFFFFFFFFFFFFFFFFFFFFFFFFFFFFFFFF DUP3 EQ ISZERO PUSH3 0x832 JUMPI PUSH3 0x831 PUSH3 0x83D JUMP JUMPDEST JUMPDEST PUSH1 0x1 DUP3 ADD SWAP1 POP SWAP2 SWAP1 POP JUMP JUMPDEST PUSH32 0x4E487B7100000000000000000000000000000000000000000000000000000000 PUSH1 0x0 MSTORE PUSH1 0x11 PUSH1 0x4 MSTORE PUSH1 0x24 PUSH1 0x0 REVERT JUMPDEST PUSH32 0x4E487B7100000000000000000000000000000000000000000000000000000000 PUSH1 0x0 MSTORE PUSH1 0x32 PUSH1 0x4 MSTORE PUSH1 0x24 PUSH1 0x0 REVERT JUMPDEST PUSH32 0x4E487B7100000000000000000000000000000000000000000000000000000000 PUSH1 0x0 MSTORE PUSH1 0x41 PUSH1 0x4 MSTORE PUSH1 0x24 PUSH1 0x0 REVERT JUMPDEST PUSH1 0x0 DUP1 REVERT JUMPDEST PUSH1 0x0 DUP1 REVERT JUMPDEST PUSH1 0x0 DUP1 REVERT JUMPDEST PUSH1 0x0 DUP1 REVERT JUMPDEST PUSH1 0x0 PUSH1 0x1F NOT PUSH1 0x1F DUP4 ADD AND SWAP1 POP SWAP2 SWAP1 POP JUMP JUMPDEST PUSH3 0x8FA DUP2 PUSH3 0x767 JUMP JUMPDEST DUP2 EQ PUSH3 0x906 JUMPI PUSH1 0x0 DUP1 REVERT JUMPDEST POP JUMP JUMPDEST PUSH3 0x914 DUP2 PUSH3 0x79B JUMP JUMPDEST DUP2 EQ PUSH3 0x920 JUMPI PUSH1 0x0 DUP1 REVERT JUMPDEST POP JUMP JUMPDEST PUSH2 0x32C2 DUP1 PUSH3 0x933 PUSH1 0x0 CODECOPY PUSH1 0x0 RETURN INVALID PUSH1 0x80 PUSH1 0x40 MSTORE PUSH1 0x4 CALLDATASIZE LT PUSH2 0x1BB JUMPI PUSH1 0x0 CALLDATALOAD PUSH1 0xE0 SHR DUP1 PUSH4 0x8065657F GT PUSH2 0xEC JUMPI DUP1 PUSH4 0xBC197C81 GT PUSH2 0x8A JUMPI DUP1 PUSH4 0xD547741F GT PUSH2 0x64 JUMPI DUP1 PUSH4 0xD547741F EQ PUSH2 0x68C JUMPI DUP1 PUSH4 0xE38335E5 EQ PUSH2 0x6B5 JUMPI DUP1 PUSH4 0xF23A6E61 EQ PUSH2 0x6D1 JUMPI DUP1 PUSH4 0xF27A0C92 EQ PUSH2 0x70E JUMPI PUSH2 0x1C2 JUMP JUMPDEST DUP1 PUSH4 0xBC197C81 EQ PUSH2 0x5E9 JUMPI DUP1 PUSH4 0xC4D252F5 EQ PUSH2 0x626 JUMPI DUP1 PUSH4 0xD45C4435 EQ PUSH2 0x64F JUMPI PUSH2 0x1C2 JUMP JUMPDEST DUP1 PUSH4 0x91D14854 GT PUSH2 0xC6 JUMPI DUP1 PUSH4 0x91D14854 EQ PUSH2 0x519 JUMPI DUP1 PUSH4 0xA217FDDF EQ PUSH2 0x556 JUMPI DUP1 PUSH4 0xB08E51C0 EQ PUSH2 0x581 JUMPI DUP1 PUSH4 0xB1C5F427 EQ PUSH2 0x5AC JUMPI PUSH2 0x1C2 JUMP JUMPDEST DUP1 PUSH4 0x8065657F EQ PUSH2 0x488 JUMPI DUP1 PUSH4 0x8F2A0BB0 EQ PUSH2 0x4C5 JUMPI DUP1 PUSH4 0x8F61F4F5 EQ PUSH2 0x4EE JUMPI PUSH2 0x1C2 JUMP JUMPDEST DUP1 PUSH4 0x248A9CA3 GT PUSH2 0x159 JUMPI DUP1 PUSH4 0x31D50750 GT PUSH2 0x133 JUMPI DUP1 PUSH4 0x31D50750 EQ PUSH2 0x3BC JUMPI DUP1 PUSH4 0x36568ABE EQ PUSH2 0x3F9 JUMPI DUP1 PUSH4 0x584B153E EQ PUSH2 0x422 JUMPI DUP1 PUSH4 0x64D62353 EQ PUSH2 0x45F JUMPI PUSH2 0x1C2 JUMP JUMPDEST DUP1 PUSH4 0x248A9CA3 EQ PUSH2 0x319 JUMPI DUP1 PUSH4 0x2AB0F529 EQ PUSH2 0x356 JUMPI DUP1 PUSH4 0x2F2FF15D EQ PUSH2 0x393 JUMPI PUSH2 0x1C2 JUMP JUMPDEST DUP1 PUSH4 0xD3CF6FC GT PUSH2 0x195 JUMPI DUP1 PUSH4 0xD3CF6FC EQ PUSH2 0x258 JUMPI DUP1 PUSH4 0x134008D3 EQ PUSH2 0x283 JUMPI DUP1 PUSH4 0x13BC9F20 EQ PUSH2 0x29F JUMPI DUP1 PUSH4 0x150B7A02 EQ PUSH2 0x2DC JUMPI PUSH2 0x1C2 JUMP JUMPDEST DUP1 PUSH4 0x1D5062A EQ PUSH2 0x1C7 JUMPI DUP1 PUSH4 0x1FFC9A7 EQ PUSH2 0x1F0 JUMPI DUP1 PUSH4 0x7BD0265 EQ PUSH2 0x22D JUMPI PUSH2 0x1C2 JUMP JUMPDEST CALLDATASIZE PUSH2 0x1C2 JUMPI STOP JUMPDEST PUSH1 0x0 DUP1 REVERT JUMPDEST CALLVALUE DUP1 ISZERO PUSH2 0x1D3 JUMPI PUSH1 0x0 DUP1 REVERT JUMPDEST POP PUSH2 0x1EE PUSH1 0x4 DUP1 CALLDATASIZE SUB DUP2 ADD SWAP1 PUSH2 0x1E9 SWAP2 SWAP1 PUSH2 0x1EB2 JUMP JUMPDEST PUSH2 0x739 JUMP JUMPDEST STOP JUMPDEST CALLVALUE DUP1 ISZERO PUSH2 0x1FC JUMPI PUSH1 0x0 DUP1 REVERT JUMPDEST POP PUSH2 0x217 PUSH1 0x4 DUP1 CALLDATASIZE SUB DUP2 ADD SWAP1 PUSH2 0x212 SWAP2 SWAP1 PUSH2 0x2199 JUMP JUMPDEST PUSH2 0x7CE JUMP JUMPDEST PUSH1 0x40 MLOAD PUSH2 0x224 SWAP2 SWAP1 PUSH2 0x27F0 JUMP JUMPDEST PUSH1 0x40 MLOAD DUP1 SWAP2 SUB SWAP1 RETURN JUMPDEST CALLVALUE DUP1 ISZERO PUSH2 0x239 JUMPI PUSH1 0x0 DUP1 REVERT JUMPDEST POP PUSH2 0x242 PUSH2 0x848 JUMP JUMPDEST PUSH1 0x40 MLOAD PUSH2 0x24F SWAP2 SWAP1 PUSH2 0x280B JUMP JUMPDEST PUSH1 0x40 MLOAD DUP1 SWAP2 SUB SWAP1 RETURN JUMPDEST CALLVALUE DUP1 ISZERO PUSH2 0x264 JUMPI PUSH1 0x0 DUP1 REVERT JUMPDEST POP PUSH2 0x26D PUSH2 0x86C JUMP JUMPDEST PUSH1 0x40 MLOAD PUSH2 0x27A SWAP2 SWAP1 PUSH2 0x280B JUMP JUMPDEST PUSH1 0x40 MLOAD DUP1 SWAP2 SUB SWAP1 RETURN JUMPDEST PUSH2 0x29D PUSH1 0x4 DUP1 CALLDATASIZE SUB DUP2 ADD SWAP1 PUSH2 0x298 SWAP2 SWAP1 PUSH2 0x1E18 JUMP JUMPDEST PUSH2 0x890 JUMP JUMPDEST STOP JUMPDEST CALLVALUE DUP1 ISZERO PUSH2 0x2AB JUMPI PUSH1 0x0 DUP1 REVERT JUMPDEST POP PUSH2 0x2C6 PUSH1 0x4 DUP1 CALLDATASIZE SUB DUP2 ADD SWAP1 PUSH2 0x2C1 SWAP2 SWAP1 PUSH2 0x212C JUMP JUMPDEST PUSH2 0x94D JUMP JUMPDEST PUSH1 0x40 MLOAD PUSH2 0x2D3 SWAP2 SWAP1 PUSH2 0x27F0 JUMP JUMPDEST PUSH1 0x40 MLOAD DUP1 SWAP2 SUB SWAP1 RETURN JUMPDEST CALLVALUE DUP1 ISZERO PUSH2 0x2E8 JUMPI PUSH1 0x0 DUP1 REVERT JUMPDEST POP PUSH2 0x303 PUSH1 0x4 DUP1 CALLDATASIZE SUB DUP2 ADD SWAP1 PUSH2 0x2FE SWAP2 SWAP1 PUSH2 0x1CFE JUMP JUMPDEST PUSH2 0x973 JUMP JUMPDEST PUSH1 0x40 MLOAD PUSH2 0x310 SWAP2 SWAP1 PUSH2 0x2826 JUMP JUMPDEST PUSH1 0x40 MLOAD DUP1 SWAP2 SUB SWAP1 RETURN JUMPDEST CALLVALUE DUP1 ISZERO PUSH2 0x325 JUMPI PUSH1 0x0 DUP1 REVERT JUMPDEST POP PUSH2 0x340 PUSH1 0x4 DUP1 CALLDATASIZE SUB DUP2 ADD SWAP1 PUSH2 0x33B SWAP2 SWAP1 PUSH2 0x212C JUMP JUMPDEST PUSH2 0x987 JUMP JUMPDEST PUSH1 0x40 MLOAD PUSH2 0x34D SWAP2 SWAP1 PUSH2 0x280B JUMP JUMPDEST PUSH1 0x40 MLOAD DUP1 SWAP2 SUB SWAP1 RETURN JUMPDEST CALLVALUE DUP1 ISZERO PUSH2 0x362 JUMPI PUSH1 0x0 DUP1 REVERT JUMPDEST POP PUSH2 0x37D PUSH1 0x4 DUP1 CALLDATASIZE SUB DUP2 ADD SWAP1 PUSH2 0x378 SWAP2 SWAP1 PUSH2 0x212C JUMP JUMPDEST PUSH2 0x9A6 JUMP JUMPDEST PUSH1 0x40 MLOAD PUSH2 0x38A SWAP2 SWAP1 PUSH2 0x27F0 JUMP JUMPDEST PUSH1 0x40 MLOAD DUP1 SWAP2 SUB SWAP1 RETURN JUMPDEST CALLVALUE DUP1 ISZERO PUSH2 0x39F JUMPI PUSH1 0x0 DUP1 REVERT JUMPDEST POP PUSH2 0x3BA PUSH1 0x4 DUP1 CALLDATASIZE SUB DUP2 ADD SWAP1 PUSH2 0x3B5 SWAP2 SWAP1 PUSH2 0x2159 JUMP JUMPDEST PUSH2 0x9BB JUMP JUMPDEST STOP JUMPDEST CALLVALUE DUP1 ISZERO PUSH2 0x3C8 JUMPI PUSH1 0x0 DUP1 REVERT JUMPDEST POP PUSH2 0x3E3 PUSH1 0x4 DUP1 CALLDATASIZE SUB DUP2 ADD SWAP1 PUSH2 0x3DE SWAP2 SWAP1 PUSH2 0x212C JUMP JUMPDEST PUSH2 0x9DC JUMP JUMPDEST PUSH1 0x40 MLOAD PUSH2 0x3F0 SWAP2 SWAP1 PUSH2 0x27F0 JUMP JUMPDEST PUSH1 0x40 MLOAD DUP1 SWAP2 SUB SWAP1 RETURN JUMPDEST CALLVALUE DUP1 ISZERO PUSH2 0x405 JUMPI PUSH1 0x0 DUP1 REVERT JUMPDEST POP PUSH2 0x420 PUSH1 0x4 DUP1 CALLDATASIZE SUB DUP2 ADD SWAP1 PUSH2 0x41B SWAP2 SWAP1 PUSH2 0x2159 JUMP JUMPDEST PUSH2 0x9F0 JUMP JUMPDEST STOP JUMPDEST CALLVALUE DUP1 ISZERO PUSH2 0x42E JUMPI PUSH1 0x0 DUP1 REVERT JUMPDEST POP PUSH2 0x449 PUSH1 0x4 DUP1 CALLDATASIZE SUB DUP2 ADD SWAP1 PUSH2 0x444 SWAP2 SWAP1 PUSH2 0x212C JUMP JUMPDEST PUSH2 0xA73 JUMP JUMPDEST PUSH1 0x40 MLOAD PUSH2 0x456 SWAP2 SWAP1 PUSH2 0x27F0 JUMP JUMPDEST PUSH1 0x40 MLOAD DUP1 SWAP2 SUB SWAP1 RETURN JUMPDEST CALLVALUE DUP1 ISZERO PUSH2 0x46B JUMPI PUSH1 0x0 DUP1 REVERT JUMPDEST POP PUSH2 0x486 PUSH1 0x4 DUP1 CALLDATASIZE SUB DUP2 ADD SWAP1 PUSH2 0x481 SWAP2 SWAP1 PUSH2 0x21C6 JUMP JUMPDEST PUSH2 0xA88 JUMP JUMPDEST STOP JUMPDEST CALLVALUE DUP1 ISZERO PUSH2 0x494 JUMPI PUSH1 0x0 DUP1 REVERT JUMPDEST POP PUSH2 0x4AF PUSH1 0x4 DUP1 CALLDATASIZE SUB DUP2 ADD SWAP1 PUSH2 0x4AA SWAP2 SWAP1 PUSH2 0x1E18 JUMP JUMPDEST PUSH2 0xB3B JUMP JUMPDEST PUSH1 0x40 MLOAD PUSH2 0x4BC SWAP2 SWAP1 PUSH2 0x280B JUMP JUMPDEST PUSH1 0x40 MLOAD DUP1 SWAP2 SUB SWAP1 RETURN JUMPDEST CALLVALUE DUP1 ISZERO PUSH2 0x4D1 JUMPI PUSH1 0x0 DUP1 REVERT JUMPDEST POP PUSH2 0x4EC PUSH1 0x4 DUP1 CALLDATASIZE SUB DUP2 ADD SWAP1 PUSH2 0x4E7 SWAP2 SWAP1 PUSH2 0x203D JUMP JUMPDEST PUSH2 0xB7A JUMP JUMPDEST STOP JUMPDEST CALLVALUE DUP1 ISZERO PUSH2 0x4FA JUMPI PUSH1 0x0 DUP1 REVERT JUMPDEST POP PUSH2 0x503 PUSH2 0xD25 JUMP JUMPDEST PUSH1 0x40 MLOAD PUSH2 0x510 SWAP2 SWAP1 PUSH2 0x280B JUMP JUMPDEST PUSH1 0x40 MLOAD DUP1 SWAP2 SUB SWAP1 RETURN JUMPDEST CALLVALUE DUP1 ISZERO PUSH2 0x525 JUMPI PUSH1 0x0 DUP1 REVERT JUMPDEST POP PUSH2 0x540 PUSH1 0x4 DUP1 CALLDATASIZE SUB DUP2 ADD SWAP1 PUSH2 0x53B SWAP2 SWAP1 PUSH2 0x2159 JUMP JUMPDEST PUSH2 0xD49 JUMP JUMPDEST PUSH1 0x40 MLOAD PUSH2 0x54D SWAP2 SWAP1 PUSH2 0x27F0 JUMP JUMPDEST PUSH1 0x40 MLOAD DUP1 SWAP2 SUB SWAP1 RETURN JUMPDEST CALLVALUE DUP1 ISZERO PUSH2 0x562 JUMPI PUSH1 0x0 DUP1 REVERT JUMPDEST POP PUSH2 0x56B PUSH2 0xDB3 JUMP JUMPDEST PUSH1 0x40 MLOAD PUSH2 0x578 SWAP2 SWAP1 PUSH2 0x280B JUMP JUMPDEST PUSH1 0x40 MLOAD DUP1 SWAP2 SUB SWAP1 RETURN JUMPDEST CALLVALUE DUP1 ISZERO PUSH2 0x58D JUMPI PUSH1 0x0 DUP1 REVERT JUMPDEST POP PUSH2 0x596 PUSH2 0xDBA JUMP JUMPDEST PUSH1 0x40 MLOAD PUSH2 0x5A3 SWAP2 SWAP1 PUSH2 0x280B JUMP JUMPDEST PUSH1 0x40 MLOAD DUP1 SWAP2 SUB SWAP1 RETURN JUMPDEST CALLVALUE DUP1 ISZERO PUSH2 0x5B8 JUMPI PUSH1 0x0 DUP1 REVERT JUMPDEST POP PUSH2 0x5D3 PUSH1 0x4 DUP1 CALLDATASIZE SUB DUP2 ADD SWAP1 PUSH2 0x5CE SWAP2 SWAP1 PUSH2 0x1F61 JUMP JUMPDEST PUSH2 0xDDE JUMP JUMPDEST PUSH1 0x40 MLOAD PUSH2 0x5E0 SWAP2 SWAP1 PUSH2 0x280B JUMP JUMPDEST PUSH1 0x40 MLOAD DUP1 SWAP2 SUB SWAP1 RETURN JUMPDEST CALLVALUE DUP1 ISZERO PUSH2 0x5F5 JUMPI PUSH1 0x0 DUP1 REVERT JUMPDEST POP PUSH2 0x610 PUSH1 0x4 DUP1 CALLDATASIZE SUB DUP2 ADD SWAP1 PUSH2 0x60B SWAP2 SWAP1 PUSH2 0x1C2F JUMP JUMPDEST PUSH2 0xE23 JUMP JUMPDEST PUSH1 0x40 MLOAD PUSH2 0x61D SWAP2 SWAP1 PUSH2 0x2826 JUMP JUMPDEST PUSH1 0x40 MLOAD DUP1 SWAP2 SUB SWAP1 RETURN JUMPDEST CALLVALUE DUP1 ISZERO PUSH2 0x632 JUMPI PUSH1 0x0 DUP1 REVERT JUMPDEST POP PUSH2 0x64D PUSH1 0x4 DUP1 CALLDATASIZE SUB DUP2 ADD SWAP1 PUSH2 0x648 SWAP2 SWAP1 PUSH2 0x212C JUMP JUMPDEST PUSH2 0xE38 JUMP JUMPDEST STOP JUMPDEST CALLVALUE DUP1 ISZERO PUSH2 0x65B JUMPI PUSH1 0x0 DUP1 REVERT JUMPDEST POP PUSH2 0x676 PUSH1 0x4 DUP1 CALLDATASIZE SUB DUP2 ADD SWAP1 PUSH2 0x671 SWAP2 SWAP1 PUSH2 0x212C JUMP JUMPDEST PUSH2 0xEF2 JUMP JUMPDEST PUSH1 0x40 MLOAD PUSH2 0x683 SWAP2 SWAP1 PUSH2 0x29A3 JUMP JUMPDEST PUSH1 0x40 MLOAD DUP1 SWAP2 SUB SWAP1 RETURN JUMPDEST CALLVALUE DUP1 ISZERO PUSH2 0x698 JUMPI PUSH1 0x0 DUP1 REVERT JUMPDEST POP PUSH2 0x6B3 PUSH1 0x4 DUP1 CALLDATASIZE SUB DUP2 ADD SWAP1 PUSH2 0x6AE SWAP2 SWAP1 PUSH2 0x2159 JUMP JUMPDEST PUSH2 0xF0F JUMP JUMPDEST STOP JUMPDEST PUSH2 0x6CF PUSH1 0x4 DUP1 CALLDATASIZE SUB DUP2 ADD SWAP1 PUSH2 0x6CA SWAP2 SWAP1 PUSH2 0x1F61 JUMP JUMPDEST PUSH2 0xF30 JUMP JUMPDEST STOP JUMPDEST CALLVALUE DUP1 ISZERO PUSH2 0x6DD JUMPI PUSH1 0x0 DUP1 REVERT JUMPDEST POP PUSH2 0x6F8 PUSH1 0x4 DUP1 CALLDATASIZE SUB DUP2 ADD SWAP1 PUSH2 0x6F3 SWAP2 SWAP1 PUSH2 0x1D81 JUMP JUMPDEST PUSH2 0x111A JUMP JUMPDEST PUSH1 0x40 MLOAD PUSH2 0x705 SWAP2 SWAP1 PUSH2 0x2826 JUMP JUMPDEST PUSH1 0x40 MLOAD DUP1 SWAP2 SUB SWAP1 RETURN JUMPDEST CALLVALUE DUP1 ISZERO PUSH2 0x71A JUMPI PUSH1 0x0 DUP1 REVERT JUMPDEST POP PUSH2 0x723 PUSH2 0x112F JUMP JUMPDEST PUSH1 0x40 MLOAD PUSH2 0x730 SWAP2 SWAP1 PUSH2 0x29A3 JUMP JUMPDEST PUSH1 0x40 MLOAD DUP1 SWAP2 SUB SWAP1 RETURN JUMPDEST PUSH32 0xB09AA5AEB3702CFD50B6B62BC4532604938F21248A27A1D5CA736082B6819CC1 PUSH2 0x763 DUP2 PUSH2 0x1139 JUMP JUMPDEST PUSH1 0x0 PUSH2 0x773 DUP10 DUP10 DUP10 DUP10 DUP10 DUP10 PUSH2 0xB3B JUMP JUMPDEST SWAP1 POP PUSH2 0x77F DUP2 DUP5 PUSH2 0x114D JUMP JUMPDEST PUSH1 0x0 DUP2 PUSH32 0x4CF4410CC57040E44862EF0F45F3DD5A5E02DB8EB8ADD648D4B0E236F1D07DCA DUP12 DUP12 DUP12 DUP12 DUP12 DUP11 PUSH1 0x40 MLOAD PUSH2 0x7BB SWAP7 SWAP6 SWAP5 SWAP4 SWAP3 SWAP2 SWAP1 PUSH2 0x2726 JUMP JUMPDEST PUSH1 0x40 MLOAD DUP1 SWAP2 SUB SWAP1 LOG3 POP POP POP POP POP POP POP POP POP JUMP JUMPDEST PUSH1 0x0 PUSH32 0x4E2312E000000000000000000000000000000000000000000000000000000000 PUSH28 0xFFFFFFFFFFFFFFFFFFFFFFFFFFFFFFFFFFFFFFFFFFFFFFFFFFFFFFFF NOT AND DUP3 PUSH28 0xFFFFFFFFFFFFFFFFFFFFFFFFFFFFFFFFFFFFFFFFFFFFFFFFFFFFFFFF NOT AND EQ DUP1 PUSH2 0x841 JUMPI POP PUSH2 0x840 DUP3 PUSH2 0x1207 JUMP JUMPDEST JUMPDEST SWAP1 POP SWAP2 SWAP1 POP JUMP JUMPDEST PUSH32 0xD8AA0F3194971A2A116679F7C2090F6939C8D4E01A2A8D7E41D55E5351469E63 DUP2 JUMP JUMPDEST PUSH32 0x5F58E3A2316349923CE3780F8D587DB2D72378AED66A8261C916544FA6846CA5 DUP2 JUMP JUMPDEST PUSH32 0xD8AA0F3194971A2A116679F7C2090F6939C8D4E01A2A8D7E41D55E5351469E63 PUSH2 0x8BC DUP2 PUSH1 0x0 PUSH2 0xD49 JUMP JUMPDEST PUSH2 0x8D2 JUMPI PUSH2 0x8D1 DUP2 PUSH2 0x8CC PUSH2 0x1281 JUMP JUMPDEST PUSH2 0x1289 JUMP JUMPDEST JUMPDEST PUSH1 0x0 PUSH2 0x8E2 DUP9 DUP9 DUP9 DUP9 DUP9 DUP9 PUSH2 0xB3B JUMP JUMPDEST SWAP1 POP PUSH2 0x8EE DUP2 DUP6 PUSH2 0x1326 JUMP JUMPDEST PUSH2 0x8FA DUP9 DUP9 DUP9 DUP9 PUSH2 0x13C7 JUMP JUMPDEST PUSH1 0x0 DUP2 PUSH32 0xC2617EFA69BAB66782FA219543714338489C4E9E178271560A91B82C3F612B58 DUP11 DUP11 DUP11 DUP11 PUSH1 0x40 MLOAD PUSH2 0x932 SWAP5 SWAP4 SWAP3 SWAP2 SWAP1 PUSH2 0x268A JUMP JUMPDEST PUSH1 0x40 MLOAD DUP1 SWAP2 SUB SWAP1 LOG3 PUSH2 0x943 DUP2 PUSH2 0x147E JUMP JUMPDEST POP POP POP POP POP POP POP POP JUMP JUMPDEST PUSH1 0x0 DUP1 PUSH2 0x959 DUP4 PUSH2 0xEF2 JUMP JUMPDEST SWAP1 POP PUSH1 0x1 DUP2 GT DUP1 ISZERO PUSH2 0x96B JUMPI POP TIMESTAMP DUP2 GT ISZERO JUMPDEST SWAP2 POP POP SWAP2 SWAP1 POP JUMP JUMPDEST PUSH1 0x0 PUSH4 0x150B7A02 PUSH1 0xE0 SHL SWAP1 POP SWAP5 SWAP4 POP POP POP POP JUMP JUMPDEST PUSH1 0x0 DUP1 PUSH1 0x0 DUP4 DUP2 MSTORE PUSH1 0x20 ADD SWAP1 DUP2 MSTORE PUSH1 0x20 ADD PUSH1 0x0 KECCAK256 PUSH1 0x1 ADD SLOAD SWAP1 POP SWAP2 SWAP1 POP JUMP JUMPDEST PUSH1 0x0 PUSH1 0x1 PUSH2 0x9B3 DUP4 PUSH2 0xEF2 JUMP JUMPDEST EQ SWAP1 POP SWAP2 SWAP1 POP JUMP JUMPDEST PUSH2 0x9C4 DUP3 PUSH2 0x987 JUMP JUMPDEST PUSH2 0x9CD DUP2 PUSH2 0x1139 JUMP JUMPDEST PUSH2 0x9D7 DUP4 DUP4 PUSH2 0x14E1 JUMP JUMPDEST POP POP POP JUMP JUMPDEST PUSH1 0x0 DUP1 PUSH2 0x9E8 DUP4 PUSH2 0xEF2 JUMP JUMPDEST GT SWAP1 POP SWAP2 SWAP1 POP JUMP JUMPDEST PUSH2 0x9F8 PUSH2 0x1281 JUMP JUMPDEST PUSH20 0xFFFFFFFFFFFFFFFFFFFFFFFFFFFFFFFFFFFFFFFF AND DUP2 PUSH20 0xFFFFFFFFFFFFFFFFFFFFFFFFFFFFFFFFFFFFFFFF AND EQ PUSH2 0xA65 JUMPI PUSH1 0x40 MLOAD PUSH32 0x8C379A000000000000000000000000000000000000000000000000000000000 DUP2 MSTORE PUSH1 0x4 ADD PUSH2 0xA5C SWAP1 PUSH2 0x2963 JUMP JUMPDEST PUSH1 0x40 MLOAD DUP1 SWAP2 SUB SWAP1 REVERT JUMPDEST PUSH2 0xA6F DUP3 DUP3 PUSH2 0x15C1 JUMP JUMPDEST POP POP JUMP JUMPDEST PUSH1 0x0 PUSH1 0x1 PUSH2 0xA80 DUP4 PUSH2 0xEF2 JUMP JUMPDEST GT SWAP1 POP SWAP2 SWAP1 POP JUMP JUMPDEST ADDRESS PUSH20 0xFFFFFFFFFFFFFFFFFFFFFFFFFFFFFFFFFFFFFFFF AND CALLER PUSH20 0xFFFFFFFFFFFFFFFFFFFFFFFFFFFFFFFFFFFFFFFF AND EQ PUSH2 0xAF6 JUMPI PUSH1 0x40 MLOAD PUSH32 0x8C379A000000000000000000000000000000000000000000000000000000000 DUP2 MSTORE PUSH1 0x4 ADD PUSH2 0xAED SWAP1 PUSH2 0x2943 JUMP JUMPDEST PUSH1 0x40 MLOAD DUP1 SWAP2 SUB SWAP1 REVERT JUMPDEST PUSH32 0x11C24F4EAD16507C69AC467FBD5E4EED5FB5C699626D2CC6D66421DF253886D5 PUSH1 0x2 SLOAD DUP3 PUSH1 0x40 MLOAD PUSH2 0xB29 SWAP3 SWAP2 SWAP1 PUSH2 0x29BE JUMP JUMPDEST PUSH1 0x40 MLOAD DUP1 SWAP2 SUB SWAP1 LOG1 DUP1 PUSH1 0x2 DUP2 SWAP1 SSTORE POP POP JUMP JUMPDEST PUSH1 0x0 DUP7 DUP7 DUP7 DUP7 DUP7 DUP7 PUSH1 0x40 MLOAD PUSH1 0x20 ADD PUSH2 0xB58 SWAP7 SWAP6 SWAP5 SWAP4 SWAP3 SWAP2 SWAP1 PUSH2 0x26CA JUMP JUMPDEST PUSH1 0x40 MLOAD PUSH1 0x20 DUP2 DUP4 SUB SUB DUP2 MSTORE SWAP1 PUSH1 0x40 MSTORE DUP1 MLOAD SWAP1 PUSH1 0x20 ADD KECCAK256 SWAP1 POP SWAP7 SWAP6 POP POP POP POP POP POP JUMP JUMPDEST PUSH32 0xB09AA5AEB3702CFD50B6B62BC4532604938F21248A27A1D5CA736082B6819CC1 PUSH2 0xBA4 DUP2 PUSH2 0x1139 JUMP JUMPDEST DUP8 DUP8 SWAP1 POP DUP11 DUP11 SWAP1 POP EQ PUSH2 0xBEC JUMPI PUSH1 0x40 MLOAD PUSH32 0x8C379A000000000000000000000000000000000000000000000000000000000 DUP2 MSTORE PUSH1 0x4 ADD PUSH2 0xBE3 SWAP1 PUSH2 0x28A3 JUMP JUMPDEST PUSH1 0x40 MLOAD DUP1 SWAP2 SUB SWAP1 REVERT JUMPDEST DUP6 DUP6 SWAP1 POP DUP11 DUP11 SWAP1 POP EQ PUSH2 0xC34 JUMPI PUSH1 0x40 MLOAD PUSH32 0x8C379A000000000000000000000000000000000000000000000000000000000 DUP2 MSTORE PUSH1 0x4 ADD PUSH2 0xC2B SWAP1 PUSH2 0x28A3 JUMP JUMPDEST PUSH1 0x40 MLOAD DUP1 SWAP2 SUB SWAP1 REVERT JUMPDEST PUSH1 0x0 PUSH2 0xC46 DUP12 DUP12 DUP12 DUP12 DUP12 DUP12 DUP12 DUP12 PUSH2 0xDDE JUMP JUMPDEST SWAP1 POP PUSH2 0xC52 DUP2 DUP5 PUSH2 0x114D JUMP JUMPDEST PUSH1 0x0 JUMPDEST DUP12 DUP12 SWAP1 POP DUP2 LT ISZERO PUSH2 0xD17 JUMPI DUP1 DUP3 PUSH32 0x4CF4410CC57040E44862EF0F45F3DD5A5E02DB8EB8ADD648D4B0E236F1D07DCA DUP15 DUP15 DUP6 DUP2 DUP2 LT PUSH2 0xC96 JUMPI PUSH2 0xC95 PUSH2 0x2E3E JUMP JUMPDEST JUMPDEST SWAP1 POP PUSH1 0x20 MUL ADD PUSH1 0x20 DUP2 ADD SWAP1 PUSH2 0xCAB SWAP2 SWAP1 PUSH2 0x1C02 JUMP JUMPDEST DUP14 DUP14 DUP7 DUP2 DUP2 LT PUSH2 0xCBE JUMPI PUSH2 0xCBD PUSH2 0x2E3E JUMP JUMPDEST JUMPDEST SWAP1 POP PUSH1 0x20 MUL ADD CALLDATALOAD DUP13 DUP13 DUP8 DUP2 DUP2 LT PUSH2 0xCD8 JUMPI PUSH2 0xCD7 PUSH2 0x2E3E JUMP JUMPDEST JUMPDEST SWAP1 POP PUSH1 0x20 MUL DUP2 ADD SWAP1 PUSH2 0xCEA SWAP2 SWAP1 PUSH2 0x29E7 JUMP JUMPDEST DUP13 DUP12 PUSH1 0x40 MLOAD PUSH2 0xCFE SWAP7 SWAP6 SWAP5 SWAP4 SWAP3 SWAP2 SWAP1 PUSH2 0x2726 JUMP JUMPDEST PUSH1 0x40 MLOAD DUP1 SWAP2 SUB SWAP1 LOG3 DUP1 PUSH2 0xD10 SWAP1 PUSH2 0x2DC6 JUMP JUMPDEST SWAP1 POP PUSH2 0xC55 JUMP JUMPDEST POP POP POP POP POP POP POP POP POP POP POP POP JUMP JUMPDEST PUSH32 0xB09AA5AEB3702CFD50B6B62BC4532604938F21248A27A1D5CA736082B6819CC1 DUP2 JUMP JUMPDEST PUSH1 0x0 DUP1 PUSH1 0x0 DUP5 DUP2 MSTORE PUSH1 0x20 ADD SWAP1 DUP2 MSTORE PUSH1 0x20 ADD PUSH1 0x0 KECCAK256 PUSH1 0x0 ADD PUSH1 0x0 DUP4 PUSH20 0xFFFFFFFFFFFFFFFFFFFFFFFFFFFFFFFFFFFFFFFF AND PUSH20 0xFFFFFFFFFFFFFFFFFFFFFFFFFFFFFFFFFFFFFFFF AND DUP2 MSTORE PUSH1 0x20 ADD SWAP1 DUP2 MSTORE PUSH1 0x20 ADD PUSH1 0x0 KECCAK256 PUSH1 0x0 SWAP1 SLOAD SWAP1 PUSH2 0x100 EXP SWAP1 DIV PUSH1 0xFF AND SWAP1 POP SWAP3 SWAP2 POP POP JUMP JUMPDEST PUSH1 0x0 DUP1 SHL DUP2 JUMP JUMPDEST PUSH32 0xFD643C72710C63C0180259ABA6B2D05451E3591A24E58B62239378085726F783 DUP2 JUMP JUMPDEST PUSH1 0x0 DUP9 DUP9 DUP9 DUP9 DUP9 DUP9 DUP9 DUP9 PUSH1 0x40 MLOAD PUSH1 0x20 ADD PUSH2 0xDFF SWAP9 SWAP8 SWAP7 SWAP6 SWAP5 SWAP4 SWAP3 SWAP2 SWAP1 PUSH2 0x2782 JUMP JUMPDEST PUSH1 0x40 MLOAD PUSH1 0x20 DUP2 DUP4 SUB SUB DUP2 MSTORE SWAP1 PUSH1 0x40 MSTORE DUP1 MLOAD SWAP1 PUSH1 0x20 ADD KECCAK256 SWAP1 POP SWAP9 SWAP8 POP POP POP POP POP POP POP POP JUMP JUMPDEST PUSH1 0x0 PUSH4 0xBC197C81 PUSH1 0xE0 SHL SWAP1 POP SWAP6 SWAP5 POP POP POP POP POP JUMP JUMPDEST PUSH32 0xFD643C72710C63C0180259ABA6B2D05451E3591A24E58B62239378085726F783 PUSH2 0xE62 DUP2 PUSH2 0x1139 JUMP JUMPDEST PUSH2 0xE6B DUP3 PUSH2 0xA73 JUMP JUMPDEST PUSH2 0xEAA JUMPI PUSH1 0x40 MLOAD PUSH32 0x8C379A000000000000000000000000000000000000000000000000000000000 DUP2 MSTORE PUSH1 0x4 ADD PUSH2 0xEA1 SWAP1 PUSH2 0x2923 JUMP JUMPDEST PUSH1 0x40 MLOAD DUP1 SWAP2 SUB SWAP1 REVERT JUMPDEST PUSH1 0x1 PUSH1 0x0 DUP4 DUP2 MSTORE PUSH1 0x20 ADD SWAP1 DUP2 MSTORE PUSH1 0x20 ADD PUSH1 0x0 KECCAK256 PUSH1 0x0 SWAP1 SSTORE DUP2 PUSH32 0xBAA1EB22F2A492BA1A5FEA61B8DF4D27C6C8B5F3971E63BB58FA14FF72EEDB70 PUSH1 0x40 MLOAD PUSH1 0x40 MLOAD DUP1 SWAP2 SUB SWAP1 LOG2 POP POP JUMP JUMPDEST PUSH1 0x0 PUSH1 0x1 PUSH1 0x0 DUP4 DUP2 MSTORE PUSH1 0x20 ADD SWAP1 DUP2 MSTORE PUSH1 0x20 ADD PUSH1 0x0 KECCAK256 SLOAD SWAP1 POP SWAP2 SWAP1 POP JUMP JUMPDEST PUSH2 0xF18 DUP3 PUSH2 0x987 JUMP JUMPDEST PUSH2 0xF21 DUP2 PUSH2 0x1139 JUMP JUMPDEST PUSH2 0xF2B DUP4 DUP4 PUSH2 0x15C1 JUMP JUMPDEST POP POP POP JUMP JUMPDEST PUSH32 0xD8AA0F3194971A2A116679F7C2090F6939C8D4E01A2A8D7E41D55E5351469E63 PUSH2 0xF5C DUP2 PUSH1 0x0 PUSH2 0xD49 JUMP JUMPDEST PUSH2 0xF72 JUMPI PUSH2 0xF71 DUP2 PUSH2 0xF6C PUSH2 0x1281 JUMP JUMPDEST PUSH2 0x1289 JUMP JUMPDEST JUMPDEST DUP7 DUP7 SWAP1 POP DUP10 DUP10 SWAP1 POP EQ PUSH2 0xFBA JUMPI PUSH1 0x40 MLOAD PUSH32 0x8C379A000000000000000000000000000000000000000000000000000000000 DUP2 MSTORE PUSH1 0x4 ADD PUSH2 0xFB1 SWAP1 PUSH2 0x28A3 JUMP JUMPDEST PUSH1 0x40 MLOAD DUP1 SWAP2 SUB SWAP1 REVERT JUMPDEST DUP5 DUP5 SWAP1 POP DUP10 DUP10 SWAP1 POP EQ PUSH2 0x1002 JUMPI PUSH1 0x40 MLOAD PUSH32 0x8C379A000000000000000000000000000000000000000000000000000000000 DUP2 MSTORE PUSH1 0x4 ADD PUSH2 0xFF9 SWAP1 PUSH2 0x28A3 JUMP JUMPDEST PUSH1 0x40 MLOAD DUP1 SWAP2 SUB SWAP1 REVERT JUMPDEST PUSH1 0x0 PUSH2 0x1014 DUP11 DUP11 DUP11 DUP11 DUP11 DUP11 DUP11 DUP11 PUSH2 0xDDE JUMP JUMPDEST SWAP1 POP PUSH2 0x1020 DUP2 DUP6 PUSH2 0x1326 JUMP JUMPDEST PUSH1 0x0 JUMPDEST DUP11 DUP11 SWAP1 POP DUP2 LT ISZERO PUSH2 0x1104 JUMPI PUSH1 0x0 DUP12 DUP12 DUP4 DUP2 DUP2 LT PUSH2 0x1043 JUMPI PUSH2 0x1042 PUSH2 0x2E3E JUMP JUMPDEST JUMPDEST SWAP1 POP PUSH1 0x20 MUL ADD PUSH1 0x20 DUP2 ADD SWAP1 PUSH2 0x1058 SWAP2 SWAP1 PUSH2 0x1C02 JUMP JUMPDEST SWAP1 POP PUSH1 0x0 DUP11 DUP11 DUP5 DUP2 DUP2 LT PUSH2 0x106F JUMPI PUSH2 0x106E PUSH2 0x2E3E JUMP JUMPDEST JUMPDEST SWAP1 POP PUSH1 0x20 MUL ADD CALLDATALOAD SWAP1 POP CALLDATASIZE PUSH1 0x0 DUP11 DUP11 DUP7 DUP2 DUP2 LT PUSH2 0x108E JUMPI PUSH2 0x108D PUSH2 0x2E3E JUMP JUMPDEST JUMPDEST SWAP1 POP PUSH1 0x20 MUL DUP2 ADD SWAP1 PUSH2 0x10A0 SWAP2 SWAP1 PUSH2 0x29E7 JUMP JUMPDEST SWAP2 POP SWAP2 POP PUSH2 0x10B0 DUP5 DUP5 DUP5 DUP5 PUSH2 0x13C7 JUMP JUMPDEST DUP5 DUP7 PUSH32 0xC2617EFA69BAB66782FA219543714338489C4E9E178271560A91B82C3F612B58 DUP7 DUP7 DUP7 DUP7 PUSH1 0x40 MLOAD PUSH2 0x10E7 SWAP5 SWAP4 SWAP3 SWAP2 SWAP1 PUSH2 0x268A JUMP JUMPDEST PUSH1 0x40 MLOAD DUP1 SWAP2 SUB SWAP1 LOG3 POP POP POP POP DUP1 PUSH2 0x10FD SWAP1 PUSH2 0x2DC6 JUMP JUMPDEST SWAP1 POP PUSH2 0x1023 JUMP JUMPDEST POP PUSH2 0x110E DUP2 PUSH2 0x147E JUMP JUMPDEST POP POP POP POP POP POP POP POP POP POP JUMP JUMPDEST PUSH1 0x0 PUSH4 0xF23A6E61 PUSH1 0xE0 SHL SWAP1 POP SWAP6 SWAP5 POP POP POP POP POP JUMP JUMPDEST PUSH1 0x0 PUSH1 0x2 SLOAD SWAP1 POP SWAP1 JUMP JUMPDEST PUSH2 0x114A DUP2 PUSH2 0x1145 PUSH2 0x1281 JUMP JUMPDEST PUSH2 0x1289 JUMP JUMPDEST POP JUMP JUMPDEST PUSH2 0x1156 DUP3 PUSH2 0x9DC JUMP JUMPDEST ISZERO PUSH2 0x1196 JUMPI PUSH1 0x40 MLOAD PUSH32 0x8C379A000000000000000000000000000000000000000000000000000000000 DUP2 MSTORE PUSH1 0x4 ADD PUSH2 0x118D SWAP1 PUSH2 0x28E3 JUMP JUMPDEST PUSH1 0x40 MLOAD DUP1 SWAP2 SUB SWAP1 REVERT JUMPDEST PUSH2 0x119E PUSH2 0x112F JUMP JUMPDEST DUP2 LT ISZERO PUSH2 0x11E0 JUMPI PUSH1 0x40 MLOAD PUSH32 0x8C379A000000000000000000000000000000000000000000000000000000000 DUP2 MSTORE PUSH1 0x4 ADD PUSH2 0x11D7 SWAP1 PUSH2 0x28C3 JUMP JUMPDEST PUSH1 0x40 MLOAD DUP1 SWAP2 SUB SWAP1 REVERT JUMPDEST DUP1 TIMESTAMP PUSH2 0x11EC SWAP2 SWAP1 PUSH2 0x2BFB JUMP JUMPDEST PUSH1 0x1 PUSH1 0x0 DUP5 DUP2 MSTORE PUSH1 0x20 ADD SWAP1 DUP2 MSTORE PUSH1 0x20 ADD PUSH1 0x0 KECCAK256 DUP2 SWAP1 SSTORE POP POP POP JUMP JUMPDEST PUSH1 0x0 PUSH32 0x7965DB0B00000000000000000000000000000000000000000000000000000000 PUSH28 0xFFFFFFFFFFFFFFFFFFFFFFFFFFFFFFFFFFFFFFFFFFFFFFFFFFFFFFFF NOT AND DUP3 PUSH28 0xFFFFFFFFFFFFFFFFFFFFFFFFFFFFFFFFFFFFFFFFFFFFFFFFFFFFFFFF NOT AND EQ DUP1 PUSH2 0x127A JUMPI POP PUSH2 0x1279 DUP3 PUSH2 0x16A2 JUMP JUMPDEST JUMPDEST SWAP1 POP SWAP2 SWAP1 POP JUMP JUMPDEST PUSH1 0x0 CALLER SWAP1 POP SWAP1 JUMP JUMPDEST PUSH2 0x1293 DUP3 DUP3 PUSH2 0xD49 JUMP JUMPDEST PUSH2 0x1322 JUMPI PUSH2 0x12B8 DUP2 PUSH20 0xFFFFFFFFFFFFFFFFFFFFFFFFFFFFFFFFFFFFFFFF AND PUSH1 0x14 PUSH2 0x170C JUMP JUMPDEST PUSH2 0x12C6 DUP4 PUSH1 0x0 SHR PUSH1 0x20 PUSH2 0x170C JUMP JUMPDEST PUSH1 0x40 MLOAD PUSH1 0x20 ADD PUSH2 0x12D7 SWAP3 SWAP2 SWAP1 PUSH2 0x2650 JUMP JUMPDEST PUSH1 0x40 MLOAD PUSH1 0x20 DUP2 DUP4 SUB SUB DUP2 MSTORE SWAP1 PUSH1 0x40 MSTORE PUSH1 0x40 MLOAD PUSH32 0x8C379A000000000000000000000000000000000000000000000000000000000 DUP2 MSTORE PUSH1 0x4 ADD PUSH2 0x1319 SWAP2 SWAP1 PUSH2 0x2841 JUMP JUMPDEST PUSH1 0x40 MLOAD DUP1 SWAP2 SUB SWAP1 REVERT JUMPDEST POP POP JUMP JUMPDEST PUSH2 0x132F DUP3 PUSH2 0x94D JUMP JUMPDEST PUSH2 0x136E JUMPI PUSH1 0x40 MLOAD PUSH32 0x8C379A000000000000000000000000000000000000000000000000000000000 DUP2 MSTORE PUSH1 0x4 ADD PUSH2 0x1365 SWAP1 PUSH2 0x2903 JUMP JUMPDEST PUSH1 0x40 MLOAD DUP1 SWAP2 SUB SWAP1 REVERT JUMPDEST PUSH1 0x0 DUP1 SHL DUP2 EQ DUP1 PUSH2 0x1384 JUMPI POP PUSH2 0x1383 DUP2 PUSH2 0x9A6 JUMP JUMPDEST JUMPDEST PUSH2 0x13C3 JUMPI PUSH1 0x40 MLOAD PUSH32 0x8C379A000000000000000000000000000000000000000000000000000000000 DUP2 MSTORE PUSH1 0x4 ADD PUSH2 0x13BA SWAP1 PUSH2 0x2883 JUMP JUMPDEST PUSH1 0x40 MLOAD DUP1 SWAP2 SUB SWAP1 REVERT JUMPDEST POP POP JUMP JUMPDEST PUSH1 0x0 DUP5 PUSH20 0xFFFFFFFFFFFFFFFFFFFFFFFFFFFFFFFFFFFFFFFF AND DUP5 DUP5 DUP5 PUSH1 0x40 MLOAD PUSH2 0x13F1 SWAP3 SWAP2 SWAP1 PUSH2 0x2637 JUMP JUMPDEST PUSH1 0x0 PUSH1 0x40 MLOAD DUP1 DUP4 SUB DUP2 DUP6 DUP8 GAS CALL SWAP3 POP POP POP RETURNDATASIZE DUP1 PUSH1 0x0 DUP2 EQ PUSH2 0x142E JUMPI PUSH1 0x40 MLOAD SWAP2 POP PUSH1 0x1F NOT PUSH1 0x3F RETURNDATASIZE ADD AND DUP3 ADD PUSH1 0x40 MSTORE RETURNDATASIZE DUP3 MSTORE RETURNDATASIZE PUSH1 0x0 PUSH1 0x20 DUP5 ADD RETURNDATACOPY PUSH2 0x1433 JUMP JUMPDEST PUSH1 0x60 SWAP2 POP JUMPDEST POP POP SWAP1 POP DUP1 PUSH2 0x1477 JUMPI PUSH1 0x40 MLOAD PUSH32 0x8C379A000000000000000000000000000000000000000000000000000000000 DUP2 MSTORE PUSH1 0x4 ADD PUSH2 0x146E SWAP1 PUSH2 0x2983 JUMP JUMPDEST PUSH1 0x40 MLOAD DUP1 SWAP2 SUB SWAP1 REVERT JUMPDEST POP POP POP POP POP JUMP JUMPDEST PUSH2 0x1487 DUP2 PUSH2 0x94D JUMP JUMPDEST PUSH2 0x14C6 JUMPI PUSH1 0x40 MLOAD PUSH32 0x8C379A000000000000000000000000000000000000000000000000000000000 DUP2 MSTORE PUSH1 0x4 ADD PUSH2 0x14BD SWAP1 PUSH2 0x2903 JUMP JUMPDEST PUSH1 0x40 MLOAD DUP1 SWAP2 SUB SWAP1 REVERT JUMPDEST PUSH1 0x1 DUP1 PUSH1 0x0 DUP4 DUP2 MSTORE PUSH1 0x20 ADD SWAP1 DUP2 MSTORE PUSH1 0x20 ADD PUSH1 0x0 KECCAK256 DUP2 SWAP1 SSTORE POP POP JUMP JUMPDEST PUSH2 0x14EB DUP3 DUP3 PUSH2 0xD49 JUMP JUMPDEST PUSH2 0x15BD JUMPI PUSH1 0x1 PUSH1 0x0 DUP1 DUP5 DUP2 MSTORE PUSH1 0x20 ADD SWAP1 DUP2 MSTORE PUSH1 0x20 ADD PUSH1 0x0 KECCAK256 PUSH1 0x0 ADD PUSH1 0x0 DUP4 PUSH20 0xFFFFFFFFFFFFFFFFFFFFFFFFFFFFFFFFFFFFFFFF AND PUSH20 0xFFFFFFFFFFFFFFFFFFFFFFFFFFFFFFFFFFFFFFFF AND DUP2 MSTORE PUSH1 0x20 ADD SWAP1 DUP2 MSTORE PUSH1 0x20 ADD PUSH1 0x0 KECCAK256 PUSH1 0x0 PUSH2 0x100 EXP DUP2 SLOAD DUP2 PUSH1 0xFF MUL NOT AND SWAP1 DUP4 ISZERO ISZERO MUL OR SWAP1 SSTORE POP PUSH2 0x1562 PUSH2 0x1281 JUMP JUMPDEST PUSH20 0xFFFFFFFFFFFFFFFFFFFFFFFFFFFFFFFFFFFFFFFF AND DUP2 PUSH20 0xFFFFFFFFFFFFFFFFFFFFFFFFFFFFFFFFFFFFFFFF AND DUP4 PUSH32 0x2F8788117E7EFF1D82E926EC794901D17C78024A50270940304540A733656F0D PUSH1 0x40 MLOAD PUSH1 0x40 MLOAD DUP1 SWAP2 SUB SWAP1 LOG4 JUMPDEST POP POP JUMP JUMPDEST PUSH2 0x15CB DUP3 DUP3 PUSH2 0xD49 JUMP JUMPDEST ISZERO PUSH2 0x169E JUMPI PUSH1 0x0 DUP1 PUSH1 0x0 DUP5 DUP2 MSTORE PUSH1 0x20 ADD SWAP1 DUP2 MSTORE PUSH1 0x20 ADD PUSH1 0x0 KECCAK256 PUSH1 0x0 ADD PUSH1 0x0 DUP4 PUSH20 0xFFFFFFFFFFFFFFFFFFFFFFFFFFFFFFFFFFFFFFFF AND PUSH20 0xFFFFFFFFFFFFFFFFFFFFFFFFFFFFFFFFFFFFFFFF AND DUP2 MSTORE PUSH1 0x20 ADD SWAP1 DUP2 MSTORE PUSH1 0x20 ADD PUSH1 0x0 KECCAK256 PUSH1 0x0 PUSH2 0x100 EXP DUP2 SLOAD DUP2 PUSH1 0xFF MUL NOT AND SWAP1 DUP4 ISZERO ISZERO MUL OR SWAP1 SSTORE POP PUSH2 0x1643 PUSH2 0x1281 JUMP JUMPDEST PUSH20 0xFFFFFFFFFFFFFFFFFFFFFFFFFFFFFFFFFFFFFFFF AND DUP2 PUSH20 0xFFFFFFFFFFFFFFFFFFFFFFFFFFFFFFFFFFFFFFFF AND DUP4 PUSH32 0xF6391F5C32D9C69D2A47EA670B442974B53935D1EDC7FD64EB21E047A839171B PUSH1 0x40 MLOAD PUSH1 0x40 MLOAD DUP1 SWAP2 SUB SWAP1 LOG4 JUMPDEST POP POP JUMP JUMPDEST PUSH1 0x0 PUSH32 0x1FFC9A700000000000000000000000000000000000000000000000000000000 PUSH28 0xFFFFFFFFFFFFFFFFFFFFFFFFFFFFFFFFFFFFFFFFFFFFFFFFFFFFFFFF NOT AND DUP3 PUSH28 0xFFFFFFFFFFFFFFFFFFFFFFFFFFFFFFFFFFFFFFFFFFFFFFFFFFFFFFFF NOT AND EQ SWAP1 POP SWAP2 SWAP1 POP JUMP JUMPDEST PUSH1 0x60 PUSH1 0x0 PUSH1 0x2 DUP4 PUSH1 0x2 PUSH2 0x171F SWAP2 SWAP1 PUSH2 0x2C51 JUMP JUMPDEST PUSH2 0x1729 SWAP2 SWAP1 PUSH2 0x2BFB JUMP JUMPDEST PUSH8 0xFFFFFFFFFFFFFFFF DUP2 GT ISZERO PUSH2 0x1742 JUMPI PUSH2 0x1741 PUSH2 0x2E6D JUMP JUMPDEST JUMPDEST PUSH1 0x40 MLOAD SWAP1 DUP1 DUP3 MSTORE DUP1 PUSH1 0x1F ADD PUSH1 0x1F NOT AND PUSH1 0x20 ADD DUP3 ADD PUSH1 0x40 MSTORE DUP1 ISZERO PUSH2 0x1774 JUMPI DUP2 PUSH1 0x20 ADD PUSH1 0x1 DUP3 MUL DUP1 CALLDATASIZE DUP4 CALLDATACOPY DUP1 DUP3 ADD SWAP2 POP POP SWAP1 POP JUMPDEST POP SWAP1 POP PUSH32 0x3000000000000000000000000000000000000000000000000000000000000000 DUP2 PUSH1 0x0 DUP2 MLOAD DUP2 LT PUSH2 0x17AC JUMPI PUSH2 0x17AB PUSH2 0x2E3E JUMP JUMPDEST JUMPDEST PUSH1 0x20 ADD ADD SWAP1 PUSH31 0xFFFFFFFFFFFFFFFFFFFFFFFFFFFFFFFFFFFFFFFFFFFFFFFFFFFFFFFFFFFFFF NOT AND SWAP1 DUP2 PUSH1 0x0 BYTE SWAP1 MSTORE8 POP PUSH32 0x7800000000000000000000000000000000000000000000000000000000000000 DUP2 PUSH1 0x1 DUP2 MLOAD DUP2 LT PUSH2 0x1810 JUMPI PUSH2 0x180F PUSH2 0x2E3E JUMP JUMPDEST JUMPDEST PUSH1 0x20 ADD ADD SWAP1 PUSH31 0xFFFFFFFFFFFFFFFFFFFFFFFFFFFFFFFFFFFFFFFFFFFFFFFFFFFFFFFFFFFFFF NOT AND SWAP1 DUP2 PUSH1 0x0 BYTE SWAP1 MSTORE8 POP PUSH1 0x0 PUSH1 0x1 DUP5 PUSH1 0x2 PUSH2 0x1850 SWAP2 SWAP1 PUSH2 0x2C51 JUMP JUMPDEST PUSH2 0x185A SWAP2 SWAP1 PUSH2 0x2BFB JUMP JUMPDEST SWAP1 POP JUMPDEST PUSH1 0x1 DUP2 GT ISZERO PUSH2 0x18FA JUMPI PUSH32 0x3031323334353637383961626364656600000000000000000000000000000000 PUSH1 0xF DUP7 AND PUSH1 0x10 DUP2 LT PUSH2 0x189C JUMPI PUSH2 0x189B PUSH2 0x2E3E JUMP JUMPDEST JUMPDEST BYTE PUSH1 0xF8 SHL DUP3 DUP3 DUP2 MLOAD DUP2 LT PUSH2 0x18B3 JUMPI PUSH2 0x18B2 PUSH2 0x2E3E JUMP JUMPDEST JUMPDEST PUSH1 0x20 ADD ADD SWAP1 PUSH31 0xFFFFFFFFFFFFFFFFFFFFFFFFFFFFFFFFFFFFFFFFFFFFFFFFFFFFFFFFFFFFFF NOT AND SWAP1 DUP2 PUSH1 0x0 BYTE SWAP1 MSTORE8 POP PUSH1 0x4 DUP6 SWAP1 SHR SWAP5 POP DUP1 PUSH2 0x18F3 SWAP1 PUSH2 0x2D6B JUMP JUMPDEST SWAP1 POP PUSH2 0x185D JUMP JUMPDEST POP PUSH1 0x0 DUP5 EQ PUSH2 0x193E JUMPI PUSH1 0x40 MLOAD PUSH32 0x8C379A000000000000000000000000000000000000000000000000000000000 DUP2 MSTORE PUSH1 0x4 ADD PUSH2 0x1935 SWAP1 PUSH2 0x2863 JUMP JUMPDEST PUSH1 0x40 MLOAD DUP1 SWAP2 SUB SWAP1 REVERT JUMPDEST DUP1 SWAP2 POP POP SWAP3 SWAP2 POP POP JUMP JUMPDEST PUSH1 0x0 PUSH2 0x195B PUSH2 0x1956 DUP5 PUSH2 0x2A6F JUMP JUMPDEST PUSH2 0x2A4A JUMP JUMPDEST SWAP1 POP DUP1 DUP4 DUP3 MSTORE PUSH1 0x20 DUP3 ADD SWAP1 POP DUP3 DUP6 PUSH1 0x20 DUP7 MUL DUP3 ADD GT ISZERO PUSH2 0x197E JUMPI PUSH2 0x197D PUSH2 0x2EBA JUMP JUMPDEST JUMPDEST PUSH1 0x0 JUMPDEST DUP6 DUP2 LT ISZERO PUSH2 0x19AE JUMPI DUP2 PUSH2 0x1994 DUP9 DUP3 PUSH2 0x1BED JUMP JUMPDEST DUP5 MSTORE PUSH1 0x20 DUP5 ADD SWAP4 POP PUSH1 0x20 DUP4 ADD SWAP3 POP POP PUSH1 0x1 DUP2 ADD SWAP1 POP PUSH2 0x1981 JUMP JUMPDEST POP POP POP SWAP4 SWAP3 POP POP POP JUMP JUMPDEST PUSH1 0x0 PUSH2 0x19CB PUSH2 0x19C6 DUP5 PUSH2 0x2A9B JUMP JUMPDEST PUSH2 0x2A4A JUMP JUMPDEST SWAP1 POP DUP3 DUP2 MSTORE PUSH1 0x20 DUP2 ADD DUP5 DUP5 DUP5 ADD GT ISZERO PUSH2 0x19E7 JUMPI PUSH2 0x19E6 PUSH2 0x2EC4 JUMP JUMPDEST JUMPDEST PUSH2 0x19F2 DUP5 DUP3 DUP6 PUSH2 0x2D29 JUMP JUMPDEST POP SWAP4 SWAP3 POP POP POP JUMP JUMPDEST PUSH1 0x0 DUP2 CALLDATALOAD SWAP1 POP PUSH2 0x1A09 DUP2 PUSH2 0x3230 JUMP JUMPDEST SWAP3 SWAP2 POP POP JUMP JUMPDEST PUSH1 0x0 DUP1 DUP4 PUSH1 0x1F DUP5 ADD SLT PUSH2 0x1A25 JUMPI PUSH2 0x1A24 PUSH2 0x2EA6 JUMP JUMPDEST JUMPDEST DUP3 CALLDATALOAD SWAP1 POP PUSH8 0xFFFFFFFFFFFFFFFF DUP2 GT ISZERO PUSH2 0x1A42 JUMPI PUSH2 0x1A41 PUSH2 0x2EA1 JUMP JUMPDEST JUMPDEST PUSH1 0x20 DUP4 ADD SWAP2 POP DUP4 PUSH1 0x20 DUP3 MUL DUP4 ADD GT ISZERO PUSH2 0x1A5E JUMPI PUSH2 0x1A5D PUSH2 0x2EBA JUMP JUMPDEST JUMPDEST SWAP3 POP SWAP3 SWAP1 POP JUMP JUMPDEST PUSH1 0x0 DUP1 DUP4 PUSH1 0x1F DUP5 ADD SLT PUSH2 0x1A7B JUMPI PUSH2 0x1A7A PUSH2 0x2EA6 JUMP JUMPDEST JUMPDEST DUP3 CALLDATALOAD SWAP1 POP PUSH8 0xFFFFFFFFFFFFFFFF DUP2 GT ISZERO PUSH2 0x1A98 JUMPI PUSH2 0x1A97 PUSH2 0x2EA1 JUMP JUMPDEST JUMPDEST PUSH1 0x20 DUP4 ADD SWAP2 POP DUP4 PUSH1 0x20 DUP3 MUL DUP4 ADD GT ISZERO PUSH2 0x1AB4 JUMPI PUSH2 0x1AB3 PUSH2 0x2EBA JUMP JUMPDEST JUMPDEST SWAP3 POP SWAP3 SWAP1 POP JUMP JUMPDEST PUSH1 0x0 DUP1 DUP4 PUSH1 0x1F DUP5 ADD SLT PUSH2 0x1AD1 JUMPI PUSH2 0x1AD0 PUSH2 0x2EA6 JUMP JUMPDEST JUMPDEST DUP3 CALLDATALOAD SWAP1 POP PUSH8 0xFFFFFFFFFFFFFFFF DUP2 GT ISZERO PUSH2 0x1AEE JUMPI PUSH2 0x1AED PUSH2 0x2EA1 JUMP JUMPDEST JUMPDEST PUSH1 0x20 DUP4 ADD SWAP2 POP DUP4 PUSH1 0x20 DUP3 MUL DUP4 ADD GT ISZERO PUSH2 0x1B0A JUMPI PUSH2 0x1B09 PUSH2 0x2EBA JUMP JUMPDEST JUMPDEST SWAP3 POP SWAP3 SWAP1 POP JUMP JUMPDEST PUSH1 0x0 DUP3 PUSH1 0x1F DUP4 ADD SLT PUSH2 0x1B26 JUMPI PUSH2 0x1B25 PUSH2 0x2EA6 JUMP JUMPDEST JUMPDEST DUP2 CALLDATALOAD PUSH2 0x1B36 DUP5 DUP3 PUSH1 0x20 DUP7 ADD PUSH2 0x1948 JUMP JUMPDEST SWAP2 POP POP SWAP3 SWAP2 POP POP JUMP JUMPDEST PUSH1 0x0 DUP2 CALLDATALOAD SWAP1 POP PUSH2 0x1B4E DUP2 PUSH2 0x3247 JUMP JUMPDEST SWAP3 SWAP2 POP POP JUMP JUMPDEST PUSH1 0x0 DUP2 CALLDATALOAD SWAP1 POP PUSH2 0x1B63 DUP2 PUSH2 0x325E JUMP JUMPDEST SWAP3 SWAP2 POP POP JUMP JUMPDEST PUSH1 0x0 DUP1 DUP4 PUSH1 0x1F DUP5 ADD SLT PUSH2 0x1B7F JUMPI PUSH2 0x1B7E PUSH2 0x2EA6 JUMP JUMPDEST JUMPDEST DUP3 CALLDATALOAD SWAP1 POP PUSH8 0xFFFFFFFFFFFFFFFF DUP2 GT ISZERO PUSH2 0x1B9C JUMPI PUSH2 0x1B9B PUSH2 0x2EA1 JUMP JUMPDEST JUMPDEST PUSH1 0x20 DUP4 ADD SWAP2 POP DUP4 PUSH1 0x1 DUP3 MUL DUP4 ADD GT ISZERO PUSH2 0x1BB8 JUMPI PUSH2 0x1BB7 PUSH2 0x2EBA JUMP JUMPDEST JUMPDEST SWAP3 POP SWAP3 SWAP1 POP JUMP JUMPDEST PUSH1 0x0 DUP3 PUSH1 0x1F DUP4 ADD SLT PUSH2 0x1BD4 JUMPI PUSH2 0x1BD3 PUSH2 0x2EA6 JUMP JUMPDEST JUMPDEST DUP2 CALLDATALOAD PUSH2 0x1BE4 DUP5 DUP3 PUSH1 0x20 DUP7 ADD PUSH2 0x19B8 JUMP JUMPDEST SWAP2 POP POP SWAP3 SWAP2 POP POP JUMP JUMPDEST PUSH1 0x0 DUP2 CALLDATALOAD SWAP1 POP PUSH2 0x1BFC DUP2 PUSH2 0x3275 JUMP JUMPDEST SWAP3 SWAP2 POP POP JUMP JUMPDEST PUSH1 0x0 PUSH1 0x20 DUP3 DUP5 SUB SLT ISZERO PUSH2 0x1C18 JUMPI PUSH2 0x1C17 PUSH2 0x2ED8 JUMP JUMPDEST JUMPDEST PUSH1 0x0 PUSH2 0x1C26 DUP5 DUP3 DUP6 ADD PUSH2 0x19FA JUMP JUMPDEST SWAP2 POP POP SWAP3 SWAP2 POP POP JUMP JUMPDEST PUSH1 0x0 DUP1 PUSH1 0x0 DUP1 PUSH1 0x0 PUSH1 0xA0 DUP7 DUP9 SUB SLT ISZERO PUSH2 0x1C4B JUMPI PUSH2 0x1C4A PUSH2 0x2ED8 JUMP JUMPDEST JUMPDEST PUSH1 0x0 PUSH2 0x1C59 DUP9 DUP3 DUP10 ADD PUSH2 0x19FA JUMP JUMPDEST SWAP6 POP POP PUSH1 0x20 PUSH2 0x1C6A DUP9 DUP3 DUP10 ADD PUSH2 0x19FA JUMP JUMPDEST SWAP5 POP POP PUSH1 0x40 DUP7 ADD CALLDATALOAD PUSH8 0xFFFFFFFFFFFFFFFF DUP2 GT ISZERO PUSH2 0x1C8B JUMPI PUSH2 0x1C8A PUSH2 0x2EC9 JUMP JUMPDEST JUMPDEST PUSH2 0x1C97 DUP9 DUP3 DUP10 ADD PUSH2 0x1B11 JUMP JUMPDEST SWAP4 POP POP PUSH1 0x60 DUP7 ADD CALLDATALOAD PUSH8 0xFFFFFFFFFFFFFFFF DUP2 GT ISZERO PUSH2 0x1CB8 JUMPI PUSH2 0x1CB7 PUSH2 0x2EC9 JUMP JUMPDEST JUMPDEST PUSH2 0x1CC4 DUP9 DUP3 DUP10 ADD PUSH2 0x1B11 JUMP JUMPDEST SWAP3 POP POP PUSH1 0x80 DUP7 ADD CALLDATALOAD PUSH8 0xFFFFFFFFFFFFFFFF DUP2 GT ISZERO PUSH2 0x1CE5 JUMPI PUSH2 0x1CE4 PUSH2 0x2EC9 JUMP JUMPDEST JUMPDEST PUSH2 0x1CF1 DUP9 DUP3 DUP10 ADD PUSH2 0x1BBF JUMP JUMPDEST SWAP2 POP POP SWAP3 SWAP6 POP SWAP3 SWAP6 SWAP1 SWAP4 POP JUMP JUMPDEST PUSH1 0x0 DUP1 PUSH1 0x0 DUP1 PUSH1 0x80 DUP6 DUP8 SUB SLT ISZERO PUSH2 0x1D18 JUMPI PUSH2 0x1D17 PUSH2 0x2ED8 JUMP JUMPDEST JUMPDEST PUSH1 0x0 PUSH2 0x1D26 DUP8 DUP3 DUP9 ADD PUSH2 0x19FA JUMP JUMPDEST SWAP5 POP POP PUSH1 0x20 PUSH2 0x1D37 DUP8 DUP3 DUP9 ADD PUSH2 0x19FA JUMP JUMPDEST SWAP4 POP POP PUSH1 0x40 PUSH2 0x1D48 DUP8 DUP3 DUP9 ADD PUSH2 0x1BED JUMP JUMPDEST SWAP3 POP POP PUSH1 0x60 DUP6 ADD CALLDATALOAD PUSH8 0xFFFFFFFFFFFFFFFF DUP2 GT ISZERO PUSH2 0x1D69 JUMPI PUSH2 0x1D68 PUSH2 0x2EC9 JUMP JUMPDEST JUMPDEST PUSH2 0x1D75 DUP8 DUP3 DUP9 ADD PUSH2 0x1BBF JUMP JUMPDEST SWAP2 POP POP SWAP3 SWAP6 SWAP2 SWAP5 POP SWAP3 POP JUMP JUMPDEST PUSH1 0x0 DUP1 PUSH1 0x0 DUP1 PUSH1 0x0 PUSH1 0xA0 DUP7 DUP9 SUB SLT ISZERO PUSH2 0x1D9D JUMPI PUSH2 0x1D9C PUSH2 0x2ED8 JUMP JUMPDEST JUMPDEST PUSH1 0x0 PUSH2 0x1DAB DUP9 DUP3 DUP10 ADD PUSH2 0x19FA JUMP JUMPDEST SWAP6 POP POP PUSH1 0x20 PUSH2 0x1DBC DUP9 DUP3 DUP10 ADD PUSH2 0x19FA JUMP JUMPDEST SWAP5 POP POP PUSH1 0x40 PUSH2 0x1DCD DUP9 DUP3 DUP10 ADD PUSH2 0x1BED JUMP JUMPDEST SWAP4 POP POP PUSH1 0x60 PUSH2 0x1DDE DUP9 DUP3 DUP10 ADD PUSH2 0x1BED JUMP JUMPDEST SWAP3 POP POP PUSH1 0x80 DUP7 ADD CALLDATALOAD PUSH8 0xFFFFFFFFFFFFFFFF DUP2 GT ISZERO PUSH2 0x1DFF JUMPI PUSH2 0x1DFE PUSH2 0x2EC9 JUMP JUMPDEST JUMPDEST PUSH2 0x1E0B DUP9 DUP3 DUP10 ADD PUSH2 0x1BBF JUMP JUMPDEST SWAP2 POP POP SWAP3 SWAP6 POP SWAP3 SWAP6 SWAP1 SWAP4 POP JUMP JUMPDEST PUSH1 0x0 DUP1 PUSH1 0x0 DUP1 PUSH1 0x0 DUP1 PUSH1 0xA0 DUP8 DUP10 SUB SLT ISZERO PUSH2 0x1E35 JUMPI PUSH2 0x1E34 PUSH2 0x2ED8 JUMP JUMPDEST JUMPDEST PUSH1 0x0 PUSH2 0x1E43 DUP10 DUP3 DUP11 ADD PUSH2 0x19FA JUMP JUMPDEST SWAP7 POP POP PUSH1 0x20 PUSH2 0x1E54 DUP10 DUP3 DUP11 ADD PUSH2 0x1BED JUMP JUMPDEST SWAP6 POP POP PUSH1 0x40 DUP8 ADD CALLDATALOAD PUSH8 0xFFFFFFFFFFFFFFFF DUP2 GT ISZERO PUSH2 0x1E75 JUMPI PUSH2 0x1E74 PUSH2 0x2EC9 JUMP JUMPDEST JUMPDEST PUSH2 0x1E81 DUP10 DUP3 DUP11 ADD PUSH2 0x1B69 JUMP JUMPDEST SWAP5 POP SWAP5 POP POP PUSH1 0x60 PUSH2 0x1E94 DUP10 DUP3 DUP11 ADD PUSH2 0x1B3F JUMP JUMPDEST SWAP3 POP POP PUSH1 0x80 PUSH2 0x1EA5 DUP10 DUP3 DUP11 ADD PUSH2 0x1B3F JUMP JUMPDEST SWAP2 POP POP SWAP3 SWAP6 POP SWAP3 SWAP6 POP SWAP3 SWAP6 JUMP JUMPDEST PUSH1 0x0 DUP1 PUSH1 0x0 DUP1 PUSH1 0x0 DUP1 PUSH1 0x0 PUSH1 0xC0 DUP9 DUP11 SUB SLT ISZERO PUSH2 0x1ED1 JUMPI PUSH2 0x1ED0 PUSH2 0x2ED8 JUMP JUMPDEST JUMPDEST PUSH1 0x0 PUSH2 0x1EDF DUP11 DUP3 DUP12 ADD PUSH2 0x19FA JUMP JUMPDEST SWAP8 POP POP PUSH1 0x20 PUSH2 0x1EF0 DUP11 DUP3 DUP12 ADD PUSH2 0x1BED JUMP JUMPDEST SWAP7 POP POP PUSH1 0x40 DUP9 ADD CALLDATALOAD PUSH8 0xFFFFFFFFFFFFFFFF DUP2 GT ISZERO PUSH2 0x1F11 JUMPI PUSH2 0x1F10 PUSH2 0x2EC9 JUMP JUMPDEST JUMPDEST PUSH2 0x1F1D DUP11 DUP3 DUP12 ADD PUSH2 0x1B69 JUMP JUMPDEST SWAP6 POP SWAP6 POP POP PUSH1 0x60 PUSH2 0x1F30 DUP11 DUP3 DUP12 ADD PUSH2 0x1B3F JUMP JUMPDEST SWAP4 POP POP PUSH1 0x80 PUSH2 0x1F41 DUP11 DUP3 DUP12 ADD PUSH2 0x1B3F JUMP JUMPDEST SWAP3 POP POP PUSH1 0xA0 PUSH2 0x1F52 DUP11 DUP3 DUP12 ADD PUSH2 0x1BED JUMP JUMPDEST SWAP2 POP POP SWAP3 SWAP6 SWAP9 SWAP2 SWAP5 SWAP8 POP SWAP3 SWAP6 POP JUMP JUMPDEST PUSH1 0x0 DUP1 PUSH1 0x0 DUP1 PUSH1 0x0 DUP1 PUSH1 0x0 DUP1 PUSH1 0xA0 DUP10 DUP12 SUB SLT ISZERO PUSH2 0x1F81 JUMPI PUSH2 0x1F80 PUSH2 0x2ED8 JUMP JUMPDEST JUMPDEST PUSH1 0x0 DUP10 ADD CALLDATALOAD PUSH8 0xFFFFFFFFFFFFFFFF DUP2 GT ISZERO PUSH2 0x1F9F JUMPI PUSH2 0x1F9E PUSH2 0x2EC9 JUMP JUMPDEST JUMPDEST PUSH2 0x1FAB DUP12 DUP3 DUP13 ADD PUSH2 0x1A0F JUMP JUMPDEST SWAP9 POP SWAP9 POP POP PUSH1 0x20 DUP10 ADD CALLDATALOAD PUSH8 0xFFFFFFFFFFFFFFFF DUP2 GT ISZERO PUSH2 0x1FCE JUMPI PUSH2 0x1FCD PUSH2 0x2EC9 JUMP JUMPDEST JUMPDEST PUSH2 0x1FDA DUP12 DUP3 DUP13 ADD PUSH2 0x1ABB JUMP JUMPDEST SWAP7 POP SWAP7 POP POP PUSH1 0x40 DUP10 ADD CALLDATALOAD PUSH8 0xFFFFFFFFFFFFFFFF DUP2 GT ISZERO PUSH2 0x1FFD JUMPI PUSH2 0x1FFC PUSH2 0x2EC9 JUMP JUMPDEST JUMPDEST PUSH2 0x2009 DUP12 DUP3 DUP13 ADD PUSH2 0x1A65 JUMP JUMPDEST SWAP5 POP SWAP5 POP POP PUSH1 0x60 PUSH2 0x201C DUP12 DUP3 DUP13 ADD PUSH2 0x1B3F JUMP JUMPDEST SWAP3 POP POP PUSH1 0x80 PUSH2 0x202D DUP12 DUP3 DUP13 ADD PUSH2 0x1B3F JUMP JUMPDEST SWAP2 POP POP SWAP3 SWAP6 SWAP9 POP SWAP3 SWAP6 SWAP9 SWAP1 SWAP4 SWAP7 POP JUMP JUMPDEST PUSH1 0x0 DUP1 PUSH1 0x0 DUP1 PUSH1 0x0 DUP1 PUSH1 0x0 DUP1 PUSH1 0x0 PUSH1 0xC0 DUP11 DUP13 SUB SLT ISZERO PUSH2 0x205F JUMPI PUSH2 0x205E PUSH2 0x2ED8 JUMP JUMPDEST JUMPDEST PUSH1 0x0 DUP11 ADD CALLDATALOAD PUSH8 0xFFFFFFFFFFFFFFFF DUP2 GT ISZERO PUSH2 0x207D JUMPI PUSH2 0x207C PUSH2 0x2EC9 JUMP JUMPDEST JUMPDEST PUSH2 0x2089 DUP13 DUP3 DUP14 ADD PUSH2 0x1A0F JUMP JUMPDEST SWAP10 POP SWAP10 POP POP PUSH1 0x20 DUP11 ADD CALLDATALOAD PUSH8 0xFFFFFFFFFFFFFFFF DUP2 GT ISZERO PUSH2 0x20AC JUMPI PUSH2 0x20AB PUSH2 0x2EC9 JUMP JUMPDEST JUMPDEST PUSH2 0x20B8 DUP13 DUP3 DUP14 ADD PUSH2 0x1ABB JUMP JUMPDEST SWAP8 POP SWAP8 POP POP PUSH1 0x40 DUP11 ADD CALLDATALOAD PUSH8 0xFFFFFFFFFFFFFFFF DUP2 GT ISZERO PUSH2 0x20DB JUMPI PUSH2 0x20DA PUSH2 0x2EC9 JUMP JUMPDEST JUMPDEST PUSH2 0x20E7 DUP13 DUP3 DUP14 ADD PUSH2 0x1A65 JUMP JUMPDEST SWAP6 POP SWAP6 POP POP PUSH1 0x60 PUSH2 0x20FA DUP13 DUP3 DUP14 ADD PUSH2 0x1B3F JUMP JUMPDEST SWAP4 POP POP PUSH1 0x80 PUSH2 0x210B DUP13 DUP3 DUP14 ADD PUSH2 0x1B3F JUMP JUMPDEST SWAP3 POP POP PUSH1 0xA0 PUSH2 0x211C DUP13 DUP3 DUP14 ADD PUSH2 0x1BED JUMP JUMPDEST SWAP2 POP POP SWAP3 SWAP6 SWAP9 POP SWAP3 SWAP6 SWAP9 POP SWAP3 SWAP6 SWAP9 JUMP JUMPDEST PUSH1 0x0 PUSH1 0x20 DUP3 DUP5 SUB SLT ISZERO PUSH2 0x2142 JUMPI PUSH2 0x2141 PUSH2 0x2ED8 JUMP JUMPDEST JUMPDEST PUSH1 0x0 PUSH2 0x2150 DUP5 DUP3 DUP6 ADD PUSH2 0x1B3F JUMP JUMPDEST SWAP2 POP POP SWAP3 SWAP2 POP POP JUMP JUMPDEST PUSH1 0x0 DUP1 PUSH1 0x40 DUP4 DUP6 SUB SLT ISZERO PUSH2 0x2170 JUMPI PUSH2 0x216F PUSH2 0x2ED8 JUMP JUMPDEST JUMPDEST PUSH1 0x0 PUSH2 0x217E DUP6 DUP3 DUP7 ADD PUSH2 0x1B3F JUMP JUMPDEST SWAP3 POP POP PUSH1 0x20 PUSH2 0x218F DUP6 DUP3 DUP7 ADD PUSH2 0x19FA JUMP JUMPDEST SWAP2 POP POP SWAP3 POP SWAP3 SWAP1 POP JUMP JUMPDEST PUSH1 0x0 PUSH1 0x20 DUP3 DUP5 SUB SLT ISZERO PUSH2 0x21AF JUMPI PUSH2 0x21AE PUSH2 0x2ED8 JUMP JUMPDEST JUMPDEST PUSH1 0x0 PUSH2 0x21BD DUP5 DUP3 DUP6 ADD PUSH2 0x1B54 JUMP JUMPDEST SWAP2 POP POP SWAP3 SWAP2 POP POP JUMP JUMPDEST PUSH1 0x0 PUSH1 0x20 DUP3 DUP5 SUB SLT ISZERO PUSH2 0x21DC JUMPI PUSH2 0x21DB PUSH2 0x2ED8 JUMP JUMPDEST JUMPDEST PUSH1 0x0 PUSH2 0x21EA DUP5 DUP3 DUP6 ADD PUSH2 0x1BED JUMP JUMPDEST SWAP2 POP POP SWAP3 SWAP2 POP POP JUMP JUMPDEST PUSH1 0x0 PUSH2 0x21FF DUP4 DUP4 PUSH2 0x2221 JUMP JUMPDEST PUSH1 0x20 DUP4 ADD SWAP1 POP SWAP3 SWAP2 POP POP JUMP JUMPDEST PUSH1 0x0 PUSH2 0x2218 DUP5 DUP5 DUP5 PUSH2 0x239B JUMP JUMPDEST SWAP1 POP SWAP4 SWAP3 POP POP POP JUMP JUMPDEST PUSH2 0x222A DUP2 PUSH2 0x2CAB JUMP JUMPDEST DUP3 MSTORE POP POP JUMP JUMPDEST PUSH2 0x2239 DUP2 PUSH2 0x2CAB JUMP JUMPDEST DUP3 MSTORE POP POP JUMP JUMPDEST PUSH1 0x0 PUSH2 0x224B DUP4 DUP6 PUSH2 0x2B05 JUMP JUMPDEST SWAP4 POP PUSH2 0x2256 DUP3 PUSH2 0x2ACC JUMP JUMPDEST DUP1 PUSH1 0x0 JUMPDEST DUP6 DUP2 LT ISZERO PUSH2 0x228F JUMPI PUSH2 0x226C DUP3 DUP5 PUSH2 0x2B81 JUMP JUMPDEST PUSH2 0x2276 DUP9 DUP3 PUSH2 0x21F3 JUMP JUMPDEST SWAP8 POP PUSH2 0x2281 DUP4 PUSH2 0x2AEB JUMP JUMPDEST SWAP3 POP POP PUSH1 0x1 DUP2 ADD SWAP1 POP PUSH2 0x225A JUMP JUMPDEST POP DUP6 SWAP3 POP POP POP SWAP4 SWAP3 POP POP POP JUMP JUMPDEST PUSH1 0x0 PUSH2 0x22A8 DUP4 DUP6 PUSH2 0x2B16 JUMP JUMPDEST SWAP4 POP DUP4 PUSH1 0x20 DUP5 MUL DUP6 ADD PUSH2 0x22BA DUP5 PUSH2 0x2AD6 JUMP JUMPDEST DUP1 PUSH1 0x0 JUMPDEST DUP8 DUP2 LT ISZERO PUSH2 0x2300 JUMPI DUP5 DUP5 SUB DUP10 MSTORE PUSH2 0x22D5 DUP3 DUP5 PUSH2 0x2B98 JUMP JUMPDEST PUSH2 0x22E0 DUP7 DUP3 DUP5 PUSH2 0x220B JUMP JUMPDEST SWAP6 POP PUSH2 0x22EB DUP5 PUSH2 0x2AF8 JUMP JUMPDEST SWAP4 POP PUSH1 0x20 DUP12 ADD SWAP11 POP POP POP PUSH1 0x1 DUP2 ADD SWAP1 POP PUSH2 0x22BE JUMP JUMPDEST POP DUP3 SWAP8 POP DUP8 SWAP5 POP POP POP POP POP SWAP4 SWAP3 POP POP POP JUMP JUMPDEST PUSH1 0x0 PUSH2 0x231E DUP4 DUP6 PUSH2 0x2B27 JUMP JUMPDEST SWAP4 POP PUSH32 0x7FFFFFFFFFFFFFFFFFFFFFFFFFFFFFFFFFFFFFFFFFFFFFFFFFFFFFFFFFFFFFF DUP4 GT ISZERO PUSH2 0x2351 JUMPI PUSH2 0x2350 PUSH2 0x2ECE JUMP JUMPDEST JUMPDEST PUSH1 0x20 DUP4 MUL SWAP3 POP PUSH2 0x2362 DUP4 DUP6 DUP5 PUSH2 0x2D29 JUMP JUMPDEST DUP3 DUP5 ADD SWAP1 POP SWAP4 SWAP3 POP POP POP JUMP JUMPDEST PUSH2 0x2377 DUP2 PUSH2 0x2CBD JUMP JUMPDEST DUP3 MSTORE POP POP JUMP JUMPDEST PUSH2 0x2386 DUP2 PUSH2 0x2CC9 JUMP JUMPDEST DUP3 MSTORE POP POP JUMP JUMPDEST PUSH2 0x2395 DUP2 PUSH2 0x2CD3 JUMP JUMPDEST DUP3 MSTORE POP POP JUMP JUMPDEST PUSH1 0x0 PUSH2 0x23A7 DUP4 DUP6 PUSH2 0x2B38 JUMP JUMPDEST SWAP4 POP PUSH2 0x23B4 DUP4 DUP6 DUP5 PUSH2 0x2D29 JUMP JUMPDEST PUSH2 0x23BD DUP4 PUSH2 0x2EDD JUMP JUMPDEST DUP5 ADD SWAP1 POP SWAP4 SWAP3 POP POP POP JUMP JUMPDEST PUSH1 0x0 PUSH2 0x23D4 DUP4 DUP6 PUSH2 0x2B49 JUMP JUMPDEST SWAP4 POP PUSH2 0x23E1 DUP4 DUP6 DUP5 PUSH2 0x2D29 JUMP JUMPDEST PUSH2 0x23EA DUP4 PUSH2 0x2EDD JUMP JUMPDEST DUP5 ADD SWAP1 POP SWAP4 SWAP3 POP POP POP JUMP JUMPDEST PUSH1 0x0 PUSH2 0x2401 DUP4 DUP6 PUSH2 0x2B5A JUMP JUMPDEST SWAP4 POP PUSH2 0x240E DUP4 DUP6 DUP5 PUSH2 0x2D29 JUMP JUMPDEST DUP3 DUP5 ADD SWAP1 POP SWAP4 SWAP3 POP POP POP JUMP JUMPDEST PUSH1 0x0 PUSH2 0x2425 DUP3 PUSH2 0x2AE0 JUMP JUMPDEST PUSH2 0x242F DUP2 DUP6 PUSH2 0x2B65 JUMP JUMPDEST SWAP4 POP PUSH2 0x243F DUP2 DUP6 PUSH1 0x20 DUP7 ADD PUSH2 0x2D38 JUMP JUMPDEST PUSH2 0x2448 DUP2 PUSH2 0x2EDD JUMP JUMPDEST DUP5 ADD SWAP2 POP POP SWAP3 SWAP2 POP POP JUMP JUMPDEST PUSH1 0x0 PUSH2 0x245E DUP3 PUSH2 0x2AE0 JUMP JUMPDEST PUSH2 0x2468 DUP2 DUP6 PUSH2 0x2B76 JUMP JUMPDEST SWAP4 POP PUSH2 0x2478 DUP2 DUP6 PUSH1 0x20 DUP7 ADD PUSH2 0x2D38 JUMP JUMPDEST DUP1 DUP5 ADD SWAP2 POP POP SWAP3 SWAP2 POP POP JUMP JUMPDEST PUSH1 0x0 PUSH2 0x2491 PUSH1 0x20 DUP4 PUSH2 0x2B65 JUMP JUMPDEST SWAP2 POP PUSH2 0x249C DUP3 PUSH2 0x2EEE JUMP JUMPDEST PUSH1 0x20 DUP3 ADD SWAP1 POP SWAP2 SWAP1 POP JUMP JUMPDEST PUSH1 0x0 PUSH2 0x24B4 PUSH1 0x26 DUP4 PUSH2 0x2B65 JUMP JUMPDEST SWAP2 POP PUSH2 0x24BF DUP3 PUSH2 0x2F17 JUMP JUMPDEST PUSH1 0x40 DUP3 ADD SWAP1 POP SWAP2 SWAP1 POP JUMP JUMPDEST PUSH1 0x0 PUSH2 0x24D7 PUSH1 0x23 DUP4 PUSH2 0x2B65 JUMP JUMPDEST SWAP2 POP PUSH2 0x24E2 DUP3 PUSH2 0x2F66 JUMP JUMPDEST PUSH1 0x40 DUP3 ADD SWAP1 POP SWAP2 SWAP1 POP JUMP JUMPDEST PUSH1 0x0 PUSH2 0x24FA PUSH1 0x26 DUP4 PUSH2 0x2B65 JUMP JUMPDEST SWAP2 POP PUSH2 0x2505 DUP3 PUSH2 0x2FB5 JUMP JUMPDEST PUSH1 0x40 DUP3 ADD SWAP1 POP SWAP2 SWAP1 POP JUMP JUMPDEST PUSH1 0x0 PUSH2 0x251D PUSH1 0x2F DUP4 PUSH2 0x2B65 JUMP JUMPDEST SWAP2 POP PUSH2 0x2528 DUP3 PUSH2 0x3004 JUMP JUMPDEST PUSH1 0x40 DUP3 ADD SWAP1 POP SWAP2 SWAP1 POP JUMP JUMPDEST PUSH1 0x0 PUSH2 0x2540 PUSH1 0x2A DUP4 PUSH2 0x2B65 JUMP JUMPDEST SWAP2 POP PUSH2 0x254B DUP3 PUSH2 0x3053 JUMP JUMPDEST PUSH1 0x40 DUP3 ADD SWAP1 POP SWAP2 SWAP1 POP JUMP JUMPDEST PUSH1 0x0 PUSH2 0x2563 PUSH1 0x17 DUP4 PUSH2 0x2B76 JUMP JUMPDEST SWAP2 POP PUSH2 0x256E DUP3 PUSH2 0x30A2 JUMP JUMPDEST PUSH1 0x17 DUP3 ADD SWAP1 POP SWAP2 SWAP1 POP JUMP JUMPDEST PUSH1 0x0 PUSH2 0x2586 PUSH1 0x31 DUP4 PUSH2 0x2B65 JUMP JUMPDEST SWAP2 POP PUSH2 0x2591 DUP3 PUSH2 0x30CB JUMP JUMPDEST PUSH1 0x40 DUP3 ADD SWAP1 POP SWAP2 SWAP1 POP JUMP JUMPDEST PUSH1 0x0 PUSH2 0x25A9 PUSH1 0x11 DUP4 PUSH2 0x2B76 JUMP JUMPDEST SWAP2 POP PUSH2 0x25B4 DUP3 PUSH2 0x311A JUMP JUMPDEST PUSH1 0x11 DUP3 ADD SWAP1 POP SWAP2 SWAP1 POP JUMP JUMPDEST PUSH1 0x0 PUSH2 0x25CC PUSH1 0x2B DUP4 PUSH2 0x2B65 JUMP JUMPDEST SWAP2 POP PUSH2 0x25D7 DUP3 PUSH2 0x3143 JUMP JUMPDEST PUSH1 0x40 DUP3 ADD SWAP1 POP SWAP2 SWAP1 POP JUMP JUMPDEST PUSH1 0x0 PUSH2 0x25EF PUSH1 0x2F DUP4 PUSH2 0x2B65 JUMP JUMPDEST SWAP2 POP PUSH2 0x25FA DUP3 PUSH2 0x3192 JUMP JUMPDEST PUSH1 0x40 DUP3 ADD SWAP1 POP SWAP2 SWAP1 POP JUMP JUMPDEST PUSH1 0x0 PUSH2 0x2612 PUSH1 0x33 DUP4 PUSH2 0x2B65 JUMP JUMPDEST SWAP2 POP PUSH2 0x261D DUP3 PUSH2 0x31E1 JUMP JUMPDEST PUSH1 0x40 DUP3 ADD SWAP1 POP SWAP2 SWAP1 POP JUMP JUMPDEST PUSH2 0x2631 DUP2 PUSH2 0x2D1F JUMP JUMPDEST DUP3 MSTORE POP POP JUMP JUMPDEST PUSH1 0x0 PUSH2 0x2644 DUP3 DUP5 DUP7 PUSH2 0x23F5 JUMP JUMPDEST SWAP2 POP DUP2 SWAP1 POP SWAP4 SWAP3 POP POP POP JUMP JUMPDEST PUSH1 0x0 PUSH2 0x265B DUP3 PUSH2 0x2556 JUMP JUMPDEST SWAP2 POP PUSH2 0x2667 DUP3 DUP6 PUSH2 0x2453 JUMP JUMPDEST SWAP2 POP PUSH2 0x2672 DUP3 PUSH2 0x259C JUMP JUMPDEST SWAP2 POP PUSH2 0x267E DUP3 DUP5 PUSH2 0x2453 JUMP JUMPDEST SWAP2 POP DUP2 SWAP1 POP SWAP4 SWAP3 POP POP POP JUMP JUMPDEST PUSH1 0x0 PUSH1 0x60 DUP3 ADD SWAP1 POP PUSH2 0x269F PUSH1 0x0 DUP4 ADD DUP8 PUSH2 0x2230 JUMP JUMPDEST PUSH2 0x26AC PUSH1 0x20 DUP4 ADD DUP7 PUSH2 0x2628 JUMP JUMPDEST DUP2 DUP2 SUB PUSH1 0x40 DUP4 ADD MSTORE PUSH2 0x26BF DUP2 DUP5 DUP7 PUSH2 0x23C8 JUMP JUMPDEST SWAP1 POP SWAP6 SWAP5 POP POP POP POP POP JUMP JUMPDEST PUSH1 0x0 PUSH1 0xA0 DUP3 ADD SWAP1 POP PUSH2 0x26DF PUSH1 0x0 DUP4 ADD DUP10 PUSH2 0x2230 JUMP JUMPDEST PUSH2 0x26EC PUSH1 0x20 DUP4 ADD DUP9 PUSH2 0x2628 JUMP JUMPDEST DUP2 DUP2 SUB PUSH1 0x40 DUP4 ADD MSTORE PUSH2 0x26FF DUP2 DUP7 DUP9 PUSH2 0x23C8 JUMP JUMPDEST SWAP1 POP PUSH2 0x270E PUSH1 0x60 DUP4 ADD DUP6 PUSH2 0x237D JUMP JUMPDEST PUSH2 0x271B PUSH1 0x80 DUP4 ADD DUP5 PUSH2 0x237D JUMP JUMPDEST SWAP8 SWAP7 POP POP POP POP POP POP POP JUMP JUMPDEST PUSH1 0x0 PUSH1 0xA0 DUP3 ADD SWAP1 POP PUSH2 0x273B PUSH1 0x0 DUP4 ADD DUP10 PUSH2 0x2230 JUMP JUMPDEST PUSH2 0x2748 PUSH1 0x20 DUP4 ADD DUP9 PUSH2 0x2628 JUMP JUMPDEST DUP2 DUP2 SUB PUSH1 0x40 DUP4 ADD MSTORE PUSH2 0x275B DUP2 DUP7 DUP9 PUSH2 0x23C8 JUMP JUMPDEST SWAP1 POP PUSH2 0x276A PUSH1 0x60 DUP4 ADD DUP6 PUSH2 0x237D JUMP JUMPDEST PUSH2 0x2777 PUSH1 0x80 DUP4 ADD DUP5 PUSH2 0x2628 JUMP JUMPDEST SWAP8 SWAP7 POP POP POP POP POP POP POP JUMP JUMPDEST PUSH1 0x0 PUSH1 0xA0 DUP3 ADD SWAP1 POP DUP2 DUP2 SUB PUSH1 0x0 DUP4 ADD MSTORE PUSH2 0x279D DUP2 DUP11 DUP13 PUSH2 0x223F JUMP JUMPDEST SWAP1 POP DUP2 DUP2 SUB PUSH1 0x20 DUP4 ADD MSTORE PUSH2 0x27B2 DUP2 DUP9 DUP11 PUSH2 0x2312 JUMP JUMPDEST SWAP1 POP DUP2 DUP2 SUB PUSH1 0x40 DUP4 ADD MSTORE PUSH2 0x27C7 DUP2 DUP7 DUP9 PUSH2 0x229C JUMP JUMPDEST SWAP1 POP PUSH2 0x27D6 PUSH1 0x60 DUP4 ADD DUP6 PUSH2 0x237D JUMP JUMPDEST PUSH2 0x27E3 PUSH1 0x80 DUP4 ADD DUP5 PUSH2 0x237D JUMP JUMPDEST SWAP10 SWAP9 POP POP POP POP POP POP POP POP POP JUMP JUMPDEST PUSH1 0x0 PUSH1 0x20 DUP3 ADD SWAP1 POP PUSH2 0x2805 PUSH1 0x0 DUP4 ADD DUP5 PUSH2 0x236E JUMP JUMPDEST SWAP3 SWAP2 POP POP JUMP JUMPDEST PUSH1 0x0 PUSH1 0x20 DUP3 ADD SWAP1 POP PUSH2 0x2820 PUSH1 0x0 DUP4 ADD DUP5 PUSH2 0x237D JUMP JUMPDEST SWAP3 SWAP2 POP POP JUMP JUMPDEST PUSH1 0x0 PUSH1 0x20 DUP3 ADD SWAP1 POP PUSH2 0x283B PUSH1 0x0 DUP4 ADD DUP5 PUSH2 0x238C JUMP JUMPDEST SWAP3 SWAP2 POP POP JUMP JUMPDEST PUSH1 0x0 PUSH1 0x20 DUP3 ADD SWAP1 POP DUP2 DUP2 SUB PUSH1 0x0 DUP4 ADD MSTORE PUSH2 0x285B DUP2 DUP5 PUSH2 0x241A JUMP JUMPDEST SWAP1 POP SWAP3 SWAP2 POP POP JUMP JUMPDEST PUSH1 0x0 PUSH1 0x20 DUP3 ADD SWAP1 POP DUP2 DUP2 SUB PUSH1 0x0 DUP4 ADD MSTORE PUSH2 0x287C DUP2 PUSH2 0x2484 JUMP JUMPDEST SWAP1 POP SWAP2 SWAP1 POP JUMP JUMPDEST PUSH1 0x0 PUSH1 0x20 DUP3 ADD SWAP1 POP DUP2 DUP2 SUB PUSH1 0x0 DUP4 ADD MSTORE PUSH2 0x289C DUP2 PUSH2 0x24A7 JUMP JUMPDEST SWAP1 POP SWAP2 SWAP1 POP JUMP JUMPDEST PUSH1 0x0 PUSH1 0x20 DUP3 ADD SWAP1 POP DUP2 DUP2 SUB PUSH1 0x0 DUP4 ADD MSTORE PUSH2 0x28BC DUP2 PUSH2 0x24CA JUMP JUMPDEST SWAP1 POP SWAP2 SWAP1 POP JUMP JUMPDEST PUSH1 0x0 PUSH1 0x20 DUP3 ADD SWAP1 POP DUP2 DUP2 SUB PUSH1 0x0 DUP4 ADD MSTORE PUSH2 0x28DC DUP2 PUSH2 0x24ED JUMP JUMPDEST SWAP1 POP SWAP2 SWAP1 POP JUMP JUMPDEST PUSH1 0x0 PUSH1 0x20 DUP3 ADD SWAP1 POP DUP2 DUP2 SUB PUSH1 0x0 DUP4 ADD MSTORE PUSH2 0x28FC DUP2 PUSH2 0x2510 JUMP JUMPDEST SWAP1 POP SWAP2 SWAP1 POP JUMP JUMPDEST PUSH1 0x0 PUSH1 0x20 DUP3 ADD SWAP1 POP DUP2 DUP2 SUB PUSH1 0x0 DUP4 ADD MSTORE PUSH2 0x291C DUP2 PUSH2 0x2533 JUMP JUMPDEST SWAP1 POP SWAP2 SWAP1 POP JUMP JUMPDEST PUSH1 0x0 PUSH1 0x20 DUP3 ADD SWAP1 POP DUP2 DUP2 SUB PUSH1 0x0 DUP4 ADD MSTORE PUSH2 0x293C DUP2 PUSH2 0x2579 JUMP JUMPDEST SWAP1 POP SWAP2 SWAP1 POP JUMP JUMPDEST PUSH1 0x0 PUSH1 0x20 DUP3 ADD SWAP1 POP DUP2 DUP2 SUB PUSH1 0x0 DUP4 ADD MSTORE PUSH2 0x295C DUP2 PUSH2 0x25BF JUMP JUMPDEST SWAP1 POP SWAP2 SWAP1 POP JUMP JUMPDEST PUSH1 0x0 PUSH1 0x20 DUP3 ADD SWAP1 POP DUP2 DUP2 SUB PUSH1 0x0 DUP4 ADD MSTORE PUSH2 0x297C DUP2 PUSH2 0x25E2 JUMP JUMPDEST SWAP1 POP SWAP2 SWAP1 POP JUMP JUMPDEST PUSH1 0x0 PUSH1 0x20 DUP3 ADD SWAP1 POP DUP2 DUP2 SUB PUSH1 0x0 DUP4 ADD MSTORE PUSH2 0x299C DUP2 PUSH2 0x2605 JUMP JUMPDEST SWAP1 POP SWAP2 SWAP1 POP JUMP JUMPDEST PUSH1 0x0 PUSH1 0x20 DUP3 ADD SWAP1 POP PUSH2 0x29B8 PUSH1 0x0 DUP4 ADD DUP5 PUSH2 0x2628 JUMP JUMPDEST SWAP3 SWAP2 POP POP JUMP JUMPDEST PUSH1 0x0 PUSH1 0x40 DUP3 ADD SWAP1 POP PUSH2 0x29D3 PUSH1 0x0 DUP4 ADD DUP6 PUSH2 0x2628 JUMP JUMPDEST PUSH2 0x29E0 PUSH1 0x20 DUP4 ADD DUP5 PUSH2 0x2628 JUMP JUMPDEST SWAP4 SWAP3 POP POP POP JUMP JUMPDEST PUSH1 0x0 DUP1 DUP4 CALLDATALOAD PUSH1 0x1 PUSH1 0x20 SUB DUP5 CALLDATASIZE SUB SUB DUP2 SLT PUSH2 0x2A04 JUMPI PUSH2 0x2A03 PUSH2 0x2EB0 JUMP JUMPDEST JUMPDEST DUP1 DUP5 ADD SWAP3 POP DUP3 CALLDATALOAD SWAP2 POP PUSH8 0xFFFFFFFFFFFFFFFF DUP3 GT ISZERO PUSH2 0x2A26 JUMPI PUSH2 0x2A25 PUSH2 0x2EAB JUMP JUMPDEST JUMPDEST PUSH1 0x20 DUP4 ADD SWAP3 POP PUSH1 0x1 DUP3 MUL CALLDATASIZE SUB DUP4 SGT ISZERO PUSH2 0x2A42 JUMPI PUSH2 0x2A41 PUSH2 0x2EBF JUMP JUMPDEST JUMPDEST POP SWAP3 POP SWAP3 SWAP1 POP JUMP JUMPDEST PUSH1 0x0 PUSH2 0x2A54 PUSH2 0x2A65 JUMP JUMPDEST SWAP1 POP PUSH2 0x2A60 DUP3 DUP3 PUSH2 0x2D95 JUMP JUMPDEST SWAP2 SWAP1 POP JUMP JUMPDEST PUSH1 0x0 PUSH1 0x40 MLOAD SWAP1 POP SWAP1 JUMP JUMPDEST PUSH1 0x0 PUSH8 0xFFFFFFFFFFFFFFFF DUP3 GT ISZERO PUSH2 0x2A8A JUMPI PUSH2 0x2A89 PUSH2 0x2E6D JUMP JUMPDEST JUMPDEST PUSH1 0x20 DUP3 MUL SWAP1 POP PUSH1 0x20 DUP2 ADD SWAP1 POP SWAP2 SWAP1 POP JUMP JUMPDEST PUSH1 0x0 PUSH8 0xFFFFFFFFFFFFFFFF DUP3 GT ISZERO PUSH2 0x2AB6 JUMPI PUSH2 0x2AB5 PUSH2 0x2E6D JUMP JUMPDEST JUMPDEST PUSH2 0x2ABF DUP3 PUSH2 0x2EDD JUMP JUMPDEST SWAP1 POP PUSH1 0x20 DUP2 ADD SWAP1 POP SWAP2 SWAP1 POP JUMP JUMPDEST PUSH1 0x0 DUP2 SWAP1 POP SWAP2 SWAP1 POP JUMP JUMPDEST PUSH1 0x0 DUP2 SWAP1 POP SWAP2 SWAP1 POP JUMP JUMPDEST PUSH1 0x0 DUP2 MLOAD SWAP1 POP SWAP2 SWAP1 POP JUMP JUMPDEST PUSH1 0x0 PUSH1 0x20 DUP3 ADD SWAP1 POP SWAP2 SWAP1 POP JUMP JUMPDEST PUSH1 0x0 PUSH1 0x20 DUP3 ADD SWAP1 POP SWAP2 SWAP1 POP JUMP JUMPDEST PUSH1 0x0 DUP3 DUP3 MSTORE PUSH1 0x20 DUP3 ADD SWAP1 POP SWAP3 SWAP2 POP POP JUMP JUMPDEST PUSH1 0x0 DUP3 DUP3 MSTORE PUSH1 0x20 DUP3 ADD SWAP1 POP SWAP3 SWAP2 POP POP JUMP JUMPDEST PUSH1 0x0 DUP3 DUP3 MSTORE PUSH1 0x20 DUP3 ADD SWAP1 POP SWAP3 SWAP2 POP POP JUMP JUMPDEST PUSH1 0x0 DUP3 DUP3 MSTORE PUSH1 0x20 DUP3 ADD SWAP1 POP SWAP3 SWAP2 POP POP JUMP JUMPDEST PUSH1 0x0 DUP3 DUP3 MSTORE PUSH1 0x20 DUP3 ADD SWAP1 POP SWAP3 SWAP2 POP POP JUMP JUMPDEST PUSH1 0x0 DUP2 SWAP1 POP SWAP3 SWAP2 POP POP JUMP JUMPDEST PUSH1 0x0 DUP3 DUP3 MSTORE PUSH1 0x20 DUP3 ADD SWAP1 POP SWAP3 SWAP2 POP POP JUMP JUMPDEST PUSH1 0x0 DUP2 SWAP1 POP SWAP3 SWAP2 POP POP JUMP JUMPDEST PUSH1 0x0 PUSH2 0x2B90 PUSH1 0x20 DUP5 ADD DUP5 PUSH2 0x19FA JUMP JUMPDEST SWAP1 POP SWAP3 SWAP2 POP POP JUMP JUMPDEST PUSH1 0x0 DUP1 DUP4 CALLDATALOAD PUSH1 0x1 PUSH1 0x20 SUB DUP5 CALLDATASIZE SUB SUB DUP2 SLT PUSH2 0x2BB5 JUMPI PUSH2 0x2BB4 PUSH2 0x2ED3 JUMP JUMPDEST JUMPDEST DUP4 DUP2 ADD SWAP3 POP DUP3 CALLDATALOAD SWAP2 POP PUSH1 0x20 DUP4 ADD SWAP3 POP PUSH8 0xFFFFFFFFFFFFFFFF DUP3 GT ISZERO PUSH2 0x2BDD JUMPI PUSH2 0x2BDC PUSH2 0x2E9C JUMP JUMPDEST JUMPDEST PUSH1 0x1 DUP3 MUL CALLDATASIZE SUB DUP5 SGT ISZERO PUSH2 0x2BF3 JUMPI PUSH2 0x2BF2 PUSH2 0x2EB5 JUMP JUMPDEST JUMPDEST POP SWAP3 POP SWAP3 SWAP1 POP JUMP JUMPDEST PUSH1 0x0 PUSH2 0x2C06 DUP3 PUSH2 0x2D1F JUMP JUMPDEST SWAP2 POP PUSH2 0x2C11 DUP4 PUSH2 0x2D1F JUMP JUMPDEST SWAP3 POP DUP3 PUSH32 0xFFFFFFFFFFFFFFFFFFFFFFFFFFFFFFFFFFFFFFFFFFFFFFFFFFFFFFFFFFFFFFFF SUB DUP3 GT ISZERO PUSH2 0x2C46 JUMPI PUSH2 0x2C45 PUSH2 0x2E0F JUMP JUMPDEST JUMPDEST DUP3 DUP3 ADD SWAP1 POP SWAP3 SWAP2 POP POP JUMP JUMPDEST PUSH1 0x0 PUSH2 0x2C5C DUP3 PUSH2 0x2D1F JUMP JUMPDEST SWAP2 POP PUSH2 0x2C67 DUP4 PUSH2 0x2D1F JUMP JUMPDEST SWAP3 POP DUP2 PUSH32 0xFFFFFFFFFFFFFFFFFFFFFFFFFFFFFFFFFFFFFFFFFFFFFFFFFFFFFFFFFFFFFFFF DIV DUP4 GT DUP3 ISZERO ISZERO AND ISZERO PUSH2 0x2CA0 JUMPI PUSH2 0x2C9F PUSH2 0x2E0F JUMP JUMPDEST JUMPDEST DUP3 DUP3 MUL SWAP1 POP SWAP3 SWAP2 POP POP JUMP JUMPDEST PUSH1 0x0 PUSH2 0x2CB6 DUP3 PUSH2 0x2CFF JUMP JUMPDEST SWAP1 POP SWAP2 SWAP1 POP JUMP JUMPDEST PUSH1 0x0 DUP2 ISZERO ISZERO SWAP1 POP SWAP2 SWAP1 POP JUMP JUMPDEST PUSH1 0x0 DUP2 SWAP1 POP SWAP2 SWAP1 POP JUMP JUMPDEST PUSH1 0x0 PUSH32 0xFFFFFFFF00000000000000000000000000000000000000000000000000000000 DUP3 AND SWAP1 POP SWAP2 SWAP1 POP JUMP JUMPDEST PUSH1 0x0 PUSH20 0xFFFFFFFFFFFFFFFFFFFFFFFFFFFFFFFFFFFFFFFF DUP3 AND SWAP1 POP SWAP2 SWAP1 POP JUMP JUMPDEST PUSH1 0x0 DUP2 SWAP1 POP SWAP2 SWAP1 POP JUMP JUMPDEST DUP3 DUP2 DUP4 CALLDATACOPY PUSH1 0x0 DUP4 DUP4 ADD MSTORE POP POP POP JUMP JUMPDEST PUSH1 0x0 JUMPDEST DUP4 DUP2 LT ISZERO PUSH2 0x2D56 JUMPI DUP1 DUP3 ADD MLOAD DUP2 DUP5 ADD MSTORE PUSH1 0x20 DUP2 ADD SWAP1 POP PUSH2 0x2D3B JUMP JUMPDEST DUP4 DUP2 GT ISZERO PUSH2 0x2D65 JUMPI PUSH1 0x0 DUP5 DUP5 ADD MSTORE JUMPDEST POP POP POP POP JUMP JUMPDEST PUSH1 0x0 PUSH2 0x2D76 DUP3 PUSH2 0x2D1F JUMP JUMPDEST SWAP2 POP PUSH1 0x0 DUP3 EQ ISZERO PUSH2 0x2D8A JUMPI PUSH2 0x2D89 PUSH2 0x2E0F JUMP JUMPDEST JUMPDEST PUSH1 0x1 DUP3 SUB SWAP1 POP SWAP2 SWAP1 POP JUMP JUMPDEST PUSH2 0x2D9E DUP3 PUSH2 0x2EDD JUMP JUMPDEST DUP2 ADD DUP2 DUP2 LT PUSH8 0xFFFFFFFFFFFFFFFF DUP3 GT OR ISZERO PUSH2 0x2DBD JUMPI PUSH2 0x2DBC PUSH2 0x2E6D JUMP JUMPDEST JUMPDEST DUP1 PUSH1 0x40 MSTORE POP POP POP JUMP JUMPDEST PUSH1 0x0 PUSH2 0x2DD1 DUP3 PUSH2 0x2D1F JUMP JUMPDEST SWAP2 POP PUSH32 0xFFFFFFFFFFFFFFFFFFFFFFFFFFFFFFFFFFFFFFFFFFFFFFFFFFFFFFFFFFFFFFFF DUP3 EQ ISZERO PUSH2 0x2E04 JUMPI PUSH2 0x2E03 PUSH2 0x2E0F JUMP JUMPDEST JUMPDEST PUSH1 0x1 DUP3 ADD SWAP1 POP SWAP2 SWAP1 POP JUMP JUMPDEST PUSH32 0x4E487B7100000000000000000000000000000000000000000000000000000000 PUSH1 0x0 MSTORE PUSH1 0x11 PUSH1 0x4 MSTORE PUSH1 0x24 PUSH1 0x0 REVERT JUMPDEST PUSH32 0x4E487B7100000000000000000000000000000000000000000000000000000000 PUSH1 0x0 MSTORE PUSH1 0x32 PUSH1 0x4 MSTORE PUSH1 0x24 PUSH1 0x0 REVERT JUMPDEST PUSH32 0x4E487B7100000000000000000000000000000000000000000000000000000000 PUSH1 0x0 MSTORE PUSH1 0x41 PUSH1 0x4 MSTORE PUSH1 0x24 PUSH1 0x0 REVERT JUMPDEST PUSH1 0x0 DUP1 REVERT JUMPDEST PUSH1 0x0 DUP1 REVERT JUMPDEST PUSH1 0x0 DUP1 REVERT JUMPDEST PUSH1 0x0 DUP1 REVERT JUMPDEST PUSH1 0x0 DUP1 REVERT JUMPDEST PUSH1 0x0 DUP1 REVERT JUMPDEST PUSH1 0x0 DUP1 REVERT JUMPDEST PUSH1 0x0 DUP1 REVERT JUMPDEST PUSH1 0x0 DUP1 REVERT JUMPDEST PUSH1 0x0 DUP1 REVERT JUMPDEST PUSH1 0x0 DUP1 REVERT JUMPDEST PUSH1 0x0 DUP1 REVERT JUMPDEST PUSH1 0x0 DUP1 REVERT JUMPDEST PUSH1 0x0 PUSH1 0x1F NOT PUSH1 0x1F DUP4 ADD AND SWAP1 POP SWAP2 SWAP1 POP JUMP JUMPDEST PUSH32 0x537472696E67733A20686578206C656E67746820696E73756666696369656E74 PUSH1 0x0 DUP3 ADD MSTORE POP JUMP JUMPDEST PUSH32 0x54696D656C6F636B436F6E74726F6C6C65723A206D697373696E672064657065 PUSH1 0x0 DUP3 ADD MSTORE PUSH32 0x6E64656E63790000000000000000000000000000000000000000000000000000 PUSH1 0x20 DUP3 ADD MSTORE POP JUMP JUMPDEST PUSH32 0x54696D656C6F636B436F6E74726F6C6C65723A206C656E677468206D69736D61 PUSH1 0x0 DUP3 ADD MSTORE PUSH32 0x7463680000000000000000000000000000000000000000000000000000000000 PUSH1 0x20 DUP3 ADD MSTORE POP JUMP JUMPDEST PUSH32 0x54696D656C6F636B436F6E74726F6C6C65723A20696E73756666696369656E74 PUSH1 0x0 DUP3 ADD MSTORE PUSH32 0x2064656C61790000000000000000000000000000000000000000000000000000 PUSH1 0x20 DUP3 ADD MSTORE POP JUMP JUMPDEST PUSH32 0x54696D656C6F636B436F6E74726F6C6C65723A206F7065726174696F6E20616C PUSH1 0x0 DUP3 ADD MSTORE PUSH32 0x7265616479207363686564756C65640000000000000000000000000000000000 PUSH1 0x20 DUP3 ADD MSTORE POP JUMP JUMPDEST PUSH32 0x54696D656C6F636B436F6E74726F6C6C65723A206F7065726174696F6E206973 PUSH1 0x0 DUP3 ADD MSTORE PUSH32 0x206E6F7420726561647900000000000000000000000000000000000000000000 PUSH1 0x20 DUP3 ADD MSTORE POP JUMP JUMPDEST PUSH32 0x416363657373436F6E74726F6C3A206163636F756E7420000000000000000000 PUSH1 0x0 DUP3 ADD MSTORE POP JUMP JUMPDEST PUSH32 0x54696D656C6F636B436F6E74726F6C6C65723A206F7065726174696F6E206361 PUSH1 0x0 DUP3 ADD MSTORE PUSH32 0x6E6E6F742062652063616E63656C6C6564000000000000000000000000000000 PUSH1 0x20 DUP3 ADD MSTORE POP JUMP JUMPDEST PUSH32 0x206973206D697373696E6720726F6C6520000000000000000000000000000000 PUSH1 0x0 DUP3 ADD MSTORE POP JUMP JUMPDEST PUSH32 0x54696D656C6F636B436F6E74726F6C6C65723A2063616C6C6572206D75737420 PUSH1 0x0 DUP3 ADD MSTORE PUSH32 0x62652074696D656C6F636B000000000000000000000000000000000000000000 PUSH1 0x20 DUP3 ADD MSTORE POP JUMP JUMPDEST PUSH32 0x416363657373436F6E74726F6C3A2063616E206F6E6C792072656E6F756E6365 PUSH1 0x0 DUP3 ADD MSTORE PUSH32 0x20726F6C657320666F722073656C660000000000000000000000000000000000 PUSH1 0x20 DUP3 ADD MSTORE POP JUMP JUMPDEST PUSH32 0x54696D656C6F636B436F6E74726F6C6C65723A20756E6465726C79696E672074 PUSH1 0x0 DUP3 ADD MSTORE PUSH32 0x72616E73616374696F6E20726576657274656400000000000000000000000000 PUSH1 0x20 DUP3 ADD MSTORE POP JUMP JUMPDEST PUSH2 0x3239 DUP2 PUSH2 0x2CAB JUMP JUMPDEST DUP2 EQ PUSH2 0x3244 JUMPI PUSH1 0x0 DUP1 REVERT JUMPDEST POP JUMP JUMPDEST PUSH2 0x3250 DUP2 PUSH2 0x2CC9 JUMP JUMPDEST DUP2 EQ PUSH2 0x325B JUMPI PUSH1 0x0 DUP1 REVERT JUMPDEST POP JUMP JUMPDEST PUSH2 0x3267 DUP2 PUSH2 0x2CD3 JUMP JUMPDEST DUP2 EQ PUSH2 0x3272 JUMPI PUSH1 0x0 DUP1 REVERT JUMPDEST POP JUMP JUMPDEST PUSH2 0x327E DUP2 PUSH2 0x2D1F JUMP JUMPDEST DUP2 EQ PUSH2 0x3289 JUMPI PUSH1 0x0 DUP1 REVERT JUMPDEST POP JUMP INVALID LOG2 PUSH5 0x6970667358 0x22 SLT KECCAK256 PUSH14 0x9AB4B775314366B17EABD80B4EE7 0xD7 0xAB 0xC0 DELEGATECALL 0xFC MOD 0xDE PUSH32 0xBB2CB6B07F4F241B8C64736F6C63430008070033000000000000000000000000 "
				},
				"gasEstimates": {
					"creation": {
						"codeDepositCost": "2598800",
						"executionCost": "infinite",
						"totalCost": "infinite"
					},
					"external": {
						"CANCELLER_ROLE()": "418",
						"DEFAULT_ADMIN_ROLE()": "402",
						"EXECUTOR_ROLE()": "420",
						"PROPOSER_ROLE()": "419",
						"TIMELOCK_ADMIN_ROLE()": "375",
						"cancel(bytes32)": "infinite",
						"execute(address,uint256,bytes,bytes32,bytes32)": "infinite",
						"executeBatch(address[],uint256[],bytes[],bytes32,bytes32)": "infinite",
						"getMinDelay()": "2547",
						"getRoleAdmin(bytes32)": "infinite",
						"getTimestamp(bytes32)": "2869",
						"grantRole(bytes32,address)": "infinite",
						"hasRole(bytes32,address)": "3185",
						"hashOperation(address,uint256,bytes,bytes32,bytes32)": "infinite",
						"hashOperationBatch(address[],uint256[],bytes[],bytes32,bytes32)": "infinite",
						"isOperation(bytes32)": "2880",
						"isOperationDone(bytes32)": "2903",
						"isOperationPending(bytes32)": "2924",
						"isOperationReady(bytes32)": "2971",
						"onERC1155BatchReceived(address,address,uint256[],uint256[],bytes)": "infinite",
						"onERC1155Received(address,address,uint256,uint256,bytes)": "infinite",
						"onERC721Received(address,address,uint256,bytes)": "infinite",
						"renounceRole(bytes32,address)": "infinite",
						"revokeRole(bytes32,address)": "infinite",
						"schedule(address,uint256,bytes,bytes32,bytes32,uint256)": "infinite",
						"scheduleBatch(address[],uint256[],bytes[],bytes32,bytes32,uint256)": "infinite",
						"supportsInterface(bytes4)": "885",
						"updateDelay(uint256)": "infinite"
					},
					"internal": {
						"_afterCall(bytes32)": "infinite",
						"_beforeCall(bytes32,bytes32)": "infinite",
						"_execute(address,uint256,bytes calldata)": "infinite",
						"_schedule(bytes32,uint256)": "infinite"
					}
				},
				"methodIdentifiers": {
					"CANCELLER_ROLE()": "b08e51c0",
					"DEFAULT_ADMIN_ROLE()": "a217fddf",
					"EXECUTOR_ROLE()": "07bd0265",
					"PROPOSER_ROLE()": "8f61f4f5",
					"TIMELOCK_ADMIN_ROLE()": "0d3cf6fc",
					"cancel(bytes32)": "c4d252f5",
					"execute(address,uint256,bytes,bytes32,bytes32)": "134008d3",
					"executeBatch(address[],uint256[],bytes[],bytes32,bytes32)": "e38335e5",
					"getMinDelay()": "f27a0c92",
					"getRoleAdmin(bytes32)": "248a9ca3",
					"getTimestamp(bytes32)": "d45c4435",
					"grantRole(bytes32,address)": "2f2ff15d",
					"hasRole(bytes32,address)": "91d14854",
					"hashOperation(address,uint256,bytes,bytes32,bytes32)": "8065657f",
					"hashOperationBatch(address[],uint256[],bytes[],bytes32,bytes32)": "b1c5f427",
					"isOperation(bytes32)": "31d50750",
					"isOperationDone(bytes32)": "2ab0f529",
					"isOperationPending(bytes32)": "584b153e",
					"isOperationReady(bytes32)": "13bc9f20",
					"onERC1155BatchReceived(address,address,uint256[],uint256[],bytes)": "bc197c81",
					"onERC1155Received(address,address,uint256,uint256,bytes)": "f23a6e61",
					"onERC721Received(address,address,uint256,bytes)": "150b7a02",
					"renounceRole(bytes32,address)": "36568abe",
					"revokeRole(bytes32,address)": "d547741f",
					"schedule(address,uint256,bytes,bytes32,bytes32,uint256)": "01d5062a",
					"scheduleBatch(address[],uint256[],bytes[],bytes32,bytes32,uint256)": "8f2a0bb0",
					"supportsInterface(bytes4)": "01ffc9a7",
					"updateDelay(uint256)": "64d62353"
				}
			},
			"storageLayout": {
				"storage": [
					{
						"astId": 24,
						"contract": "@openzeppelin/contracts/governance/TimelockController.sol:TimelockController",
						"label": "_roles",
						"offset": 0,
						"slot": "0",
						"type": "t_mapping(t_bytes32,t_struct(RoleData)19_storage)"
					},
					{
						"astId": 435,
						"contract": "@openzeppelin/contracts/governance/TimelockController.sol:TimelockController",
						"label": "_timestamps",
						"offset": 0,
						"slot": "1",
						"type": "t_mapping(t_bytes32,t_uint256)"
					},
					{
						"astId": 437,
						"contract": "@openzeppelin/contracts/governance/TimelockController.sol:TimelockController",
						"label": "_minDelay",
						"offset": 0,
						"slot": "2",
						"type": "t_uint256"
					}
				],
				"types": {
					"t_address": {
						"encoding": "inplace",
						"label": "address",
						"numberOfBytes": "20"
					},
					"t_bool": {
						"encoding": "inplace",
						"label": "bool",
						"numberOfBytes": "1"
					},
					"t_bytes32": {
						"encoding": "inplace",
						"label": "bytes32",
						"numberOfBytes": "32"
					},
					"t_mapping(t_address,t_bool)": {
						"encoding": "mapping",
						"key": "t_address",
						"label": "mapping(address => bool)",
						"numberOfBytes": "32",
						"value": "t_bool"
					},
					"t_mapping(t_bytes32,t_struct(RoleData)19_storage)": {
						"encoding": "mapping",
						"key": "t_bytes32",
						"label": "mapping(bytes32 => struct AccessControl.RoleData)",
						"numberOfBytes": "32",
						"value": "t_struct(RoleData)19_storage"
					},
					"t_mapping(t_bytes32,t_uint256)": {
						"encoding": "mapping",
						"key": "t_bytes32",
						"label": "mapping(bytes32 => uint256)",
						"numberOfBytes": "32",
						"value": "t_uint256"
					},
					"t_struct(RoleData)19_storage": {
						"encoding": "inplace",
						"label": "struct AccessControl.RoleData",
						"members": [
							{
								"astId": 16,
								"contract": "@openzeppelin/contracts/governance/TimelockController.sol:TimelockController",
								"label": "members",
								"offset": 0,
								"slot": "0",
								"type": "t_mapping(t_address,t_bool)"
							},
							{
								"astId": 18,
								"contract": "@openzeppelin/contracts/governance/TimelockController.sol:TimelockController",
								"label": "adminRole",
								"offset": 0,
								"slot": "1",
								"type": "t_bytes32"
							}
						],
						"numberOfBytes": "64"
					},
					"t_uint256": {
						"encoding": "inplace",
						"label": "uint256",
						"numberOfBytes": "32"
					}
				}
			},
			"userdoc": {
				"kind": "user",
				"methods": {},
				"version": 1
			}
		}
	}
}